:020000040800F2
:100000002846012081020008890200088B020008AE
:100010008D0200088F020008910200080000000015
:100020000000000000000000000000009302000833
:1000300095020008000000009702000899020008DD
:100040009B0200089B0200089B0200089B0200081C
:100050009B0200089B020008C11200089B020008D6
:10006000FD1200083D1300087D1300089B020008E4
:100070009B0200089B0200089B0200089B020008EC
:100080009B0200089B0200089B0200089B020008DC
:10009000690B00089B0200089B0200089B020008F5
:1000A0009B020008253900089B0200089B020008FB
:1000B0003D390008813900089B0200089B020008B6
:1000C0009B0200089B0200089B0200089B0200089C
:1000D0009B020008ED530008A9540008D9540008F9
:1000E0009B020008293200089B0200089B020008BE
:1000F000C93900089B0200089B0200089B02000807
:100100009B0200089B0200089B0200089B0200085B
:100110009B0200089B0200089B0200089B0200084B
:100120009B0200089B0200089B0200089B0200083B
:100130009B0200089B0200089B0200089B0200082B
:100140009B0200089B0200089B0200089B0200081B
:100150009B0200089B0200089B0200089B0200080B
:100160009B0200089B0200089B0200089B020008FB
:100170009B0200089B0200089B0200089B020008EB
:100180009B0200089B02000800F002F800F068F8EB
:100190000AA090E8000C82448344AAF10107DA45E2
:1001A00001D100F05DF8AFF2090EBAE80F0013F0CC
:1001B000010F18BFFB1A43F0010318479496000083
:1001C000B49600000A444FF0000C10F8013B13F005
:1001D000070408BF10F8014B1D1108BF10F8015BA0
:1001E000641E05D010F8016B641E01F8016BF9D193
:1001F00013F0080F1EBF10F8014BAD1C0C1B09D1EA
:100200006D1E58BF01F801CBFAD505E014F8016B5B
:1002100001F8016B6D1EF9D59142D6D370470000ED
:100220000023002400250026103A28BF78C1FBD8FF
:10023000520728BF30C148BF0B607047642900F0E7
:10024000F180782900F02A81002070471FB507F05F
:100250005CF89DE8030000F077FA1FBD10B510BDF3
:1002600000F069FB1146FFF7F1FF05F0BBFE00F05F
:1002700087FB03B4FFF7F2FF03BC05F0D7FA0000D9
:100280000948804709480047FEE7FEE7FEE7FEE72A
:10029000FEE7FEE7FEE7FEE7FEE7FEE70448054966
:1002A000054A064B70470000BD3800088901000868
:1002B00028060020284601202806012028060120C3
:1002C000704770B5064600F023FA056806F10B008A
:1002D00020F00704B4429CBF002070BD2B466A6822
:1002E000BAB11068A04210D304F1080188423CBFA3
:1002F0005068586007D35168101941601168091B94
:10030000016058601460101D70BD13465268002AC9
:10031000E7D12146284600F003FA0028DED170BD5F
:1003200070B50446051F00F0F3F90068002C14BFF7
:10033000446870BD002C18BFAC423CBF20466468C6
:10034000F8D301680A18AA4218BF456003D12A6889
:1003500005461144016028684119A1421CBF6C6028
:1003600070BD6168696021680844286070BD000044
:100370000FB4044910B503AA029800F09DFA10BC0E
:100380005DF814FB300000200FB41CB5074B06AA23
:100390007B4469460090059800F075FA0020694694
:1003A00000F084FA1CBC5DF814FB00001905000085
:1003B00070B5044685690068C10601D5302600E0A5
:1003C0002026C00707D070BDD4E9012130469047F0
:1003D000206A401C20626D1EF6D570BD70B50446C3
:1003E00085690078C00707D170BDD4E901212020BC
:1003F0009047206A401C20626D1EF6D570BD0968CA
:100400004A0501D540B27047C905FCD500B2704716
:1004100009684A0501D5C0B27047C905FCD580B24C
:10042000704700002DE9F041064600241068752948
:10043000314616A510D0FFF7E2FF002802DA40424D
:1004400013A507E031688A0701D512A502E0490724
:1004500004D511A5012401E0FFF7DAFF00210A22EB
:1004600006F1240709E0B0FBF2FCB0FBF2F302FB5B
:100470001C00303078541846491C0028F3D123461C
:100480002A463046BDE8F04100F09FB90000000068
:100490002D0000002B0000002000000070B5044675
:1004A0000D4621461068FFF7B3FF2188090502D5E4
:1004B0000F4A7A4402E00E4A7A440E32002104F1D7
:1004C000240305E000F00F060009965D5E54491C08
:1004D0000028F7D120780023000704D5702D02D022
:1004E00009B1022311322046BDE8704000F06DB919
:1004F0002E9200002DE9F05F894604464FF0000A75
:10050000DFF874B1FB44C0F820A02046E1688847BA
:10051000002874D0252806D0D4E901219047206A0C
:10052000401C2062F1E700265F462046E1688847CC
:100530002028054607DB312D05D2781910F8200C4C
:1005400008B10643F1E7B00701D526F00406C4F868
:100550001CA00027C4F818A02A2D09D0284605F0B1
:1005600059F938B304EB8708303DC8F8185019E042
:1005700059F8041B204604EB87029161E168884723
:10058000012F054618D1E069002820DA26F0200660
:100590001DE0D8F8180000EB800005EB4000303873
:1005A000C8F818002046E1688847054605F032F98A
:1005B0000028EED1012F0AD02E2D08D12046E16867
:1005C00088477F1C0546022F46F02006C4DBA06941
:1005D000002803DA404246F00106A061F00701D08E
:1005E00026F010066C2D0BD0682D09D04C2D39D07B
:1005F0006A2D35D0742D35D07A2D33D016E038E001
:10060000E1682F4620468847B842054609D16C2F3D
:1006100026D04FF48060E1680643204688470546AF
:1006200004E06C2F1AD04FF4807006430DB3A5F18F
:100630004100192802D8203546F400664A4629466A
:10064000204626604E46FFF7F9FD80B101280BD009
:10065000F61D26F0070000F1080956E74020E4E700
:100660008020D8E70020D6E706F104094DE72846A8
:1006700052E7206ABDE8F09F0492000010B5431CC9
:1006800002E010F8011B71B18107FAD14FF001327D
:1006900002C88C1A8C4314EAC211F9D0C01A0A0697
:1006A00003D0C01E10BDC01A10BD0A0401D0801EA8
:1006B00010BD0902FCD0401E10BD4FF0000200B575
:1006C000134694469646203922BFA0E80C50A0E875
:1006D0000C50B1F12001BFF4F7AF090728BFA0E823
:1006E0000C5048BF0CC05DF804EB890028BF40F8EF
:1006F000042B08BF704748BF20F8022B11F0804F31
:1007000018BF00F8012B7047704770477047000012
:1007100000487047D0050020704770477047704709
:1007200038B504460A4600206946AFF30080002829
:1007300008BF38BD02460099204600F0D7F80120D6
:1007400038BD012000F0F0B8F8B5AFF300800546E1
:1007500000200C46102000BF0646A819A0420DD963
:10076000324669460020AFF30080070008BF00F062
:10077000DBF80098A04218BF0546C419FFF7C8FF70
:1007800005600746F01D20F007004619284600F0D6
:100790000AF8B44208BFF8BDA21B31463868BDE86C
:1007A000F84000F0A3B800210160C0E901107047D3
:1007B0001020704710B500F095F8006810BD10B516
:1007C000044600F08FF8046010BD2DE9F0470D4697
:1007D00099469246044600F124080168880604D52B
:1007E000E06921F01001216000E00120A84201DD54
:1007F000471B00E00027A1697A1902EB0900081ADB
:10080000A0612078C00602D42046FFF7D1FD002663
:1008100008E0D4E901211AF806009047206A401C3C
:10082000761C20624E45F4DB2078C0060AD52046AF
:10083000FFF7BEFD06E0D4E9012130209047206A91
:10084000401C2062381EA7F10107F4DC07E0D4E960
:10085000012118F805009047206A401C2062281EDC
:10086000A5F10105F3DC2046FFF7B8FD207800066E
:1008700002D50220BDE8F0870120FBE701694A1C90
:1008800002610878704700B58FB0CDE901310021D1
:10089000059105497944CDE9031011466846FFF7F3
:1008A00029FE0FB000BD0000E5FFFFFF0A6802F857
:1008B000010B0A6070470000074B70B50D467B4482
:1008C000FFF7E1FF0446284600F02AF810B14FF088
:1008D000FF3070BD204670BDEF54000000487047E7
:1008E000C805002000487047C8050020034640683E
:1008F0008C46002818BF88423CBF03464068F8D3A6
:1009000018681844884207D00CF1030020F0070053
:10091000001D411A521A0146081D0A60FFF700BD6A
:10092000007B00F08000704710B500F035F8BDE89E
:10093000104000F02BB87546FFF7D0FFAE4605001B
:100940006946534620F00700854618B020B5FFF7EA
:10095000A5FCBDE820404FF000064FF000074FF027
:1009600000084FF0000B21F00701AC46ACE8C009CD
:10097000ACE8C009ACE8C009ACE8C0098D467047D6
:100980000446AFF300802046FFF773FC002801D037
:1009900004F04CBF7047000010B5012805D00021BD
:1009A00003A000F021F8012010BD09A1F8E7000024
:1009B00053494752544D454D3A204F7574206F6648
:1009C0002068656170206D656D6F727900000000B0
:1009D0003A2048656170206D656D6F727920636F94
:1009E000727275707465640070B505460C460A2015
:1009F00000E06D1C04F01CFF35B128780028F8D108
:100A000002E0641C04F014FF14B120780028F8D12F
:100A1000BDE870400A2004F00BBF10B501F040FAA9
:100A200010BD2DE9F04107460C460026002509E0DF
:100A300036023919491B491E88B200F008F80644ED
:100A4000681CC5B2A542F3DB3046BDE8F08170B545
:100A50000446002601F0E6FA2546E11704EB116191
:100A60000912A02202EB4101C8B201F0A3FA01F081
:100A70002FFBE11704EB11610912A4EB0121C8B2AD
:100A800001F098FA01F024FB01F0CCFAA12001F06A
:100A900091FA01F01DFB002001F054FA064601F026
:100AA000EDFA304670BD2DE9F04105460E46174679
:100AB000002409E0E20026FA02F2D1B22A1990B22B
:100AC00000F006F8601CC4B2BC42F3DBBDE8F08164
:100AD00070B504460E4601F0A5FAE11704EB11616A
:100AE0000912A02202EB4101C8B201F063FA01F041
:100AF000EFFAE11704EB11610912A4EB0121C8B26E
:100B000001F058FA01F0E4FA304601F053FA01F02E
:100B1000DFFA01F0B3FA0A204FF0E021096921F071
:100B200001014FF0E022116145F2082110FB01F1B3
:100B3000491E5161002191611146096941F001018D
:100B4000116100BF00BF4FF0E021096901F480315D
:100B50000029F8D04FF0E021096921F001014FF0A0
:100B6000E022116100BF70BD10B502211F4800F0E6
:100B7000C3F8012838D11E4A00211C4800F04CF966
:100B80001B48007AB0B91A48827A016819A0FFF7A9
:100B9000EFFB002406E016480B30015D1FA0FFF7B5
:100BA000E7FB641C1248807AA042F4DC1DA0FFF72A
:100BB000DFFB15E00E48827A41681BA0FFF7D8FBE7
:100BC000002406E00A480B30015D14A0FFF7D0FBBB
:100BD000641C0748807AA042F4DC12A0FFF7C8FB2F
:100BE0000221024800F034F810BD0000006400400B
:100BF000A40500205374616E6461726420467261C2
:100C00006D653A204944203D203078253033582CFA
:100C100020444C43203D2025640A000030782530D4
:100C2000325820000D0A0000457874656E646564D2
:100C3000204672616D653A204944203D2030782578
:100C40003038582C20444C43203D2025640A0000B5
:100C5000B1F5007F3AD00FDC202928D006DC01292D
:100C60001CD004291DD0082940D11DE0402921D0E5
:100C7000B1F5807F3AD126E0B1F5004F31D006DCE6
:100C8000B1F5806F25D0B1F5006F2FD124E0B1F51B
:100C9000803F12D0B1F5003F28D111E0154A8260A3
:100CA00025E00822C26022E01022C2601FE0082274
:100CB00002611CE01022026119E00822426016E085
:100CC0001022426013E00422426010E004224260DD
:100CD0000DE0042242600AE00022826104224260A8
:100CE00005E0002282610422426000E000BF00BFF4
:100CF000704700000101010070B504460D46002652
:100D000060692840002871D0B5F5807F5CD010DC88
:100D1000082D35D006DC012D20D0022D24D0042D45
:100D200072D127E0102D31D0202D35D0402D6BD140
:100D300038E0B5F5004F60D009DCB5F5007F49D04B
:100D4000B5F5806F4CD0B5F5006F5DD14FE0B5F5CE
:100D5000803F2DD0B5F5003F56D12FE0A0682D493A
:100D600000F0B6F9064651E0E068032100F0B0F962
:100D700006464BE0E068082100F0AAF9064645E087
:100D8000E068102100F0A4F906463FE02069032145
:100D900000F09EF9064639E02069082100F098F934
:100DA000064633E02069102100F092F906462DE056
:100DB0006068082100F08CF9064627E06068102181
:100DC00000F086F9064621E0A069012100F080F9D3
:100DD00006461BE0A069022100F07AF9064615E0FC
:100DE000A069042100F074F906460FE00FE0A06945
:100DF000702100F06DF9064608E06068042100F0FB
:100E000067F9064602E0FFE7002600BF00E0002683
:100E1000304670BD0101010010B500F5D87303EB39
:100E200001131B6803F004031372137A53B900F51E
:100E3000D87303EB01131B6840F2FF7404EA5353A9
:100E4000136009E000F5D87303EB01131B686FF022
:100E5000604404EAD303536000F5D87303EB011335
:100E60001B6803F00203537200F5D87303EB011300
:100E70005B6803F00F03937200F5D87303EB011363
:100E80005B681B0AD37400F5D87303EB01139B68EE
:100E9000D37200F5D87303EB01139B681C0A14731B
:100EA00000F5D87303EB01139B681C0C547300F519
:100EB000D87303EB01139B681B0E937300F5D87373
:100EC00003EB0113DB68D37300F5D87303EB011355
:100ED000DB681C0A147400F5D87303EB0113DB689C
:100EE0001C0C547400F5D87303EB0113DB681B0E64
:100EF000937421B9C36843F02003C36003E003691E
:100F000043F02003036110BD10B502460020936832
:100F100003F08063B3F1806F00D110E0936803F0B9
:100F20000063B3F1006F01D1012008E0936803F082
:100F30008053B3F1805F01D1022000E00420042837
:100F400074D002F5C07303EB00131B6803F00104B7
:100F500002F5C07303EB00131C600B7A7BB94B7A6C
:100F60000C8843EA445302F5C07404EB001424686F
:100F7000234302F5C07404EB0014236010E00B7AE5
:100F80004C6843EAC4034C7A234302F5C07404EB73
:100F900000142468234302F5C07404EB001423609A
:100FA0008B7A03F00F038B7202F5C07303EB00130F
:100FB0005B6823F00F0402F5C07303EB00135C6061
:100FC00002F5C07303EB00135B688C7A234302F5D0
:100FD000C07404EB001463608B7B1C064B7B44EAFB
:100FE00003440B7B44EA0323CC7A234302F5C07409
:100FF00004EB0014A3608B7C1C064B7C44EA034486
:101000000B7C44EA0323CC7B234302F5C07404EB3E
:101010000014E36002F5C07303EB00131B6843F098
:10102000010402F5C07303EB00131C6010BD000047
:1010300010B50246002321B1012907D002290FD1A2
:1010400009E090681D4C00EA04030BE090681C4C1A
:1010500000EA040306E090681A4C00EA040301E089
:10106000002300BF00BF184C181BA34216D007DC9A
:1010700083B16FF08060184470B1022818D111E07C
:10108000B0F5007F10D0114C204448B1B0F5003FBE
:101090000ED10BE002230DE000230BE0002309E05A
:1010A000002307E0012305E0012303E0012301E021
:1010B000002300BF00BFD8B210BD00000300000431
:1010C0000003000800000310000100080001FFF702
:1010D0000246002002EA01030BB1012000E00020DB
:1010E000704700000EB51EA000F082F8002010210D
:1010F00020A24FF6E073CDE9002102901F221E21AD
:101100000A2002F041FB0020102123A24FF6E073D9
:10111000CDE9002102901F2232210A2002F034FB87
:101120000120182122A24FF6E073CDE900210290A0
:101130001F2246210A2002F027FB0120202122A2A3
:101140004FF6E073CDE9002102901F2264210A20AE
:1011500002F01AFB4FF4966004F000FD0EBD000093
:10116000B2E2CAD4373AD6D0CEC4CFD4CABEB2E2E5
:10117000CAD4000031365831363AC8ABB6AFB5E7FD
:10118000D7D3BCBCCAF5D3D0CFDEB9ABCBBEBBB6D0
:10119000D3ADC4FA0000000031365831363A5765F5
:1011A0006C636F6D65C8ABB6AFB5E7D7D300000011
:1011B00032345832343AC9EEDBDACAD0D6D0CEC493
:1011C000B2E2CAD40000000033325833323AD7D6E4
:1011D000CCE5B2E2CAD4000010B5034603F0F80033
:1011E000000201F0FC0440EAC40040EAD20010BD55
:1011F0003EB504464FF6FF7001F026F81F20009020
:101200001948028814230021084601F0D5F81F2050
:1012100000901548438802884088143881B2002025
:1012200001F0CAF84FF6FF70104908800120102124
:101230001F234FF6FF72CDE90041029002210020EA
:1012400000F0E2FD0120102109A2CDE90021029069
:1012500005484088123881B21F234FF6FF720020E4
:1012600000F0D2FD3EBD0000B805002014010020B2
:10127000687474703A2F2F7777772E6C6364776970
:101280006B692E636F6D00002DE9F04704460D4633
:1012900016461F46DDE908893B4632462946204668
:1012A00001F004F84B4642463946304600F0FEFF56
:1012B0002B4622464946404600F0F8FFBDE8F0873D
:1012C00010B5012000F080F801280ED10749087000
:1012D00000200749087007490870074908709620E0
:1012E00004F0F2FB012000F069F810BD00000020BE
:1012F00001000020020000200300002010B504209F
:1013000000F062F8012810D100200849087001207F
:10131000074908700020074908700749087096209F
:1013200004F0D2FB042000F049F810BD00000020BA
:1013300001000020020000200300002010B508205A
:1013400000F042F8012810D100200849087008492F
:10135000087001200749087000200749087096208E
:1013600004F0B2FB082000F029F810BD00000020B6
:1013700001000020020000200300002010B5102012
:1013800000F022F801280FD1002008490870084910
:10139000087008490870012007490870962004F079
:1013A00093FB102000F00AF810BD000000000020A0
:1013B0000100002002000020030000200149086015
:1013C00070470000143C014001460020034A1268A7
:1013D0000A400AB1012000E000207047143C01409F
:1013E0000EB52BA0FFF704FF00200C212DA24FF615
:1013F000E073CDE9002102901F221E210A2002F095
:10140000C3F901200C2132A24FF6E073CDE900218F
:1014100002901F222D210A2002F0B6F900200C2193
:1014200036A24FF6E073CDE9002102901F223C2145
:101430000A2002F0A9F90020102138A24FF6E0732B
:10144000CDE9002102901F2250210A2002F09CF9D0
:10145000012010213CA24FF6E073CDE9002102905B
:101460001F2264210A2002F08FF90020102141A2DE
:101470004FF6E073CDE9002102901F2278210A2067
:1014800002F082F94FF4966004F068FB0EBD000094
:10149000B2E2CAD4363AD3A2CEC4CFD4CABEB2E2E4
:1014A000CAD40000365831323A61626364656667B7
:1014B00068696A6B6C6D6E6F707172737475767734
:1014C00078797A30313233343536373839000000A4
:1014D000365831323A4142434445464748494A4BDF
:1014E0004C4D4E4F505152535455565758595A30EF
:1014F000313233343536373839000000365831321E
:101500003A7E21402324255E262A28295F2B7B7DD5
:101510003A3C3E3F2F7C2D2B2E00000038583136B0
:101520003A6162636465666768696A6B6C6D6E6F69
:10153000707172737475767778797A3031323334AA
:101540003536373839000000385831363A41424391
:101550004445464748494A4B4C4D4E4F50515253D3
:101560005455565758595A30313233343536373846
:1015700039000000385831363A7E21402324255E58
:10158000262A28295F2B7B7D3A3C3E3F2F7C2D2B42
:101590002E0000002DE9F0410746884616461D46FC
:1015A0000C20FEF78EFE044624B910A005F006FAC2
:1015B000BDE8F0812760C4F804800020A0602EB14F
:1015C000306818B915B134602C600CE046B1306851
:1015D00030B12DB1286818B1286884602C6002E011
:1015E00009A005F0EBF900BFE2E700004576656E63
:1015F000745F507573683A206D616C6C6F63206620
:1016000061696C65640A00004576656E745F5075AB
:1016100073683A206576656E745F717565756520CF
:101620006F72206576656E745F71756575655F7440
:1016300061696C206973204E554C4C0A0000000013
:1016400051B18200A2F1C042126842F0010382004F
:10165000A2F1C042136009E08200A2F1C042126808
:10166000034B1A408300A3F1C0431A607047000087
:10167000FEFF0F00D0E901121143C2681143026955
:1016800011434269114382691143C2691143026ADD
:101690001143426A1143826A1143C26A1143026BC9
:1016A000114302689200A2F1C042116081680829CA
:1016B0000BD101688900A1F1C041096841F04002E5
:1016C00001688900A1F1C0410A60416B0968426B61
:1016D000526841EA0211426B926841EA0221426B70
:1016E000928941EA0241426B128A41EA0251426BFD
:1016F000127D41EA0261426B926911430268521CF9
:101700009200A2F1C0421160C16AB1F5804F1BD1B5
:10171000816B0968826B526841EA0211826B9268A0
:1017200041EA0221826B128A41EA0251826B127DE8
:1017300041EA0261826B9269114302689200A2F150
:10174000C042C2F8041107E06FF0704201688900DE
:10175000A1F1C041C1F80421704700002DE9FF4FFD
:1017600085B000260027BDF81800BDF8201088427B
:1017700007DD08A906A804F054F807A905A804F095
:1017800050F8BDF82000BDF84C10884207DD08A9CC
:1017900013A804F046F807A912A804F042F8BDF80F
:1017A0001800BDF82010884207DD08A906A804F03B
:1017B00038F807A905A804F034F8BDF81800BDF8FA
:1017C0004C10884238D1BDF8140003900490BDF845
:1017D0001C00BDF81010884203DABDF81C0004900C
:1017E00008E0BDF81C00BDF80C10884202DDBDF811
:1017F0001C000390BDF84800BDF81010884203DAC1
:10180000BDF84800049008E0BDF84800BDF80C1091
:10181000884202DDBDF848000390534800880090DC
:10182000BDF81830BDF80C201946BDF8100000F0C6
:10183000C3FD09B0BDE8F08FBDF81C00BDF8141061
:10184000A0EB010BBDF82000BDF81810401A029063
:10185000BDF84800BDF81410451ABDF84C00BDF89D
:101860001810A0EB0109BDF84800BDF81C10A0EB52
:10187000010ABDF84C00BDF82010401A0190BDF8D7
:101880002000BDF84C10884202D1BDF8208004E051
:10189000BDF82000401E1FFA80F8BDF8184027E070
:1018A000029896FBF0F0BDF81410084480B2049042
:1018B00097FBF9F0BDF81410084480B203905E4421
:1018C0002F44BDF81000BDF80C10884203DD03A9B9
:1018D00004A803F0A6FF2448008823460090BDF822
:1018E0000C202146BDF8100000F066FD601C84B29B
:1018F0004445D5DDBDF82000201A00FB0AF6BDF8EE
:101900001800201A00FB05F727E0019896FBF0F07D
:10191000BDF81C10084480B2049097FBF9F0BDF8A4
:101920001410084480B2039056442F44BDF81000B0
:10193000BDF80C10884203DD03A904A803F071FF71
:101940000948008823460090BDF80C202146BDF8C8
:10195000100000F031FD601C84B2BDF84C008442E0
:10196000D3DD00BF65E7000014010020F0B50A4692
:1019700000210023002400BF3DE0012505FA01F30A
:10198000156805EA03049C4234D105684F0003261C
:10199000BE40B543056015794E00B5400668354335
:1019A00005601579012D02D01579022D16D18568B3
:1019B0004F000326BE40B543856055794E00B540C3
:1019C000866835438560456801268E40B54345608D
:1019D000456896798E40B6B235434560C5684F007C
:1019E0000326BE40B543C560D5794E00B540C668F4
:1019F0003543C560491C1029BFD3F0BDF0B50023A5
:101A000000244D07ED0E02FA05F3CE1000F120057B
:101A100055F826504E07F70E0F26BE40B543CF109F
:101A200000F1200646F82750CE1000F1200555F8A9
:101A3000265045EA0304CE1000F1200545F8264063
:101A4000F0BD0246002013690B400BB1012000E0FD
:101A50000020704741837047018370470AB10183BA
:101A600000E04183704700002DE9FC5F0546884691
:101A700091469A46DDF830B000954220019000244E
:101A80005FE004EB0410374911F810009BF80010D8
:101A9000884253D104EB0410324901EB40004078F6
:101AA0009BF80110884249D108F10F0083B205F17B
:101AB0000F0082B24146284600F066FF00263BE058
:101AC000002734E00D9890B904EB0410254901EB90
:101AD0004000801C805D80213941084018B1484693
:101AE00001F020F921E0504601F01CF91DE01E48EC
:101AF000A0F8009004EB04101A4901EB4000801C90
:101B0000805D80213941084018B14146284600F0E7
:101B100025FC681C85B20098281A102805D1009D64
:101B200008F101001FFA80F803E0781CC7B2082F03
:101B3000C8DB00BF701CC6B2202EC1DB00BF601C1A
:101B400084B2019884429CDB08484088401E83B2DE
:101B500006480088401E82B20021084600F014FFAB
:101B6000BDE8FC9F827D000814010020B80500201C
:101B70002DE9FC5F0546884691469A46DDF830B06F
:101B8000009507200190002467E004EB840000EB3F
:101B900044103A4911F810009BF80010884259D1BE
:101BA00004EB840000EB4410344901EB4000407822
:101BB0009BF8011088424DD108F1170083B205F15E
:101BC000170082B24146284600F0DEFE00263FE0C4
:101BD000002738E00D98A0B904EB840000EB441016
:101BE000264901EB4000801C805D8021394108407E
:101BF00018B1484601F096F823E0504601F092F8FB
:101C00001FE01F48A0F8009004EB840000EB441094
:101C10001A4901EB4000801C805D80213941084059
:101C200018B14146284600F099FB681C85B200981F
:101C3000281A182805D1009D08F101001FFA80F824
:101C400003E0781CC7B2082FC4DB00BF701CC6B20B
:101C5000482EBDDB00BF601C84B20198844294DB37
:101C600008484088401E83B206480088401E82B261
:101C70000021084600F088FEBDE8FC9F468600086B
:101C800014010020B80500202DE9FC5F05468846B8
:101C900091469A46DDF830B000950420019000246A
:101CA0005FE004EB8410374911F810009BF8001036
:101CB000884253D104EB8410324901EB4000407854
:101CC0009BF80110884249D108F11F0083B205F149
:101CD0001F0082B24146284600F056FE00263BE037
:101CE000002734E00D9890B904EB8410254901EBEE
:101CF0004000801C805D80213941084018B1484671
:101D000001F010F821E0504601F00CF81DE01E48EB
:101D1000A0F8009004EB84101A4901EB4000801CED
:101D2000805D80213941084018B14146284600F0C5
:101D300015FB681C85B20098281A202805D1009D43
:101D400008F101001FFA80F803E0781CC7B2082FE1
:101D5000C8DB00BF701CC6B2802EC1DB00BF601C98
:101D600084B2019884429CDB08484088401E83B2BC
:101D700006480088401E82B20021084600F004FE9A
:101D8000BDE8FC9F4C88000814010020B805002025
:101D900070B505460E4614463146284600F0E9FD6A
:101DA000204600F0BFFF70BD2DE9F04706460F4604
:101DB000154607F1270083B206F1270082B23946A3
:101DC000304600F0E1FD00240AE015F8149005EB20
:101DD000440090F8018049EA082000F0A3FF641C49
:101DE000B4F5C86FF1DB07484088401E83B2054850
:101DF0000088401E82B20021084600F0C5FDBDE803
:101E0000F0870000B80500202DE9FE4F0E4617466A
:101E10009846DDE90D9A0C9C2046FEF72FFC85B212
:101E200008490988A1EBC50000EBD071C1F34F0B45
:101E300043463A46314658468DE8100601F0A4FC68
:101E4000BDE8FE8FB805002010B500224FF4807168
:101E50001248FFF703FE1148006820F440200F49A4
:101E600008600846006840F4802008600022491598
:101E70000A48FFF7F3FD022003F005FF01221102DB
:101E80000648FFF7EBFD022003F0FDFE00224FF4B1
:101E900080710248FFF7E2FD10BD0000000402401F
:101EA0001CB50121022001F0DBF84FF440700090D6
:101EB00001208DF8040000208DF8060003208DF825
:101EC000050001208DF8070069460748FFF74EFD21
:101ED000012211020448FFF7C1FD0122510202480C
:101EE000FFF7BCFD1CBD00000004024010B500223D
:101EF0004FF480711248FFF7B1FD1148006820F4DB
:101F000040200F4908600846006840F480200860BF
:101F1000012249150A48FFF7A1FD022003F0B3FE94
:101F2000012211020648FFF799FD022003F0ABFEE3
:101F300000224FF480710248FFF790FD10BD0000B1
:101F40000004024070B5054600241948006820F4DA
:101F500040201749086008460068086000261CE019
:101F600000224FF480711248FFF778FD022003F041
:101F70008AFE012211020E48FFF770FD6006040E72
:101F80004FF400710A48FFF75CFD08B1601CC4B251
:101F9000012003F078FE701CC6B2082EE0DB15B9F4
:101FA000FFF7A4FF01E0FFF74FFF204670BD0000E0
:101FB0000004024070B504461948006820F440202F
:101FC000174908600846006840F480200860002235
:101FD00089151348FFF742FD00251DE0E2094FF483
:101FE00000710F48FFF73AFD6006040E022003F06F
:101FF0004AFE012211020A48FFF730FD022003F0D9
:1020000042FE00224FF480710548FFF727FD0220B1
:1020100003F039FE681CC5B2082DDFDB70BD00007F
:102020000004024010B51448006820F44020124912
:1020300008600846006840F48020086001224915C5
:102040000D48FFF70BFD012211020B48FFF706FDBB
:10205000042003F018FE00224FF400710648FFF739
:10206000FDFC042003F00FFE00224FF480710248B3
:10207000FFF7F4FC10BD00000004024010B5134847
:10208000006820F44020114908600846006840F4C8
:1020900080200860002289150C48FFF7DFFC002231
:1020A0004FF400710948FFF7D9FC042003F0EBFD61
:1020B000012211020548FFF7D1FC01225102034819
:1020C000FFF7CCFC042003F0DEFD10BD000402404D
:1020D00010B500241848006820F440201649086014
:1020E000084600680860012249151348FFF7B6FC4E
:1020F000012003F0C8FD012211020F48FFF7AEFCDA
:10210000012003F0C0FD07E0601CC4B2FA2C03DD1F
:10211000FFF7B4FF012010BD4FF400710648FFF730
:1021200090FC0028F0D100224FF480710248FFF7A4
:1021300095FC0020EFE70000000402401CB50121DF
:10214000112000F08DFF1C20009000208DF804006D
:1021500003208DF8050001208DF807006946064828
:10216000FFF704FC0120009002208DF8070069466B
:102170000248FFF7FBFB1CBD0010024000000240BC
:1021800010B5044614B101202C4908702B48007882
:10219000002837D001212A48FFF753FC78B10421E9
:1021A0002848FFF74EFC50B108212648FFF749FCAC
:1021B00028B110212348FFF744FC012822D10A202E
:1021C00003F082FC00201D49087001211C48FFF724
:1021D00038FC08B9012010BD04211A48FFF731FC72
:1021E00008B90220F7E708211648FFF72AFC08B9CA
:1021F0000320F0E710211348FFF723FC01281BD12F
:102200000420E8E701210E48FFF71BFC012813D149
:1022100004210C48FFF715FC01280DD108210948BD
:10222000FFF70FFC012807D110210648FFF709FC32
:1022300010B90120014908700020CCE704000020FB
:10224000000002400010024070B504460C480088AF
:102250000B49498800FB01F609484088401E83B2BB
:1022600007480088401E82B20021084600F08CFB1F
:10227000002502E0034804806D1CB542FAD370BD0E
:10228000B80500208000006CF8B504460D461646DF
:102290001F46054800883B463246294600902046A6
:1022A00000F08AF8F8BD0000140100202DE9FF4F6E
:1022B00085B081468A460020049003900798A0EBE1
:1022C00009050898A0EB0A06CDF80890CDF804A0FF
:1022D000002D01DD012705E00DB9002702E04FF0D8
:1022E000FF376D42002E02DD4FF0010806E016B9FF
:1022F0004FF0000802E04FF0FF387642B54201DDB2
:102300002C4600E034464FF0000B21E0019A91B2D8
:10231000029A90B200F022F804982844049003989E
:10232000304403900498A04205DD0498001B0490FB
:102330000298384402900398A04205DD0398001BE0
:1023400003900198404401900BF101001FFA80FBBB
:10235000601C8345DADD09B0BDE8F08F30B5044676
:102360000D462946204600F004FB0248008800F094
:10237000D9FC30BD140100202DE9F04104460D4682
:1023800016461F462B46324629462046FFF78EFF4B
:102390003B46224629462046FFF788FF3B46324609
:1023A00039462046FFF782FF3B46324629463046F3
:1023B000FFF77CFFBDE8F0812DE9F05F04460D4694
:1023C00016461F46301B401C1FFA80FA781B401C23
:1023D0001FFA80FB3B4632462946204600F0D4FADD
:1023E0004FF000080FE04FF0000906E00A9800F0F7
:1023F00099FC09F101001FFA80F9D145F6DB08F1DB
:1024000001001FFA80F8D845EDDB07484088401EE0
:1024100083B205480088401E82B20021084600F0C1
:10242000B3FABDE8F09F0000B805002000B59FB0EA
:1024300001217A2000F014FE0121084600F020FE60
:102440004FF400401D9001208DF8780000208DF899
:102450007A0002208DF8790001208DF87B001DA9FB
:102460008448FFF783FA4CF233701D9002208DF8F8
:10247000780000208DF87A0003208DF87900012083
:102480008DF87B001DA97C48FFF770FA4FF680702D
:102490001D9002208DF8780000208DF87A0003202E
:1024A0008DF8790001208DF87B001DA97348FFF796
:1024B0005DFA4FF480501D9002208DF878000020C6
:1024C0008DF87A0003208DF8790001208DF87B00CB
:1024D0001DA96B48FFF74AFA4FF480501D90022067
:1024E0008DF8780000208DF87A0003208DF87900AF
:1024F00001208DF87B001DA96248FFF737FA0C22F6
:1025000000215D48FFF77AFA0C2201215A48FFF7B3
:1025100075FA0C2204215848FFF770FA0C220521A5
:102520005548FFF76BFA0C2208215348FFF766FA6B
:102530000C2209215048FFF761FA0C220A214E486B
:10254000FFF75CFA0C220E214B48FFF757FA0C22DA
:102550000F214948FFF752FA0C2207214748FFF79D
:102560004DFA0C2208214548FFF748FA0C220921B0
:102570004248FFF743FA0C220A214048FFF73EFA8F
:102580000C220B213D48FFF739FA0C2211463B483B
:10259000FFF734FA0C220D213848FFF72FFA0C22EE
:1025A0000E213648FFF72AFA0C220F213348FFF795
:1025B00025FA0C2211463248FFF720FA0C22114668
:1025C0003048FFF71BFA0F200790002008903C20AE
:1025D000099000200A900B900C900D90092000901B
:1025E00000200190082002900020039004900590A4
:1025F000069006200E9000200F9010901020119051
:102600000020129014901390159016904FF4805063
:102610001790002018904FF48040199000201A90D5
:1026200007A81B90CDF870D00EA8FFF723F8012162
:102630000620FFF705F81448006820F00F004FF05F
:102640002041C1F81C010846D0F81C0120F470603C
:10265000C1F81C010846D0F81C0140F00400C1F884
:102660001C010846D0F81C0140F44070C1F81C0160
:102670001FB000BD00040240000C024000100240E8
:1026800000140240001802401C0100A010B5FFF722
:10269000CDFE642003F0ACFACF2000F0C3FA002096
:1026A00000F0BAFAC92000F0B7FA302000F0B4FA0E
:1026B000ED2000F0B7FA642000F0AEFA032000F03D
:1026C000ABFA122000F0A8FA812000F0A5FAE82069
:1026D00000F0A8FA852000F09FFA102000F09CFA84
:1026E0007A2000F099FACB2000F09CFA392000F013
:1026F00093FA2C2000F090FA002000F08DFA34209C
:1027000000F08AFA022000F087FAF72000F08AFA37
:10271000202000F081FAEA2000F084FA002000F086
:102720007BFA002000F078FAC02000F07BFA1B2032
:1027300000F072FAC12000F075FA002000F06CFA87
:10274000C52000F06FFA302000F066FA302000F06B
:1027500063FAC72000F066FAB72000F05DFA362071
:1027600000F060FA082000F057FA3A2000F05AFA18
:10277000552000F051FAB12000F054FA002000F08A
:102780004BFA1A2000F048FAB62000F04BFA0A2063
:1027900000F042FAA22000F03FFAF22000F042FAE4
:1027A000002000F039FA262000F03CFA012000F069
:1027B00033FAE02000F036FA0F2000F02DFA2A203C
:1027C00000F02AFA282000F027FA082000F024FA66
:1027D0000E2000F021FA082000F01EFA542000F02C
:1027E0001BFAA92000F018FA432000F015FA0A207D
:1027F00000F012FA0F2000F00FFA002000F00CFA9F
:10280000002000F009FA002000F006FA002000F095
:1028100003FAE12000F006FA002000F0FDF915208F
:1028200000F0FAF9172000F0F7F9072000F0F4F9AA
:10283000112000F0F1F9062000F0EEF92B2000F055
:10284000EBF9562000F0E8F93C2000F0E5F905200E
:1028500000F0E2F9102000F0DFF90F2000F0DCF9C1
:102860003F2000F0D9F93F2000F0D6F90F2000F00A
:10287000D3F92B2000F0D6F9002000F0CDF900208C
:1028800000F0CAF9012000F0C7F93F2000F0C4F9B8
:102890002A2000F0C7F9002000F0BEF9002000F067
:1028A000BBF9002000F0B8F9EF2000F0B5F91120D5
:1028B00000F0B8F9782003F09BF9292000F0B2F974
:1028C000002000F0C7F90548006840F400400349C3
:1028D00008604FF6FF70FFF7B7FC10BD140402400C
:1028E00000B500F0FBF900BD70B504460D460A487E
:1028F0000088A04203DD08484088A84201DC00208F
:1029000070BD2946204600F034F800F007F800F0CA
:10291000EFF906463046F3E7B805002000B5024956
:10292000488900F07FF900BDB805002070B5064663
:102930000C461546304600F075F906E0FFF7D0FF6B
:1029400004F8010B642003F0C4F92800A5F1010587
:10295000F4D170BD08B50020009004226946D32050
:10296000FFF7E4FF9DF803009DF8021040EA012004
:1029700008BD30B504460D462B4622462946204662
:1029800000F002F830BD000030B504460D46114994
:10299000888900F047F9201200F03EF9E0B200F01B
:1029A0003BF9101200F038F9D0B200F035F90949BE
:1029B000C88900F037F9281200F02EF9E8B200F0CB
:1029C0002BF9181200F028F9D8B200F025F900F020
:1029D0002FF930BDB80500202DE9FF4F83B08146A7
:1029E0008A469346DDE91064404800880290A6F1CB
:1029F0002000C6B204EBD47009EB6000401E82B226
:102A00000AEB0400401E83B2514648460194FFF78A
:102A1000BBFF129850BB002525E00C2C07D106EB1C
:102A20004600334901EB800010F8058004E031488E
:102A300000EB061010F8058000270DE008F00100FB
:102A400018B1584600F06EF902E0069800F06AF9F5
:102A50004FEA6808781CC7B204EBD471B7EB610F7A
:102A6000ECDB681CC5B2A542D7DB2DE0002529E0D0
:102A70000C2C07D106EB46001D4901EB800010F835
:102A8000058004E01B4800EB061010F805800027C5
:102A900011E01648A0F800B008F0010038B10AEBC8
:102AA000050291B209EB070290B2FFF757FC4FEA1B
:102AB0006808781CC7B204EBD471B7EB610FE8DB90
:102AC000681CC5B2A542D3DB0849029808800A48B1
:102AD0004088401E83B208480088401E82B2002110
:102AE0000846FFF751FF07B0BDE8F08F1401002042
:102AF0001E73000892770008B80500202DE9FF4FEB
:102B000083B0074691461E46109C4FF0000A0025F0
:102B100043E0701B401EC1B20A2003F0F9FAB9FB72
:102B2000F0F00A21B0FBF1F201FB1208BAF1000F3C
:102B30001BD1701EA84218DDB8F1000F13D1002080
:102B40002021A346CDE90014029004EBDB7149106B
:102B500001FB057188B213490B8813490A8804994F
:102B6000FFF73AFF17E04FF0010A002108F13000AB
:102B7000C0B2A346CDE90141009004EBDB714910DE
:102B800001FB057188B207490B8807490A88049937
:102B9000FFF722FF00BF681CC5B2B542B9DB07B022
:102BA000BDE8F08F16010020140100202DE9FE433E
:102BB00006460F4615461C46DDF828801DE01348E2
:102BC0000088401EB04204DB10484088401EB842D6
:102BD00001DABDE8FE8320788DE821010C480388E6
:102BE0000C48028839463046FFF7F6FE284605EBCA
:102BF000D07106EB61018EB2641C20787E2802DC65
:102C000020782028DBDA00BFE3E70000B8050020C9
:102C1000160100201401002000BF01490880704700
:102C20008000006C00BF0149088070477E00006C86
:102C300000B502490889FFF7F5FF00BDB80500207F
:102C4000034A10804FF0D842A2F88010704700006D
:102C50007E00006C00B503462A201F4988812B2086
:102C6000C8812C2008812E20488133B1012B0FD040
:102C7000022B18D0032B2CD120E0F020164908801D
:102C80004FF4A070488008213620FFF7D9FF21E0DB
:102C90004FF4A07010490880F02048806821362049
:102CA000FFF7CEFF16E0F0200B4908804FF4A0702C
:102CB0004880D8213620FFF7C3FF0BE04FF4A07007
:102CC00005490880F0204880B8213620FFF7B8FF7A
:102CD00000E000BF00BF00BDB805002008B50348F4
:102CE00000880090BDF8000008BD00008000006C66
:102CF00070B5FFF7F5FD0446012002F0EAFFFFF78B
:102D0000EFFD0446012002F0E4FFFFF7E9FD054670
:102D10002E12E5B22412324629462046FEF75CFA0E
:102D200070BD000001490880704700008000006C01
:102D300070B504460D46192C70D2DFE804F00D146E
:102D40001B222930373E454C535A616870777E8587
:102D50008C939AA1A8AFB600594B5A4A29465A48B3
:102D6000FEF718FCA9E0564B564A29465748FEF78D
:102D700011FCA2E0524B534A29465548FEF70AFC83
:102D80009BE04F4B4F4A29465248FEF703FC94E024
:102D90004B4B4C4A29465048FEF7FCFB8DE0484B14
:102DA000484A29464D48FEF7F5FB86E0444B454A24
:102DB00029464B48FEF7EEFB7FE0414B414A29464E
:102DC0004848FEF7E7FB78E03D4B3E4A2946464837
:102DD000FEF7E0FB71E03A4B3A4A29464348FEF7DA
:102DE000D9FB6AE0364B374A29464148FEF7D2FB09
:102DF00063E0334B334A29463E48FEF7CBFB5CE0A9
:102E00002F4B304A29463C48FEF7C4FB55E02C4B7B
:102E10002C4A29463948FEF7BDFB4EE04CE0284BD2
:102E2000284A29463648FEF7B5FB46E0244B254A9A
:102E300029463448FEF7AEFB3FE0214B214A2946A4
:102E40003148FEF7A7FB38E01D4B1E4A29462F48A4
:102E5000FEF7A0FB31E01A4B1A4A29462C48FEF730
:102E600099FB2AE0164B174A29462A48FEF792FB9F
:102E700023E0134B134A29462748FEF78BFB1CE03F
:102E80000F4B104A29462548FEF784FB15E00C4BF2
:102E90000C4A29462248FEF77DFB0EE0084B094A02
:102EA00029462048FEF776FB07E0054B054A2946F0
:102EB0001D48FEF76FFB00E000BF00BF70BD0000C3
:102EC000400000203C000020A95A0008915F000843
:102ED0003D5F0008F9580008DD580008595D0008FA
:102EE0003D5D0008715D0008C5590008595A000889
:102EF000F95900081F5D00082D6500087D65000870
:102F0000BD650008ED6400086D6400082D640008CC
:102F1000AD640008BD6200084D6200082D63000822
:102F20008D630008DD630008C961000870B50021E9
:102F300000230F22C4781CB3174C246804F4E06407
:102F4000C4F5E064C4F30721C1F10404E3B20A410B
:102F500044789C40E1B28478144021430C07210E50
:102F60000E4C05786155047804F01F050124AC402F
:102F700005786D11AD0005F1E025C5F8004109E0C7
:102F8000047804F01F050124AC40054D0678761145
:102F900045F8264070BD00000CED00E000E400E0C4
:102FA00080E100E002490143024A116070470000DD
:102FB0000000FA050CED00E00149086270470000CE
:102FC00000000E420EB51FA0FEF712F9224A1E2184
:102FD0000846FEF7E9FE0120102120A24FF6E0731B
:102FE000CDE9002102901F224B212A2000F0CCFBCA
:102FF000194A1E215A20FEF7D7FE0120102117A2E0
:103000004FF6E073CDE9002102901F224B2166208C
:1030100000F0BAFB104A1E219620FEF7C5FE0120E3
:1030200010210EA24FF6E073CDE9002102901F227D
:103030004B21A22000F0A8FB4FF4966002F08EFD19
:103040000EBD0000B2E2CAD4383ACDBCC6ACCFD473
:10305000CABEB2E2CAD40000548A0008515100002E
:1030600029B1064A12680243044B1A6004E0034A7D
:1030700012688243014B1A607047000030380240EA
:1030800029B1064A12680243044B1A6004E0034A5D
:1030900012688243014B1A607047000038380240C2
:1030A00029B1064A12680243044B1A6004E0034A3D
:1030B00012688243014B1A60704700004438024096
:1030C000F0B5002100220024022500260223324F01
:1030D0003F6807F00C0121B1042905D0082937D138
:1030E00005E02E4F076036E02D4F076033E02A4F92
:1030F0003F1F3F68C7F38056274F3F1F3F6807F0C9
:103100003F036EB1264FB7FBF3F7DFF88CC0ACF18D
:10311000040CDCF800C0CCF3881C07FB0CF40CE0BA
:103120001E4FB7FBF3F7DFF870C0ACF1040CDCF80E
:1031300000C0CCF3881C07FB0CF4174F3F1F3F68FF
:10314000C7F301477F1C7D00B4FBF5F7076002E081
:10315000124F076000BF00BF0F4F3F6807F0F0013C
:103160000909104F7A5C0768D74047600A4F3F68EB
:1031700007F4E051890A0B4F7A5C4768D7408760B3
:10318000054F3F6807F46041490B064F7A5C47687A
:10319000D740C760F0BD0000083802400024F400AA
:1031A00000127A001A0100200149086070470000EF
:1031B0003C0E474238B5024600240094002300200C
:1031C000CA24184D2C6053242C6041B1154C1C3C72
:1031D00024681443134D1C3D2C6001201EE0114C4B
:1031E0001C3C246894430F4D1C3D2C6000BF0D4CCB
:1031F000183C246804EA1223009C641C0094009C80
:10320000B4F5803F01D0002BF1D0064C183C246867
:1032100004EA12240CB9002000E00120FF24014D33
:103220002C6038BD2428004010B54FF4807000F0A9
:103230006BF801280BD10521054802F071FD4FF410
:10324000807000F021F84FF40030FEF7B7F810BDA1
:1032500051580008014600BF080900EB80004200F9
:1032600001F00F001044C0B270470146002204E094
:10327000501CC2B2A1F10A00C1B20A29F8DA100743
:1032800041EA10607047000081B241F08001044AB9
:10329000126802F0800262EA0101014A116070477F
:1032A0000C28004008B50022009200200021104A9E
:1032B000126802F04002CAB9421E0D4B1A6000BFEC
:1032C0000B4A126802F04001009A521C0092009AC8
:1032D000B2F5803F01D00029F2D0054A126802F011
:1032E00040020AB1012002E0002000E0012008BDF8
:1032F0000C2800400348006820F080000149086065
:10330000704700000C28004010B501460020002244
:10331000054B1B68054C03EA040202EA01030BB1EA
:10332000012000E0002010BD0C2800407F3F01007C
:103330002DE9F04105460E461446002765B936488A
:10334000006800F0400000B102E00020E07000BF23
:10335000A06800B919E018E02F48006800F04000AC
:1033600020B12078FFF776FF074602E00020E070EA
:1033700000BFA06820B9207BFFF76CFF074604E080
:10338000207BFFF767FF074600BF95B12078000458
:10339000617840EA0120A1780843E17840EA0140E1
:1033A000217B40EA0160A1680843616840EA0107A7
:1033B0001BE02078FFF759FF4FEA00486078FFF7DD
:1033C00054FF48EA0028A078FFF74FFF48EA0008BA
:1033D000E07848EA0048207BFFF747FF48EA0060B2
:1033E000A1680843616840EA0107CA200A491C3104
:1033F000086053200860B6F5807F03D1064814307A
:10340000076002E0044818300760FF2002491C31C1
:103410000860BDE8F0810000082800402DE9F04177
:1034200005460C46002600274DB9607800F01000D4
:10343000102804D1607820F010000A30607005B9BF
:1034400008E06078FFF706FF0646A078FFF702FF66
:10345000064600BF55B1E0780004617840EA0120DB
:10346000A1780843217840EA413611E0E078FFF77F
:10347000FCFE4FEA00486078FFF7F7FE48EA0028B4
:10348000A078FFF7F2FE48EA0008207848EA4036C4
:10349000CA201249086053200860FFF703FF08B9EB
:1034A000002714E00E4830400C4920390860FFF72F
:1034B00021FF0A481C38006800F0200030B900F0F5
:1034C00079F808B9002702E0012700E00127FF2072
:1034D000024908603846BDE8F08100002428004019
:1034E0003FFFFF002DE9F04105460C46002600276E
:1034F0004DB92E48006800F0400000B102E0002005
:10350000E07000BF0DE02948006800F0400020B1E5
:103510002078FFF79FFE064602E00020E07000BF23
:1035200000BF55B120780004617840EA0120A178FD
:103530000843E17840EA014611E02078FFF795FE64
:103540004FEA00486078FFF790FE48EA0028A0782C
:10355000FFF78BFE48EA0008E07848EA0046CA20F8
:1035600012491C31086053200860FFF79BFE08B920
:10357000002713E00E4830400C4908390860FFF777
:10358000B9FE0A48006800F0200030B900F012F8D7
:1035900008B9002702E0012700E00127FF200349C6
:1035A0001C3108603846BDE8F08100000828004062
:1035B0007F7F7F0008B50022009200200021CA22F0
:1035C000134B1A6053221A60114A183A126822F0FB
:1035D000A0020F4B183B1A6000BF0D4A183A126840
:1035E00002F02001009A521C0092009AB2F5003FAE
:1035F00001D00029F1D0064A183A126802F02002E0
:103600000AB1012000E00020FF22014B1A6008BD32
:103610002428004010B588B00024194B0FCBCDE909
:103620000623CDE9040100BF23E02046FFF712FB8B
:1036300014A0FDF7DDFD0121102204A850F824009C
:103640004FF6E073CDE9012100901F221E211420C6
:1036500000F09AF8104A32211E20FEF7A5FB4FF425
:103660007A7002F07BFA4FF47A7002F077FA601CFD
:10367000C4B2042CD9DB0020FFF7ECFA08B010BD6F
:10368000D4960008B2E2CAD4393AC6C1C4BBD0FD50
:10369000D7AAB2E2CAD40000548A00080CB50020B0
:1036A000019000903448006840F48030324908604E
:1036B00000BF3148006800F4003000900198401CC1
:1036C0000190009818B90198B0F5A04FF1D12A489F
:1036D000006800F4003010B10120009001E00020EB
:1036E00000900098012846D123484030006840F0FF
:1036F00080502149403108602048006840F4404033
:103700001E4908601C48083000681B4908310860E1
:103710000846006840F4004008600846006840F42D
:10372000A05008601648091F0860081F006840F094
:103730008070091F086000BF0F48006800F000702B
:103740000028F9D040F205700E4908600A48083098
:10375000006820F003000849083108600846006846
:1037600040F00200086000BF03480830006800F025
:103770000C000828F8D10CBD003802400070004051
:1037800008544007003C02402DE9FF4F83B0064635
:1037900088469146DDE91147109DB2464FF0000B77
:1037A00071E0BBF1000F40D104EBD471384A1288AC
:1037B000A2EB6101B14204DB35494988091B41454F
:1037C00002DA07B0BDE8F08F2878802802DD4FF0DC
:1037D000010B58E028780D2806D108EB04001FFAE9
:1037E00080F856466D1C1EE0102C0DDD1021287847
:1037F0008DE883004A4641463046069BFFF7ECF8C9
:1038000006F1080086B20EE028788DE891004A465D
:1038100041463046069BFFF7DFF8204604EBD071A7
:1038200006EB61018EB26D1C2DE019480088001B6B
:10383000B04204DB16484088001B404500DAC0E770
:103840004FF0000B202C08D1CDE900574A464146E5
:103850003046069BFEF718FA12E0182C08D1CDE985
:1038600000574A4641463046069BFEF781F907E07D
:10387000CDE900574A4641463046069BFEF7F4F82C
:10388000AD1C301986B2287800288AD100BF98E78D
:10389000B8050020042808D14FF0E021096941F063
:1038A00004014FF0E022116107E04FF0E0210969C7
:1038B00021F004014FF0E0221161704710B5154866
:1038C000006840F47000134908601348006840F035
:1038D00001001149086000200F49083108600E48B6
:1038E00000680E4908400C4908600D48091D086031
:1038F000081F006820F48020091F08600020064986
:103900000C310860FFF7CAFE4FF0006001498039B2
:10391000086010BD88ED00E000380240FFFFF6FEB1
:103920001030002410B50121034800F06EF8012189
:10393000014800F067F810BD0000014010B50121FA
:10394000880700F062F888B10B480078C043C0B225
:103950000949087028B14FF480610848FEF77CF8E7
:1039600004E04FF480610548FEF774F801218807F0
:1039700000F048F810BD00000600002000140240CE
:1039800010B501210D4800F040F888B10C480078CE
:10399000C043C0B20A49087028B14FF40051094829
:1039A000FEF75AF804E04FF400510648FEF752F8CB
:1039B0000121024800F026F810BD0000000400407C
:1039C000070000200010024010B501210B4800F054
:1039D0001CF868B102F0A8FB28B94FF480710848C0
:1039E000FEF73AF804E04FF480710548FEF732F82C
:1039F0000121024800F006F810BD0000000401405B
:103A000000140240CA430282704730B502460020CB
:103A100000230024158A05EA0103958905EA0104BB
:103A200013B10CB1012000E0002030BD41637047AC
:103A30002DE9F84F04460D4617461E46DDE90CAB4E
:103A4000DDE90A894FF4784049490880012049A3FB
:103A500010228C2100902820FFF7A8F8012046A30F
:103A600010228C2100907820FFF7A0F8012043A3BA
:103A70001022A02100902820FFF798F8012040A3F1
:103A80001022A02100907820FFF790F801203DA39C
:103A90001022B42100902820FFF788F801203AA3D3
:103AA0001022B42100907820FFF780F8012037A37E
:103AB0001022C82100902820FFF778F8012034A3B5
:103AC0001022C82100907820FFF770F8012031A360
:103AD0001022DC2100902820FFF768F81020042332
:103AE00022468C2100904020FFF708F81020042384
:103AF0002A468C2100909020FFF700F81020042324
:103B00003A46A02100904020FEF7F8FF1020042341
:103B10003246A02100909020FEF7F0FF10200423F1
:103B20004246B42100904020FEF7E8FF1020042315
:103B30004A46B42100909020FEF7E0FF10200423B5
:103B40005246C82100904020FEF7D8FF10200423E1
:103B50005A46C82100909020FEF7D0FF1020032382
:103B60000090DC2160200E9AFEF7C8FFBDE8F88FB8
:103B70001401002078313A0079313A0078323A0065
:103B800079323A0078333A0079333A0078343A009F
:103B900079343A006661632069733A002DE9F04791
:103BA0002DED068B8AB04FF00008C14600BF1F20E4
:103BB000FA4908804FF6FF70F9490880FEF744FB88
:103BC0004FF47840F54908804FF6FF70FEF73CFB54
:103BD0000020F24908800120F2A310222821009041
:103BE0000A20FEF7E3FF0120F5A310223821009000
:103BF0000A20FEF7DBFF0120F8A3102248210090E5
:103C00000A20FEF7D3FF0120FBA3102258210090C9
:103C10000A20FEF7CBFF0120FEA3102268210090AE
:103C20000A20FEF7C3FF4FF478421421084600F043
:103C300015FC0020FB4908759FEDFB0A084680ED46
:103C4000060AC9E3F748416801208847F548007D26
:103C500000F0C00040286FD14FF00009F148007D0E
:103C600020F04000EF4908750846008A06A921F8AF
:103C70002800EC48408A01EB8801488008F10100E7
:103C800000F0FF08B8F1010F09D0B8F1020F16D00B
:103C9000B8F1030F26D0B8F1040F0FD138E04FF67A
:103CA000FF721421084600F0D9FBE0490988143955
:103CB00088B24FF47842142100F0D0FB7DE3DB4959
:103CC0000988143988B24FF6FF72142100F0C6FB40
:103CD000D6484088143881B24FF47842142000F05E
:103CE000BDFB6AE3D1484088143881B24FF6FF72B9
:103CF000142000F0B3FBCD4A5288143A91B2CB4A5B
:103D00001288143A90B24FF4784200F0A7FB54E3C3
:103D1000BDF81810BDF81C20881A002801DB0146E8
:103D200000E041420C46BDF81A20BDF81E10501AA2
:103D3000002802DB014601E040E341420D466443B6
:103D40006D43601903F020F841EC1A0BB0EE4A0AFB
:103D5000F0EE6A0A01F0DFFCB0EE409AF0EE609AF5
:103D600051EC190B02F0CCFF86B2BDF82010BDF863
:103D70002420881A002801DB014600E041420C465D
:103D8000BDF82220BDF82610501A002801DB01469C
:103D900000E041420D4664436D43601902F0F4FFB8
:103DA00041EC1A0BB0EE4A0AF0EE6A0A01F0B3FCDD
:103DB000B0EE409AF0EE609A51EC190B02F0A0FFC1
:103DC00087B200EE106AF8EE400A00EE107AB8EE04
:103DD000400A80EE801A11EE10AA504603F024FA31
:103DE00041EC180B9FED920B53EC102B51EC180B80
:103DF00002F0DEFF0AD39FED900B53EC102B51EC39
:103E0000180B03F00FF901D306B1CFBB4FF0000838
:103E1000864A5288143A91B2844A1288143A90B26F
:103E20004FF6FF7200F01AFB4FF478421421084657
:103E300000F014FB9FED820B53EC102B51EC180B90
:103E400002F0F2FF41EC190B02F05AFF1FFA80FA60
:103E5000BDF82600BDF82410BDF82220CDE9030AE4
:103E6000CDE90121BDF820000090BDF81E30BDF85D
:103E70001C20BDF81A10BDF81800FFF7D9FDABE201
:103E8000FFE7BDF81810BDF82020881A002801DBD4
:103E9000014600E041420C46BDF81A20BDF8221050
:103EA000501A002801DB014600E041420D46644300
:103EB0006D43601902F068FF41EC1A0BB0EE4A0A3C
:103EC000F0EE6A0A01F027FCB0EE409AF0EE609A3C
:103ED00051EC190B02F014FF86B2BDF81C10BDF8AE
:103EE0002420881A002801DB014600E041420C46EC
:103EF000BDF81E20BDF82610501A002801DB01462F
:103F000000E041420D4664436D43601902F03CFFFE
:103F100041EC1A0BB0EE4A0AF0EE6A0A01F0FBFB24
:103F2000B0EE409AF0EE609A51EC190B02F0E8FE08
:103F300087B200EE106AF8EE400A00EE107AB8EE92
:103F4000400A80EE801A11EE10AA504603F06CF978
:103F500041EC180B9FED360B53EC102B51EC180B6A
:103F600002F026FF08D39FED340B53EC102B51ECDD
:103F7000180B03F057F867D24FF000082B4A52880D
:103F8000143A91B2294A1288143A90B24FF6FF724D
:103F900000F064FA4FF47842142156E01401002036
:103FA00016010020506C656173652075736520747F
:103FB0006865207374796C757320636C69636B003A
:103FC0007468652063726F7373206F6E2074686508
:103FD0002073637265656E2E0000000054686520D2
:103FE00063726F73732077696C6C20616C77617991
:103FF00073206D6F76650000756E74696C2074684F
:10400000652073637265656E2061646A7573746D93
:10401000656E7400697320636F6D706C65746564A0
:104020002E000000E400002000000000B805002081
:10403000666666666666EE3FCDCCCCCCCCCCF03FF7
:10404000000000000000594028E0084600F006FA91
:104050001FED050B53EC102B51EC180B02F0E4FE96
:1040600041EC190B02F04CFE1FFA80FABDF8261045
:10407000BDF82400BDF82220CDE9031ACDE90120C6
:10408000BDF820000090BDF81E30BDF81C20BDF822
:104090001A10BDF81800FFF7CBFC9DE1BDF81C100D
:1040A000BDF82020881A002801DB014600E04142CB
:1040B0000C46BDF81E20BDF82210501A002801DB66
:1040C000014600E041420D4664436D43601902F031
:1040D0005BFE41EC1A0BB0EE4A0AF0EE6A0A01F000
:1040E0001AFBB0EE409AF0EE609A51EC190B02F018
:1040F00007FE86B2BDF81810BDF82420881A0028E3
:1041000001DB014600E041420C46BDF81A20BDF833
:104110002610501A002801DB014600E041420D46FE
:1041200064436D43601902F02FFE41EC1A0BB0EEB0
:104130004A0AF0EE6A0A01F0EEFAB0EE409AF0EEAA
:10414000609A51EC190B02F0DBFD87B200EE106AA9
:10415000F8EE400A00EE107AB8EE400A80EE801ABF
:1041600011EE10AA504603F05FF841EC180B1FED5A
:10417000500B53EC102B51EC180B02F019FE08D326
:104180001FED530B53EC102B51EC180B02F04AFFB0
:1041900039D24FF00008924A5288143A91B2904AAC
:1041A0001288143A90B24FF6FF7200F057F94FF4AC
:1041B00078421421084600F051F91FED5F0B53ECD3
:1041C000102B51EC180B02F02FFE41EC190B02F0F2
:1041D00097FD1FFA80FABDF82610BDF82400BDF83F
:1041E0002220CDE9031ACDE90120BDF8200000907E
:1041F000BDF81E30BDF81C20BDF81A10BDF818001F
:10420000FFF716FCE8E0BDF81C00BDF81810401AD6
:1042100000EE100AF8EEC00A71480088283800EE57
:10422000100AB8EEC00A80EE201A6E4880ED061A19
:10423000BDF81C00BDF81810084400EE100AF8EE96
:10424000C00A6748008800EE100AB8EE400A6548C8
:1042500090ED061A01EE600AF0EE000A80EE201AD8
:10426000BDEEC10A10EE100A00B25E490884BDF826
:104270002200BDF81A10401A00EE100AF8EEC00A2B
:1042800057484088283800EE100AB8EEC00A80EE81
:10429000201A544880ED071ABDF82200BDF81A1004
:1042A000084400EE100AF8EEC00A4D48408800EEBF
:1042B000100AB8EE400A4B4890ED071A01EE600A6A
:1042C000F0EE000A80EE201ABDEEC10A10EE100AD0
:1042D00000B2444948840A4692ED060ABDEEC00A7F
:1042E00010EE101A002901DB0A4600E04A42022AB9
:1042F0000DDC3C4A92ED070ABDEEC00A10EE100A32
:10430000002801DB024600E04242022A37DD4FF07E
:104310000008334A5288143A91B2314A1288143A4A
:1043200090B24FF6FF7200F099F84FF478421421E2
:10433000084600F093F801202BA310221A210090C8
:104340002820FEF733FC274890F8240008B9012004
:1043500000E00020234981F82400084690F824005A
:1043600030B1902025490870D0202549087005E01B
:10437000D020224908709020214908702CE01F208D
:10438000204908804FF6FF70FDF75EFF01201EA355
:1043900010226E2100902320FEF708FC4FF47A7063
:1043A00001F001FC00F050FA4FF6FF70FDF74CFFF2
:1043B0000AB0BDEC068BBDE8F08700BF0A2001F013
:1043C000F2FB09F101001FFA80F9B9F57A7F02DDED
:1043D00000F080F801E000BF34E400BF00BFE7E771
:1043E000B8050020E40000205450204E656564208C
:1043F000726561646A757374210000000C0100200D
:104400000D01002014010020546F75636820536370
:104410007265656E2041646A757374204F4B21008C
:1044200070B504460D4616460B48068029462046C0
:10443000FDF794FF611C88B22946FDF78FFF681CC9
:1044400081B22046FDF78AFF6A1C91B2621C90B2CD
:10445000FDF784FF70BD000014010020F8B504468C
:104460000D4616461A48068004F10D018AB2193924
:1044700088B22B462946FDF719FF05F10D0083B2DE
:10448000193881B222462046FDF710FF6A1C91B20E
:10449000621C90B2FDF762FF6A1C91B2621E90B27C
:1044A000FDF75CFF6A1E91B2621C90B2FDF756FFE9
:1044B0006A1E91B2621E90B2FDF750FF00200623E3
:1044C0000090034802882946204601F083FCF8BD8D
:1044D0001401002010B53520FCF7B9FA04460A2C67
:1044E00046D104212820FCF79CFA044600EE104A2D
:1044F000B8EEC00ADFED1F0A80EE201A1E4880EDDC
:10450000061A04212C20FCF78CFA044600EE104A0F
:10451000B8EEC00ADFED170A80EE201A164880EDCB
:10452000071A02213020FCF77CFA00B212490884F5
:1045300002213220FCF775FA00B20F49488434207A
:10454000FCF785FA0C4981F82400084690F824000D
:1045500030B1902009490870D0200949087005E061
:10456000D02006490870902005490870012010BD30
:104570000020FCE720BCBE4CE40000200C01002021
:104580000D0100201CB501212620FEF769FD062043
:10459000009000208DF804008DF8060003208DF8AF
:1045A000050001208DF8070069461B48FDF7DEF97C
:1045B000012000908DF8040069461748FDF7D6F9F0
:1045C0004FF40050009001208DF804006946134814
:1045D000FDF7CCF94FF40060009001208DF8040045
:1045E00069460F48FDF7C2F90E49881E00F0B4F87D
:1045F000FCF713FAFFF76EFF08B100201CBD4FF661
:10460000FF70FDF721FEFFF7C9FA00F01DF9FFF773
:1046100061FF0120F2E700000004024000080240B0
:1046200000140240F600002070B506460025002464
:10463000002201212748FDF711FA00224FF4006102
:104640002548FDF70BFA00224FF400512348FDF7EF
:1046500005FA304600F0AEF9062001F0EEFA00222D
:1046600001211C48FDF7FAF9012001F0E6FA0122C8
:1046700011461848FDF7F2F9012001F0DEFA002298
:1046800001211448FDF7EAF900BF19E04FF6FF7069
:1046900000EA4404002201210E48FDF7DFF9012061
:1046A00001F0CBFA012211460A48FDF7D7F904219F
:1046B0000848FDF7C6F908B1601C84B2681CC5B291
:1046C000102DE3DB2411012251030448FDF7C6F944
:1046D000204670BD00040240001402400008024061
:1046E0002DE9FE4380460027002406E04046FFF700
:1046F0009BFF2DF81400601C84B2052CF6DB00240F
:1047000016E0601C85B20FE03DF814003DF815106E
:10471000884207DD3DF814603DF815002DF81400BF
:104720002DF81560681C85B2052DEDDB601C84B288
:10473000042CE6DB0027012405E03DF81400384492
:1047400087B2601C84B2042CF7DB032097FBF0F0E7
:1047500086B23046BDE8FE832DE9F04104460D46A1
:1047600007480078FFF7BCFF064606480078FFF7C9
:10477000B7FF074626802F800120BDE8F0810000AA
:104780000C0100200D0100207FB504460D4602A952
:1047900003A8FFF7E1FF064616B9002004B070BD7C
:1047A000694601A8FFF7D8FF06460EB90020F5E7D5
:1047B000BDF80400BDF80C10884206DCBDF80C10F2
:1047C000BDF80400323081420CDBBDF80C00BDF8AE
:1047D0000410884236DCBDF80410BDF80C003230FD
:1047E00081422FDABDF80000BDF80810884206DCCF
:1047F000BDF80810BDF80000323081420CDBBDF876
:104800000800BDF8001088421CDCBDF80010BDF89F
:1048100008003230814215DABDF80C10BDF80420D2
:10482000881800EBD071C1F34F012180BDF808104A
:10483000BDF80020881800EBD071C1F34F0129802A
:104840000120ABE70020A9E710B51D4890ED060A4E
:10485000DFED1C0A20EE200ABDEEC00A10EE104A61
:10486000042221462820FCF71EF9154890ED070A7E
:10487000DFED140A20EE200ABDEEC00A10EE104A49
:10488000042221462C20FCF70EF90D48B0F9201027
:1048900002223020FCF707F90948B0F92210022261
:1048A0003220FCF700F9064890F824103420FCF779
:1048B0000FF90A2421463520FCF70AF910BD000043
:1048C000E400002020BCBE4C10B50446022137484D
:1048D000FDF7B7F800284BD124B13549881EFFF702
:1048E00053FF34E03249881EFFF74EFF78B330485B
:1048F0001238B0F9200000EE100AB8EEC00A2C48B9
:10490000123890ED061A008A00EE900AF8EE600A5E
:1049100001EE200ABCEEC00A10EE100A244912393A
:1049200008820846B0F9220000EE100AB8EEC00A6C
:10493000084690ED071A408A00EE900AF8EE600AE9
:1049400001EE200ABCEEC00A10EE100A4882184898
:104950001238007D00F0800010BBC02014491239CD
:1049600008750846008A88810846408AC88117E091
:104970000F481238007D00F0800040B10C4812381A
:10498000007D20F080000A491239087508E00020F7
:10499000074912398881C8814FF6FF700882488222
:1049A00003481238007D00F0800010BD0004024072
:1049B000F600002070B50446002500BF1FE004F09B
:1049C000800028B10122D1020E48FDF747F805E02A
:1049D00000224FF400610B48FDF740F86006040E1A
:1049E000002201210848FDF739F8012001F025F9DE
:1049F000012211460448FDF731F8681CC5B2082DA4
:104A0000DDDB70BD0014024000040240F8B5002454
:104A100036A0FCF7EDFB4FF6FF7000903948408858
:104A2000143883B23748028814210020FDF7C4FCF3
:104A300000BF1FE00020334B00905D8805EBD5736D
:104A40005B10323B04EBC40707EB0417D9192D4B5D
:104A50001E8806EBD6735B10503B04EBC40707EBD4
:104A60000417D819284B33F814201E2301F0B2F98B
:104A7000601CC4B2052CDDDB40F2DC5001F06EF8A6
:104A80004FF6FF7000901F484088143883B21D48CD
:104A9000028814210020FDF78FFC00241FE0012074
:104AA000184B00905D8805EBD5735B10323B04EB2F
:104AB000C40707EB0417D919124B1E8806EBD673EF
:104AC0005B10503B04EBC40707EB0417D8190E4BDF
:104AD00033F814201E2301F07DF9601CC4B2052CAC
:104AE000DDDB40F2DC5001F039F8F8BDB2E2CAD4A7
:104AF000343A475549BBADD4B2CCEEB3E4B2E2CAC6
:104B0000D4000000B8050020C80000200EB54FF604
:104B1000FF70009034484388028800210846FDF762
:104B20004BFC0120102131A24FF6E073CDE90021AA
:104B300002901F221E211420FEF726FE4FF448701B
:104B400001F00CF84FF47840009027484388028821
:104B500000210846FDF730FC0120102125A24FF668
:104B6000E073CDE9002102901F221E211420FEF7E0
:104B70000BFE4FF4487000F0F1FF4FF4FC60009022
:104B800019484388028800210846FDF715FC0120DA
:104B900010211AA24FF6E073CDE9002102901F22E6
:104BA0001E211420FEF7F0FD4FF4487000F0D6FFF0
:104BB0001F2000900C484388028800210846FDF71A
:104BC000FBFB012010210FA24FF6E073CDE900217D
:104BD00002904FF478421E211420FEF7D5FD4FF4C9
:104BE000487000F0BBFF0EBDB8050020424C2054B9
:104BF000657374005245442000000000475245454B
:104C00004E200000424C5545200000002DE9F8439D
:104C1000002460A0FCF7ECFA4FF6FF7000906348A8
:104C20004088143883B26148028814210020FDF7BF
:104C3000C3FB00BF48E05E4830F814005D490880BF
:104C4000DFF868C1BCF8025005EBD57C4FEA6C0C6C
:104C5000ACF1500CC4EB0419CC440CF13C0C1FFA21
:104C60008CF3DFF848C1BCF8006006EBD67C4FEA55
:104C70006C0CACF1500CC4EB0419CC440CF13C0CA2
:104C80001FFA8CF2DFF824C1BCF8027007EBD77C66
:104C90004FEA6C0CACF1500CC4EB0419CC441FFA75
:104CA0008CF1DFF808C1BCF8008008EBD87C4FEA33
:104CB0006C0CACF1500CC4EB0419CC441FFA8CF012
:104CC000FDF75AFB601CC4B2052CB4DB40F2DC508B
:104CD00000F044FF4FF6FF700090344840881438CD
:104CE00083B23248028814210020FDF765FB0024BE
:104CF00048E02F4830F814002E490880DFF8ACC097
:104D0000BCF8026006EBD67C4FEA6C0CACF1500CA0
:104D1000C4EB0419CC440CF13C0C1FFA8CF3DFF803
:104D20008CC0BCF8007007EBD77C4FEA6C0CACF180
:104D3000500CC4EB0419CC440CF13C0C1FFA8CF25F
:104D4000DFF868C0BCF8028008EBD87C4FEA6C0C36
:104D5000ACF1500CC4EB0419CC441FFA8CF1DFF811
:104D60004CC0BCF8005005EBD57C4FEA6C0CACF1A4
:104D7000500CC4EB0419CC441FFA8CF0FDF784FAF4
:104D8000601CC4B2052CB4DB40F2DC5000F0E6FE3F
:104D9000BDE8F883B2E2CAD4333A475549BED8D009
:104DA000CECCEEB3E4B2E2CAD4000000B8050020D5
:104DB000C80000201401002070B58CB000200990BC
:104DC0000A900B90142104A8FBF777FC33A0FCF7A2
:104DD0000FFA4FF6FF70009036484088143883B2BF
:104DE0003448028814210020FDF7E6FAFDF7B2FDF1
:104DF0000646324630A109A8FBF7C6FA0120102169
:104E000009AA4FF6E073CDE9002102901F22192173
:104E10003220FEF7B9FC002438E0294830F81400AD
:104E20002849088004EBC40000EB041000F14103A2
:104E300004EBC40000EB04102D3081B232221E209E
:104E4000FDF722FA04EBC40000EB041000F1370177
:104E50002820FDF749FD05462A461BA104A8FBF7BB
:104E600093FA0120102104AACDE90021029004EB5D
:104E7000C40000EB04102F3081B24FF6E0731148EC
:104E800002883C20FEF780FC601CC4B2072CC4DB07
:104E900040F2DC5000F062FE0CB070BDB2E2CAD449
:104EA000323AB6C14944BACDD1D5C9ABD6B5B2E2D2
:104EB000CAD40000B805002049443A30782578006B
:104EC000D2000020140100207265616420636F6CC1
:104ED0006F723A3078253034580000002DE9FC5FBD
:104EE000002475A0FCF784F94FF6FF700090794814
:104EF0004088143883B27748028814210020FDF7D7
:104F00005BFA00BF5DE0744830F814007349088014
:104F10007048458805EBD57040101438C4EB041177
:104F2000084481B26B48068806EBD67040101538ED
:104F300004EB840200EB820080B2DFF898C1CDE977
:104F40000001BCF8027007EBD77C4FEA6C0CACF1A7
:104F5000490CC4EB041BDC441FFA8CF3DFF874C16A
:104F6000BCF8008008EBD87C4FEA6C0CACF1330C39
:104F700004EB840B0CEB8B0C1FFA8CF2DFF854C1A2
:104F8000BCF8029009EBD97C4FEA6C0CACF1140C24
:104F9000C4EB041BDC441FFA8CF1DFF838C1BCF809
:104FA00000A00AEBDA7C4FEA6C0CACF1500C04EB7D
:104FB000840B0CEB8B0C1FFA8CF0FCF765F9601C72
:104FC000C4B2052C9FDB40F2DC5000F0C7FD4FF669
:104FD000FF7000903F484088143883B23D480288F3
:104FE00014210020FDF7E8F900245DE03A4830F88C
:104FF00014003A4908803748458805EBD5704010C1
:105000001438C4EB0411084481B23248068806EB18
:10501000D6704010153804EB840200EB820080B299
:10502000DFF8B0C0CDE90001BCF8027007EBD77C17
:105030004FEA6C0CACF1490CC4EB041BDC441FFAC6
:105040008CF3DFF890C0BCF8008008EBD87C4FEA06
:105050006C0CACF1330C04EB840B0CEB8B0C1FFAD7
:105060008CF2DFF870C0BCF8029009EBD97C4FEAF3
:105070006C0CACF1140CC4EB041BDC441FFA8CF177
:10508000DFF850C0BCF800A00AEBDA7C4FEA6C0CE9
:10509000ACF1500C04EB840B0CEB8B0C1FFA8CF076
:1050A000FCF75CFB601CC4B2052C9FDB40F2DC50BB
:1050B00000F054FDBDE8FC9FB2E2CAD4353A475532
:1050C0004920547269616E676C65CCEEB3E4B2E25C
:1050D000CAD40000B8050020C80000201401002038
:1050E00008B5002500260027FFF74CFAFDF726F843
:1050F00073A0FCF77DF801207949009009881839E0
:1051000088B278A310220021FDF750FD4FF47840BB
:10511000754908807249009009881C398AB2704923
:105120000988323988B212230221FDF745F9C5E01A
:105130000120FDF725F804466C48416800208847A7
:105140006A48007D00F08000002879D06748008A16
:1051500063490988884276DA6448408A6049498808
:10516000884270DA6148018A5D48008818388142B7
:1051700022DD5E48408A10281EDA51A0FCF738F87C
:105180000120574900900988183988B255A3102288
:105190000021FDF70BFD544807800088504900901E
:1051A00009881C398AB24E490988323988B21223DB
:1051B0000221FDF701F946E04C48018A4848008881
:1051C0003238814234DD4948018A454800881C381C
:1051D00081422DDA4548408A142829DA052096FBB9
:1051E000F0F100FB1160424931F810803C49CDF8E4
:1051F000008009881C398AB239490988323988B255
:1052000012230221FDF7D8F83046711C8EB2052119
:1052100090FBF1F201FB1200354931F810003249E0
:105220000880084607880A2000F098FC0BE007E099
:105230002E4A518A108A2C4A1288FFF7F1F802E0B0
:105240000A2000F08BFC012C25D14FF6FF70FCF7F3
:10525000FBFFFEF7A3FCFFF7F7FA19A0FBF7C8FF67
:1052600001201F4900900988183988B21DA3102217
:105270000021FDF79BFC1C4807800088184900901E
:1052800009881C398AB216490988323988B2122332
:105290000221FDF791F8681C85B21E2D0ED1002564
:1052A00001211448FCF7CDFB08B9012000E00020E3
:1052B0008046424601210F48FCF7D0FB38E700004A
:1052C000B2E2CAD431303A546F75636828B0B44B37
:1052D000455930D0A3D7BC29202020202020000011
:1052E000B80500205253540014010020E4000020AF
:1052F000C8000020000C024070B504463748006822
:1053000018B937480068354908600A2C09D1344873
:10531000006832490860002032490860324908704C
:1053200070BD3148007818B3302C12DB392C10DCFA
:10533000A4F130002B49096801EB810100EB410029
:105340002849086008460068642801DD6420086078
:10535000E6E72448016824480078FDF7E9FC0020CE
:10536000214908701F4908601D4800681B490860F2
:10537000204600F01BFB0546002D28DB174800687F
:1053800050F8250018B31548006850F82500134957
:1053900008600846006890F87E01E0B108460068A1
:1053A00090F87C01104908700C48006890F87D0165
:1053B00088B94FF0FF310C480078FDF7B9FC0020A8
:1053C00009490870064800680449086003E0044879
:1053D00000680249086000BFA2E70000A4000020A6
:1053E00038000020A8000020AC0000201CB540F2CE
:1053F00025511B4800F0CCF8012830D1184800F0A6
:1054000081F9C0B201909DF80400FFF775FF4FF4D9
:105410000062012101A800F07DFA00909DF80000D3
:10542000012803D10FA0FAF7A3FF12E09DF80000B6
:10543000022803D10EA0FAF79BFF0AE09DF80000B6
:10544000032803D10EA0FAF793FF02E011A0FAF7A8
:105450008FFF40F22551024800F072F800BF1CBDDA
:1054600000100140746F6F206C6F6E670A000000BF
:1054700043414E206E6F206D61696C626F780A0047
:1054800043414E2073656E642074696D656F757459
:105490000A00000043414E2073656E6420737563FB
:1054A000636573730A00000010B540F22551094886
:1054B00000F06EF801280CD1064800F023F90446EC
:1054C000E0B201F069FA40F22551024800F038F8E4
:1054D00000BF10BD0044004010B5002440F225512B
:1054E000124800F055F801281FD1104800F00AF9C1
:1054F000C4B20F490868411C0D4A11600D490C5493
:105500000D48006820B17D2C02D101200B490860B4
:1055100007480068B0F5007F02D301200749086002
:1055200040F22551014800F00BF810BD0048004042
:10553000200000202C030020280000202400002050
:1055400010B50022002340F66A14A14200D100BF2A
:105550000A1201249440A3B2DC43048010BD21B19F
:10556000828942F40052828104E082894DF6FF7301
:105570001A408281704702460020B1F5007F00D1B9
:1055800000BF13880B400BB1012000E000207047E2
:1055900070B50246002400230025002040F66A165C
:1055A000B14200D100BFC1F3421501F01F03012633
:1055B00006FA03F3012D02D19689334006E0022D4D
:1055C00002D1168A334001E0968A33400C1201263C
:1055D00006FA04F41688344013B10CB1012000E03F
:1055E000002070BDF0B503460024002600250020F1
:1055F00040F66A17B94200D100BF1846C1F3421401
:1056000001F01F06012707FA06F5012C01D10C3025
:1056100004E0022C01D1103000E014301AB1076808
:105620002F43076002E00768AF430760F0BD00004A
:105630002DE9FF4705460E460024A14600BFA046BF
:10564000B08900B100BF2C8A24F44054F088044390
:105650002C82AC8941F20C608443B08831890843C4
:10566000718908430443AC81AC8A24F44074B08946
:105670000443AC826846FDF723FD2048854202D0F2
:105680001F48854202D1DDF80C9001E0DDF808905A
:10569000A88900F4004040B109EBC90000EB0910F3
:1056A00031684900B0FBF1F707E009EBC90000EBF6
:1056B000091031688900B0FBF1F76420B7FBF0F006
:1056C00004012009642101FB1078A88900F400403E
:1056D00040B1322000EBC800B0FBF1F000F0070051
:1056E000044308E0322000EB08106421B0FBF1F025
:1056F00000F00F0004432C81BDE8FF87001001403B
:105700000014014001468888C0F308007047C1F3C7
:1057100008028280704700B52DED048BB0EE409AF0
:10572000F0EE609A83B051EC190B01F0B1FC41EC42
:10573000180B18EE100A18EE901A8DED008B002849
:1057400018BF0120084320F00040C0F17F6000F145
:10575000E040C00F14D019EE101A19EE900A8DED2A
:10576000009B002918BF0121084320F00040C0F130
:105770007F6000F1E040C00F04BF0120FBF71FF87D
:10578000B0EE480A03B0F0EE680ABDEC048B00BD31
:105790002DE9F04104460D4616461F46DDF81880F7
:1057A000EA1991B2A21990B24246FCF7F1FAEA194D
:1057B00091B2A21B90B24246FCF7EAFAEA1B91B200
:1057C000A21990B24246FCF7E3FAEA1B91B2A21B7F
:1057D00090B24246FCF7DCFAAA1991B2E21990B2F3
:1057E0004246FCF7D5FAAA1991B2E21B90B24246A2
:1057F000FCF7CEFAAA1B91B2E21990B24246FCF72E
:10580000C7FAAA1B91B2E21B90B24246FCF7C0FA5B
:10581000BDE8F08130380A2801D20120704700200D
:10582000704702880B8803800A80704700BFFEE73C
:1058300010B5044600BF80210448FFF79CFE0128F4
:10584000F9D1A1B20148FFF762FF10BD001001407D
:1058500010B50446002C00DA012438E04FF4007142
:105860001D48FCF7F7F84FF480711B48FCF7F4F87B
:10587000642000F04EF94FF400711748FCF7ECF883
:105880004FF480711448FCF7E5F8642000F041F90A
:105890004FF400711048FCF7DDF84FF480710E48AA
:1058A000FCF7DAF8642000F034F94FF400710A488C
:1058B000FCF7D2F84FF480710748FCF7CBF84FF4AF
:1058C000FA6000F026F94FF4FA6000F022F92000A7
:1058D000A4F10104C2D110BD0014024010B5044669
:1058E000012C04D101020348FCF7B4F800E000BF2A
:1058F00000BF10BD0014024010B50446012C04D1B5
:1059000001020348FCF7A8F800E000BF00BF10BD8B
:10591000001402402DE9F04781460D4616464FF02F
:105920000008082D02DD0120BDE8F087B6F5006F04
:1059300005D304201B4908720846466004E0002095
:105940001849087208460660002016494872084641
:105950008572002406E019F8041012480B30015536
:10596000601CC4B2AC42F6DB0E490F48FBF7CCFA20
:105970000746042F01D10220D6E701E008F1010813
:1059800039460948FBF754FB012803D042F2107056
:105990008045F3D342F21070804501D30320C3E762
:1059A0000020C1E790050020006400400146202946
:1059B00001DB7E2902DD4FF0FF307047A1F12000AE
:1059C000FBE7000010B5044600200349087003A05F
:1059D00000F0F4FF10BD00001C000020434F3220F7
:1059E00053656E736F72204175746F20436F6E74D0
:1059F000726F6C0D0A00000010B504460A4800786A
:105A000058B90AA000F0DAFF0B4801680BA0FAF7BA
:105A1000AFFC0BA000F0D2FF05E00AA000F0CEFF23
:105A200007A000F0CBFF10BD1C000020434F322028
:105A300056616C75653A200018000020256400004E
:105A40000D0A0000434F322073656E736F7220772A
:105A50006173206F6666000010B50446012003499B
:105A6000087003A000F0AAFF10BD00001C00002079
:105A7000434F322053656E736F72204F666620432A
:105A80006F6E74726F6C0D0A0000000001460A20F0
:105A900091FBF0F200FB12100A2291FBF2F240EAB5
:105AA0000210C0B27047000010B5044601A000F01B
:105AB00085FF10BD44656661756C742048616E6435
:105AC0006C65720D0A0000004FF0E021096921F0B9
:105AD00001014FF0E022116145F208214143491EC6
