:020000040800F2
:100000000048012041020008490200084B02000894
:100010004D0200084F0200085102000800000000D5
:100020000000000000000000000000005302000873
:10003000550200080000000057020008590200089D
:100040005B0200085B0200085B0200085B0200081C
:100050005B0200085B0200089D0D00085B020008BF
:10006000D90D0008190E0008590E00085B0200089F
:100070005B0200085B0200085B0200085B020008EC
:100080005B0200085B0200085B0200085B020008DC
:100090005B0200085B0200085B0200085B020008CC
:1000A0005B020008192600085B0200085B020008DA
:1000B00031260008752600085B0200085B02000874
:1000C0005B0200085B0200085B0200085B0200089C
:1000D0005B02000819280008492800087928000850
:1000E0005B020008991C00085B0200085B02000824
:1000F000BD2600085B0200085B0200085B020008E6
:100100005B0200085B0200085B0200085B0200085B
:100110005B0200085B0200085B0200085B0200084B
:100120005B0200085B0200085B0200085B0200083B
:100130005B0200085B0200085B0200085B0200082B
:100140005B0200085B0200085B0200085B0200081B
:100150005B0200085B0200085B0200085B0200080B
:100160005B0200085B0200085B0200085B020008FB
:100170005B0200085B0200085B0200085B020008EB
:100180005B0200085B02000800F002F800F048F88B
:100190000AA090E8000C82448344AAF10107DA45E2
:1001A00001D100F03DF8AFF2090EBAE80F0013F0EC
:1001B000010F18BFFB1A43F001031847F446000073
:1001C00014470000103A24BF78C878C1FAD8520703
:1001D00024BF30C830C144BF04680C6070470000C1
:1001E0000023002400250026103A28BF78C1FBD840
:1001F000520728BF30C148BF0B607047642900F028
:10020000DD80782900F01681002070471FB504F0CA
:10021000BEFA9DE8030000F06DFA1FBD10B510BDD9
:1002200000F04BFB1146FFF7F1FF03F0D1F800F0AF
:1002300069FB03B4FFF7F2FF03BC02F038FD0000D6
:100240000948804709480047FEE7FEE7FEE7FEE76A
:10025000FEE7FEE7FEE7FEE7FEE7FEE704480549A6
:10026000054A064B70470000B125000889010008C7
:10027000000800200048012000080120000801209B
:10028000704770B5064600F019FA056806F10B00D4
:1002900020F00704B4429CBF002070BD2B466A6862
:1002A000BAB11068A04210D304F1080188423CBFE3
:1002B0005068586007D35168101941601168091BD4
:1002C000016058601460101D70BD13465268002A0A
:1002D000E7D12146284600F0F9F90028DED170BDAB
:1002E00070B50446051F00F0E9F90068002C14BF42
:1002F000446870BD002C18BFAC423CBF2046646807
:10030000F8D301680A18AA4218BF456003D12A68C9
:1003100005461144016028684119A1421CBF6C6068
:1003200070BD6168696021680844286070BD000084
:100330000FB4044910B503AA029800F083FA10BC68
:100340005DF814FB4000002070B504468569006824
:10035000C10601D5302600E02026C00707D070BDB9
:10036000D4E9012130469047206A401C20626D1E6E
:10037000F6D570BD70B5044685690078C00707D111
:1003800070BDD4E9012120209047206A401C2062E2
:100390006D1EF6D570BD09684A0501D540B270479B
:1003A000C905FCD500B2704709684A0501D5C0B23D
:1003B0007047C905FCD580B2704700002DE9F041B7
:1003C0000646002410687529314616A510D0FFF79F
:1003D000E2FF002802DA404213A507E031688A07ED
:1003E00001D512A502E0490704D511A5012401E0B9
:1003F000FFF7DAFF00210A2206F1240709E0B0FB2B
:10040000F2FCB0FBF2F302FB1C00303078541846CB
:10041000491C0028F3D123462A463046BDE8F04166
:1004200000F09EB9000000002D0000002B0000002D
:100430002000000070B504460D4621461068FFF705
:10044000B3FF2188090502D50F4A7A4402E00E4A1B
:100450007A440E32002104F1240305E000F00F0677
:100460000009965D5E54491C0028F7D120780023CE
:10047000000704D5702D02D009B1022311322046A5
:10048000BDE8704000F06CB9544300002DE9F05F06
:10049000894604464FF0000ADFF874B1FB44C0F807
:1004A00020A02046E1688847002874D0252806D07F
:1004B000D4E901219047206A401C2062F1E7002620
:1004C0005F462046E16888472028054607DB312D36
:1004D00005D2781910F8200C08B10643F1E7B007EF
:1004E00001D526F00406C4F81CA00027C4F818A003
:1004F0002A2D09D0284602F0D3FB38B304EB870835
:10050000303DC8F8185019E059F8041B204604EB98
:1005100087029161E1688847012F054618D1E0699B
:10052000002820DA26F020061DE0D8F8180000EB9D
:10053000800005EB40003038C8F818002046E1681C
:100540008847054602F0ACFB0028EED1012F0AD007
:100550002E2D08D12046E16888477F1C0546022FD2
:1005600046F02006C4DBA069002803DA404246F0CA
:100570000106A061F00701D026F010066C2D0BD00B
:10058000682D09D04C2D39D06A2D35D0742D35D039
:100590007A2D33D016E038E0E1682F4620468847B0
:1005A000B842054609D16C2F26D04FF48060E1682F
:1005B000064320468847054604E06C2F1AD04FF4C6
:1005C000807006430DB3A5F14100192802D82035EB
:1005D00046F400664A462946204626604E46FFF706
:1005E0000DFE80B101280BD0F61D26F0070000F1AA
:1005F000080956E74020E4E78020D8E70020D6E746
:1006000006F104094DE7284652E7206ABDE8F09F4D
:100610002A43000002F0FF0343EA032242EA0242B7
:1006200000F002B84FF000020429C0F0128010F070
:10063000030C00F01B80CCF1040CBCF1020F18BFBE
:1006400000F8012BA8BF20F8022BA1EB0C0100F051
:100650000DB85FEAC17C24BF00F8012B00F8012B24
:1006600048BF00F8012B70474FF0000200B5134659
:1006700094469646203922BFA0E80C50A0E80C50C2
:10068000B1F12001BFF4F7AF090728BFA0E80C5073
:1006900048BF0CC05DF804EB890028BF40F8042B6C
:1006A00008BF704748BF20F8022B11F0804F18BFD9
:1006B00000F8012B7047704770477047004870473B
:1006C000A4070020704770477047704738B504464C
:1006D0000A4600206946AFF30080002808BF38BDF5
:1006E00002460099204600F0C3F8012038BD0120E1
:1006F00000F0DCB8F8B5AFF30080054600200C46EA
:10070000102000BF0646A819A0420DD932466946FE
:100710000020AFF30080070008BF00F0C7F8009882
:10072000A04218BF0546C419FFF7C8FF0560074679
:10073000F01D20F007004619284600F00AF8B442E0
:1007400008BFF8BDA21B31463868BDE8F84000F08C
:100750008FB800210160C0E9011070471020704778
:100760002DE9F0470D4699469246044600F12408CB
:100770000168880604D5E06921F01001216000E0DD
:100780000120A84201DD471B00E00027A1697A197A
:1007900002EB0900081AA0612078C00602D42046A6
:1007A000FFF7D2FD002608E0D4E901211AF806007F
:1007B0009047206A401C761C20624E45F4DB20786E
:1007C000C0060AD52046FFF7BFFD06E0D4E90121A7
:1007D00030209047206A401C2062381EA7F1010794
:1007E000F4DC07E0D4E9012118F805009047206AFD
:1007F000401C2062281EA5F10105F3DC2046FFF70E
:10080000B9FD2078000602D50220BDE8F08701205E
:10081000FBE7000001694A1C02610878704700B5D7
:100820008FB0CDE901310021059105497944CDE929
:10083000031011466846FFF729FE0FB000BD000007
:10084000E5FFFFFF074B70B50D467B44FFF7E7FF61
:100850000446284600F026F810B14FF0FF3070BD76
:10086000204670BDC7280000004870479C07002044
:10087000034640688C46002818BF88423CBF0346A8
:100880004068F8D318681844884207D00CF1030078
:1008900020F00700001D411A521A0146081D0A6087
:1008A000FFF71EBD007B00F08000704710B500F020
:1008B00035F8BDE8104000F02BB87546FFF7D4FFBF
:1008C000AE4605006946534620F00700854618B03D
:1008D00020B5FFF7C3FCBDE820404FF000064FF005
:1008E00000074FF000084FF0000B21F00701AC4665
:1008F000ACE8C009ACE8C009ACE8C009ACE8C00984
:100900008D4670470446AFF300802046FFF791FC08
:10091000002801D002F0CBB97047000010B50128C3
:1009200005D0002103A000F021F8012010BD09A18D
:10093000F8E7000053494752544D454D3A204F7552
:1009400074206F662068656170206D656D6F7279C7
:10095000000000003A2048656170206D656D6F727F
:100960007920636F727275707465640070B50546A6
:100970000C460A2000E06D1C02F09CF935B1287885
:100980000028F8D102E0641C02F094F914B1207838
:100990000028F8D1BDE870400A2002F08BB910B5EC
:1009A000142001F00DFC044604F0030018B90321E3
:1009B000142001F065FD10BD2DE9F0410746884681
:1009C00015460421052000F0DBF980210A2001F002
:1009D00057FD0021012002F045F9002405E0395DB2
:1009E000092002F03FF9601C84B24445F7DB032183
:1009F000012002F037F94FF47A7400BF052001F0AE
:100A0000DFFB0646601E84B21CB106F0040000281D
:100A1000F4D0222001F0D4FB2870212001F0D0FB7B
:100A200068700021012002F01DF9BDE8F08100008E
:100A30007FB502254FF4C87414E003A9262000F006
:100A4000E7FC0546641E282094FBF0F100FB1140F2
:100A500038B9282094FBF0F6314638A0FFF768FC3F
:100A600000E000BF002C01DD002DE6D12DB137A044
:100A7000FFF75EFC022004B070BD4FF480713E4869
:100A800000F04AFB642002F066FA4FF480713A48A5
:100A900000F040FB4FF47A7002F05DFA9DF80D20F3
:100AA0009DF80C1035A0FFF743FC01A800F016FCE0
:100AB00005460DB10220DEE79DF8070000909DF885
:100AC00006309DF805209DF8041036A0FFF730FC95
:100AD00001A800F0F7FC01A800F026FB30BB01A83C
:100AE00002F068F808BB4FF48071234800F014FB53
:100AF000642002F030FA4FF480711F4800F00AFBC6
:100B0000642002F028FA4FF480711B4800F004FBC7
:100B1000642002F020FA4FF48071174800F0FAFACE
:100B200003A901A801F06CFB064602E026A0FFF72E
:100B3000FFFB00F03BFC00BF9DE7000074696D65A2
:100B40006F75743A202564200D0A0000E6B2A1E614
:100B50009C89E6A380E6B58BE588B0E58DA1E789A1
:100B6000872C20E9AA8CE8AF81E8B685E697B6EF36
:100B7000BC81200D0A00000000140240E6A380E6BC
:100B8000B58BE588B0E58DA1E78987EFBC8CE7B12F
:100B9000BBE59E8B3A202530325820253032580D47
:100BA0000A000000E58DA1E5BA8FE58897E58FB7CB
:100BB0003A202530325820253032582025303258FE
:100BC00020253032580D0A00E58DA1E78987E5B769
:100BD000B2E6B3A8E5868CEFBC8CE8B7B3E8BF8774
:100BE000E6B3A8E5868CE6B581E7A88B0D0A000080
:100BF000FEB502254FF4C87414E002A9262000F0C7
:100C000007FC0546641E282094FBF0F100FB114010
:100C100038B9282094FBF0F631462FA0FFF788FB67
:100C200000E000BF002C01DD002DE6D125B12EA093
:100C3000FFF77EFB0220FEBD4FF48071354800F0C7
:100C40006BFA642002F087F94FF48071314800F0AC
:100C500061FA4FF47A7002F07EF99DF809209DF850
:100C600008102DA0FFF764FB684600F037FB05462F
:100C70000DB10220DFE7684600F024FC684601F071
:100C80001BFF10BB2EA0FFF753FB4FF480712148D0
:100C900000F042FA4FF4967002F05DF94FF4807163
:100CA0001C4800F037FA642002F055F94FF48071C7
:100CB000184800F031FA4FF4967002F04CF94FF4F6
:100CC0008071144800F026FA02E025A0FFF730FBFF
:100CD00000F06CFB00BFAEE774696D656F75743A28
:100CE000202564200D0A0000E6B2A1E69C89E6A357
:100CF00080E6B58BE588B0E58DA1E789872C20E9F2
:100D0000AA8CE8AF81E8B685E697B6EFBC81200DE6
:100D10000A00000000140240E6A380E6B58BE588D7
:100D2000B0E58DA1E78987EFBC8CE7B1BBE59E8B71
:100D30003A202530325820253032580D0A00000064
:100D4000E9AA8CE8AF81E9809AE8BF87EFBC8CE51F
:100D50008581E8AEB8E8AEBFE997AE210D0A000084
:100D6000E9AA8CE8AF81E5A4B1E8B4A5EFBC8CE6B4
:100D70008B92E7BB9DE8AEBFE997AE210D0A00005C
:100D800070B505460C460026284601F019FA0646BD
:100D900026EA0401284601F065FF70BD10B5012068
:100DA00000F080F801280ED107490870002007499B
:100DB00008700749087007490870962002F0A6F8E5
:100DC000012000F069F810BD0000002001000020A3
:100DD000020000200300002010B5042000F062F89B
:100DE000012810D100200849087001200749087027
:100DF00000200749087007490870962002F086F81D
:100E0000042000F049F810BD00000020010000207F
:100E1000020000200300002010B5082000F042F876
:100E2000012810D1002008490870084908700120E5
:100E300007490870002007490870962002F066F8FC
:100E4000082000F029F810BD00000020010000205B
:100E5000020000200300002010B5102000F022F84E
:100E600001280FD100200849087008490870084976
:100E70000870012007490870962002F047F81020FA
:100E800000F00AF810BD0000000000200100002062
:100E900002000020030000200149086070470000A4
:100EA000143C014001460020034A12680A400AB17E
:100EB000012000E000207047143C0140002123493C
:100EC0008279002A3AD00A46126803689A430B4690
:100ED0001A600A1D126803689A430B1D1A60027992
:100EE00011440A6803681A430A60184A08321268F3
:100EF00003689A43154B08331A601A1D1268036879
:100F00009A43124B0C331A604279102A0ED11A1FE1
:100F1000126803681A430D4B08331A601A1D1268D1
:100F200003681A43094B0C331A600DE007494279F4
:100F300011440A6803681A430A6005E00279114403
:100F40000A6803689A430A6070470000003C014049
:100F500070B504460E468CB1206878B12568D5E995
:100F600000108847206880682060206808B9002049
:100F700030602846FFF7B4F9012070BD0020FCE77F
:100F80002DE9F0410746884616461D460C20FFF71E
:100F900078F9044624B910A003F0F8F9BDE8F0810F
:100FA0002760C4F804800020A0602EB1306818B912
:100FB00015B134602C600CE046B1306830B12DB111
:100FC000286818B1286884602C6002E009A003F04A
:100FD000DDF900BFE2E700004576656E745F50758D
:100FE00073683A206D616C6C6F63206661696C6533
:100FF000640A00004576656E745F507573683A2028
:101000006576656E745F7175657565206F722065B4
:1010100076656E745F71756575655F7461696C2066
:101020006973204E554C4C0A00000000F0B50A468A
:1010300000210023002400BF3DE0012505FA01F353
:10104000156805EA03049C4234D105684F00032665
:10105000BE40B543056015794E00B540066835437E
:1010600005601579012D02D01579022D16D18568FC
:101070004F000326BE40B543856055794E00B5400C
:10108000866835438560456801268E40B5434560D6
:10109000456896798E40B6B235434560C5684F00C5
:1010A0000326BE40B543C560D5794E00B540C6683D
:1010B0003543C560491C1029BFD3F0BDF0B50023EE
:1010C00000244D07ED0E02FA05F3CE1000F12005C5
:1010D00055F826504E07F70E0F26BE40B543CF10E9
:1010E00000F1200646F82750CE1000F1200555F8F3
:1010F000265045EA0304CE1000F1200545F82640AD
:10110000F0BD0246002013690B400BB1012000E046
:101110000020704741837047018370470AB1018303
:1011200000E041837047000030B50346002216E01E
:10113000012400210BE0C2EBC2000C4D2844405CAE
:101140005D5CA84201D0002403E0481CC1B2042920
:10115000F1DB00BF0CB1012030BD501CC2B204480D
:1011600000788242E4DB0020F6E70000560700200A
:10117000380000201CB501210C2000F055FC402057
:10118000009001208DF8040000208DF80600032057
:101190008DF8050001208DF8070069461148FFF71A
:1011A00045FF4FF48070009000208DF8040003206C
:1011B0008DF8050001208DF8070069460948FFF702
:1011C00035FFC020009001208DF8040003208DF829
:1011D000050001208DF8070069460348FFF726FF48
:1011E0001CBD000000080240000C024070B505461E
:1011F00000240026002280211D48FFF78FFF0520D4
:1012000001F019FF00BF2EE0C4F107010120884062
:10121000284028B1012240211648FFF77FFF04E053
:10122000002240211348FFF779FF01228021104856
:10123000FFF774FF052001F0FEFE4FF480710D48AA
:10124000FFF75FFF28B1C4F1070101208840304358
:10125000C6B2002280210648FFF760FF052001F09A
:10126000EAFE601CC4B2082CCEDB304670BD000024
:10127000000C02400008024010B5FF20FFF7B6FF47
:101280000446204610BD10B504462046FFF7AEFFC9
:1012900010BD00001CB5FFF76DFF0121042000F018
:1012A000C3FB4FF40060009001208DF80400002083
:1012B0008DF8060003208DF8050001208DF8070049
:1012C00069460548FFF7B2FE0122D1020248FFF746
:1012D00025FF00F0B7F81CBD000802402DE9FC41D5
:1012E0000446002708210846FFF74AFD80210E200A
:1012F000FFF746FD00210D2001F0B4FC9320207083
:101300002020607001A823460222214600900C2074
:1013100000F013F906465EB9002503E0605D474022
:10132000681CC5B2042DF9DB605DB84200D002260E
:1013300080210E2001F0A4F83046BDE8FC812DE9A3
:10134000F04385B006460F46904699468DF80460F6
:101350008DF80570002406E018F8041001AAA01CFE
:101360001154601CC4B2062CF6DB002407E019F807
:10137000041001AA04F108001154601CC4B2042C2A
:10138000F5DB04A801AB0C2201A900900E2000F0AF
:10139000D4F805462DB9082000F012FF00F008002F
:1013A00000B90225284605B0BDE8F0830EB55020EF
:1013B0008DF8040000208DF805000DF106020221D1
:1013C00001A8FFF7F9FA02A801AB042201A90090D5
:1013D0000C2000F0B2F80EBD7CB505460C4630205E
:1013E00020706570A21C02212046FFF7E5FA01A8D3
:1013F00023460422214600900C2000F09EF8064669
:101400001EB9BDF80400902800D0022630467CBDED
:101410007CB506460C4607210D2001F023FC267002
:1014200001A823460122214600900C2000F085F8F7
:1014300005461DB9BDF80400102800D00225284635
:101440007CBD000010B50122D1021D48FFF766FEE9
:10145000012001F0F0FD00224FF400611848FFF771
:101460005DFE012001F0E7FD0122D1021448FFF7E3
:1014700055FE012001F0DFFD0F21012001F0F2FBFC
:101480008D212A2001F0EEFB3E212B2001F0EAFB0A
:1014900032212D2001F0E6FB00212C2001F0E2FB9F
:1014A0004021152001F0DEFB3D21112001F0DAFB87
:1014B0000021012001F0D6FBFFF771FA10BD0000FA
:1014C00000080240F0B585B0054693208DF8040071
:1014D00070208DF8050000208DF80A0000240BE034
:1014E000295D01AAA01C11549DF80A00295D4840FD
:1014F0008DF80A00601CC4B2042CF1DB0DF10B0264
:10150000072101A8FFF758FA08210846FFF738FC21
:1015100004A801AB092201A900900C2000F00DF8ED
:10152000074637B9BDF81000182802D19DF80460AD
:1015300000E00026304605B0F0BD2DE9FE4F06461E
:10154000884691469A46DDF830B00220029000208D
:10155000019000900C2E06D00E2E09D11220019081
:101560001020009005E0772001903020009000E0EE
:1015700000BF00BF019840F08001022001F072FB23
:1015800080210420FFF7FCFB80210A2000F078FF77
:101590000021012001F066FB002506E018F8051087
:1015A000092001F05FFB681C85B24D45F6DB314632
:1015B000012001F057FB0C2E03D180210D2000F0FB
:1015C0005FFF42F2107500BF042000F0F9FD0446F1
:1015D000681E85B235B104F0010018B900982040AA
:1015E0000028F1D080210D20FFF7CAFB002D36D056
:1015F000062000F0E5FD00F01B0070BB01982040C4
:1016000000F0010008B1012002900C2E22D10A2026
:1016100000F0D6FD04460C2000F0D2FD00F00707D4
:101620002FB1601E07EBC000ABF8000002E0E00045
:10163000ABF8000004B90124122C00DD12240025AF
:1016400006E0092000F0BCFD0AF80500681C85B220
:10165000A542F6DB0020029001E0022002908021EA
:101660000C2001F0FFFA0021012001F0FBFA0298A2
:10167000BDE8FE8FF0B587B006460F46A0208DF876
:1016800004008DF805600DF10602022101A8FFF7A4
:1016900093F906A801AB042201A900900C20FFF7E2
:1016A0004CFF05464DB9BDF81800042805D19DF83A
:1016B000040000F00F000A2800D0022515BB00240A
:1016C00004E0385D01A90855601CC4B2102CF8DB99
:1016D00005AA102101A8FFF76FF906A801AB122295
:1016E00001A900900C20FFF728FF05464DB9BDF871
:1016F0001800042805D19DF8040000F00F000A2806
:1017000000D00225284607B0F0BD000070B50446A1
:101710000D46192C70D2DFE804F00D141B2229307D
:10172000373E454C535A616870777E858C939AA1F9
:10173000A8AFB600594B5A4A29465A48FFF720FC31
:10174000A9E0564B564A29465748FFF719FCA2E034
:10175000524B534A29465548FFF712FC9BE04F4B2A
:101760004F4A29465248FFF70BFC94E04B4B4C4A3A
:1017700029465048FFF704FC8DE0484B484A29466B
:101780004D48FFF7FDFB86E0444B454A29464B4850
:10179000FFF7F6FB7FE0414B414A29464848FFF7F7
:1017A000EFFB78E03D4B3E4A29464648FFF7E8FB11
:1017B00071E03A4B3A4A29464348FFF7E1FB6AE0B9
:1017C000364B374A29464148FFF7DAFB63E0334B93
:1017D000334A29463E48FFF7D3FB5CE02F4B304AA3
:1017E00029463C48FFF7CCFB55E02C4B2C4A2946B8
:1017F0003948FFF7C5FB4EE04CE0284B284A294604
:101800003648FFF7BDFB46E0244B254A29463448BD
:10181000FFF7B6FB3FE0214B214A29463148FFF74D
:10182000AFFB38E01D4B1E4A29462F48FFF7A8FBA7
:1018300031E01A4B1A4A29462C48FFF7A1FB2AE04F
:10184000164B174A29462A48FFF79AFB23E0134B09
:10185000134A29462748FFF793FB1CE00F4B104A19
:1018600029462548FFF78CFB15E00C4B0C4A29460E
:101870002248FFF785FB0EE0084B094A294620481D
:10188000FFF77EFB07E0054B054A29461D48FFF799
:1018900077FB00E000BF00BF70BD000050000020DB
:1018A0004C000020ED2E00087D330008293300088D
:1018B000B12D0008952D0008BD300008A1300008AA
:1018C000D5300008092E00089D2E00083D2E000886
:1018D00083300008F13C0008413D0008813D0008CC
:1018E000B13C0008313C0008F13B0008713C0008A5
:1018F00039380008C9370008F13A0008513B0008A0
:10190000A13B00084537000870B5002100230F22D5
:10191000C4781CB3174C246804F4E064C4F5E06494
:10192000C4F30721C1F10404E3B20A4144789C40A6
:10193000E1B28478144021430C07210E0E4C057847
:101940006155047804F01F050124AC4005786D1141
:10195000AD0005F1E025C5F8004109E0047804F088
:101960001F050124AC40054D0678761145F8264048
:1019700070BD00000CED00E000E400E080E100E05C
:1019800002490143024A1160704700000000FA0555
:101990000CED00E0014908627047000000000E42B3
:1019A00010B50446FFF776FC0AA0FEF7C1FC012C37
:1019B00005D10FA0FEF7BCFCFFF73AF804E013A036
:1019C000FEF7B6FCFFF714F94FF4FA7001F0C3FA12
:1019D00010BD0000524335323220E5889DE5A78BCB
:1019E000E58C96E5AE8CE68890200D0A000000009C
:1019F0003D3D3D20E6B3A8E5868C52464944E58D41
:101A0000A1E78987203D3D3D0D0A00003D3D3D2079
:101A1000E9AA8CE8AF8152464944E58DA1E7898760
:101A2000203D3D3D0D0A000029B1064A12680243DF
:101A3000044B1A6004E0034A12688243014B1A60A7
:101A4000704700003038024029B1064A126802434C
:101A5000044B1A6004E0034A12688243014B1A6087
:101A6000704700004038024029B1064A126802431C
:101A7000044B1A6004E0034A12688243014B1A6067
:101A80007047000044380240F0B5002100220024D5
:101A9000022500260223324F3F6807F00C0121B1D6
:101AA000042905D0082937D105E02E4F076036E01C
:101AB0002D4F076033E02A4F3F1F3F68C7F3805622
:101AC000274F3F1F3F6807F03F036EB1264FB7FB1C
:101AD000F3F7DFF88CC0ACF1040CDCF800C0CCF3F9
:101AE000881C07FB0CF40CE01E4FB7FBF3F7DFF884
:101AF00070C0ACF1040CDCF800C0CCF3881C07FB10
:101B00000CF4174F3F1F3F68C7F301477F1C7D0050
:101B1000B4FBF5F7076002E0124F076000BF00BF9B
:101B20000F4F3F6807F0F0010909104F7A5C076812
:101B3000D74047600A4F3F6807F4E051890A0B4FCE
:101B40007A5C4768D7408760054F3F6807F460417B
:101B5000490B064F7A5C4768D740C760F0BD00006C
:101B6000083802400024F40000127A00D800002057
:101B700010B501460022002300204A11012A02D19B
:101B80000A4C236808E0022A03D1084C7034236809
:101B900002E0064C7434236801F01F0201249440D3
:101BA0001C400CB1012000E0002010BD00380240B4
:101BB0000021094A11701170012802D0042808D1AF
:101BC00003E00121044A117004E00521024A11706A
:101BD00000E000BF00BF7047703802400149086054
:101BE000704700003C0E4742002100F44072B2F5FD
:101BF000407F08D1094A116821F4F811084A0240CF
:101C00001143064A1160054A68321268C0F30B039B
:101C10001A43024B68331A607047000008380240CC
:101C2000FFFCFF0F38B5024600240094002300207B
:101C3000CA24184D2C6053242C6041B1154C1C3C17
:101C400024681443134D1C3D2C6001201EE0114CF0
:101C50001C3C246894430F4D1C3D2C6000BF0D4C70
:101C6000183C246804EA1223009C641C0094009C25
:101C7000B4F5803F01D0002BF1D0064C183C24680D
:101C800004EA12240CB9002000E00120FF24014DD9
:101C90002C6038BD2428004010B54FF4807000F04F
:101CA00091F801280BD10521054801F0EBF94FF41B
:101CB000807000F021F84FF40030FFF7EDF810BD10
:101CC000D52C0008014600BF080900EB8000420047
:101CD00001F00F001044C0B270470146002204E03A
:101CE000501CC2B2A1F10A00C1B20A29F8DA1007E9
:101CF00041EA10607047000081B241F08001044A5F
:101D0000126802F0800262EA0101014A1160704724
:101D10000C28004008B50022009200200021104A43
:101D2000126802F04002CAB9421E0D4B1A6000BF91
:101D30000B4A126802F04001009A521C0092009A6D
:101D4000B2F5803F01D00029F2D0054A126802F0B6
:101D500040020AB1012002E0002000E0012008BD9D
:101D60000C2800400348006820F08000014908600A
:101D7000704700000C28004070B506460C46002550
:101D80000E4800680E4900EA0105280CE070C5F312
:101D90000420607005F03F00A070C5F34230207051
:101DA0005EB9E078FFF78EFFE0706078FFF78AFF9A
:101DB0006070A078FFF786FFA07070BD0428004017
:101DC0003FFFFF0010B5014600200022054B1B68B5
:101DD000054C03EA040202EA01030BB1012000E012
:101DE000002010BD0C2800407F3F010070B5064662
:101DF0000C4600250F4800680F4900EA0105C5F3AD
:101E000005402070C5F30620607005F07F00A070CB
:101E100005F48000000CE0705EB92078FFF752FFF7
:101E200020706078FFF74EFF6070A078FFF74AFFE0
:101E3000A07070BD002800407F7F7F0030B5044651
:101E40000025CA201549086053200860FFF762FF8B
:101E500000B91DE011481C38006820F040000F490F
:101E60001C39086008460068216808430B491C3982
:101E700008600A491439A068086008460068A1880B
:101E800040EA0140054914390860FFF76BFF01255E
:101E9000FF2002490860284630BD00002428004089
:101EA00008B501460020009004480090009800EB1F
:101EB000810000900098006808BD00005028004094
:101EC0002DE9F04105460E461446002765B936480F
:101ED000006800F0400000B102E00020E07000BFA8
:101EE000A06800B919E018E02F48006800F0400031
:101EF00020B12078FFF7E6FE074602E00020E07000
:101F000000BFA06820B9207BFFF7DCFE074604E095
:101F1000207BFFF7D7FE074600BF95B1207800046D
:101F2000617840EA0120A1780843E17840EA014065
:101F3000217B40EA0160A1680843616840EA01072B
:101F40001BE02078FFF7C9FE4FEA00486078FFF7F2
:101F5000C4FE48EA0028A078FFF7BFFE48EA000860
:101F6000E07848EA0048207BFFF7B7FE48EA0060C7
:101F7000A1680843616840EA0107CA200A491C3188
:101F8000086053200860B6F5807F03D106481430FE
:101F9000076002E0044818300760FF2002491C3146
:101FA0000860BDE8F0810000082800402DE9F041FC
:101FB00005460C46002600274DB9607800F0100059
:101FC000102804D1607820F010000A30607005B944
:101FD00008E06078FFF776FE0646A078FFF772FE0D
:101FE000064600BF55B1E0780004617840EA012060
:101FF000A1780843217840EA413611E0E078FFF704
:102000006CFE4FEA00486078FFF767FE48EA002858
:10201000A078FFF762FE48EA0008207848EA4036D8
:10202000CA201249086053200860FFF773FE08B900
:10203000002714E00E4830400C4920390860FFF7B3
:1020400091FE0A481C38006800F0200030B900F00A
:1020500079F808B9002702E0012700E00127FF20F6
:10206000024908603846BDE8F0810000242800409D
:102070003FFFFF002DE9F04105460C4600260027F2
:102080004DB92E48006800F0400000B102E0002089
:10209000E07000BF0DE02948006800F0400020B16A
:1020A0002078FFF70FFE064602E00020E07000BF38
:1020B00000BF55B120780004617840EA0120A17882
:1020C0000843E17840EA014611E02078FFF705FE79
:1020D0004FEA00486078FFF700FE48EA0028A07841
:1020E000FFF7FBFD48EA0008E07848EA0046CA200E
:1020F00012491C31086053200860FFF70BFE08B935
:10210000002713E00E4830400C4908390860FFF7FB
:1021100029FE0A48006800F0200030B900F012F8EB
:1021200008B9002702E0012700E00127FF2003494A
:102130001C3108603846BDE8F081000008280040E6
:102140007F7F7F0008B50022009200200021CA2274
:10215000134B1A6053221A60114A183A126822F07F
:10216000A0020F4B183B1A6000BF0D4A183A1268C4
:1021700002F02001009A521C0092009AB2F5003F32
:1021800001D00029F1D0064A183A126802F0200264
:102190000AB1012000E00020FF22014B1A6008BDB7
:1021A0002428004008B500220092044A0092009AB8
:1021B00002EB80020092009A116008BD5028004096
:1021C00070B50446002240210C48FEF7A7FF052009
:1021D00000F031FF7E2101EA440141F08000FFF769
:1021E00052F8FFF749F80546052000F024FF0122C8
:1021F00040210248FEF792FF284670BD000C0240C5
:10220000F8B504460E46224800780A2804DB21A0CF
:10221000FEF78EF80220F8BD2046FEF785FF20B1BC
:1022200022A0FEF785F80220F5E7002509E0605DB1
:1022300017490978C1EBC101224A11444855681C6D
:10224000C5B2042DF3DB307811490978C1EBC10127
:102250001C4A1144087171780D480078C0EBC00029
:102260001044417101200A490978C1EBC1011144B0
:10227000887107480078401C05490870E078009094
:10228000A3786278217810A0FEF752F80020C2E708
:1022900038000020E58DA1E78987E5AD98E582A8A3
:1022A000E5B7B2E6BBA1210D0A000000E8AFA5E545
:1022B0008DA1E78987E5B7B2E6B3A8E5868C210D45
:1022C0000A00000056070020E58DA1E78987E6B3E4
:1022D000A8E5868CE68890E58A9F2120E5BA8FE5FF
:1022E0008897E58FB73A202530325820253032586C
:1022F000202530325820253032580D0A00000000C9
:1023000000B587B001210803FFF7AEFB01210220D1
:10231000FFF78AFB02208DF8180000208DF81A00C4
:102320003820059000208DF81B0002208DF8190040
:1023300005A92548FEF77AFE052203212248FEF76B
:10234000BDFE052211462048FEF7B8FE05220421F5
:102350001D48FEF7B3FE01208DF8180000208DF80F
:102360001A004FF48040059000208DF81B000220D9
:102370008DF8190005A91448FEF758FE4FF4804166
:102380001148FEF7C9FE0020ADF800004FF482703E
:10239000ADF802000020ADF80400ADF80E00ADF875
:1023A0000600ADF808004FF40070ADF80A001020E8
:1023B000ADF80C006946054800F024F801210348F7
:1023C00000F006F807B000BD0004024000300140F4
:1023D00021B1028842F04002028004E002884FF6F8
:1023E000BF731A40028070470246002013890B40D9
:1023F0000BB1012000E0002070470146888970473A
:102400008181704710B50022028802F441520B8886
:102410004C8823438C882343CC8823430C89234353
:102420004C8923438C892343CC8923431A4302805C
:10243000838B4FF2FF74234083830B8A038210BD8A
:1024400030B500228B071C0F0F2303FA04F20B4B4D
:102450008C1053F824309343084C8D1044F82530E9
:1024600023468C1053F824308C07240F00FA04F410
:102470002343024C8D1044F8253030BD083801400C
:1024800070B505460C4600262846FFF799FE06461D
:1024900046EA0401284600F0E5FB70BD0CB50020BB
:1024A000019000903448006840F480303249086060
:1024B00000BF3148006800F4003000900198401CD3
:1024C0000190009818B90198B0F5A04FF1D12A48B1
:1024D000006800F4003010B10120009001E00020FD
:1024E00000900098012846D123484030006840F011
:1024F00080502149403108602048006840F4404045
:102500001E4908601C48083000681B4908310860F3
:102510000846006840F4004008600846006840F43F
:10252000A05008601648091F0860081F006840F0A6
:102530008070091F086000BF0F48006800F000703D
:102540000028F9D040F205700E4908600A480830AA
:10255000006820F003000849083108600846006858
:1025600040F00200086000BF03480830006800F037
:102570000C000828F8D10CBD003802400070004063
:1025800008544007003C0240042808D14FF0E021E5
:10259000096941F004014FF0E022116107E04FF0BA
:1025A000E021096921F004014FF0E0221161704738
:1025B00010B51548006840F47000134908601348CE
:1025C000006840F001001149086000200F490831FF
:1025D00008600E4800680E4908400C4908600D4824
:1025E000091D0860081F006820F48020091F08608A
:1025F000002006490C310860FFF750FF4FF00060E3
:1026000001498039086010BD88ED00E000380240C3
:10261000FFFFF6FE1030002410B50121034800F042
:102620006EF80121014800F067F810BD000001407C
:1026300010B50121880700F062F888B10B480078D6
:10264000C043C0B20949087028B14FF480610848FE
:10265000FEF762FD04E04FF480610548FEF75AFD85
:102660000121880700F048F810BD00000500002097
:102670000014024010B501210D4800F040F888B167
:102680000C480078C043C0B20A49087028B14FF422
:1026900000510948FEF740FD04E04FF400510648A0
:1026A000FEF738FD0121024800F026F810BD0000B9
:1026B00000040040060000200010024010B5012177
:1026C0000B4800F01CF868B100F06CFF28B94FF41B
:1026D00080710848FEF720FD04E04FF48071054842
:1026E000FEF718FD0121024800F006F810BD0000B9
:1026F0000004014000140240CA430282704730B512
:102700000246002000230024158A05EA010395896A
:1027100005EA010413B10CB1012000E0002030BD36
:102720004163704770B504463748006818B93748A8
:102730000068354908600A2C09D1344800683249DC
:1027400008600020324908603249087070BD314885
:10275000007818B3302C12DB392C10DCA4F13000D7
:102760002B49096801EB810100EB41002849086011
:1027700008460068642801DD64200860E6E7244814
:10278000016824480078FEF7C1FF00202149087045
:102790001F4908601D4800681B490860204600F07A
:1027A00015FB0546002D28DB1748006850F825006A
:1027B00018B31548006850F825001349086008460A
:1027C000006890F87E01E0B10846006890F87C014E
:1027D000104908700C48006890F87D0188B94FF0E6
:1027E000FF310C480078FEF791FF0020094908707E
:1027F000064800680449086003E00448006802498C
:10280000086000BFA2E70000B400002048000020DC
:10281000B8000020BC00002010B540F22551094846
:1028200000F086F801280CD1064800F03BF9C4B24C
:102830002046FFF777FF40F22551024800F050F89C
:1028400000BF10BD0010014010B540F225510948ED
:1028500000F06EF801280CD1064800F023F9044678
:10286000E0B201F081FD40F22551024800F038F855
:1028700000BF10BD0044004010B5002440F22551B7
:10288000124800F055F801281FD1104800F00AF94D
:10289000C4B20F490868411C0D4A11600D490C541F
:1028A0000D48006820B17D2C02D101200B49086041
:1028B00007480068B0F5007F02D30120074908608F
:1028C00040F22551014800F00BF810BD00480040CF
:1028D0001C000020E802002024000020200000202E
:1028E00010B50022002340F66A14A14200D100BFB7
:1028F0000A1201249440A3B2DC43048010BD21B12C
:10290000828942F40052828104E082894DF6FF738D
:102910001A408281704702460020B1F5007F00D145
:1029200000BF13880B400BB1012000E0002070476E
:1029300070B50246002400230025002040F66A16E8
:10294000B14200D100BFC1F3421501F01F030126BF
:1029500006FA03F3012D02D19689334006E0022DD9
:1029600002D1168A334001E0968A33400C120126C8
:1029700006FA04F41688344013B10CB1012000E0CB
:10298000002070BDF0B5034600240026002500207D
:1029900040F66A17B94200D100BF1846C1F342148D
:1029A00001F01F06012707FA06F5012C01D10C30B2
:1029B00004E0022C01D1103000E014301AB1076895
:1029C0002F43076002E00768AF430760F0BD0000D7
:1029D0002DE9FF4705460E460024A14600BFA0464C
:1029E000B08900B100BF2C8A24F44054F08804431D
:1029F0002C82AC8941F20C608443B0883189084351
:102A0000718908430443AC81AC8A24F44074B089D2
:102A10000443AC826846FFF737F82048854202D06D
:102A20001F48854202D1DDF80C9001E0DDF80890E6
:102A3000A88900F4004040B109EBC90000EB09107F
:102A400031684900B0FBF1F707E009EBC90000EB82
:102A5000091031688900B0FBF1F76420B7FBF0F092
:102A600004012009642101FB1078A88900F40040CA
:102A700040B1322000EBC800B0FBF1F000F00700DD
:102A8000044308E0322000EB08106421B0FBF1F0B1
:102A900000F00F0004432C81BDE8FF8700100140C7
:102AA0000014014001468888C0F308007047C1F354
:102AB000080282807047000070B586B005462B463C
:102AC0001B4A05216020FEF73AFC06462EB119A0EC
:102AD000FDF72EFC022006B070BD01A90520FEF70F
:102AE0007BFC064626B119A0FDF722FC0220F2E786
:102AF0009DF80400AA2815D11AA0FDF719FC1FA003
:102B0000FDF716FC002406E001A8015D1FA0FDF7FB
:102B10000FFC601CC4B2102CF6DB1EA0FDF708FCF5
:102B20000020D8E71CA0FDF703FC0220D3E700003B
:102B300039000020E5AF86E992A5E9AA8CE8AF81CB
:102B4000E5A4B1E8B4A5210D0A000000E8AFBBE59B
:102B50008F96E695B0E68DAEE5A4B1E8B4A5210D5B
:102B60000A000000E58DA1E78987E9AA8CE8AF811A
:102B7000E68890E58A9F210D0A000000E8AFBBE5DA
:102B80008F96E695B0E68DAE3A200000253032589B
:102B9000200000000D0A0000E58DA1E78987E69579
:102BA000B0E68DAEE9AA8CE8AF81E5A4B1E8B4A5A2
:102BB000210D0A007FB50646002504E000200DF82F
:102BC0000500681CC5B2102DF8DBAA208DF80000A6
:102BD00001208DF8010033460E4A05216020FEF7E2
:102BE000AEFB04462CB10CA0FDF7A2FB022004B002
:102BF00070BD69460520FEF73DFD044624B10CA0DA
:102C0000FDF796FB0220F2E70FA0FDF791FB0020F5
:102C1000EDE7000039000020E5AF86E992A5E9AABA
:102C20008CE8AF81E5A4B1E8B4A5210D0A0000004D
:102C3000E58699E585A5E695B0E68DAEE5A4B1E813
:102C4000B4A5210D0A000000E6B3A8E5868CE6A035
:102C500087E8AEB0E58699E585A5E68890E58A9F88
:102C6000210D0A0070B504460D46002240210B4894
:102C7000FEF754FA052000F0DEF97E2101EA440057
:102C8000FEF701FB2846FEF7FEFA052000F0D3F917
:102C9000012240210148FEF741FA70BD000C0240BC
:102CA00030380A2801D2012070470020704700BF49
:102CB000FEE7000010B5044600BF80210448FFF77E
:102CC0002AFE0128F9D1A1B20148FFF7F0FE10BD9C
:102CD0000010014010B50446002C00DA012438E051
:102CE0004FF400711D48FEF715FA4FF480711B4830
:102CF000FEF712FA642000F053F94FF40071174800
:102D0000FEF70AFA4FF480711448FEF703FA6420C4
:102D100000F046F94FF400711048FEF7FBF94FF44C
:102D200080710E48FEF7F8F9642000F039F94FF48D
:102D300000710A48FEF7F0F94FF480710748FEF77A
:102D4000E9F94FF4FA6000F02BF94FF4FA6000F063
:102D500027F92000A4F10104C2D110BD00140240E3
:102D60001CB501212020FEF75FFE01208DF8040034
:102D700000208DF8060002208DF805008DF8070070
:102D8000C001009069460248FEF750F91CBD0000E2
:102D90000014024010B50446012C04D1010203487E
:102DA000FEF7B8F900E000BF00BF10BD00140240FC
:102DB00010B50446012C04D101020348FEF7ACF91A
:102DC00000E000BF00BF10BD0014024001462029F2
:102DD00001DB7E2902DD4FF0FF307047A1F12000BA
:102DE000FBE700000020044908700449087004490A
:102DF000087004490870704700000020010000209E
:102E0000020000200300002010B504460020034902
:102E1000087003A001F0BAFA10BD000018000020ED
:102E2000434F322053656E736F72204175746F206B
:102E3000436F6E74726F6C0D0A00000010B504468B
:102E40000A48007858B90AA001F0A0FA0B480168B6
:102E50000BA0FDF76DFA0BA001F098FA05E00AA0AF
:102E600001F094FA07A001F091FA10BD18000020BB
:102E7000434F322056616C75653A200014000020E3
:102E8000256400000D0A0000434F322073656E7305
:102E90006F7220776173206F6666000010B504467C
:102EA00001200349087003A001F070FA10BD000072
:102EB00018000020434F322053656E736F72204F0D
:102EC000666620436F6E74726F6C0D0A000000001E
:102ED00001460A2091FBF0F200FB12100A2291FB3E
:102EE000F2F240EA0210C0B27047000010B504468A
:102EF00001A001F04BFA10BD44656661756C742049
:102F000048616E646C65720D0A0000004FF0E021AC
:102F1000096921F001014FF0E022116145F2082119
:102F20004143491E5161002191611146096941F0F7
:102F30000101116100BF4FF0E021096901F4803106
:102F40000029F8D04FF0E021096921F001014FF08C
:102F5000E022116170474FF0E021096921F0010181
:102F60004FF0E022116145F208214143491E5161B1
:102F7000002191611146096941F00101116100BF11
:102F80004FF0E021096901F480310029F8D04FF0B9
:102F9000E021096921F001014FF0E0221161704741
:102FA0004FF0E021096921F001014FF0E0221161A9
:102FB00045F208214143491E5161002191611146AA
:102FC000096941F00101116100BF4FF0E021096979
:102FD00001F480310029F8D04FF0E021096921F097
:102FE00001014FF0E022116170474FF0E0210969C3
:102FF00021F001014FF0E0221161C0EBC00101EBB3
:103000004101491E5161002191611146096941F058
:103010000101116100BF4FF0E021096901F4803125
:103020000029F8D04FF0E021096921F001014FF0AB
:10303000E022116170474FF0E021096921F00101A0
:103040004FF0E0221161C0EBC00101EB4101491ECC
:103050005161002191611146096941F0010111613D
:1030600000BF4FF0E021096901F480310029F8D058
:103070004FF0E021096921F001014FF0E0221161D8
:103080007047704770B504460D46034B034A294606
:103090002046FDF775FF70BD500000204C00002059
:1030A00010B50446012C04D19FED030A00F062FA2A
:1030B00000E000BF00BF10BD0000000010B50446D6
:1030C000012C04D1B7EE000A00F054FA00E000BF72
:1030D00000BF10BD10B52DED068B0446204601F053
:1030E000EBFA41EC1A0B9FED090B53EC102B01F09E
:1030F0008BF941EC190B01F055F908EE100AB0EE0E
:10310000480A00F037FABDEC068B10BD0000000045
:103110000000594070B504460D4600BF80210548A7
:10312000FFF7F9FB0128F9D1A1B20248FFF7BFFC74
:10313000204670BD0010014010B54FF4A060FEF7AE
:103140001FFC00F0B5F800F013F800F033F800F0C1
:1031500037FEFFF705FE4FF4E13001F0ADF800F067
:10316000BBFE00F049FA00F015FC00F04BFF10BD6B
:103170001CB501211120FEF757FC00208DF804003A
:103180000120009000208DF8070069460748FDF7F0
:103190004DFF00208DF804001C20009000208DF8C9
:1031A000070069460248FDF741FF1CBD00000240D0
:1031B0000010024000B585B001211120FEF734FC5B
:1031C00001218803FEF750FC00208DF8100001203B
:1031D000039000208DF8130003A93348FDF726FF64
:1031E00000208DF810001C20039000208DF81300A3
:1031F00003A92E48FDF71AFF00210846FFF720F922
:1032000002210420FFF71CF903210420FFF718F91D
:1032100004210846FFF714F91D20019000208DF8C5
:1032200008000C208DF8090001208DF80A0001A883
:10323000FDF744FE06208DF8000000208DF8010007
:103240008DF8020001208DF803006846FEF75CFB54
:1032500008208DF8000001208DF801008DF8020093
:103260008DF803006846FEF74FFB09208DF800003B
:1032700002208DF801008DF8020001208DF8030076
:103280006846FEF741FB0A208DF8000002208DF809
:1032900001008DF8020001208DF803006846FEF75A
:1032A00033FB05B000BD00000000024000100240EA
:1032B0001CB501211020FEF7B7FB01212020FEF7ED
:1032C000B3FB01208DF8040000208DF806000220D9
:1032D0008DF805008DF807004FF4C0400090694656
:1032E0000F48FDF7A3FE4FF4C060009069460D48FB
:1032F000FDF79CFE4FF400710A48FDF70DFF4FF4F7
:1033000080610848FDF708FF4FF400510448FDF7BD
:1033100003FF4FF480410248FDF7FEFE1CBD000094
:10332000001002400014024010B50446012C06D0E3
:10333000022C0AD0032C0ED0042C18D111E04FF42B
:1033400000710C48FDF7E8FE12E04FF48061094877
:10335000FDF7E2FE0CE04FF400510748FDF7DCFEFC
:1033600006E04FF480410448FDF7D6FE00E000BFC0
:1033700000BF10BD001402400010024010B504460A
:10338000012C06D0022C0AD0032C0ED0042C18D10C
:1033900011E04FF400710C48FDF7BCFE12E04FF451
:1033A00080610948FDF7B6FE0CE04FF40051074874
:1033B000FDF7B0FE06E04FF480410448FDF7AAFE99
:1033C00000E000BF00BF10BD00140240001002402A
:1033D0001FB5FFF7B1FE34A30FCB8DE80F0061E0FE
:1033E00035480078012813D100BF582000F0BCFFF9
:1033F0000128FAD100BF684600F0C8FF0128FAD1C1
:103400002EA0FCF795FF0120FEF7CAFAFFF7EAFCB1
:103410002E480078012818D12D480078C043C0B24A
:103420002B49087028B14FF480612A48FDF774FEDB
:1034300004E04FF480612748FDF76CFE00F01CF9B2
:103440000020FEF7ADFAFFF7CDFC234800780128F5
:1034500012D100F047FD04463CB9204883784278F9
:1034600001781F48FCF764FF03E021461DA0FCF72C
:103470005FFFFFF7B7FC00BF2748007801280FD196
:1034800000F06CFA00F0A2FC04461CB923A0FCF783
:103490004FFF02E02CA0FCF74BFFFFF7A3FC00BF9F
:1034A00000F046F99CE7000048656C6C6F20576F90
:1034B000726C64210A000000000000204B45593165
:1034C00020507265737365640D0A000001000020CE
:1034D0000500002000140240020000202900002006
:1034E000DC47000874656D70657261747572655FA4
:1034F00068756D69646974795F73656E736F725F07
:103500006D656173757265206661696C65642C20F8
:103510007265743A25640A000300002074656D70BA
:10352000657261747572655F68756D6964697479D7
:103530005F73656E736F725F636865636B2073752D
:1035400063636573730A000074656D7065726174FE
:103550007572655F68756D69646974795F73656EAE
:10356000736F725F636865636B206661696C656425
:103570000A00000010B52DED028BB0EE408A9FEDE1
:10358000070A28EE000ABCEEC00A10EE101A044822
:10359000FFF7C6F8BDEC028B10BD000000007A44B6
:1035A0000004004010B54FF400710248FDF7A9FD7A
:1035B00010BD0000000002401FB500214FF48070D4
:1035C000FEF730FB0446012C03D04FF0FF3004B06F
:1035D00010BD6A464FF480710120FEF771FC012195
:1035E0000802FEF71FFB0446012C02D06FF0010019
:1035F000EDE70120EBE700000EB501210807FEF71B
:1036000023FA0120FEF7C6F90020FEF749FC19490C
:10361000884200D10EBDFEF795FD16490020FEF749
:10362000C1FD0120FEF7C4FA00BF4120FEF7A0FA59
:103630000128FAD10002FEF7D7FA0120FEF7CEFAF0
:10364000FEF780FD002000907F200190FF20029077
:103650006846FEF7F3FB002308221621402000F005
:1036600054F8062308221146104600F03BF800BF2C
:10367000D0E700001152110000B585B004A9012067
:10368000FEF77AFB03A90120FEF7B0FB9DF80E00C0
:103690009DF80D109DF80C20CDE9002102909DF8B9
:1036A00012309DF811209DF8131002A0FCF740FE87
:1036B00005B000BD52544320646174655F74696D48
:1036C000653A20256868782D256868782D25686812
:1036D0007820256868783A256868783A2568687897
:1036E0000D0A0000F8B504460D4616461F468DF833
:1036F00003408DF801508DF802608DF80070694626
:103700000120FEF753FC40B2F8BDF8B504460D4663
:1037100016461F468DF803408DF800508DF8016065
:103720008DF8027069460120FEF7A4FC40B2F8BD96
:1037300010B502490248FDF70BFC10BD50000020F7
:103740004C00002070B505460120FEF723F901204A
:10375000FEF744FAFEF7F6FC09480FC8FFF72CFF06
:103760000446012C07D1064883784278017805A0E9
:10377000FCF7DEFD03E021460CA0FCF7D9FD70BD8F
:10378000C80000207365745F616C61726D20737591
:1037900063636573733A2020256868783A25686802
:1037A000783A256868780D0A000000007365745F38
:1037B000616C61726D206661696C65642C20726554
:1037C000743A25640D0A000070B505460120FEF725
:1037D000E1F80120FEF702FAFEF7B4FC094E337857
:1037E000B2787178F078FFF77DFF0446012C03D1A1
:1037F00005A0FCF79DFD03E0214608A0FCF798FD1D
:1038000070BD0000C00000207365745F6461746562
:1038100020737563636573730D0A00007365745FCD
:1038200064617465206661696C65642C20726574DE
:103830003A25640D0A00000070B505460120FEF728
:10384000A9F80120FEF7CAF9FEF77CFC094EB3780F
:1038500072783178F078FFF758FF0446012C03D1D5
:1038600005A0FCF765FD03E0214608A0FCF760FD1C
:1038700070BD0000C40000207365745F74696D65DD
:1038800020737563636573730D0A00007365745F5D
:1038900074696D65206661696C65642C207265745D
:1038A0003A25640D0A00000070B504464FF0FF355C
:1038B00000BF02210A48FEF797FD0128F9D12146F1
:1038C0000748FEF79DFD00BF01210548FEF78CFD6E
:1038D0000128F9D10248FEF790FD05B2284670BDD7
:1038E0000030014010B50446C4F30B0018B112A01B
:1038F000FCF71EFD10BD00F09DF800F091F84FF4AC
:1039000080411548FDF706FC2020FFF7CDFFC4F3EA
:103910000740FFF7C9FFC4F30720FFF7C5FFE0B278
:10392000FFF7C2FF4FF480410B48FDF7F5FB00F0B5
:1039300077F800BFDEE700004572726F723A2049E7
:103940006E76616C696420736563746F7220616464
:1039500064726573730A00000004024010B50A48DF
:10396000006820B9094909680803FFF7BBFF074948
:1039700009680A030449096802EB01204FF48072C8
:10398000034900F069F810BD300000203400002029
:103990004C05002010B5FEF7B3FCFF22511C044873
:1039A000FCF738FEFF22511C0248FCF733FE10BD25
:1039B0004C0500204C06002070B500254FF48041D6
:1039C0000C48FDF7A7FB0520FFF76EFFFF20FFF770
:1039D0006BFF0446601C20B907A0FCF7A9FCFF2080
:1039E00070BDE5B24FF480410248FDF795FB2846D3
:1039F000F6E70000000402404572726F723A2046FA
:103A000061696C656420746F2072656365697665B1
:103A10002073746174757320627974650A00000004
:103A200010B500BFFFF7C8FF00F001000028F9D172
:103A300010BD000010B54FF480410648FDF76AFB49
:103A40000620FFF731FF4FF480410248FDF764FB89
:103A500010BD0000000402402DE9F04104460F466D
:103A60001546E0B220B119A0FCF762FCBDE8F08178
:103A7000B5F5807F01DD4FF48075FFF7DBFFFFF7C1
:103A8000CFFF4FF480411948FDF744FB0220FFF7B8
:103A90000BFFC4F30740FFF707FFC4F30720FFF74E
:103AA00003FFE0B2FFF700FF002604E0B85DFFF778
:103AB000FBFE701C86B2AE42F8DB4FF480410B482F
:103AC000FDF72AFBFFF7ACFF00BFCFE74572726F2F
:103AD000723A20496E76616C696420706167652076
:103AE000616464726573730A0000000000040240A0
:103AF00010B504460C2C03DD40200849C87002E0D4
:103B000000200649C870E0B2FFF7E2F903490870E7
:103B10000846017802A0FCF70BFC10BDC80000208D
:103B20007375626D69745F616C61726D2E5254437E
:103B30005F416C61726D54696D652E5254435F48EC
:103B40006F7572733A20256868780D0A00000000CE
:103B500010B50446E0B2FFF7BBF9044948700846C7
:103B6000417803A0FCF7E4FB10BD0000C800002072
:103B70007375626D69745F616C61726D2E5254432E
:103B80005F416C61726D54696D652E5254435F4D97
:103B9000696E757465733A20256868780D0A0000AF
:103BA00010B50446E0B2FFF793F90449887008465F
:103BB000817803A0FCF7BCFB10BD0000C80000200A
:103BC0007375626D69745F616C61726D2E525443DE
:103BD0005F416C61726D54696D652E5254435F5341
:103BE00065636F6E64733A20256868780D0A00007B
:103BF00010B50446E0B2FFF76BF904498870084637
:103C0000817803A0FCF794FB10BD0000C0000020E9
:103C10007375626D69745F646174652E5254435F9D
:103C2000446174653A20256868780D0A0000000038
:103C300010B50446E0B2FFF74BF904494870084656
:103C4000417803A0FCF774FB10BD0000C000002009
:103C50007375626D69745F646174652E5254435F5D
:103C60004D6F6E74683A20256868780D0A00000070
:103C700010B50446E0B2FFF72BF904490870084676
:103C8000017803A0FCF754FB10BD0000C000002029
:103C90007375626D69745F646174652E5254435F1D
:103CA0005765656B4461793A20256868780D0A008C
:103CB00010B50446E0B2FFF70BF90449C870084696
:103CC000C17803A0FCF734FB10BD0000C000002049
:103CD0007375626D69745F646174652E5254435FDD
:103CE000596561723A20256868780D0A0000000065
:103CF00010B50446E0B2FFF7EBF8084908700C2C49
:103D000002DD4020C87002E000200449C87003486A
:103D1000017803A0FCF70CFB10BD0000C4000020DC
:103D20007375626D69745F74696D652E5254435F7B
:103D3000486F7572733A20256868780D0A00000094
:103D400010B50446E0B2FFF7C3F8044948700846CE
:103D5000417803A0FCF7ECFA10BD0000C40000207D
:103D60007375626D69745F74696D652E5254435F3B
:103D70004D696E757465733A20256868780D0A0080
:103D800010B50446E0B2FFF7A3F80449887008466E
:103D9000817803A0FCF7CCFA10BD0000C40000201D
:103DA0007375626D69745F74696D652E5254435FFB
:103DB0005365636F6E64733A20256868780D0A0056
:103DC00010B56FF00400FEF7DFFB10BD70B50024E6
:103DD0000025012000F0EAF84FF400713B48FDF7A0
:103DE00099F914204FF0E021096921F001014FF009
:103DF000E022116145F2082110FB01F1491E5161D9
:103E0000002191611146096941F00101116100BF72
:103E100000BF4FF0E021096901F480310029F8D09A
:103E20004FF0E021096921F001014FF0E02211611A
:103E300000BF4FF400712548FDF76EF91E20FFF713
:103E4000D4F8002000F0B2F802E00120FFF7CDF82E
:103E50001E481030006800F40070012804D120468C
:103E6000641C1B498842F0D31A48844202D94FF09F
:103E7000FF3070BD002403E0641C0120FFF7B5F89B
:103E800012481030006800F4007010B911488442E4
:103E9000F2D31048844202D96FF00100E9E703E051
:103EA0006D1C0120FFF7A1F808481030006800F4ED
:103EB000007010B107488542F2D30648854202D906
:103EC0006FF00200D5E70020D3E7000000180240A1
:103ED00040420F00A086010010B501214020FDF7EF
:103EE000A3FD10BD2DE9FC41002500260020009017
:103EF0000190FFF76BFF074617B13846BDE8FC811C
:103F000000243FE003E06D1C0120FFF76EF8244819
:103F1000006800F4007010B922488542F3D32148AC
:103F2000854202D96FF00100E8E703E0761C01202A
:103F3000FFF75BF81A48006800F4007010B11948E8
:103F40008642F3D31E2E1AD9E21704EB5272D21016
:103F50001DF802202146E31704EB5373DB10A4EB9A
:103F6000C303C3F1070C012303FA0CF31A43D2B2C3
:103F70002046E31704EB5373DB100DF80320641C99
:103F800000250026282CBDDB9DF80200064908709C
:103F90009DF8000048709DF8040088700020ADE78F
:103FA00010180240A0860100290000201CB504461C
:103FB0004FF40070009000208DF805008DF804404B
:103FC0008DF807008DF8060069460248FDF72EF8C7
:103FD0001CBD00000018024010B54FF4C070FCF783
:103FE00050F904465CB14FF4BE712046FCF73CFB2F
:103FF000002084F87C0184F87D0184F87E0120464D
:1040000010BD000010B540A000F0C0F9FFF7E4FFBC
:1040100040490860012211463FA000F023F9012227
:1040200002213FA000F01EF9012203213FA000F071
:1040300019F90122042140A000F014F90122052100
:1040400040A000F00FF90122062140A000F00AF97B
:104050000122072140A000F005F90122082141A01A
:1040600000F000F90122092141A000F0FBF8002234
:104070000A2142A000F0F6F800220B2143A000F034
:10408000F1F801220C2146A000F0ECF801220D21EC
:1040900047A000F0E7F801220E2149A000F0E2F865
:1040A00001220F214AA000F0DDF8012210214CA0CE
:1040B00000F0D8F8012211214DA000F0D3F8012220
:1040C00012214FA000F0CEF80022132150A000F0E2
:1040D000C9F80022142151A000F0C4F801221521D2
:1040E00051A000F0BFF80122162153A000F0BAF849
:1040F0000122172154A000F0B5F80022182156A083
:1041000000F0B0F810BD0000747269655F696E69F7
:10411000740D0A00480000206C65642D6F6E2D0040
:104120006C65642D6F66662D000000006265657029
:104130002D6F6E2D00000000626565702D6F666644
:104140002D00000066616E2D6F6E2D0066616E2D74
:104150006F66662D0000000066616E2D73706565E8
:10416000642D0000636F322D6175746F2D000000A7
:10417000636F322D6F66662D00000000636F322D75
:104180006765742D76616C75650000006573703825
:104190003236362D6E65742D696E6974000000002C
:1041A0007375626D69742D74696D652D682D0000DD
:1041B0007375626D69742D74696D652D6D2D0000C8
:1041C0007375626D69742D74696D652D732D0000B2
:1041D0007375626D69742D646174652D792D0000AD
:1041E0007375626D69742D646174652D6D2D0000A9
:1041F0007375626D69742D646174652D642D0000A2
:104200007375626D69742D646174652D772D00007E
:104210007365742D74696D65000000007365742DFD
:1042200064617465000000007375626D69742D61CE
:104230006C61726D2D682D007375626D69742D61EE
:104240006C61726D2D6D2D007375626D69742D61D9
:104250006C61726D2D732D007365742D616C6172CC
:104260006D0000002DE9F04105460F4690461148CB
:10427000046812E02878FEF7A9FD0646002E01DA50
:104280006D1C0AE054F8260018B9FFF7A5FE44F8A3
:10429000260054F826406D1C00BF28780028E9D17C
:1042A00084F87C7184F87D81012084F87E01BDE86A
:1042B000F08100004800002010B588B004460121BC
:1042C0001020FDF7D1FB01210846FDF7ADFB0220D0
:1042D0008DF81C0000208DF81E004FF4C060069081
:1042E00000208DF81F0002208DF81D0006A91C4833
:1042F000FCF79CFE072209211948FCF7DFFE072284
:104300000A211748FCF7DAFE02940020ADF80C00F1
:10431000ADF81000ADF80E000C20ADF81200002032
:10432000ADF8140002A90F48FEF752FB25208DF8C6
:10433000040000208DF805008DF8060001208DF89E
:10434000070001A8FDF7E0FA012240F225510548D7
:10435000FEF718FB01210348FEF7D1FA08B010BDA3
:10436000000002400010014010B5044600BF80214B
:104370000548FEF7D0FA0028F9D021460248FEF79A
:1043800096FB012010BD00000010014010B504464E
:1043900003E014F8010BFFF7E7FF20780028F8D1BD
:1043A000012010BD21F00042A2F16052B2F5801F41
:1043B00001F0004328BFD2F17F6C0BD95FEA001CEB
:1043C00043EAC20242EB507018BF704728BF20F08A
:1043D00001007047B2F5801FBCBF184670474FEA16
:1043E000410C1CF5001F02D2084600F0D5B970B58B
:1043F00000F079F900000089FFF7F6BF4FF00040A8
:10440000A0F58000704700002DE9C04130B4DFF80E
:10441000A0C23CEA111418BF3CEA131400F0EC806F
:1044200081EA03051CEA111444EAD57418BF1CEA9A
:10443000131500F0C780A4EB05044FF0004545EAD2
:10444000C12145EAC32341EA505143EA525304F1E2
:104450007F74994204F500344FEAC0204FEAC2222B
:1044600008BF904200F09C804FEA13650FF240169F
:10447000765D4FEA134506FB05F7C7F1807706FB2B
:1044800007F74FEAD737A7FB03687642C8F58038AD
:10449000A7FB06CE38BFA8F1010807FB08E64FF0DE
:1044A000000EA6FB028CE6FB03CEDCF1000CCEF185
:1044B000004E38BFAEF1010EA6FB0C584FF00007BE
:1044C0004FF00005E6FB0E87A1FB08C6A0FB07CE58
:1044D00016EB0E0645F10005E1FB076515F1E04E10
:1044E0007EBFA4F580345FEA46066D4116F1800771
:1044F00045F100054FEA17274FEA066647EA0567C8
:10450000A6F1DE46B6F1805F4FEA15251FD9384681
:1045100024F0010C05EBC471BCF1FE6F01EB0C1132
:1045200002D8F0BCBDE8008124425CBF01F5801ECA
:104530009EEAC47F02D4F0BCBDE80081244238D496
:10454000F0BCA1F1C041BDE8004100F01AB94FEA4A
:10455000D22242EA43524FEAD323A7FB02864FEA14
:10456000D02040EA415007FB03661EEA0E0F4FEAD7
:10457000D12105FB026658BFA6EB0056B6EB0056EC
:104580004FEA520E4EEAC37E18EB0E0E56EB530E58
:10459000BDD518EB02085E417F1C55F10005B6E75A
:1045A0004FF480154FF000074FF000064FF0000861
:1045B000ADE7F0BC4FF0000001F1C04101F0004157
:1045C000BDE8008111EA0C1F0CEA131500D00CE0C5
:1045D00013EA0C1F00F025804FF00000F0BC81EAC8
:1045E000030101F00041BDE80081F0BCBDE80041DD
:1045F00081EA030100F0C5B8F0BCBDE8004170B528
:1046000000F071F8097EFC3E00F007B881EA030172
:104610004FF0000001F00041704781EA030100F013
:10462000B0B8F0BCBDE800414FF000002149704730
:10463000FFFDFBF9F7F5F4F2F0EEEDEBE9E8E6E467
:10464000E3E1E0DEDDDBDAD8D7D5D4D3D1D0CFCDEE
:10465000CCCBCAC8C7C6C5C4C2C1C0BFBEBDBCBB27
:10466000BAB9B8B7B6B5B4B3B2B1B0AFAEADACAB22
:10467000AAA9A8A8A7A6A5A4A3A3A2A1A09F9F9EFC
:104680009D9C9C9B9A9999989797969595949393AE
:10469000929191908F8F8E8E8D8C8C8B8B8A898945
:1046A00088888787868585848483838282818180C8
:1046B0000000FF070000F87F10F0004248BF4042B2
:1046C000B0FA80F310FA03F10AD0C3F11D0303F529
:1046D00080634FEA415002EB035202EBD121704755
:1046E0004FF0000070470EF1020E2EF0030E5EF840
:1046F000046B364205D4012A43EB030515F5001F70
:1047000012D8012841EB010C1CF5001F0CD80ED16A
:104710004FEAD17C15F5001F0CEB4C0C0CF1020C90
:1047200008BF4CEBD37C04E04FF0080C01E04FEAEB
:10473000D37C0CEB4C0526FA05F606F00706B6F11D
:10474000040C06D20EEB860CBDE870404CF0010C58
:104750006047DFE80CF0090B02024FF000414FF018
:104760000000A1F5002170BD19461046012851EB4B
:10477000010418BFD4F5001484BF002001F00041EB
:1047800070BD0808A0F500114FEA310170474FF0E5
:104790004070E1EE100A7047FF2141EAD050C00599
:1047A000704730313233343536373839414243443B
:1047B0004546403058003031323334353637383999
:1047C00061626364656640307800040000080000A0
:1047D00000000000000200010000100074656D7010
:1047E000657261747572655F68756D696469747905
:1047F0005F73656E736F725F6D656173757265204F
:10480000737563636573732C2074656D7065726175
:10481000747572653A25642C2068756D69646974D5
:10482000793A25642C20636865636B73756D3A254E
:10483000640A000066616E2D73706565642D00006A
:10484000636F322D6F66662D000000006C65642D6D
:104850006F66662D0000000066616E2D6F66662D26
:1048600000000000626565702D6F66662D00000017
:104870006C65642D6F6E2D0066616E2D6F6E2D0060
:10488000626565702D6F6E2D00000000636F322D24
:104890006175746F2D000000636F322D6765742D94
:1048A00076616C756500000064656661756C740006
:1048B000D048000800000020E8000000C401000803
:1048C000B8490008E800002018470100E00100088E
:1048D00000000000000000000000000000000000D8
:1048E00000000000000000000000000000000000C8
:1048F00000000000000000000000000000000000B8
:10490000000000000000000000FFFFFFFFFFFF00AD
:104910000000000000000000000000000000000097
:1049200000000000A84800080000000070480008CF
:10493000010000004C480008010000008048000809
:1049400001000000644800080100000078480008E9
:104950000100000058480008010000003448000829
:10496000010000008C4800080100000040480008D9
:1049700001000000984800080000000000FF00004F
:104980000000000000000000000000000000000027
:1049900005050826160800001609004000000080E2
:1049A00000000000000000000000000001020304FD
:0849B0000102030406070809D7
:0400000508000241AC
:00000001FF
