:020000040800F2
:10000000800901203902000841020008430200086B
:1000100045020008470200084902000800000000ED
:100020000000000000000000000000004B0200087B
:100030004D020008000000004F02000851020008B5
:10004000530200085302000853020008530200083C
:100050005302000853020008010800085302000878
:100060003908000875080008B108000853020008A4
:10007000530200085302000853020008530200080C
:1000800053020008530200085302000853020008FC
:1000900053020008530200085302000853020008EC
:1000A00053020008DD0F0008530200085302000845
:1000B000F50F000839100008530200085302000829
:1000C00053020008530200085302000853020008BC
:1000D00053020008DD1100080D1200083D1200084F
:1000E000530200085302000853020008530200089C
:1000F0008110000853020008530200085302000850
:10010000530200085302000853020008530200087B
:10011000530200085302000853020008530200086B
:10012000530200085302000853020008530200085B
:10013000530200085302000853020008530200084B
:10014000530200085302000853020008530200083B
:10015000530200085302000853020008530200082B
:10016000530200085302000853020008530200081B
:10017000530200085302000853020008530200080B
:10018000530200085302000800F002F800F045F89E
:100190000AA090E8000C82448344AAF10107DA45E2
:1001A00001D100F03AF8AFF2090EBAE80F0013F0EF
:1001B000010F18BFFB1A43F0010318475823000032
:1001C00078230000103A24BF78C878C1FAD85207C3
:1001D00024BF30C830C144BF04680C6070470000C1
:1001E0000023002400250026103A28BF78C1FBD840
:1001F000520728BF30C148BF0B607047642900F028
:100200009F80002070471FB502F03BF99DE8030076
:1002100000F0A0F91FBD10B510BD00F07EFA114628
:10022000FFF7F1FF01F0AEFB00F09CFA03B4FFF71B
:10023000F2FF03BC01F028F909488047094800474C
:10024000FEE7FEE7FEE7FEE7FEE7FEE7FEE7FEE786
:10025000FEE7FEE704480549054A064B70470000E3
:10026000750F000889010008800500208009012021
:100270008005012080050120704770B5064600F01A
:100280004DF9056806F10B0020F00704B4429CBF4D
:10029000002070BD2B466A68BAB11068A04210D326
:1002A00004F1080188423CBF5068586007D3516888
:1002B000101941601168091B016058601460101D1D
:1002C00070BD13465268002AE7D12146284600F047
:1002D0002DF90028DED170BD70B50446051F00F071
:1002E0001DF90068002C14BF446870BD002C18BFB5
:1002F000AC423CBF20466468F8D301680A18AA42A1
:1003000018BF456003D12A6805461144016028687A
:100310004119A1421CBF6C6070BD616869602168B1
:100320000844286070BD00000FB4044910B503AA4A
:10033000029800F0B7F910BC5DF814FB2C00002007
:100340002DE9F0410646002410687529314616A5AE
:1003500010D0AFF30080002802DA404213A507E076
:1003600031688A0701D512A502E0490704D511A515
:10037000012401E0AFF3008000210A2206F12407E6
:1003800009E0B0FBF2FCB0FBF2F302FB1C003030E2
:1003900078541846491C0028F3D123462A46304693
:1003A000BDE8F04100F00CB9000000002D00000095
:1003B0002B000000200000002DE9F0474FF0000A5C
:1003C00089460446C0F820A02046E16888470028F6
:1003D00076D0252806D0D4E901219047206A401C18
:1003E0002062F1E7E168204600258847C4F81CA098
:1003F00006460027C4F818A02A2E09D0304601F07E
:100400003CF838B304EB8708303EC8F8186019E0B0
:1004100059F8041B204604EB87029161E168884784
:10042000012F064618D1E069002820DA25F02005C2
:100430001DE0D8F8180000EB800006EB40003038D3
:10044000C8F818002046E1688847064601F015F80C
:100450000028EED1012F0AD02E2E08D12046E168C7
:1004600088477F1C0646022F45F02005C4DBA069A3
:10047000002803DA404245F00105A061E80701D0F9
:1004800025F01005B6B1A6F14100192802D8203692
:1004900045F400654A463146204625604D46FFF743
:1004A000ADFE58B1012806D0ED1D25F0070000F182
:1004B000080989E704E005F1040985E730468AE781
:1004C000206ABDE8F0874FF0000200B5134694465D
:1004D0009646203922BFA0E80C50A0E80C50B1F19C
:1004E0002001BFF4F7AF090728BFA0E80C5048BFB0
:1004F0000CC05DF804EB890028BF40F8042B08BF4E
:10050000704748BF20F8022B11F0804F18BF00F849
:10051000012B7047704770477047000000487047D4
:1005200028050020704770477047704738B504466B
:100530000A4600206946AFF30080002808BF38BD96
:1005400002460099204600F0C3F8012038BD012082
:1005500000F0DCB8F8B5AFF30080054600200C468B
:10056000102000BF0646A819A0420DD932466946A0
:100570000020AFF30080070008BF00F0C7F8009824
:10058000A04218BF0546C419FFF7C8FF056007461B
:10059000F01D20F007004619284600F00AF8B44282
:1005A00008BFF8BDA21B31463868BDE8F84000F02E
:1005B0008FB800210160C0E901107047102070471A
:1005C0002DE9F0470D4699469246044600F124086D
:1005D0000168880604D5E06921F01001216000E07F
:1005E0000120A84201DD471B00E00027A1697A191C
:1005F00002EB0900081AA0612078C00602D4204648
:10060000AFF30080002608E0D4E901211AF80600C3
:100610009047206A401C761C20624E45F4DB20780F
:10062000C0060AD52046AFF3008006E0D4E90121D8
:1006300030209047206A401C2062381EA7F1010735
:10064000F4DC07E0D4E9012118F805009047206A9E
:10065000401C2062281EA5F10105F3DC2046AFF303
:1006600000802078000602D50220BDE8F087012036
:10067000FBE7000001694A1C02610878704700B579
:100680008FB0CDE901310021059105497944CDE9CB
:10069000031011466846FFF78FFE0FB000BD000043
:1006A000E5FFFFFF074B70B50D467B44FFF7E7FF03
:1006B0000446284600F026F810B14FF0FF3070BD18
:1006C000204670BD9B1000000048704720050020A8
:1006D000034640688C46002818BF88423CBF03464A
:1006E0004068F8D318681844884207D00CF103001A
:1006F00020F00700001D411A521A0146081D0A6029
:10070000FFF7EABD007B00F08000704710B500F0F5
:1007100035F8BDE8104000F02BB87546FFF7D4FF60
:10072000AE4605006946534620F00700854618B0DE
:1007300020B5FFF78FFDBDE820404FF000064FF0D9
:1007400000074FF000084FF0000B21F00701AC4606
:10075000ACE8C009ACE8C009ACE8C009ACE8C00925
:100760008D4670470446AFF300802046FFF75EFDDC
:10077000002801D000F088BE7047000010B50128A5
:1007800005D0002103A000F021F8012010BD09A12F
:10079000F8E7000053494752544D454D3A204F75F4
:1007A00074206F662068656170206D656D6F727969
:1007B000000000003A2048656170206D656D6F7221
:1007C0007920636F727275707465640070B5054648
:1007D0000C460A2000E06D1C00F058FE35B1287868
:1007E0000028F8D102E0641C00F050FE14B120781B
:1007F0000028F8D1BDE870400A2000F047BE000094
:1008000010B5012000F076F801280BD106490870D8
:100810000020064908700649087006490870012042
:1008200000F062F810BD0000000000200100002070
:10083000020000200300002010B5042000F05AF848
:1008400001280DD1002007490870012006490870D1
:1008500000200649087006490870042000F044F89A
:1008600010BD000000000020010000200200002058
:100870000300002010B5082000F03CF801280DD13D
:1008800000200749087007490870012006490870D0
:10089000002006490870082000F026F810BD00006E
:1008A00000000020010000200200002003000020C2
:1008B00010B5102000F01EF801280CD100200649C8
:1008C000087006490870064908700120054908703B
:1008D000102000F009F810BD0000002001000020E9
:1008E000020000200300002001490860704700005A
:1008F000143C014001460020034A12680A400AB134
:10090000012000E000207047143C014000212349F1
:100910008279002A3AD00A46126803689A430B4645
:100920001A600A1D126803689A430B1D1A60027947
:1009300011440A6803681A430A60184A08321268A8
:1009400003689A43154B08331A601A1D126803682E
:100950009A43124B0C331A604279102A0ED11A1F97
:10096000126803681A430D4B08331A601A1D126887
:1009700003681A43094B0C331A600DE007494279AA
:1009800011440A6803681A430A6005E002791144B9
:100990000A6803689A430A6070470000003C0140FF
:1009A00070B504460E468CB1206878B12568D5E94B
:1009B00000108847206880682060206808B90020FF
:1009C00030602846FFF788FC012070BD0020FCE75E
:1009D0002DE9F0410746884616461D460C20FFF7D4
:1009E0004CFC044624B910A001F04AFBBDE8F0819C
:1009F0002760C4F804800020A0602EB1306818B9C8
:100A000015B134602C600CE046B1306830B12DB1C6
:100A1000286818B1286884602C6002E009A001F001
:100A20002FFB00BFE2E700004576656E745F5075EE
:100A300073683A206D616C6C6F63206661696C65E8
:100A4000640A00004576656E745F507573683A20DD
:100A50006576656E745F7175657565206F7220656A
:100A600076656E745F71756575655F7461696C201C
:100A70006973204E554C4C0A00000000F0B50A4640
:100A800000210023002400BF3DE0012505FA01F309
:100A9000156805EA03049C4234D105684F0003261B
:100AA000BE40B543056015794E00B5400668354334
:100AB00005601579012D02D01579022D16D18568B2
:100AC0004F000326BE40B543856055794E00B540C2
:100AD000866835438560456801268E40B54345608C
:100AE000456896798E40B6B235434560C5684F007B
:100AF0000326BE40B543C560D5794E00B540C668F3
:100B00003543C560491C1029BFD3F0BDF0B50023A3
:100B100000244D07ED0E02FA05F3CE1000F120057A
:100B200055F826504E07F70E0F26BE40B543CF109E
:100B300000F1200646F82750CE1000F1200555F8A8
:100B4000265045EA0304CE1000F1200545F8264062
:100B5000F0BD0246002013690B400BB1012000E0FC
:100B600000207047418370470183704770B5044689
:100B70000D460C2C5BD2DFE804F0060D141B222975
:100B800030373E454C532B4B2B4A29462B48FFF719
:100B90001FFF4DE0274B284A29462948FFF718FF39
:100BA00046E0244B244A29462648FFF711FF3FE040
:100BB000204B214A29462448FFF70AFF38E01D4B05
:100BC0001D4A29462148FFF703FF31E0194B1A4A15
:100BD00029461F48FFF7FCFE2AE0164B164A294615
:100BE0001C48FFF7F5FE23E0124B134A29461A482A
:100BF000FFF7EEFE1CE00F4B0F4A29461748FFF7A0
:100C0000E7FE15E00B4B0C4A29461548FFF7E0FEBE
:100C10000EE0084B084A29461248FFF7D9FE07E0C4
:100C2000044B054A29461048FFF7D2FE00E000BFFA
:100C300000BF70BD3C000020380000201D160008D9
:100C400031190008DD180008FD140008E11400083F
:100C5000F1160008D51600080917000855150008F8
:100C6000E915000889150008D316000870B50021A1
:100C700000230F22C4781CB3174C246804F4E064EA
:100C8000C4F5E064C4F30721C1F10404E3B20A41EE
:100C900044789C40E1B28478144021430C07210E33
:100CA0000E4C05786155047804F01F050124AC4012
:100CB00005786D11AD0005F1E025C5F8004109E0AA
:100CC000047804F01F050124AC40054D0678761128
:100CD00045F8264070BD00000CED00E000E400E0A7
:100CE00080E100E002490143024A116070470000C0
:100CF0000000FA050CED00E029B1064A1268024333
:100D0000044B1A6004E0034A12688243014B1A60E4
:100D1000704700003038024029B1064A1268024389
:100D2000044B1A6004E0034A12688243014B1A60C4
:100D30007047000044380240F0B500210022002432
:100D4000022500260223324F3F6807F00C0121B133
:100D5000042905D0082937D105E02E4F076036E079
:100D60002D4F076033E02A4F3F1F3F68C7F380567F
:100D7000274F3F1F3F6807F03F036EB1264FB7FB79
:100D8000F3F7DFF88CC0ACF1040CDCF800C0CCF356
:100D9000881C07FB0CF40CE01E4FB7FBF3F7DFF8E1
:100DA00070C0ACF1040CDCF800C0CCF3881C07FB6D
:100DB0000CF4174F3F1F3F68C7F301477F1C7D00AE
:100DC000B4FBF5F7076002E0124F076000BF00BFF9
:100DD0000F4F3F6807F0F0010909104F7A5C076870
:100DE000D74047600A4F3F6807F4E051890A0B4F2C
:100DF0007A5C4768D7408760054F3F6807F46041D9
:100E0000490B064F7A5C4768D740C760F0BD0000C9
:100E1000083802400024F40000127A00A9000020E3
:100E200030B500228B071C0F0F2303FA04F20B4B83
:100E30008C1053F824309343084C8D1044F825301F
:100E400023468C1053F824308C07240F00FA04F446
:100E50002343024C8D1044F8253030BD0838014042
:100E60000CB50020019000903448006840F48030B8
:100E70003249086000BF3148006800F4003000903B
:100E80000198401C0190009818B90198B0F5A04F46
:100E9000F1D12A48006800F4003010B10120009020
:100EA00001E0002000900098012846D123484030FE
:100EB000006840F0805021494031086020480068B7
:100EC00040F440401E4908601C48083000681B4937
:100ED000083108600846006840F400400860084691
:100EE000006840F4A05008601648091F0860081FF9
:100EF000006840F08070091F086000BF0F4800685C
:100F000000F000700028F9D040F205700E4908602A
:100F10000A480830006820F00300084908310860DA
:100F20000846006840F00200086000BF034808302F
:100F3000006800F00C000828F8D10CBD0038024011
:100F40000070004008544007003C0240042808D1CB
:100F50004FF0E021096941F004014FF0E0221161F6
:100F600007E04FF0E021096921F004014FF0E02291
:100F70001161704710B51548006840F470001349BE
:100F800008601348006840F0010011490860002023
:100F90000F49083108600E4800680E4908400C49A6
:100FA00008600D48091D0860081F006820F48020B3
:100FB000091F0860002006490C310860FFF750FF48
:100FC0004FF0006001498039086010BD88ED00E0F5
:100FD00000380240FFFFF6FE1030002410B501215A
:100FE000034800F06EF80121014800F067F810BDD9
:100FF0000000014010B50121880700F062F888B1B7
:101000000B480078C043C0B20949087028B14FF4BA
:1010100080610848FFF7A8FD04E04FF480610548AF
:10102000FFF7A0FD0121880700F048F810BD00007F
:10103000050000200014024010B501210D4800F009
:1010400040F888B10C480078C043C0B20A49087023
:1010500028B14FF400510948FFF786FD04E04FF432
:1010600000510648FFF77EFD0121024800F026F8F6
:1010700010BD0000000400400600002000100240E7
:1010800010B501210B4800F01CF868B100F0C6FD56
:1010900028B94FF480710848FFF766FD04E04FF46B
:1010A00080710548FFF75EFD0121024800F006F857
:1010B00010BD00000004014000140240CA43028237
:1010C000704730B50246002000230024158A05EA47
:1010D0000103958905EA010413B10CB1012000E078
:1010E000002030BD4163704770B504463748006842
:1010F00018B937480068354908600A2C09D13448C6
:10110000006832490860002032490860324908709E
:1011100070BD3148007818B3302C12DB392C10DC4C
:10112000A4F130002B49096801EB810100EB41007B
:101130002849086008460068642801DD64200860CA
:10114000E6E72448016824480078FFF70FFD0020F7
:10115000214908701F4908601D4800681B49086044
:10116000204600F0D9F90546002D28DB1748006815
:1011700050F8250018B31548006850F825001349A9
:1011800008600846006890F87E01E0B108460068F3
:1011900090F87C01104908700C48006890F87D01B7
:1011A00088B94FF0FF310C480078FFF7DFFC0020D2
:1011B00009490870064800680449086003E00448CB
:1011C00000680249086000BFA2E70000A0000020FC
:1011D00034000020A4000020A800002010B540F238
:1011E0002551094800F086F801280CD1064800F086
:1011F0003BF9C4B22046FFF777FF40F22551024881
:1012000000F050F800BF10BD0010014010B540F2D2
:101210002551094800F06EF801280CD1064800F06D
:1012200023F90446E0B200F019FF40F225510248CC
:1012300000F038F800BF10BD0044004010B5002495
:1012400040F22551124800F055F801281FD11048EE
:1012500000F00AF9C4B20F490868411C0D4A116038
:101260000D490C540D48006820B17D2C02D101209D
:101270000B49086007480068B0F5007F02D30120E1
:101280000749086040F22551014800F00BF810BDF5
:10129000004800401C000020BC0200202400002068
:1012A0002000002010B50022002340F66A14A1425D
:1012B00000D100BF0A1201249440A3B2DC43048091
:1012C00010BD21B1828942F40052828104E08289FA
:1012D0004DF6FF731A408281704702460020B1F537
:1012E000007F00D100BF13880B400BB1012000E04C
:1012F0000020704770B5024600240023002500201E
:1013000040F66A16B14200D100BFC1F3421501F0A8
:101310001F03012606FA03F3012D02D196893340FB
:1013200006E0022D02D1168A334001E0968A33404E
:101330000C12012606FA04F41688344013B10CB1DD
:10134000012000E0002070BDF0B503460024002617
:101350000025002040F66A17B94200D100BF1846A8
:10136000C1F3421401F01F06012707FA06F5012C0C
:1013700001D10C3004E0022C01D1103000E0143017
:101380001AB107682F43076002E00768AF430760A0
:10139000F0BD00002DE9FF4705460E460024A1469A
:1013A00000BFA046B08900B100BF2C8A24F440548D
:1013B000F08804432C82AC8941F20C608443B088ED
:1013C00031890843718908430443AC81AC8A24F411
:1013D0004074B0890443AC826846FFF7ADFC2048F6
:1013E000854202D01F48854202D1DDF80C9001E011
:1013F000DDF80890A88900F4004040B109EBC9006D
:1014000000EB091031684900B0FBF1F707E009EB88
:10141000C90000EB091031688900B0FBF1F76420C6
:10142000B7FBF0F004012009642101FB1078A889C2
:1014300000F4004040B1322000EBC800B0FBF1F0F6
:1014400000F00700044308E0322000EB081064219C
:10145000B0FBF1F000F00F0004432C81BDE8FF87E2
:10146000001001400014014001468888C0F30800C4
:101470007047C1F308028280704730380A2801D2D1
:10148000012070470020704700BFFEE710B50446FA
:1014900000BF80210448FFF720FF0128F9D1A1B245
:1014A0000148FFF7E6FF10BD001001401CB5012107
:1014B0002020FFF721FC01208DF8040000208DF88A
:1014C000060002208DF805008DF80700C00100908D
:1014D00069460248FFF7D2FA1CBD00000014024022
:1014E00010B50446012C04D101020348FFF73AFB72
:1014F00000E000BF00BF10BD0014024010B504465C
:10150000012C04D101020348FFF72EFB00E000BFCD
:1015100000BF10BD001402400146202901DB7E29D6
:1015200002DD4FF0FF307047A1F12000FBE7000023
:1015300000200449087004490870044908700449EF
:101540000870704700000020010000200200002009
:101550000300002010B5044600200349087003A0D2
:1015600000F08EFD10BD000018000020434F322017
:1015700053656E736F72204175746F20436F6E7484
:10158000726F6C0D0A00000010B504460A4800781E
:1015900058B90AA000F074FD0B4801680BA0FEF7D3
:1015A000C3FE0BA000F06CFD05E00AA000F068FD92
:1015B00007A000F065FD10BD18000020434F322049
:1015C00056616C75653A2000140000202564000007
:1015D0000D0A0000434F322073656E736F722077DF
:1015E0006173206F6666000010B504460120034950
:1015F000087003A000F044FD10BD0000180000209A
:10160000434F322053656E736F72204F66662043DE
:101610006F6E74726F6C0D0A0000000010B5044606
:1016200001A000F02DFD10BD44656661756C74204D
:1016300048616E646C65720D0A0000004FF0E02195
:10164000096921F001014FF0E022116145F2082102
:101650004143491E5161002191611146096941F0E0
:101660000101116100BF4FF0E021096901F48031EF
:101670000029F8D04FF0E021096921F001014FF075
:10168000E022116170474FF0E021096921F001016A
:101690004FF0E0221161C0EBC00101EB4101491E96
:1016A0005161002191611146096941F00101116107
:1016B00000BF4FF0E021096901F480310029F8D022
:1016C0004FF0E021096921F001014FF0E0221161A2
:1016D0007047704710B50446012C04D19FED030AF2
:1016E00000F0EAF900E000BF00BF10BD00000000FC
:1016F00010B50446012C04D1B7EE000A00F0DCF965
:1017000000E000BF00BF10BD10B52DED068B0446F4
:10171000204600F04BFE41EC1A0B9FED090B53ECF9
:10172000102B00F0EBFC41EC190B00F0B5FC08EEBF
:10173000100AB0EE480A00F0BFF9BDEC068B10BDF0
:10174000000000000000594070B504460D4600BF7F
:1017500080210548FFF7C1FD0128F9D1A1B2024857
:10176000FFF787FE204670BD0010014010B54FF412
:10177000A060FFF7B7FA00F011F800F031F800F0C0
:1017800061FAFFF793FE4FF4E13000F00FFC00F038
:10179000A7FB00F0BDFA00F0EDFA10BD1CB5012169
:1017A0001120FFF7A9FA00208DF804000120009015
:1017B00000208DF8070069460748FFF75FF9002011
:1017C0008DF804001C20009000208DF80700694669
:1017D0000248FFF753F91CBD000002400010024010
:1017E00000B585B001211120FFF786FA0121880399
:1017F000FFF792FA00208DF81000012003900020DE
:101800008DF8130003A93348FFF738F900208DF84D
:1018100010001C20039000208DF8130003A92E480F
:10182000FFF72CF900210846FFF7FAFA02210420FD
:10183000FFF7F6FA03210420FFF7F2FA0421084625
:10184000FFF7EEFA1D20019000208DF808000C2013
:101850008DF8090001208DF80A0001A8FFF756F85D
:1018600006208DF8000000208DF801008DF80200A0
:1018700001208DF803006846FFF7F8F908208DF87D
:10188000000001208DF801008DF802008DF80300A2
:101890006846FFF7EBF909208DF8000002208DF86B
:1018A00001008DF8020001208DF803006846FFF763
:1018B000DDF90A208DF8000002208DF801008DF876
:1018C000020001208DF803006846FFF7CFF905B04C
:1018D00000BD0000000002400010024010B50446A8
:1018E000012C06D0022C0AD0032C0ED0042C18D1C7
:1018F00011E04FF400710C48FFF736F912E04FF495
:1019000080610948FFF730F90CE04FF400510748B7
:10191000FFF72AF906E04FF480410448FFF724F965
:1019200000E000BF00BF10BD0014024000100240E4
:1019300010B50446012C06D0022C0AD0032C0ED080
:10194000042C18D111E04FF400710C48FFF70AF98C
:1019500012E04FF480610948FFF704F90CE04FF4FE
:1019600000510748FFF7FEF806E04FF480410448B5
:10197000FFF7F8F800E000BF00BF10BD0014024000
:10198000001002401FB5FFF7F1FE27A30FCB8DE833
:101990000F0048E000F0A8F827480078012810D18F
:1019A00000BF582000F05AFB0128FAD100BF68465A
:1019B00000F066FB0128FAD120A0FEF7B5FCFFF786
:1019C000B7FD22480078012813D121480078C04390
:1019D000C0B21F49087028B14FF480611D48FFF75D
:1019E000C3F804E04FF480611A48FFF7BBF8FFF733
:1019F0009FFD19480078012801D1FFF799FD17488C
:101A0000007801280DD100F023F904461CB914A078
:101A1000FEF78AFC02E01DA0FEF786FCFFF788FDBA
:101A200000BF00F005F9B5E748656C6C6F20576F93
:101A3000726C64210A000000000000204B455931FF
:101A400020507265737365640A0000000100002075
:101A500005000020001402400200002003000020C6
:101A600074656D70657261747572655F68756D69B6
:101A7000646974795F73656E736F725F63686563C1
:101A80006B20737563636573730A000074656D7012
:101A9000657261747572655F68756D696469747982
:101AA0005F73656E736F725F636865636B206661F9
:101AB000696C65640A00000010B52DED028BB0EE74
:101AC000408A9FED070A28EE000ABCEEC00A10EE1D
:101AD000101A0448FFF706FBBDEC028B10BD000096
:101AE00000007A440004004010B54FF0FF3400F0CD
:101AF00021FA0446C82C14DB4FF400714548FFF767
:101B000033F84FF480614348FFF72EF84FF400514B
:101B10004148FFF729F84FF480413F48FFF724F888
:101B200010BD962C16DBC82C14DA4FF4007139481E
:101B3000FFF718F84FF480613648FFF715F84FF4B7
:101B400000513548FFF710F84FF480413248FFF755
:101B50000BF8E5E7642C16DB962C14DA4FF40071D1
:101B60002C48FEF7FFFF4FF480612A48FEF7FAFF8A
:101B70004FF400512848FEF7F7FF4FF48041264804
:101B8000FEF7F2FFCCE7322C16DB642C14DA4FF4AC
:101B900000712048FEF7E6FF4FF480611D48FEF714
:101BA000E1FF4FF400511C48FEF7DCFF4FF4804189
:101BB0001948FEF7D9FFB3E7322C14DA4FF400715D
:101BC0001448FEF7CFFF4FF480611248FEF7CAFFBA
:101BD0004FF400511048FEF7C5FF4FF480410E4806
:101BE000FEF7C0FF9CE74FF400710A48FEF7BCFF08
:101BF0004FF480610748FEF7B7FF4FF400510648E5
:101C0000FEF7B2FF4FF480410348FEF7ADFF00BF7F
:101C100086E70000001402400010024010B54FF4A7
:101C200000710248FEF795FF10BD00000000024061
:101C300010B502490248FEF7B3FE10BD3C0000207B
:101C40003800002010B56FF00400FFF77FF910BDD9
:101C500070B500240025012000F060F84FF40071F9
:101C60002848FEF77FFF1420FFF7E8FC4FF40071CF
:101C70002448FEF779FF1E20FFF705FD002000F045
:101C80004DF802E00120FFF7FEFC1E48103000680E
:101C900000F40070012804D12046641C1A498842CF
:101CA000F0D31A48844202D94FF0FF3070BD0024AF
:101CB00003E0641C0120FFF7E6FC124810300068C6
:101CC00000F4007010B911488442F2D30F488442E6
:101CD00002D96FF00100E9E703E06D1C0120FFF776
:101CE000D2FC08481030006800F4007010B10748BA
:101CF0008542F2D30548854202D96FF00200D5E74C
:101D00000020D3E70018024040420F00A0860100E7
:101D100010B501214020FEF7EFFF10BD1CB50446B1
:101D20004FF40070009000208DF805008DF80440FD
:101D30008DF807008DF8060069460248FEF79EFE02
:101D40001CBD00000018024010B54FF4C070FEF733
:101D500094FA04465CB14FF4BE712046FEF7B3FB23
:101D6000002084F87C0184F87D0184F87E012046FF
:101D700010BD000010B51FA000F082F9FFF7E4FFCE
:101D80001F490860012211461EA000F07FF80122C1
:101D900002211EA000F07AF8012203211EA000F00B
:101DA00075F8012204211FA000F070F8012205211E
:101DB0001FA000F06BF8012206211FA000F066F8BA
:101DC000012207211FA000F061F80122082120A0B4
:101DD00000F05CF80122092120A000F057F8002251
:101DE0000A2121A000F052F800220B2122A000F0CD
:101DF0004DF810BD747269655F696E69740D0A00F3
:101E0000340000206C65642D6F6E2D006C65642DB0
:101E10006F66662D00000000626565702D6F6E2D87
:101E200000000000626565702D6F66662D00000081
:101E300066616E2D6F6E2D0066616E2D6F66662D6C
:101E40000000000066616E2D73706565642D0000F2
:101E5000636F322D6175746F2D000000636F322D3A
:101E60006F66662D00000000636F322D6765742D6C
:101E700076616C7565000000657370383236362DFA
:101E80006E65742D696E6974000000002DE9F041E3
:101E900005460F4690461148046812E02878FFF77F
:101EA0003BFB0646002E01DA6D1C0AE054F82600C2
:101EB00018B9FFF749FF44F8260054F826406D1C76
:101EC00000BF28780028E9D184F87C7184F87D81EE
:101ED000012084F87E01BDE8F0810000340000207C
:101EE0001CB501210846FEF707FF01211020FEF76F
:101EF00003FF01208DF8040000208DF80600022069
:101F00008DF8050000208DF80700402000906946FC
:101F10000648FEF7B3FD4FF48070009000208DF866
:101F2000040069460248FEF7A9FD1CBD00100240EE
:101F30000000024070B50025002440211848FEF73B
:101F400013FE1420FFF79FFB40211548FEF70AFE01
:101F500009E0641C0120FFF796FB1248844202D975
:101F60004FF0FF3070BD1048006900F48070002809
:101F7000EFD0002409E00920FFF785FB641C094825
:101F8000844202D96FF00100ECE70748006900F4D1
:101F900080700028EFD104EB440045082846E1E7B3
:101FA0000010024040420F000000024010B588B00F
:101FB000044601211020FEF7AFFE01210846FEF77E
:101FC0009BFE02208DF81C0000208DF81E004FF4AF
:101FD000C060069000208DF81F0002208DF81D00C3
:101FE00006A91C48FEF74AFD072209211948FEF7F9
:101FF0008DFD07220A211748FEF788FD0294002074
:10200000ADF80C00ADF81000ADF80E000C20ADF8E6
:1020100012000020ADF8140002A90F48FFF7BAF92A
:1020200025208DF8040000208DF805008DF80600AD
:1020300001208DF8070001A8FEF718FE012240F2EA
:1020400025510548FFF780F901210348FFF739F9C9
:1020500008B010BD000002400010014010B5044659
:1020600000BF80210548FFF738F90028F9D0214644
:102070000248FFF7FEF9012010BD000000100140EA
:1020800010B5044603E014F8010BFFF7E7FF2078D2
:102090000028F8D1012010BD21F00042A2F16052C9
:1020A000B2F5801F01F0004328BFD2F17F6C0BD93D
:1020B0005FEA001C43EAC20242EB507018BF70474F
:1020C00028BF20F001007047B2F5801FBCBF184642
:1020D00070474FEA410C1CF5001F02D2084600F081
:1020E000D5B970B500F079F900000089FFF7F6BFA7
:1020F0004FF00040A0F58000704700002DE9C0417E
:1021000030B4DFF8A0C23CEA111418BF3CEA131443
:1021100000F0EC8081EA03051CEA111444EAD5744E
:1021200018BF1CEA131500F0C780A4EB05044FF09C
:10213000004545EAC12145EAC32341EA505143EA3B
:10214000525304F17F74994204F500344FEAC020E1
:102150004FEAC22208BF904200F09C804FEA13650C
:102160000FF24016765D4FEA134506FB05F7C7F1FF
:10217000807706FB07F74FEAD737A7FB036876425D
:10218000C8F58038A7FB06CE38BFA8F1010807FBC9
:1021900008E64FF0000EA6FB028CE6FB03CEDCF156
:1021A000000CCEF1004E38BFAEF1010EA6FB0C586C
:1021B0004FF000074FF00005E6FB0E87A1FB08C6B5
:1021C000A0FB07CE16EB0E0645F10005E1FB076507
:1021D00015F1E04E7EBFA4F580345FEA46066D41FE
:1021E00016F1800745F100054FEA17274FEA06660A
:1021F00047EA0567A6F1DE46B6F1805F4FEA15258E
:102200001FD9384624F0010C05EBC471BCF1FE6FF8
:1022100001EB0C1102D8F0BCBDE8008124425CBF88
:1022200001F5801E9EEAC47F02D4F0BCBDE80081A7
:10223000244238D4F0BCA1F1C041BDE8004100F017
:102240001AB94FEAD22242EA43524FEAD323A7FBFC
:1022500002864FEAD02040EA415007FB03661EEA9F
:102260000E0F4FEAD12105FB026658BFA6EB0056C0
:10227000B6EB00564FEA520E4EEAC37E18EB0E0E36
:1022800056EB530EBDD518EB02085E417F1C55F18D
:102290000005B6E74FF480154FF000074FF0000639
:1022A0004FF00008ADE7F0BC4FF0000001F1C04175
:1022B00001F00041BDE8008111EA0C1F0CEA131582
:1022C00000D00CE013EA0C1F00F025804FF0000056
:1022D000F0BC81EA030101F00041BDE80081F0BCDF
:1022E000BDE8004181EA030100F0C5B8F0BCBDE8DB
:1022F000004170B500F071F8097EFC3E00F007B8AF
:1023000081EA03014FF0000001F00041704781EACB
:10231000030100F0B0B8F0BCBDE800414FF0000090
:1023200021497047FFFDFBF9F7F5F4F2F0EEEDEB14
:10233000E9E8E6E4E3E1E0DEDDDBDAD8D7D5D4D3C3
:10234000D1D0CFCDCCCBCAC8C7C6C5C4C2C1C0BF0F
:10235000BEBDBCBBBAB9B8B7B6B5B4B3B2B1B0AF15
:10236000AEADACABAAA9A8A8A7A6A5A4A3A3A2A1F9
:10237000A09F9F9E9D9C9C9B9A99999897979695B4
:1023800095949393929191908F8F8E8E8D8C8C8B50
:102390008B8A8989888887878685858484838382D8
:1023A000828181800000FF070000F87F10F000426A
:1023B00048BF4042B0FA80F310FA03F10AD0C3F1EB
:1023C0001D0303F580634FEA415002EB035202EB19
:1023D000D12170474FF0000070470EF1020E2EF031
:1023E000030E5EF8046B364205D4012A43EB030565
:1023F00015F5001F12D8012841EB010C1CF5001F38
:102400000CD80ED14FEAD17C15F5001F0CEB4C0C0B
:102410000CF1020C08BF4CEBD37C04E04FF0080C2D
:1024200001E04FEAD37C0CEB4C0526FA05F606F0EA
:102430000706B6F1040C06D20EEB860CBDE8704020
:102440004CF0010C6047DFE80CF0090B02024FF082
:1024500000414FF00000A1F5002170BD1946104663
:10246000012851EB010418BFD4F5001484BF0020EB
:1024700001F0004170BD0808A0F500114FEA3101DC
:1024800070474FF04070E1EE100A7047FF2141EABB
:10249000D050C0057047000066616E2D7370656591
:1024A000642D0000636F322D6F66662D0000000002
:1024B0006C65642D6F66662D0000000066616E2DF0
:1024C0006F66662D00000000626565702D6F6666A0
:1024D0002D0000006C65642D6F6E2D0066616E2D01
:1024E0006F6E2D00626565702D6F6E2D000000000F
:1024F000636F322D6175746F2D000000636F322D94
:102500006765742D76616C756500000064656661B1
:10251000756C74003425000800000020BC00000029
:10252000C4010008F0250008BC000020C408010018
:10253000E0010008000000000000000000000000B2
:10254000000000000000000000000000000000008B
:10255000000000000000000000000000000000007B
:10256000000000000000000000000000000000006B
:10257000000000000C25000800000000D424000822
:1025800001000000B024000801000000E42400085D
:1025900001000000C824000801000000DC2400083D
:1025A00001000000BC24000801000000982400087D
:1025B00001000000F024000801000000A42400082D
:1025C00001000000FC2400080000000000FF0000E3
:1025D00000000000000000000000000000000000FB
:1025E00000010203040102030406070809000000B9
:040000050800018965
:00000001FF
