:020000040800F2
:10000000B0470120550200085D0200085F020008A9
:100010006102000863020008650200080000000099
:10002000000000000000000000000000670200085F
:1000300069020008000000006B0200086D02000861
:100040006F0200086F0200086F0200086F020008CC
:100050006F0200086F020008DD1800086F02000838
:100060001919000859190008991900086F020008A9
:100070006F0200086F0200086F0200086F0200089C
:100080006F0200086F0200086F0200086F0200088C
:100090006F0200086F0200086F0200086F0200087C
:1000A0006F020008812800086F0200086F02000834
:1000B00099280008DD2800086F0200086F02000878
:1000C0006F0200086F0200086F0200086F0200084C
:1000D0006F020008812A0008B12A0008E12A0008FE
:1000E0006F020008812100086F0200086F020008FB
:1000F000252900086F0200086F0200086F0200083F
:100100006F0200086F0200086F0200086F0200080B
:100110006F0200086F0200086F0200086F020008FB
:100120006F0200086F0200086F0200086F020008EB
:100130006F0200086F0200086F0200086F020008DB
:100140006F0200086F0200086F0200086F020008CB
:100150006F0200086F0200086F0200086F020008BB
:100160006F0200086F0200086F0200086F020008AB
:100170006F0200086F0200086F0200086F0200089B
:100180006F0200086F02000800F002F800F053F858
:100190000AA090E8000C82448344AAF10107DA45E2
:1001A00001D100F048F8AFF2090EBAE80F0013F0E1
:1001B000010F18BFFB1A43F001031847584D000008
:1001C000784D0000103A24BF78C878C1FAD8520799
:1001D00024BF30C830C144BF04680C6070470000C1
:1001E0000023002400250026103A28BF78C1FBD840
:1001F000520728BF30C148BF0B607047662904F022
:10020000B685642900F0BC80782900F0F5800020D4
:1002100070471FB504F0A1FD9DE8030000F022FA2D
:1002200000F0EAFC04000020002104F06FFAE06016
:100230001FBD10B510BD00F0FCFD1146FFF7E9FF32
:1002400003F08EFA00F01AFE03B4FFF7F2FF03BCCE
:1002500002F084FD0948804709480047FEE7FEE7B1
:10026000FEE7FEE7FEE7FEE7FEE7FEE7FEE7FEE766
:1002700004480549054A064B704700001928000844
:1002800089010008B0070020B0470120B007012015
:10029000B0070120704770B5064600F0C7F9056841
:1002A00006F10B0020F00704B4429CBF002070BD93
:1002B0002B466A68BAB11068A04210D304F1080155
:1002C00088423CBF5068586007D35168101941609C
:1002D0001168091B016058601460101D70BD134641
:1002E0005268002AE7D12146284600F0A7F90028E5
:1002F000DED170BD70B50446051F00F097F90068A7
:10030000002C14BF446870BD002C18BFAC423CBF29
:1003100020466468F8D301680A18AA4218BF4560ED
:1003200003D12A6805461144016028684119A14299
:100330001CBF6C6070BD61686960216808442860FA
:1003400070BD00000FB4044910B503AA029800F074
:100350003DFC10BC5DF814FB3800002009684A051C
:1003600001D540B27047C905FCD500B27047096895
:100370004A0501D5C0B27047C905FCD580B27047A7
:100380002DE9F0410646002410687529314616A56E
:1003900010D0FFF7E3FF002802DA404213A507E080
:1003A00031688A0701D512A502E0490704D511A5D5
:1003B000012401E0FFF7DBFF00210A2206F12407F8
:1003C00009E0B0FBF2FCB0FBF2F302FB1C003030A2
:1003D00078541846491C0028F3D123462A46304653
:1003E000BDE8F04100F074B9000000002D000000ED
:1003F0002B0000002000000070B504460D46214689
:100400001068FFF7B4FF2188090502D50F4A7A4426
:1004100002E00E4A7A440E32002104F1240305E082
:1004200000F00F060009965D5E54491C0028F7D1C4
:1004300020780023000704D5702D02D009B10223D3
:1004400011322046BDE8704000F042B9604900001A
:100450002DE9F05F894604464FF0000ADFF874B1D9
:10046000FB44C0F820A02046E1688847002874D0EB
:10047000252806D0D4E901219047206A401C20623B
:10048000F1E700265F462046E168884720280546B8
:1004900007DB312D05D2781910F8200C08B106437E
:1004A000F1E7B00701D526F00406C4F81CA0002728
:1004B000C4F818A02A2D09D0284602F048FC38B309
:1004C00004EB8708303DC8F8185019E059F8041BB0
:1004D000204604EB87029161E1688847012F0546B9
:1004E00018D1E069002820DA26F020061DE0D8F8AF
:1004F000180000EB800005EB40003038C8F8180009
:100500002046E1688847054602F021FC0028EED12C
:10051000012F0AD02E2D08D12046E16888477F1C84
:100520000546022F46F02006C4DBA069002803DA46
:10053000404246F00106A061F00701D026F0100607
:100540006C2D0BD0682D09D04C2D39D06A2D35D0AB
:10055000742D35D07A2D33D016E038E0E1682F467F
:1005600020468847B842054609D16C2F26D04FF463
:100570008060E168064320468847054604E06C2F0A
:100580001AD04FF4807006430DB3A5F1410019282D
:1005900002D8203546F400664A46294620462660A1
:1005A0004E46FFF72BFE80B101280BD0F61D26F03A
:1005B000070000F1080956E74020E4E78020D8E76B
:1005C0000020D6E706F104094DE7284652E7206AE5
:1005D000BDE8F09F364900004FF0000200B5134619
:1005E00094469646203922BFA0E80C50A0E80C5053
:1005F000B1F12001BFF4F7AF090728BFA0E80C5004
:1006000048BF0CC05DF804EB890028BF40F8042BFC
:1006100008BF704748BF20F8022B11F0804F18BF69
:1006200000F8012B704770477047704700487047CB
:1006300058070020704770477047704738B5044628
:100640000A4600206946AFF30080002808BF38BD85
:1006500002460099204600F0D3FA012038BD01205F
:1006600000F0E0BBF8B5AFF30080054600200C4673
:10067000102000BF0646A819A0420DD9324669468F
:100680000020AFF30080070008BF00F0CBFB00980C
:10069000A04218BF0546C419FFF7C8FF056007460A
:1006A000F01D20F007004619284600F00AF8B44271
:1006B00008BFF8BDA21B31463868BDE8F84000F01D
:1006C0009FBA00210160C0E90110704710207047F7
:1006D0002DE9F0470D4699469246044600F124085C
:1006E0000168880604D5E06921F01001216000E06E
:1006F0000120A84201DD471B00E00027A1697A190B
:1007000002EB0900081AA0612078C00602D4204636
:10071000AFF30080002608E0D4E901211AF80600B2
:100720009047206A401C761C20624E45F4DB2078FE
:10073000C0060AD52046AFF3008006E0D4E90121C7
:1007400030209047206A401C2062381EA7F1010724
:10075000F4DC07E0D4E9012118F805009047206A8D
:10076000401C2062281EA5F10105F3DC2046AFF3F2
:1007700000802078000602D50220BDE8F087012025
:10078000FBE770472DE9FF4F0C461E464FF0FF3741
:100790008BB0D2E90001DDF860800A908A46C1F38F
:1007A0000A5505B93D46002108464FF00000BAF150
:1007B000000F00F4400005DA00EB80004FF4400128
:1007C00001EA50004FEA9059B9F1010F00DDB94636
:1007D0000A9850EA4A000ED044F61050A5F2FF35B0
:1007E00045432F14B8F1000F1ED07542291E1EDD9F
:1007F000C9F100021CE0B8F1010F4FF0000001D078
:10080000302103E0F24305E02154401CB042FBDB01
:1008100030460022002121540B99C1F80880C1E91B
:1008200000200FB0BDE8F08FBD1B6D1CDEE74A460F
:1008300000DA694206A800F083FA06AB93E80700E5
:1008400003AB83E8070050460A9900F0A4FB8DE84B
:100850000700A0F500501F3800900398002D09DD17
:1008600042F21F014A46084403A90390684600F07B
:1008700003FE08E0A0F500504A461F3803A9039084
:10088000684600F00DFE8DE807000004000C03D060
:100890004FF0FF30410800E01046B8F1000F03D0E0
:1008A0000022009215461EE0751E05D400F0C2F924
:1008B000303262556D1EF9D5B3460122084302D08D
:1008C00000227F1C04E02078302801D100227F1E06
:1008D000002A099786D01DE0112D07DA00F0AAF949
:1008E000303262556D1C50EA0102F5D1084302D046
:1008F0000098C8B10EE00021681E05E0235C625C30
:1009000063542254401E491C8142F7DBAB46A81BAE
:10091000401E0990002004F80B000B98099AC0F8BB
:100920000880C0E9002B7CE711264FF0000859E74A
:100930002DE9F04F88460446D21D22F0070191B000
:10094000D1E90001CDE90A0102F0E9F902460B986C
:10095000C00F01D02D2007E02068810701D52B2092
:1009600002E0202101EAC000032A099001D0072AF1
:1009700005DB03464146204600F0A2F90BE1207852
:10098000800601D5E06900E00620B8F1650F8146D8
:1009900006D0B8F1660F18D0B8F1670F70D131E00A
:1009A0000020B9F1110F009001DB112301E009F1E2
:1009B00001030AAA01A90CA8FFF7E4FEDDE90C7007
:1009C000002609F10105834647E001204B460090CF
:1009D0004FF000470AAA01A90CA8FFF7D3FEDDE9F2
:1009E0000DB00C995D46002610B909F101000D18F3
:1009F000B9EB050003D4C0F1FF3609F10105A5EB01
:100A000009002BE0B9F1010F01DA4FF001090020D4
:100A1000B9F1110F0090484601DD112300E00346B3
:100A20000AAA01A90CA8FFF7ADFEDDE90C704D463E
:100A300000268346207800070AD4AB4500DA5D46DD
:100A400001A8012D04DD411911F8011C302907D03E
:100A50004F4502DA17F1040F04DA012082460FE055
:100A60006D1EEEE7002F02DCED1B3E4403E0781C18
:100A7000A84200DD7D1CB81B00F1010A4FF00047C1
:100A80002078000703D4AA4501DB4FF0FF3A00218C
:100A9000B7F1004F0DF143088DF8431024D0022028
:100AA0002B23002F01DA7F422D230A21021EA0F101
:100AB000010000DC5FB197FBF1FC97FBF1F201FB59
:100AC0001C7C17460CF1300C08F801CDEEE7A8F1BC
:100AD000010003702188090501D5452100E0652149
:100AE000A0F1010800F8011C09980FA9A1EB080763
:100AF000FF1D00B10120411901EBEA70A1693844E2
:100B0000081A401EA0612078C00602D42046AFF328
:100B10000080099828B1D4E901219047206A401C3F
:100B200020622078C00622D52046AFF300801EE068
:100B3000002E04DBB34502DD01A8805D00E030201B
:100B4000D4E901219047206A401C2062761CAAF15A
:100B500001005FEA000A0AD100F04EF8C06801689F
:100B6000405CD4E901219047206A401C2062281E85
:100B7000A5F10105DCDC07E0D4E9012118F8010B3F
:100B80009047206A401C2062381EA7F10107F3DC61
:100B90002046AFF30080032011B043E601694A1CF0
:100BA00002610878704700B58FB0CDE901310021AE
:100BB000059105497944CDE9031011466846FFF7D0
:100BC00047FC0FB000BD0000E5FFFFFF074B70B50D
:100BD0000D467B44FFF7E7FF0446284600F01EF968
:100BE00010B14FF0FF3070BD204670BD5726000099
:100BF00000487047500700200048704770070020E9
:100C0000034640688C46002818BF88423CBF034614
:100C10004068F8D318681844884207D00CF10300E4
:100C200020F00700001D411A521A0146081D0A60F3
:100C3000FFF760BB30B5B0F10A024FEA900E71F1D8
:100C400000034EEA817EB0EB0E0061EB91014FEAAA
:100C5000101E4EEA017E10EB0E0041EB11114FEA1F
:100C6000102E4EEA016E10EB0E0041EB11214FEAFF
:100C7000104E4EEA014E10EB0E0041EB11414018B0
:100C800041F100014FEAD00040EA41704FEAD10142
:100C900010EB80054FEA810444EA907444EB0104B0
:100CA0006D1944EB0404521BA3414FF0000348BFED
:100CB0000A3200D530BD401C41F1000130BD0000BA
:100CC0002DE9F0411F46044603260168072A01F476
:100CD000006004DB08B116A505E016A503E008B125
:100CE00015A500E015A521F010002060A069C01E28
:100CF000A0610FB1401EA0612046AFF300804FB14C
:100D0000D4E9012138469047206A401C2062C01C6B
:100D1000206206E0206AFAE7D4E9012115F8010B08
:100D20009047761EF8D22046AFF30080BDE8F081F0
:100D30004E414E006E616E00494E4600696E66007F
:100D40002DE9F047814616468AB0334878440DC8ED
:100D50008DE80D0030487844801C03AC0DC884E851
:100D60000D0041F69B300844372190FBF1F290FBD7
:100D7000F1F5A5F1800501FB12041B3C02D564428C
:100D8000012000E00020DFF890A080460027FA4410
:100D9000AAF1BE0A0DE0E00709D03246684607EB2B
:100DA00047010AEB810100F07BFB8DE8070064102E
:100DB0007F1C002CEFD1184F7F44AC3F18E0E807B0
:100DC00014D007EB04100DF1180A90E80E008AE821
:100DD0000E00C068F04201D198190890324606A969
:100DE00003A800F05DFB03AB83E807006D10641CF3
:100DF000002DE4D132466946B8F1000F03A802D0B5
:100E000000F03AFB01E000F04BFBC9E90001C9F832
:100E100008200AB0BDE8F087D8400000007B00F051
:100E20008000704710B500F035F8BDE8104000F0C4
:100E30002BB87546FFF7DCFEAE4605006946534603
:100E400020F00700854618B020B5FFF711FABDE87D
:100E500020404FF000064FF000074FF000084FF021
:100E6000000B21F00701AC46ACE8C009ACE8C009B2
:100E7000ACE8C009ACE8C0098D4670470446AFF342
:100E800000802046FFF7E0F9002801D001F066BF9E
:100E90007047000010B5012805D0002103A000F024
:100EA00061F8012010BD09A1F8E70000534947523D
:100EB000544D454D3A204F7574206F66206865612A
:100EC00070206D656D6F7279000000003A204865F2
:100ED0006170206D656D6F727920636F72727570CD
:100EE000746564004FF0013C50F8042B51F8043B4A
:100EF0009A4221D1A2EB0C03934313EACC1317D1EE
:100F000050F8042B51F8043B9A4215D1A2EB0C0384
:100F1000934313EACC130BD150F8042B51F8043B44
:100F20009A4209D1A2EB0C03934313EACC13DBD012
:100F30004FF00000704700BFD01A01BAB1FA81F13A
:100F400001F0180122FA01F0CB40C1F12001DBB21F
:100F5000C0B2C01A2CFA01F3D11A914311EAC3119D
:100F6000E6D1704770B505460C460A2000E06D1CBE
:100F700001F0F6FE35B128780028F8D102E0641CB3
:100F800001F0EEFE14B120780028F8D1BDE87040E1
:100F90000A2001F0E5BE5FEA400C08BF91F0000FA7
:100FA0004FEA8C234FEAC12243EA51514FEA1C50C9
:100FB00018BF00F5F0404FEA300018BF41F0004183
:100FC0005FEA6C5C00F02980BCF1FF3F08BF40F095
:100FD00080407047130C06BF12044FF0100C4FF006
:100FE000000C130E04BF12020CF1080C130F04BF07
:100FF00012010CF1040C930F04BF92000CF1020CCF
:10100000D30F04BF52000CF1010C11464FF0000247
:10101000A0F11F00A0EB0C00704711F0004F08BFBB
:10102000704731F000413FF4D5AF0B0C06BF090407
:101030004FF0100C4FF0000C0B0E04BF09020CF126
:10104000080C0B0F04BF09010CF1040C8B0F04BF3B
:1010500089000CF1020CCB0F04BF49000CF1010C0C
:10106000CCF12003A0EB0C0022FA03F302FA0CF2FD
:1010700041EA030100F10100704720F07F4C80EA53
:10108000030023F07F47ACEB070303F57C5300F02C
:10109000004003F1FF032DE980494FEA154B09B4E5
:1010A0004FEA144325EA0B4E24EA03480FF20426C4
:1010B00006EB132749083E785FEA320203FB066716
:1010C000C7F5000707FB06F64FEA54374FEAD64646
:1010D00006F1020607FB066CCCF1005C4FEA1C47E8
:1010E0002CEA074C07FB06F40CFB06F504EB15464F
:1010F0004FEA961634BF00204FF000404FEAD13738
:1011000006FB07FC4FEA1C4C0CFB0BF7D21B03FB46
:101110000CF761EB07010CFB0EF7B0EB074072EB2D
:1011200017420CFB08F734BFA2EB0742B2EB0742B1
:1011300061EB17414FEA0C444FEA910706FB07FCAD
:101140004FEA1C4C0CFB0BF7B0EBC74072EB57326D
:1011500003FB0CF734BFA2EBC742B2EBC74261EB13
:1011600057310CFB0EF7B0EBC70072EB57720CFB5C
:1011700008F734BFA2EBC702B2EBC70261EB5771AD
:10118000039F4FEA816141EA921104EBCC044FEADC
:10119000D1374FEA826206FB07FC42EA90124FEA1F
:1011A00080604FEA1C4C0CFB0BF7D21B03FB0CF7C7
:1011B00061EB07010CFB0EF7B0EB074072EB174237
:1011C0000CFB08F734BFA2EB0742B2EB074261EB1E
:1011D00017414FEA8C554FEA910704EB9C2406FB1C
:1011E00007FC4FEA1C4C0CFB0BF7B0EBC74072EB53
:1011F000573203FB0CF734BFA2EBC742B2EBC74236
:1012000061EB57310CFB0EF7B0EBC70072EB577276
:101210000CFB08F734BFA2EBC702B2EBC70261EBCD
:10122000577115EB4C254FEA816141EA92114FEA63
:1012300082624FEAD13742EA901206FB07FC44F182
:1012400000044FEA80604FEA1C4C0CFB0BF7D21BEA
:1012500003FB0CF761EB07010CFB0EF7B0EB07404B
:1012600072EB17420CFB08F734BFA2EB0742B2EB5C
:10127000074261EB174115EB1C154FEA813141EA3A
:1012800092414FEA823242EA90424FEA80304FEA7E
:101290000C7644F1000448EA03434EEA0B484FF051
:1012A000000EB2EB080C71EB030724BF624639460F
:1012B0004EEB0E0E4FF0000B0018524149414BEB24
:1012C0000B0BB2EB080C71EB03077BF1000B24BF97
:1012D000624639464EEB0E0E4FF0000B001852419D
:1012E00049414BEB0B0BB2EB080C71EB03077BF1A5
:1012F000000B24BF624639464EEB0E0E51EA020740
:1013000018BF46F0010616EB0E7655F1000254F1B7
:10131000000103D5BDE88901BDE80088BDE8890169
:10132000BDE80048B619524141EB0101A3F10103A8
:10133000704780807F7E7D7C7B7A79787776767542
:101340007473727171706F6E6E6D6C6C6B6A6A69BA
:101350006868676666656464636362616160605F54
:101360005F5E5E5D5D5C5C5B5B5A5A5959585857CD
:101370005756565555555454535352525251515035
:1013800050504F4F4F4E4E4D4D4D4C4C4C4B4B4B88
:101390004A4A4A49494948484847474747464646CE
:1013A0004545454444444443434343424242424109
:1013B0004141002B26D4770021D01CB54FEA3707D6
:1013C00003B44FF010004FF010014FF000000FBCBD
:1013D000BDE810400BF1010BBBF1010F08BF5FEA44
:1013E000170722BF12F1010211F101014FF0004174
:1013F00043F1000300F0004043EA00007047F9D3D6
:101400005708DAE746EA064613F1400F4FEA164658
:101410001FDD13F1200FDFBF16430A4600212033E2
:101420005B42C8D0C3F1200746EA064602FA07F736
:101430004FEA164646EA0706C3F1200722FA03F2EE
:1014400001FA07F721FA03F14FF0000342EA07021D
:10145000B1E746EA020646EA06464FEA164646EA7B
:101460000106BCBF46EA0646360C4FF000034FF0BB
:1014700000024FF000019EE72DE9C048934630B4CA
:1014800091E8380007C831EA400C48BF34EA430C01
:1014900003D5FFF7F2FDFFF78CFFF0BCBDE8008835
:1014A0002DE9C048934630B491E8380007C810F0E1
:1014B000804F08BF13F0804F03D100F005F8FFF70D
:1014C00078FFF0BCBDE8008820F07F4780EA030089
:1014D00023F07F4C07EB0C03A3F57C5300F0004096
:1014E000A3F1FE0392F0000F00F0B38095F0000F1F
:1014F00000F077802DE901494FEA11404FEA144688
:1015000021EA004800FB06FC24EA064708FB06F631
:1015100007FB08F800FB07F718EB06484CEB164CE6
:101520004FEA124B18EB07484FEA15464CEB1740B1
:1015300022EA0B4E0BFB06FC25EA06470EFB06F6DD
:1015400007FB0EFE0BFB07F71EEB064E4CEB164C93
:101550004FF000061EEB074E4CEB174B18EB0B0839
:1015600040F1000018EB0E0B58EB000840F10000B2
:101570008F1A4FF000013CBFC943661B14BFB5EB87
:10158000040C00213CBFC943F61B4FEA17444EEA46
:101590008E0E27EA04454FEA1C4704FB07622CEA3B
:1015A000074C05FB07F70CFB05F604FB0CFC16EBE0
:1015B000074642EB174216EB0C4642EB1C421BEB74
:1015C000060658EB0202414146EA9E0601D5BDE8F7
:1015D0000189B619524141EB0101A3F10103BDE8B4
:1015E00001894FEA14454FEA114724EA054621EAEA
:1015F000074C05FB07F406FB07F70CFB06F105FBA0
:101600000CFC11EB074144EB17444FEA124711EB76
:101610000C4144EB1C4422EA074C05FB07F206FB95
:1016200007F70CFB06F605FB0CFC16EB074642EB36
:10163000174216EB0C4642EB1C456A1854F10001A8
:1016400048BF7047B619524141EB0101A3F10103B4
:10165000704795F0000F37D04FEA11424FEA144718
:1016600021EA024624EA074C02FB07F106FB07F7D2
:101670000CFB06F402FB0CFC14EB074441EB174196
:101680004FEA154714EB0C4441EB1C4125EA074C8B
:1016900002FB07F506FB07F70CFB06F602FB0CFC4A
:1016A00016EB074645EB174516EB0C4645EB1C427F
:1016B000121951F1000148BF7047B619524141EB70
:1016C0000101A3F1010370474FEA14454FEA1147A6
:1016D00024EA054621EA074C05FB07F106FB07F75C
:1016E0000CFB06F24FF0000605FB0CFC12EB074268
:1016F00041EB174112EB0C4251EB1C4148BF7047C4
:10170000921841EB0101A3F10103704721B18268F6
:1017100042F00102826003E0826822F001028260EE
:10172000704700000021084A1168084A1140D0E9BA
:1017300000231A4383681A43C3681A431143044AB7
:10174000C2F804137047000004230140E030FCFF9E
:101750000020014010B50121080200F0F9FB002132
:101760004FF4807000F0F4FB10BD0146C86C80B2ED
:1017700070470246002013680B400BB1012000E0C7
:101780000020704730B50246002000235068104CFE
:1017900020400D790C6844EA05242043506090688D
:1017A0000C4C2040D1E903542C438D682C434D79D7
:1017B00044EA450420439060D06A20F470000C7D18
:1017C000641EE4B2234340EA0350D06230BD0000FF
:1017D000FFFEFFFCFDF7FFC0F0B504460D460020FC
:1017E0000021092D11DDE068A5F10A0606EB460788
:1017F000072606FA07F18843A5F10A0606EB460616
:1018000003FA06F10843E0600CE0206905EB4507A8
:10181000072606FA07F1884305EB450603FA06F1A9
:1018200008432061072A0FDA606B561E06EB860715
:101830001F2606FA07F18843561E06EB860605FAB0
:1018400006F10843606322E00D2A0FDA206BD61FF1
:1018500006EB86071F2606FA07F18843D61F06EB1C
:10186000860605FA06F10843206310E0E06AA2F15B
:101870000D0606EB86071F2606FA07F18843A2F13C
:101880000D0606EB860605FA06F10843E062F0BD98
:10189000816841F08041816070471FB5FFF75AFFB2
:1018A000002000904FF480300190002002900390BF
:1018B00002906846FFF736FF1FBD10B5044620466C
:1018C000FFF7E6FF00BF02212046FFF752FF002886
:1018D000F9D02046FFF749FF10BD000010B50120E8
:1018E00000F080F801280ED1074908700020074950
:1018F00008700749087007490870962001F0DCFB62
:10190000012000F069F810BD000000200100002057
:10191000020000200300002010B5042000F062F84F
:10192000012810D1002008490870012007490870DB
:1019300000200749087007490870962001F0BCFB99
:10194000042000F049F810BD000000200100002034
:10195000020000200300002010B5082000F042F82B
:10196000012810D10020084908700849087001209A
:1019700007490870002007490870962001F09CFB79
:10198000082000F029F810BD000000200100002010
:10199000020000200300002010B5102000F022F803
:1019A00001280FD10020084908700849087008492B
:1019B0000870012007490870962001F07DFB102077
:1019C00000F00AF810BD0000000000200100002017
:1019D0000200002003000020014908607047000059
:1019E000143C014001460020034A12680A400AB133
:1019F000012000E000207047143C014000212349F1
:101A00008279002A3AD00A46126803689A430B4644
:101A10001A600A1D126803689A430B1D1A60027946
:101A200011440A6803681A430A60184A08321268A7
:101A300003689A43154B08331A601A1D126803682D
:101A40009A43124B0C331A604279102A0ED11A1F96
:101A5000126803681A430D4B08331A601A1D126886
:101A600003681A43094B0C331A600DE007494279A9
:101A700011440A6803681A430A6005E002791144B8
:101A80000A6803689A430A6070470000003C0140FE
:101A900070B504460E468CB1206878B12568D5E94A
:101AA00000108847206880682060206808B90020FE
:101AB00030602846FEF71EFC012070BD0020FCE7C8
:101AC0002DE9F0410746884616461D460C20FEF7D4
:101AD000E2FB044624B910A002F00CFEBDE8F08140
:101AE0002760C4F804800020A0602EB1306818B9C7
:101AF00015B134602C600CE046B1306830B12DB1C6
:101B0000286818B1286884602C6002E009A002F0FF
:101B1000F1FD00BFE2E700004576656E745F507529
:101B200073683A206D616C6C6F63206661696C65E7
:101B3000640A00004576656E745F507573683A20DC
:101B40006576656E745F7175657565206F72206569
:101B500076656E745F71756575655F7461696C201B
:101B60006973204E554C4C0A00000000F0B50A463F
:101B700000210023002400BF3DE0012505FA01F308
:101B8000156805EA03049C4234D105684F0003261A
:101B9000BE40B543056015794E00B5400668354333
:101BA00005601579012D02D01579022D16D18568B1
:101BB0004F000326BE40B543856055794E00B540C1
:101BC000866835438560456801268E40B54345608B
:101BD000456896798E40B6B235434560C5684F007A
:101BE0000326BE40B543C560D5794E00B540C668F2
:101BF0003543C560491C1029BFD3F0BDF0B50023A3
:101C000000244D07ED0E02FA05F3CE1000F1200579
:101C100055F826504E07F70E0F26BE40B543CF109D
:101C200000F1200646F82750CE1000F1200555F8A7
:101C3000265045EA0304CE1000F1200545F8264061
:101C4000F0BD0246002013690B400BB1012000E0FB
:101C500000207047418370470183704770B5044688
:101C60000D46192C70D2DFE804F00D141B22293028
:101C7000373E454C535A616870777E858C939AA1A4
:101C8000A8AFB600594B5A4A29465A48FFF718FFE1
:101C9000A9E0564B564A29465748FFF711FFA2E0E4
:101CA000524B534A29465548FFF70AFF9BE04F4BDA
:101CB0004F4A29465248FFF703FF94E04B4B4C4AEA
:101CC00029465048FFF7FCFE8DE0484B484A29461C
:101CD0004D48FFF7F5FE86E0444B454A29464B4800
:101CE000FFF7EEFE7FE0414B414A29464848FFF7A7
:101CF000E7FE78E03D4B3E4A29464648FFF7E0FEC6
:101D000071E03A4B3A4A29464348FFF7D9FE6AE068
:101D1000364B374A29464148FFF7D2FE63E0334B42
:101D2000334A29463E48FFF7CBFE5CE02F4B304A52
:101D300029463C48FFF7C4FE55E02C4B2C4A294667
:101D40003948FFF7BDFE4EE04CE0284B284A2946B3
:101D50003648FFF7B5FE46E0244B254A294634486D
:101D6000FFF7AEFE3FE0214B214A29463148FFF7FD
:101D7000A7FE38E01D4B1E4A29462F48FFF7A0FE5C
:101D800031E01A4B1A4A29462C48FFF799FE2AE0FF
:101D9000164B174A29462A48FFF792FE23E0134BB9
:101DA000134A29462748FFF78BFE1CE00F4B104AC9
:101DB00029462548FFF784FE15E00C4B0C4A2946BE
:101DC0002248FFF77DFE0EE0084B094A29462048CD
:101DD000FFF776FE07E0054B054A29461D48FFF749
:101DE0006FFE00E000BF00BF70BD00004800002093
:101DF000440000209930000809350008B534000877
:101E00005D2F0008412F0008D5310008B9310008C6
:101E1000ED310008B52F000849300008E92F00080F
:101E20009931000859400008A9400008E94000081D
:101E300019400008993F0008593F0008D93F0008A1
:101E4000C53B0008553B0008593E0008B93E000854
:101E5000093F0008D13A000870B5002100230F2285
:101E6000C4781CB3174C246804F4E064C4F5E0643F
:101E7000C4F30721C1F10404E3B20A4144789C4051
:101E8000E1B28478144021430C07210E0E4C0578F2
:101E90006155047804F01F050124AC4005786D11EC
:101EA000AD0005F1E025C5F8004109E0047804F033
:101EB0001F050124AC40054D0678761145F82640F3
:101EC00070BD00000CED00E000E400E080E100E007
:101ED00002490143024A1160704700000000FA0500
:101EE0000CED00E0014908627047000000000E425E
:101EF00029B1064A12680243044B1A6004E0034AFF
:101F000012688243014B1A6070470000303802406B
:101F100029B1064A12680243044B1A6004E0034ADE
:101F200012688243014B1A6070470000403802403B
:101F300029B1064A12680243044B1A6004E0034ABE
:101F400012688243014B1A60704700004438024017
:101F500029B1064A12680243044B1A6004E0034A9E
:101F600012688243014B1A60704700002438024017
:101F7000F0B5002100220024022500260223324F62
:101F80003F6807F00C0121B1042905D0082937D199
:101F900005E02E4F076036E02D4F076033E02A4FF3
:101FA0003F1F3F68C7F38056274F3F1F3F6807F02A
:101FB0003F036EB1264FB7FBF3F7DFF88CC0ACF1EF
:101FC000040CDCF800C0CCF3881C07FB0CF40CE01C
:101FD0001E4FB7FBF3F7DFF870C0ACF1040CDCF870
:101FE00000C0CCF3881C07FB0CF4174F3F1F3F6861
:101FF000C7F301477F1C7D00B4FBF5F7076002E0E3
:10200000124F076000BF00BF0F4F3F6807F0F0019D
:102010000909104F7A5C0768D74047600A4F3F684C
:1020200007F4E051890A0B4F7A5C4768D740876014
:10203000054F3F6807F46041490B064F7A5C4768DB
:10204000D740C760F0BD0000083802400024F4000B
:1020500000127A00D000002010B5014600220023B3
:1020600000204A11012A02D10A4C236808E0022A02
:1020700003D1084C7034236802E0064C74342368A2
:1020800001F01F02012494401C400CB1012000E02B
:10209000002010BD003802400021094A1170117063
:1020A000012802D0042808D103E00121044A11705C
:1020B00004E00521024A117000E000BF00BF704734
:1020C0007038024001490860704700003C0E4742EA
:1020D000002100F44072B2F5407F08D1094A11682E
:1020E00021F4F811084A02401143064A1160054ADA
:1020F00068321268C0F30B031A43024B68331A604C
:102100007047000008380240FFFCFF0F38B5024658
:102110000024009400230020CA24184D2C6053246E
:102120002C6041B1154C1C3C24681443134D1C3DDC
:102130002C6001201EE0114C1C3C246894430F4D80
:102140001C3D2C6000BF0D4C183C246804EA12238F
:10215000009C641C0094009CB4F5803F01D0002BCF
:10216000F1D0064C183C246804EA12240CB9002073
:1021700000E00120FF24014D2C6038BD24280040E0
:1021800010B54FF4807000F091F801280BD10521B3
:10219000054801F003F84FF4807000F021F84FF487
:1021A0000030FFF719FC10BD812E0008014600BF6A
:1021B000080900EB8000420001F00F001044C0B29B
:1021C00070470146002204E0501CC2B2A1F10A008F
:1021D000C1B20A29F8DA100741EA1060704700001E
:1021E00081B241F08001044A126802F0800262EA82
:1021F0000101014A116070470C28004008B5002217
:10220000009200200021104A126802F04002CAB970
:10221000421E0D4B1A6000BF0B4A126802F04001CB
:10222000009A521C0092009AB2F5803F01D000291A
:10223000F2D0054A126802F040020AB1012002E021
:10224000002000E0012008BD0C2800400348006881
:1022500020F0800001490860704700000C28004011
:1022600070B506460C4600250E4800680E4900EA87
:102270000105280CE070C5F30420607005F03F00F4
:10228000A070C5F3423020705EB9E078FFF78EFF92
:10229000E0706078FFF78AFF6070A078FFF786FF34
:1022A000A07070BD042800403FFFFF0010B501463C
:1022B00000200022054B1B68054C03EA040202EAD9
:1022C00001030BB1012000E0002010BD0C280040EC
:1022D0007F3F010070B506460C4600250F48006898
:1022E0000F4900EA0105C5F305402070C5F306203B
:1022F000607005F07F00A07005F48000000CE070B5
:102300005EB92078FFF752FF20706078FFF74EFF2C
:102310006070A078FFF74AFFA07070BD00280040F1
:102320007F7F7F0030B504460025CA20154908602C
:1023300053200860FFF762FF00B91DE011481C3808
:10234000006820F040000F491C390860084600680A
:10235000216808430B491C3908600A491439A068F0
:10236000086008460068A18840EA01400549143920
:102370000860FFF76BFF0125FF200249086028462F
:1023800030BD00002428004008B501460020009020
:1023900004480090009800EB8100009000980068CD
:1023A00008BD0000502800402DE9F04105460E46CA
:1023B0001446002765B93648006800F0400000B1B7
:1023C00002E00020E07000BFA06800B919E018E04A
:1023D0002F48006800F0400020B12078FFF7E6FEAB
:1023E000074602E00020E07000BFA06820B9207B13
:1023F000FFF7DCFE074604E0207BFFF7D7FE074629
:1024000000BF95B120780004617840EA0120A178EE
:102410000843E17840EA0140217B40EA0160A1687D
:102420000843616840EA01071BE02078FFF7C9FE16
:102430004FEA00486078FFF7C4FE48EA0028A07819
:10244000FFF7BFFE48EA0008E07848EA0048207B32
:10245000FFF7B7FE48EA0060A1680843616840EAF8
:102460000107CA200A491C31086053200860B6F5EC
:10247000807F03D106481430076002E0044818301A
:102480000760FF2002491C310860BDE8F0810000B0
:10249000082800402DE9F04105460C46002600279B
:1024A0004DB9607800F01000102804D1607820F059
:1024B00010000A30607005B908E06078FFF776FE1A
:1024C0000646A078FFF772FE064600BF55B1E078D9
:1024D0000004617840EA0120A1780843217840EAAD
:1024E000413611E0E078FFF76CFE4FEA0048607873
:1024F000FFF767FE48EA0028A078FFF762FE48EA87
:102500000008207848EA4036CA2012490860532063
:102510000860FFF773FE08B9002714E00E4830404A
:102520000C4920390860FFF791FE0A481C38006802
:1025300000F0200030B900F079F808B9002702E077
:10254000012700E00127FF20024908603846BDE866
:10255000F0810000242800403FFFFF002DE9F041FA
:1025600005460C46002600274DB92E48006800F0AD
:10257000400000B102E00020E07000BF0DE02948FB
:10258000006800F0400020B12078FFF70FFE0646FB
:1025900002E00020E07000BF00BF55B120780004C9
:1025A000617840EA0120A1780843E17840EA0146D9
:1025B00011E02078FFF705FE4FEA00486078FFF74A
:1025C00000FE48EA0028A078FFF7FBFD48EA000873
:1025D000E07848EA0046CA2012491C3108605320BE
:1025E0000860FFF70BFE08B9002713E00E483040E3
:1025F0000C4908390860FFF729FE0A48006800F016
:10260000200030B900F012F808B9002702E00127D5
:1026100000E00127FF2003491C3108603846BDE86F
:10262000F0810000082800407F7F7F0008B500226D
:10263000009200200021CA22134B1A6053221A6014
:10264000114A183A126822F0A0020F4B183B1A6088
:1026500000BF0D4A183A126802F02001009A521C7D
:102660000092009AB2F5003F01D00029F1D0064A4D
:10267000183A126802F020020AB1012000E000209E
:10268000FF22014B1A6008BD2428004008B5002233
:102690000092044A0092009A02EB80020092009A93
:1026A000116008BD502800400246002013890B40ED
:1026B0000BB1012000E00020704701468889704777
:1026C0008181704730B500228B071C0F0F2303FA5E
:1026D00004F20B4B8C1053F824309343084C8D10AC
:1026E00044F8253023468C1053F824308C07240FEF
:1026F00000FA04F42343024C8D1044F8253030BD19
:10270000083801400CB50020019000903448006862
:1027100040F480303249086000BF3148006800F45E
:10272000003000900198401C0190009818B9019861
:10273000B0F5A04FF1D12A48006800F4003010B184
:102740000120009001E0002000900098012846D16F
:1027500023484030006840F08050214940310860F3
:102760002048006840F440401E4908601C4808307A
:1027700000681B49083108600846006840F40040C2
:1027800008600846006840F4A05008601648091F19
:102790000860081F006840F08070091F086000BFD3
:1027A0000F48006800F000700028F9D040F2057072
:1027B0000E4908600A480830006820F00300084904
:1027C000083108600846006840F00200086000BF59
:1027D00003480830006800F00C000828F8D10CBD50
:1027E000003802400070004008544007003C02409E
:1027F000042808D14FF0E021096941F004014FF0AD
:10280000E022116107E04FF0E021096921F00401A5
:102810004FF0E0221161704710B51548006840F490
:102820007000134908601348006840F00100114926
:10283000086000200F49083108600E4800680E4902
:1028400008400C4908600D48091D0860081F006811
:1028500020F48020091F0860002006490C31086020
:10286000FFF750FF4FF0006001498039086010BD4C
:1028700088ED00E000380240FFFFF6FE1030002433
:1028800010B50121034800F06EF80121014800F065
:1028900067F810BD0000014010B50121880700F065
:1028A00062F888B10B480078C043C0B2094908708B
:1028B00028B14FF480610848FFF7CEF904E04FF4E7
:1028C00080610548FFF7C6F90121880700F048F844
:1028D00010BD0000050000200014024010B50121C9
:1028E0000D4800F040F888B10C480078C043C0B2F1
:1028F0000A49087028B14FF400510948FFF7ACF9B4
:1029000004E04FF400510648FFF7A4F90121024802
:1029100000F026F810BD0000000400400600002072
:102920000010024010B501210B4800F01CF868B1FE
:1029300000F0FEFF28B94FF480710848FFF78CF9CA
:1029400004E04FF480710548FFF784F90121024843
:1029500000F006F810BD0000000401400014024021
:10296000CA430282704730B502460020002300248B
:10297000158A05EA0103958905EA010413B10CB132
:10298000012000E0002030BD4163704770B504466F
:102990003748006818B937480068354908600A2C7C
:1029A00009D1344800683249086000203249086083
:1029B0003249087070BD3148007818B3302C12DBF2
:1029C000392C10DCA4F130002B49096801EB81019E
:1029D00000EB41002849086008460068642801DDD2
:1029E00064200860E6E72448016824480078FFF77F
:1029F00035F90020214908701F4908601D4800680A
:102A00001B490860204600F0B7FA0546002D28DB78
:102A10001748006850F8250018B31548006850F8AA
:102A20002500134908600846006890F87E01E0B16F
:102A30000846006890F87C01104908700C4800684E
:102A400090F87D0188B94FF0FF310C480078FFF70E
:102A500005F9002009490870064800680449086023
:102A600003E0044800680249086000BFA2E70000D4
:102A7000AC00002040000020B0000020B400002086
:102A800010B540F22551094800F086F801280CD114
:102A9000064800F03BF9C4B22046FFF777FF40F24A
:102AA0002551024800F050F800BF10BD0010014051
:102AB00010B540F22551094800F06EF801280CD1FC
:102AC000064800F023F90446E0B201F001FE40F2AE
:102AD0002551024800F038F800BF10BD0044004006
:102AE00010B5002440F22551124800F055F8012895
:102AF0001FD1104800F00AF9C4B20F490868411C00
:102B00000D4A11600D490C540D48006820B17D2C10
:102B100002D101200B49086007480068B0F5007F2A
:102B200002D301200749086040F22551014800F016
:102B30000BF810BD004800401C000020E0020020FF
:102B4000240000202000002010B50022002340F6C1
:102B50006A14A14200D100BF0A1201249440A3B21A
:102B6000DC43048010BD21B1828942F4005282818D
:102B700004E082894DF6FF731A4082817047024655
:102B80000020B1F5007F00D100BF13880B400BB1CE
:102B9000012000E00020704770B5024600240023A9
:102BA0000025002040F66A16B14200D100BFC1F3F3
:102BB000421501F01F03012606FA03F3012D02D18D
:102BC0009689334006E0022D02D1168A334001E097
:102BD000968A33400C12012606FA04F41688344013
:102BE00013B10CB1012000E0002070BDF0B5034628
:102BF000002400260025002040F66A17B94200D1C3
:102C000000BF1846C1F3421401F01F06012707FA5E
:102C100006F5012C01D10C3004E0022C01D110305A
:102C200000E014301AB107682F43076002E007681C
:102C3000AF430760F0BD00002DE9FF4705460E4693
:102C40000024A14600BFA046B08900B100BF2C8A75
:102C500024F44054F08804432C82AC8941F20C6087
:102C60008443B08831890843718908430443AC81A7
:102C7000AC8A24F44074B0890443AC826846FFF700
:102C800077F92048854202D01F48854202D1DDF8FD
:102C90000C9001E0DDF80890A88900F4004040B1F4
:102CA00009EBC90000EB091031684900B0FBF1F7EE
:102CB00007E009EBC90000EB091031688900B0FB9F
:102CC000F1F76420B7FBF0F004012009642101FB57
:102CD0001078A88900F4004040B1322000EBC80011
:102CE000B0FBF1F000F00700044308E0322000EBF5
:102CF00008106421B0FBF1F000F00F0004432C81B8
:102D0000BDE8FF870010014000140140014688889B
:102D1000C0F308007047C1F308028280704703B413
:102D200001984100009850EAC12018BF04204A0DC4
:102D300018BF40F0010040F2FF72B2EB515F08BFD4
:102D400040F00200012808BF052002B0704730386B
:102D50000A2801D2012070470020704700BFFEE71B
:102D600010B5044600BF80210448FFF708FF012882
:102D7000F9D1A1B20148FFF7CEFF10BD001001400C
:102D800070B52DED048B1D48FEF797FD044600EE4F
:102D9000104AB8EE400A10EE100A01F06DFF41EC47
:102DA000190B9FED170B53EC102B01F067FE41EC54
:102DB000180B53EC182B214613A0FDF7C3FA21483A
:102DC000FEF77BFD054600EE105AB8EE400A10EE05
:102DD000100A01F051FF41EC190B9FED090B53EC68
:102DE000102B01F04BFE41EC180B53EC182B29462D
:102DF00015A0FDF7A7FABDEC048B70BD00200140C3
:102E00000000000000C8E93F6164635F76616C7593
:102E100065203D2025642C206164635F766F6C74AF
:102E20006167655F696D706564616E6365203D20F3
:102E300025302E326620EFBC886D56EFBC89200D00
:102E40000A000000002201406164635F76616C75D6
:102E500065203D2025642C206164635F766F6C746F
:102E60006167655F6C69676874203D2025302E328C
:102E70006620EFBC886D56EFBC89200D0A0000006B
:102E800010B50446002C00DA012438E04FF400713C
:102E90001D48FEF7DFFE4FF480711B48FEF7DCFE95
:102EA000642000F02EF94FF400711748FEF7D4FEAD
:102EB0004FF480711448FEF7CDFE642000F021F934
:102EC0004FF400711048FEF7C5FE4FF480710E48B4
:102ED000FEF7C2FE642000F014F94FF400710A48B6
:102EE000FEF7BAFE4FF480710748FEF7B3FE4FF4C9
:102EF000FA6000F006F94FF4FA6000F002F92000E1
:102F0000A4F10104C2D110BD001402401CB501217E
:102F10002020FEF7EDFF01208DF8040000208DF841
:102F2000060002208DF805008DF80700C001009012
:102F300069460248FEF71AFE1CBD0000001402405C
:102F400010B50446012C04D101020348FEF782FEAD
:102F500000E000BF00BF10BD0014024010B50446E1
:102F6000012C04D101020348FEF776FE00E000BF09
:102F700000BF10BD001402400146202901DB7E295C
:102F800002DD4FF0FF307047A1F12000FBE70000A9
:102F90000020044908700449087004490870044975
:102FA000087070470000002001000020020000208F
:102FB0000300002010B5044600200349087003A058
:102FC00001F098FB10BD000018000020434F322094
:102FD00053656E736F72204175746F20436F6E740A
:102FE000726F6C0D0A00000010B504460A480078A4
:102FF00058B90AA001F07EFB0B4801680BA0FDF751
:10300000A1F90BA001F076FB05E00AA001F072FB2C
:1030100007A001F06FFB10BD18000020434F3220C5
:1030200056616C75653A200014000020256400008C
:103030000D0A0000434F322073656E736F72207764
:103040006173206F6666000010B5044601200349D5
:10305000087003A001F04EFB10BD00001800002016
:10306000434F322053656E736F72204F6666204364
:103070006F6E74726F6C0D0A0000000001460A202A
:1030800091FBF0F200FB12100A2291FBF2F240EAEF
:103090000210C0B27047000010B5044601A001F054
:1030A00029FB10BD44656661756C742048616E64CF
:1030B0006C65720D0A0000004FF0E021096921F0F3
:1030C00001014FF0E022116145F208214143491E00
:1030D0005161002191611146096941F001011161BD
:1030E00000BF4FF0E021096901F480310029F8D0D8
:1030F0004FF0E021096921F001014FF0E022116158
:1031000070474FF0E021096921F001014FF0E02202
:10311000116145F208214143491E5161002191612D
:103120001146096941F00101116100BF4FF0E02132
:10313000096901F480310029F8D04FF0E0210969D4
:1031400021F001014FF0E022116170474FF0E021C2
:10315000096921F001014FF0E0221161C0EBC001CB
:1031600001EB4101491E516100219161114609693C
:1031700041F00101116100BF4FF0E021096901F444
:1031800080310029F8D04FF0E021096921F00101D8
:103190004FF0E022116170477047000070B504469F
:1031A0000D46034B034A29462046FEF789FC70BDB5
:1031B000480000204400002010B50446012C04D132
:1031C0009FED030A00F09CFB00E000BF00BF10BDB4
:1031D0000000000010B50446012C04D1B7EE000A2F
:1031E00000F08EFB00E000BF00BF10BD10B52DED5C
:1031F000068B0446204601F029FC41EC1A0B9FED9A
:10320000090B53EC102B01F0C9FA41EC190B01F03A
:1032100093FA08EE100AB0EE480A00F071FBBDEC1C
:10322000068B10BD000000000000594070B5044638
:103230000D4600BF80210548FFF7A1FC0128F9D108
:10324000A1B20248FFF767FD204670BD00100140A3
:1032500000B589B001210802FEF76AFE0121084687
:10326000FEF746FE2020079003208DF82000002066
:103270008DF8230007A90F48FEF778FC0020019085
:103280008DF808008DF809000390059001208DF855
:10329000180001A90848FEF775FA01210648FEF753
:1032A00035FA0023012205210348FEF795FA09B0FB
:1032B00000BD0000000002400020014010B54FF4A6
:1032C000A060FEF705FE00F0B9F800F017F800F076
:1032D00037F800F029FFFFF719FE4FF4E13001F055
:1032E0009FF900F0ADFF00F04DFBFEF7D6FAFFF7B7
:1032F000AFFF00F033F901F039F810BD1CB5012122
:103300001120FEF7F5FD00208DF80400012000904B
:1033100000208DF8070069460748FEF727FC0020CB
:103320008DF804001C20009000208DF807006946ED
:103330000248FEF71BFC1CBD0000024000100240CA
:1033400000B585B001211120FEF7D2FD01218803CF
:10335000FEF7EEFD00208DF8100001200390002004
:103360008DF8130003A93348FEF700FC00208DF808
:1033700010001C20039000208DF8130003A92E4894
:10338000FEF7F4FB00210846FFF79CF90221042018
:10339000FFF798F903210420FFF794F90421084668
:1033A000FFF790F91D20019000208DF808000C20F7
:1033B0008DF8090001208DF80A0001A8FEF71EFB18
:1033C00006208DF8000000208DF801008DF8020025
:1033D00001208DF803006846FEF73EFD08208DF8B9
:1033E000000001208DF801008DF802008DF8030027
:1033F0006846FEF731FD09208DF8000002208DF8A7
:1034000001008DF8020001208DF803006846FEF7E8
:1034100023FD0A208DF8000002208DF801008DF8B0
:10342000020001208DF803006846FEF715FD05B087
:1034300000BD000000000240001002401CB5012148
:103440001020FEF755FD01212020FEF751FD01203F
:103450008DF8040000208DF8060002208DF805008C
:103460008DF807004FF4C040009069460F48FEF702
:103470007DFB4FF4C060009069460D48FEF776FB77
:103480004FF400710A48FEF7E7FB4FF480610848EB
:10349000FEF7E2FB4FF400510448FEF7DDFB4FF46A
:1034A00080410248FEF7D8FB1CBD0000001002401E
:1034B0000014024010B50446012C06D0022C0AD09C
:1034C000032C0ED0042C18D111E04FF400710C48DD
:1034D000FEF7C2FB12E04FF480610948FEF7BCFB27
:1034E0000CE04FF400510748FEF7B6FB06E04FF43E
:1034F00080410448FEF7B0FB00E000BF00BF10BDF4
:10350000001402400010024010B50446012C06D001
:10351000022C0AD0032C0ED0042C18D111E04FF449
:1035200000710C48FEF796FB12E04FF480610948E9
:10353000FEF790FB0CE04FF400510748FEF78AFBC2
:1035400006E04FF480410448FEF784FB00E000BF32
:1035500000BF10BD001402400010024000B589B049
:1035600001218802FEF7E4FC01212020FEF7C0FCC7
:103570008020079003208DF8200000208DF8230084
:1035800007A90F48FEF7F2FA002001908DF8080015
:103590008DF809000390059001208DF8180001A90D
:1035A0000848FEF7EFF801210648FEF7AFF80023C0
:1035B000012205210348FEF70FF909B000BD000004
:1035C00000140240002201402DED048B9FE0504882
:1035D000FEF773F9044600EE104AB8EE400A10EE0A
:1035E000100A01F049FB41EC190B9FED4A0B53EC1B
:1035F000102B01F043FA41EC180B53EC182B214629
:1036000046A0FCF79FFE002C16DDB4F5FA7F13DA16
:103610004FF400715048FEF71FFB4FF480614E4895
:10362000FEF71AFB4FF400514C48FEF715FB4FF420
:1036300080414A48FEF710FBB4F5FA7F17DDB4F578
:103640007A7F14DA4FF400714348FEF703FB4FF41E
:1036500080614148FEF700FB4FF400513F48FEF700
:10366000FBFA4FF480413D48FEF7F6FA4EE0B4F520
:103670007A7F17DDB4F5FA6F14DA4FF4007136482B
:10368000FEF7E8FA4FF480613348FEF7E3FA4FF4AF
:1036900000513248FEF7E0FA4FF480412F48FEF720
:1036A000DBFA33E0B4F5FA6F18DD40F654308442AB
:1036B00014DA4FF400712848FEF7CCFA4FF4806119
:1036C0002548FEF7C7FA4FF400512448FEF7C2FA26
:1036D0004FF480412148FEF7BFFA17E040F654301E
:1036E000844213DD4FF400711B48FEF7B3FA4FF428
:1036F00080611948FEF7AEFA4FF400511748FEF703
:10370000A9FA4FF480411548FEF7A4FA00BF5EE71E
:10371000002201400000000000C8E93F6C696768B2
:10372000745F6164635F76616C7565203D2025641C
:103730002C206164635F766F6C746167655F6C6990
:10374000676874203D2025302E326620EFBC886DDE
:1037500056EFBC89200D0A00001402400010024000
:103760001FB5FFF7ABFD33A30FCB8DE80F005FE074
:1037700034480078012812D100BF582000F0A8FF7B
:103780000128FAD100BF684600F0B4FF0128FAD141
:103790002DA0FCF7D7FDFFF7F3FAFFF7F9FB2E4852
:1037A0000078012817D12D480078C043C0B22B49BA
:1037B000087028B14FF480612948FEF74DFA04E003
:1037C0004FF480612648FEF745FAFFF7FDFE00F052
:1037D00019F9FFF7DDFB23480078012812D100F02A
:1037E00035FD04463CB920488378427801781F486B
:1037F000FCF7A8FD03E021461DA0FCF7A3FDFFF7A1
:10380000C7FB00BF2748007801280FD100F06CFAF1
:1038100000F090FC04461CB923A0FCF793FD02E0E5
:103820002CA0FCF78FFDFFF7B3FB00BF00F046F9BB
:103830009EE7000048656C6C6F20576F726C6421C6
:103840000A000000000000204B45593120507265ED
:10385000737365640D0A000001000020050000205C
:10386000001402400200002029000020404E000801
:1038700074656D70657261747572655F68756D6988
:10388000646974795F73656E736F725F6D65617380
:10389000757265206661696C65642C207265743A86
:1038A00025640A000300002074656D706572617400
:1038B0007572655F68756D69646974795F73656E4B
:1038C000736F725F636865636B20737563636573A1
:1038D000730A000074656D70657261747572655F5E
:1038E00068756D69646974795F73656E736F725F13
:1038F000636865636B206661696C65640A0000003B
:1039000010B52DED028BB0EE408A9FED070A28EE30
:10391000000ABCEEC00A10EE101A0448FFF734F893
:10392000BDEC028B10BD000000007A440004004092
:1039300010B54FF400710248FEF783F910BD000086
:10394000000002401FB500214FF48070FEF7DEFB3F
:103950000446012C03D04FF0FF3004B010BD6A467E
:103960004FF480710120FEF71FFD01210802FEF7D0
:10397000CDFB0446012C02D06FF00100EDE70120E1
:10398000EBE700000EB501210807FEF7C1FA0120A0
:10399000FEF7A8FA0020FEF7F7FC1949884200D18B
:1039A0000EBDFEF743FE16490020FEF76FFE012014
:1039B000FEF772FB00BF4120FEF74EFB0128FAD153
:1039C0000002FEF785FB0120FEF77CFBFEF72EFED2
:1039D000002000907F200190FF2002906846FEF7B3
:1039E000A1FC002308221621402000F054F80623F1
:1039F00008221146104600F03BF800BFD0E7000057
:103A00001152110000B585B004A90120FEF728FC71
:103A100003A90120FEF75EFC9DF80E009DF80D1035
:103A20009DF80C20CDE9002102909DF812309DF800
:103A300011209DF8131002A0FCF784FC05B000BD16
:103A400052544320646174655F74696D653A202542
:103A50006868782D256868782D256868782025683D
:103A600068783A256868783A256868780D0A000011
:103A7000F8B504460D4616461F468DF803408DF8EE
:103A800001508DF802608DF8007069460120FEF744
:103A900001FD40B2F8BDF8B504460D4616461F4676
:103AA0008DF803408DF800508DF801608DF802709C
:103AB00069460120FEF752FD40B2F8BD10B502493B
:103AC0000248FDF7E5FF10BD48000020440000203B
:103AD00070B505460120FEF705FA0120FEF7F2FA5F
:103AE000FEF7A4FD09480FC8FFF72CFF0446012C80
:103AF00007D1064883784278017805A0FCF722FCBC
:103B000003E021460CA0FCF71DFC70BDC0000020A6
:103B10007365745F616C61726D2073756363657347
:103B2000733A2020256868783A256868783A2568CD
:103B300068780D0A000000007365745F616C617243
:103B40006D206661696C65642C207265743A256429
:103B50000D0A000070B505460120FEF7C3F90120EB
:103B6000FEF7B0FAFEF762FD094E3378B27871784D
:103B7000F078FFF77DFF0446012C03D105A0FCF788
:103B8000E1FB03E0214608A0FCF7DCFB70BD000070
:103B9000B80000207365745F646174652073756399
:103BA000636573730D0A00007365745F6461746507
:103BB000206661696C65642C207265743A25640D19
:103BC0000A00000070B505460120FEF78BF90120C0
:103BD000FEF778FAFEF72AFD094EB378727831784D
:103BE000F078FFF758FF0446012C03D105A0FCF73D
:103BF000A9FB03E0214608A0FCF7A4FB70BD000070
:103C0000BC0000207365745F74696D652073756313
:103C1000636573730D0A00007365745F74696D6585
:103C2000206661696C65642C207265743A25640DA8
:103C30000A00000070B504464FF0FF3500BF0221B6
:103C40000A48FEF731FD0128F9D121460748FEF761
:103C500037FD00BF01210548FEF726FD0128F9D1F7
:103C60000248FEF72AFD05B2284670BD003001402B
:103C700010B50446C4F30B0018B112A0FCF762FBA8
:103C800010BD00F08BF800F07FF84FF4804115482C
:103C9000FDF7E0FF2020FFF7CDFFC4F30740FFF75B
:103CA000C9FFC4F30720FFF7C5FFE0B2FFF7C2FF6B
:103CB0004FF480410B48FDF7CFFF00F065F800BFDF
:103CC000DEE700004572726F723A20496E76616CD1
:103CD000696420736563746F7220616464726573D4
:103CE000730A00000004024010B50A48006820B9B9
:103CF000094909680803FFF7BBFF074909680A0378
:103D00000449096802EB01204FF48072034900F076
:103D100057F810BD3000002034000020440500207A
:103D200070B500254FF480410C48FDF793FF052046
:103D3000FFF780FFFF20FFF77DFF0446601C20B9DE
:103D400007A0FCF7FFFAFF2070BDE5B24FF48041F9
:103D50000248FDF781FF2846F6E700000004024014
:103D60004572726F723A204661696C656420746FA7
:103D7000207265636569766520737461747573205C
:103D8000627974650A00000010B500BFFFF7C8FF34
:103D900000F001000028F9D110BD000010B54FF46B
:103DA00080410648FDF756FF0620FFF743FF4FF41A
:103DB00080410248FDF750FF10BD000000040240A2
:103DC0002DE9F04104460F461546E0B220B119A096
:103DD000FCF7B8FABDE8F081B5F5807F01DD4FF45E
:103DE0008075FFF7DBFFFFF7CFFF4FF480411948E5
:103DF000FDF730FF0220FFF71DFFC4F30740FFF778
:103E000019FFC4F30720FFF715FFE0B2FFF712FF19
:103E1000002604E0B85DFFF70DFF701C86B2AE42CD
:103E2000F8DB4FF480410B48FDF716FFFFF7ACFFBE
:103E300000BFCFE74572726F723A20496E76616CAF
:103E40006964207061676520616464726573730AD8
:103E5000000000000004024010B504460C2C03DDF5
:103E600040200849C87002E000200649C870E0B24E
:103E7000FFF704F9034908700846017802A0FCF72F
:103E800061FA10BDC00000207375626D69745F61D6
:103E90006C61726D2E5254435F416C61726D546956
:103EA0006D652E5254435F486F7572733A202568D2
:103EB00068780D0A0000000010B50446E0B2FFF774
:103EC000DDF8044948700846417803A0FCF73AFA47
:103ED00010BD0000C00000207375626D69745F61E1
:103EE0006C61726D2E5254435F416C61726D546906
:103EF0006D652E5254435F4D696E757465733A203B
:103F0000256868780D0A000010B50446E0B2FFF796
:103F1000B5F8044988700846817803A0FCF712FAC6
:103F200010BD0000C00000207375626D69745F6190
:103F30006C61726D2E5254435F416C61726D5469B5
:103F40006D652E5254435F5365636F6E64733A2000
:103F5000256868780D0A000010B50446E0B2FFF746
:103F60008DF8044988700846817803A0FCF7EAF9C7
:103F700010BD0000B80000207375626D69745F6445
:103F80006174652E5254435F446174653A2025681C
:103F900068780D0A0000000010B50446E0B2FFF793
:103FA0006DF8044948700846417803A0FCF7CAF947
:103FB00010BD0000B80000207375626D69745F6405
:103FC0006174652E5254435F4D6F6E74683A2025BC
:103FD0006868780D0A00000010B50446E0B2FFF7EB
:103FE0004DF8044908700846017803A0FCF7AAF9C7
:103FF00010BD0000B80000207375626D69745F64C5
:104000006174652E5254435F5765656B4461793A1C
:1040100020256868780D0A0010B50446E0B2FFF765
:104020002DF80449C8700846C17803A0FCF78AF946
:1040300010BD0000B80000207375626D69745F6484
:104040006174652E5254435F596561723A20256848
:1040500068780D0A0000000010B50446E0B2FFF7D2
:104060000DF8084908700C2C02DD4020C87002E0F1
:1040700000200449C8700348017803A0FCF762F9E6
:1040800010BD0000BC0000207375626D69745F7420
:10409000696D652E5254435F486F7572733A2025DF
:1040A0006868780D0A00000010B50446E0B2FEF71B
:1040B000E5FF044948700846417803A0FCF742F93F
:1040C00010BD0000BC0000207375626D69745F74E0
:1040D000696D652E5254435F4D696E757465733A10
:1040E00020256868780D0A0010B50446E0B2FEF796
:1040F000C5FF044988700846817803A0FCF722F9BF
:1041000010BD0000BC0000207375626D69745F749F
:10411000696D652E5254435F5365636F6E64733AE5
:1041200020256868780D0A0010B56FF00400FEF7CE
:104130005FFB10BD70B500240025012000F0EAF8F7
:104140004FF400713B48FDF785FD14204FF0E0214E
:10415000096921F001014FF0E022116145F20821C7
:1041600010FB01F1491E516100219161114609695D
:1041700041F00101116100BF00BF4FF0E02109696A
:1041800001F480310029F8D04FF0E021096921F0D5
:1041900001014FF0E022116100BF4FF4007125488A
:1041A000FDF75AFD1E20FEF7D1FF002000F0B2F807
:1041B00002E00120FEF7CAFF1E481030006800F43C
:1041C0000070012804D12046641C1B498842F0D3AA
:1041D0001A48844202D94FF0FF3070BD002403E03A
:1041E000641C0120FEF7B2FF12481030006800F492
:1041F000007010B911488442F2D31048844202D9A9
:104200006FF00100E9E703E06D1C0120FEF79EFF5F
:1042100008481030006800F4007010B1074885426B
:10422000F2D30648854202D96FF00200D5E700209C
:10423000D3E700000018024040420F00A0860100B2
:1042400010B501214020FDF753FE10BD2DE9FC41C2
:1042500000250026002000900190FFF76BFF074625
:1042600017B13846BDE8FC8100243FE003E06D1C37
:104270000120FEF76BFF2448006800F4007010B9BD
:1042800022488542F3D32148854202D96FF00100CC
:10429000E8E703E0761C0120FEF758FF1A480068A3
:1042A00000F4007010B119488642F3D31E2E1AD9BB
:1042B000E21704EB5272D2101DF802202146E317D8
:1042C00004EB5373DB10A4EBC303C3F1070C01230E
:1042D00003FA0CF31A43D2B22046E31704EB5373EC
:1042E000DB100DF80320641C00250026282CBDDB04
:1042F0009DF80200064908709DF8000048709DF87E
:10430000040088700020ADE710180240A08601006C
:10431000290000201CB504464FF4007000900020D6
:104320008DF805008DF804408DF807008DF8060023
:1043300069460248FDF71AFC1CBD00000018024047
:1043400010B54FF4C070FBF7A6FF04465CB14FF404
:10435000BE712046FCF740F9002084F87C0184F807
:104360007D0184F87E01204610BD000010B540A0FC
:1043700000F0C0F9FFF7E4FF404908600122114650
:104380003FA000F023F9012202213FA000F01EF916
:10439000012203213FA000F019F90122042140A0CD
:1043A00000F014F90122052140A000F00FF90122CC
:1043B000062140A000F00AF90122072140A000F0E8
:1043C00005F90122082141A000F000F9012209218C
:1043D00041A000F0FBF800220A2142A000F0F6F80C
:1043E00000220B2143A000F0F1F801220C2146A08D
:1043F00000F0ECF801220D2147A000F0E7F80122BF
:104400000E2149A000F0E2F801220F214AA000F09D
:10441000DDF8012210214CA000F0D8F80122112172
:104420004DA000F0D3F8012212214FA000F0CEF8E9
:104430000022132150A000F0C9F80022142151A03D
:1044400000F0C4F80122152151A000F0BFF80122AC
:10445000162153A000F0BAF80122172154A000F051
:10446000B5F80022182156A000F0B0F810BD0000E9
:10447000747269655F696E69740D0A0040000020FE
:104480006C65642D6F6E2D006C65642D6F66662DF6
:1044900000000000626565702D6F6E2D0000000049
:1044A000626565702D6F66662D00000066616E2D79
:1044B0006F6E2D0066616E2D6F66662D0000000028
:1044C00066616E2D73706565642D0000636F322D1B
:1044D0006175746F2D000000636F322D6F66662D5D
:1044E00000000000636F322D6765742D76616C7576
:1044F00065000000657370383236362D6E65742D98
:10450000696E6974000000007375626D69742D74C2
:10451000696D652D682D00007375626D69742D7469
:10452000696D652D6D2D00007375626D69742D7454
:10453000696D652D732D00007375626D69742D644E
:104540006174652D792D00007375626D69742D6439
:104550006174652D6D2D00007375626D69742D6435
:104560006174652D642D00007375626D69742D642E
:104570006174652D772D00007365742D74696D6508
:10458000000000007365742D646174650000000014
:104590007375626D69742D616C61726D2D682D008B
:1045A0007375626D69742D616C61726D2D6D2D0076
:1045B0007375626D69742D616C61726D2D732D0060
:1045C0007365742D616C61726D0000002DE9F0411E
:1045D00005460F4690461148046812E02878FEF719
:1045E000CBFC0646002E01DA6D1C0AE054F82600CA
:1045F00018B9FFF7A5FE44F8260054F826406D1CB4
:1046000000BF28780028E9D184F87C7184F87D8186
:10461000012084F87E01BDE8F08100004000002008
:1046200010B588B0044601211020FDF781FC01215E
:104630000846FDF75DFC02208DF81C0000208DF877
:104640001E004FF4C060069000208DF81F0002206D
:104650008DF81D0006A91C48FDF788FA07220921DC
:104660001948FDF7CBFA07220A211748FDF7C6FAC9
:1046700002940020ADF80C00ADF81000ADF80E006B
:104680000C20ADF812000020ADF8140002A90F486C
:10469000FEF7D2FA25208DF8040000208DF80500E1
:1046A0008DF8060001208DF8070001A8FDF7D4FB66
:1046B000012240F225510548FEF798FA01210348EE
:1046C000FEF751FA08B010BD000002400010014092
:1046D00010B5044600BF80210548FEF750FA0028B7
:1046E000F9D021460248FEF716FB012010BD00005C
:1046F0000010014010B5044603E014F8010BFFF769
:10470000E7FF20780028F8D1012010BD10B500295E
:104710000AD00878002807D005487844FCF7E2FB67
:10472000002801D0002010BD0248784410BD0000D0
:104730001A0800001208000021F00042A2F16052A5
:10474000B2F5801F01F0004328BFD2F17F6C0BD976
:104750005FEA001C43EAC20242EB507018BF704788
:1047600028BF20F001007047B2F5801FBCBF18467B
:1047700070474FEA410C1CF5001F02D2084600F0BA
:10478000F1BA70B500F024FA00000089FFF7F6BF17
:104790004FF00040A0F58000704700002DE9C041B7
:1047A00030B4DFF8A0C23CEA111418BF3CEA13147D
:1047B00000F0EC8081EA03051CEA111444EAD57488
:1047C00018BF1CEA131500F0C780A4EB05044FF0D6
:1047D000004545EAC12145EAC32341EA505143EA75
:1047E000525304F17F74994204F500344FEAC0201B
:1047F0004FEAC22208BF904200F09C804FEA136546
:104800000FF24016765D4FEA134506FB05F7C7F138
:10481000807706FB07F74FEAD737A7FB0368764296
:10482000C8F58038A7FB06CE38BFA8F1010807FB02
:1048300008E64FF0000EA6FB028CE6FB03CEDCF18F
:10484000000CCEF1004E38BFAEF1010EA6FB0C58A5
:104850004FF000074FF00005E6FB0E87A1FB08C6EE
:10486000A0FB07CE16EB0E0645F10005E1FB076540
:1048700015F1E04E7EBFA4F580345FEA46066D4137
:1048800016F1800745F100054FEA17274FEA066643
:1048900047EA0567A6F1DE46B6F1805F4FEA1525C7
:1048A0001FD9384624F0010C05EBC471BCF1FE6F32
:1048B00001EB0C1102D8F0BCBDE8008124425CBFC2
:1048C00001F5801E9EEAC47F02D4F0BCBDE80081E1
:1048D000244238D4F0BCA1F1C041BDE8004100F051
:1048E000C5B94FEAD22242EA43524FEAD323A7FB8B
:1048F00002864FEAD02040EA415007FB03661EEAD9
:104900000E0F4FEAD12105FB026658BFA6EB0056F9
:10491000B6EB00564FEA520E4EEAC37E18EB0E0E6F
:1049200056EB530EBDD518EB02085E417F1C55F1C6
:104930000005B6E74FF480154FF000074FF0000672
:104940004FF00008ADE7F0BC4FF0000001F1C041AE
:1049500001F00041BDE8008111EA0C1F0CEA1315BB
:1049600000D00CE013EA0C1F00F025804FF000008F
:10497000F0BC81EA030101F00041BDE80081F0BC18
:10498000BDE8004181EA030100F070B9F0BCBDE868
:10499000004170B500F01CF9097EFC3E00F007B83C
:1049A00081EA03014FF0000001F00041704781EA05
:1049B000030100F05BB9F0BCBDE800414FF000001E
:1049C00021497047FFFDFBF9F7F5F4F2F0EEEDEB4E
:1049D000E9E8E6E4E3E1E0DEDDDBDAD8D7D5D4D3FD
:1049E000D1D0CFCDCCCBCAC8C7C6C5C4C2C1C0BF49
:1049F000BEBDBCBBBAB9B8B7B6B5B4B3B2B1B0AF4F
:104A0000AEADACABAAA9A8A8A7A6A5A4A3A3A2A132
:104A1000A09F9F9E9D9C9C9B9A99999897979695ED
:104A200095949393929191908F8F8E8E8D8C8C8B89
:104A30008B8A898988888787868585848483838211
:104A4000828181800000FF070000F87F10F00042A3
:104A500048BF4042B0FA80F310FA03F10AD0C3F124
:104A60001D0303F580634FEA415002EB035202EB52
:104A7000D12170474FF0000070470000DFF848C1B7
:104A800070B51CEA111E1EBF1CEA13159EEA0C0F1E
:104A900095EA0C0F00F06F8081EA030423EA4C13BF
:104AA0004EEAD47E21EA4C1141F4801143F4801384
:104AB000AE44A1FB024CA0FB0365AEF17F7E36192C
:104AC00055EB0C05A1FB034C4CF10003A0FB021CB1
:104AD00016EB0C06654153F10003094218BF46F07E
:104AE000010613F4007F0BD14FEA03314FEA053082
:104AF000340341EA155140EA16506FF003020AE010
:104B00004FEAC3214FEAC520F40241EA555140EA79
:104B100056506FF0020202EB2E4201EB025585EA7D
:104B2000CE710AD05FEA440C18BF24F0004450F163
:104B3000000041F1000120EAD47040F2FE7C6245A1
:104B400000D270BDA84214BF4FF080444FF04044E3
:104B5000002E08BF0024BEF1806FA8BFA1F1C041A4
:104B6000BDE8704080F282804FF0000001F1C0414A
:104B700001F0004170479EEA0C0F0CEA131518BFB4
:104B800095EA0C0F06D04FF0000081EA030E0EF0FC
:104B9000004170BD00F01CF88900013E00F007B82C
:104BA00000F009B84FEA430C5FEA5C5C08D081EA88
:104BB000030100F05BB84FEA410C5FEA5C5CF6D1A0
:104BC0004FF00000014970470000FF070000F87F28
:104BD0000EF1020E2EF0030E5EF8046B364205D481
:104BE000012A43EB030515F5001F12D8012841EBFC
:104BF000010C1CF5001F0CD80ED14FEAD17C15F525
:104C0000001F0CEB4C0C0CF1020C08BF4CEBD37CDE
:104C100004E04FF0080C01E04FEAD37C0CEB4C05AC
:104C200026FA05F606F00706B6F1040C06D20EEBDE
:104C3000860CBDE870404CF0010C6047DFE80CF0DA
:104C4000090B02024FF000414FF00000A1F50021D6
:104C500070BD19461046012851EB010418BFD4F568
:104C6000001484BF002001F0004170BD0808A0F5C9
:104C700000114FEA3101704743004FEAD30C4FEA6D
:104C80003C0C43401FBF40070CF1605113F0FE4F36
:104C900070471CF0006F03D100200CF000417047FA
:104CA0000CF0004343EA507010B540EACC0000F02D
:104CB0000EF800BF000000924FEA0001FFF7D6BFD8
:104CC0004FF000414FF00000A1F5002170470EF1B8
:104CD000020E2EF0030E5EF8044B244204D44FEA79
:104CE0004102B2F17F4F11D84FEA4003B3F17F4F39
:104CF0000CD80ED14FEAD07CB2F17F4F0CEB4C0CAC
:104D00000CF1020C08BF4CEBD17C04E04FF0080C16
:104D100001E04FEAD17C0CEB4C0324FA03F404F0DD
:104D20000704B4F1040C06D20EEB840CBDE810406D
:104D30004CF0010C6047DFE80CF0070802024FF06E
:104D40000040A0F5800010BD0846420018BFD2F117
:104D5000807288BF00F0004010BD4FF04070E1EE5F
:104D6000100A7047FF2141EAD050C0057047FBF799
:104D7000DFBD303132333435363738394142434480
:104D800045464030580030313233343536373839C3
:104D900061626364656640307800040000080000CA
:104DA00000000000000200010000100002400000AE
:104DB000000000A00000000005400000000000C846
:104DC000000000000C4000000000409C00000000BB
:104DD000194000000020BCBE00000000344000006C
:104DE000BFC91B8E00000004B5400000504BCFD05F
:104DF0006607E2CF010000006C4100003E8251AA2C
:104E0000DFEEA73401000000D9420000DCB5A0E2CB
:104E10003A301F97FFFFFFFFB4450000FD25A0C8F3
:104E2000E9A3C14FFFFFFFFFFF3F0000000000802C
:104E300000000000FF3F00000000008000000000B4
:104E400074656D70657261747572655F68756D69A2
:104E5000646974795F73656E736F725F6D6561739A
:104E600075726520737563636573732C2074656D4B
:104E700070657261747572653A25642C2068756D71
:104E800069646974793A25642C20636865636B737F
:104E9000756D3A25640A000066616E2D7370656554
:104EA000642D0000636F322D6F66662D00000000D8
:104EB0006C65642D6F66662D0000000066616E2DC6
:104EC0006F66662D00000000626565702D6F666676
:104ED0002D0000006C65642D6F6E2D0066616E2DD7
:104EE0006F6E2D00626565702D6F6E2D00000000E5
:104EF000636F322D6175746F2D000000636F322D6A
:104F00006765742D76616C75650000006465666187
:104F1000756C7400504F000800000020E000000095
:104F2000C401000830500008E0000020D046010015
:104F3000E00100081C00000043000000F8FFFFFF34
:104F40000C0000000E0000000F0000002E0000000A
:104F50000000000000000000000000000000000051
:104F60000000000000000000000000000000000041
:104F70000000000000000000000000000000000031
:104F80000000000000000000000000000000000021
:104F90000000000000000000000000000C4F0008AE
:104FA00000000000D44E000801000000B04E0008D0
:104FB00001000000E44E000801000000C84E000897
:104FC00001000000DC4E000801000000BC4E00089B
:104FD00001000000984E000801000000F04E00089B
:104FE00001000000A44E000801000000FC4E000873
:104FF0000000000000FF00000000000000000000B2
:10500000000000000000000005050826160800004A
:1050100016090040000000800000000000000000B1
:10502000000000000102030401020304060708094E
:040000050800025598
:00000001FF
