:020000040800F2
:1000000010050120390200084102000843020008DF
:1000100045020008470200084902000800000000ED
:100020000000000000000000000000004B0200087B
:100030004D020008000000004F02000851020008B5
:10004000530200085302000853020008530200083C
:100050005302000853020008710900085302000807
:10006000A9090008E5090008210A00085302000850
:10007000530200085302000853020008530200080C
:1000800053020008530200085302000853020008FC
:1000900053020008530200085302000853020008EC
:1000A000530200086D1100085302000853020008B3
:1000B000B5110008F91100085302000853020008A6
:1000C00053020008530200085302000853020008BC
:1000D00053020008E916000821170008BD170008A0
:1000E000530200085302000853020008530200089C
:1000F000411200085302000853020008530200088E
:10010000530200085302000853020008530200087B
:10011000530200085302000853020008530200086B
:10012000530200085302000853020008530200085B
:10013000530200085302000853020008530200084B
:10014000530200085302000853020008530200083B
:10015000530200085302000853020008530200082B
:10016000530200085302000853020008530200081B
:10017000530200085302000853020008530200080B
:10018000530200085302000800F002F800F045F89E
:100190000AA090E8000C82448344AAF10107DA45E2
:1001A00001D100F03AF8AFF2090EBAE80F0013F0EF
:1001B000010F18BFFB1A43F0010318472027000066
:1001C00040270000103A24BF78C878C1FAD85207F7
:1001D00024BF30C830C144BF04680C6070470000C1
:1001E0000023002400250026103A28BF78C1FBD840
:1001F000520728BF30C148BF0B607047642900F028
:10020000D380002070471FB502F01FFB9DE803005C
:1002100000F04CF91FBD10B510BD00F02AFA1146D0
:10022000FFF7F1FF01F0FAFE00F048FA03B4FFF720
:10023000F2FF03BC01F0C5FB0948804709480047AD
:10024000FEE7FEE7FEE7FEE7FEE7FEE7FEE7FEE786
:10025000FEE7FEE704480549054A064B70470000E3
:100260000511000889010008100100201005012077
:100270001001012010010120704770B5064600F002
:10028000F9F8056806F10B0020F00704B4429CBFA2
:10029000002070BD2B466A68BAB11068A04210D326
:1002A00004F1080188423CBF5068586007D3516888
:1002B000101941601168091B016058601460101D1D
:1002C00070BD13465268002AE7D12146284600F047
:1002D000D9F80028DED170BD70B50446051F00F0C6
:1002E000C9F80068002C14BF446870BD002C18BF0A
:1002F000AC423CBF20466468F8D301680A18AA42A1
:1003000018BF456003D12A6805461144016028687A
:100310004119A1421CBF6C6070BD616869602168B1
:100320000844286070BD00000FB4044910B503AA4A
:10033000029800F04BF910BC5DF814FB1C00002083
:100340002DE9F0410E460446002020622046E16877
:10035000884730B3252805D0D4E901219047206A89
:10036000401CF2E7E168204600278847050018D0C6
:10037000A5F14100192802D820354FF40067324614
:10038000294620462760FFF739FF40B1012804D0F5
:10039000F61D26F007060836D8E7361DD6E72846AC
:1003A000DAE7206ABDE8F0812DE9F0410646002435
:1003B00010687529314616A510D0AFF300800028CB
:1003C00002DA404213A507E031688A0701D512A579
:1003D00002E0490704D511A5012401E0AFF3008034
:1003E00000210A2206F1240709E0B0FBF2FCB0FB71
:1003F000F2F302FB1C00303078541846491C0028E8
:10040000F3D123462A463046BDE8F04100F084B8D7
:10041000000000002D0000002B0000002000000064
:100420004FF0000200B5134694469646203922BF8D
:10043000A0E80C50A0E80C50B1F12001BFF4F7AFD8
:10044000090728BFA0E80C5048BF0CC05DF804EBBA
:10045000890028BF40F8042B08BF704748BF20F828
:10046000022B11F0804F18BF00F8012B7047704726
:100470007047704700487047B400002070477047CD
:100480007047704738B504460A4600206946AFF306
:100490000080002808BF38BD02460099204600F0C1
:1004A000ABF8012038BD012000F0DCB8F8B5AFF39F
:1004B0000080054600200C46102000BF0646A81903
:1004C000A0420DD9324669460020AFF300800700F4
:1004D00008BF00F0C7F80098A04218BF0546C4192D
:1004E000FFF7C8FF05600746F01D20F0070046191A
:1004F000284600F00AF8B44208BFF8BDA21B3146F6
:100500003868BDE8F84000F077B800210160C0E924
:1005100001107047102070472DE9F0470D469946AD
:100520009246044600F124080168880604D5E06973
:1005300021F01001216000E00120A84201DD471BED
:1005400000E00027A1697A1902EB0900081AA061EE
:100550002078C00602D42046AFF30080002608E0D1
:10056000D4E901211AF806009047206A401C761C45
:1005700020624E45F4DB2078C0060AD52046AFF352
:10058000008006E0D4E9012130209047206A401C19
:100590002062381EA7F10107F4DC07E0D4E901214D
:1005A00018F805009047206A401C2062281EA5F11B
:1005B0000105F3DC2046AFF300802078000602D569
:1005C0000220BDE8F0870120FBE70000074B70B573
:1005D0000D467B4400F02FF80446284600F03EF814
:1005E00010B14FF0FF3070BD204670BD8317000082
:1005F00000487047AC000020034640688C46002845
:1006000018BF88423CBF03464068F8D318681844B6
:10061000884207D00CF1030020F00700001D411AAA
:10062000521A0146081D0A60FFF756BE01694A1CAE
:1006300002610878704700B58FB0CDE90131002123
:10064000059105497944CDE9031011466846FFF745
:1006500077FE0FB000BD0000E5FFFFFF007B00F05C
:100660008000704710B500F035F8BDE8104000F08C
:100670002BB87546FFF7BCFFAE46050069465346EA
:1006800020F00700854618B020B5FFF7E3FDBDE870
:1006900020404FF000064FF000074FF000084FF0E9
:1006A000000B21F00701AC46ACE8C009ACE8C0097A
:1006B000ACE8C009ACE8C0098D4670470446AFF30A
:1006C00000802046FFF7B2FD002801D001F079B983
:1006D0007047000010B5012805D0002103A000F0EC
:1006E00021F8012010BD09A1F8E700005349475245
:1006F000544D454D3A204F7574206F6620686561F2
:1007000070206D656D6F7279000000003A204865B9
:100710006170206D656D6F727920636F7272757094
:100720007465640070B505460C460A2000E06D1C37
:1007300001F04AF935B128780028F8D102E0641CAC
:1007400001F042F914B120780028F8D1BDE87040DA
:100750000A2001F039B97CB506460C461546012140
:10076000304600F081FB02208DF8040000208DF857
:100770000600009402208DF8050000208DF8070087
:100780006946284600F032FA7CBD2DE9F04788B072
:1007900080460C4615461E46DDE9109A129F01213F
:1007A000404600F071FB5320ADF81400AAF101009F
:1007B00006900020ADF81600ADF81C0005A92046F3
:1007C00000F0D6FEADF80050ADF80C60CDF8089002
:1007D0000120ADF80200012F06D0022F09D0032F0F
:1007E0000CD0042F14D10EE06946204600F072FDB3
:1007F0000EE06946204600F0B5FD09E06946204656
:1008000000F010FE04E06946204600F065FE00BFDF
:1008100000BF012F06D0022F09D0032F0CD0042FC8
:1008200014D10EE00821204600F092FD0EE00821D0
:10083000204600F0E9FD09E00821204600F042FED4
:1008400004E00821204600F083FE00BF00BF012124
:10085000204600F013FD0121204600F01EFD08B0E7
:10086000BDE8F08710B588B004460121480400F0C7
:100870000BFB0121084600F0F7FA02208DF81C005E
:1008800000208DF81E000C20069000208DF81F001F
:1008900002208DF81D0006A91C4800F0A7F90722C8
:1008A00002211A4800F0EAF907220321174800F054
:1008B000E5F902940020ADF80C00ADF81000ADF899
:1008C0000E000C20ADF812000020ADF8140002A9B3
:1008D0000F4801F003F826208DF8040000208DF861
:1008E00005008DF8060001208DF8070001A800F032
:1008F00075FA012240F22551054800F0C9FF012197
:10090000034800F082FF08B010BD00000000024064
:100910000044004010B52DED028B044611480078CC
:10092000E8B9B4F57A7F04DBB7EE000A01F08CFD7C
:1009300015E0B4F5FA7F04DA9FED0B0A01F084FDAF
:100940000DE000EE104AB8EEC00ADFED080A80EEB6
:10095000201AB0EE418AB0EE480A01F075FDBDECF8
:10096000028B10BD180000209A99193E00007A44AD
:1009700010B5012000F076F801280BD10649087067
:1009800000200649087006490870064908700120D1
:1009900000F062F810BD00000000002001000020FF
:1009A000020000200300002010B5042000F05AF8D7
:1009B00001280DD100200749087001200649087060
:1009C00000200649087006490870042000F044F829
:1009D00010BD0000000000200100002002000020E7
:1009E0000300002010B5082000F03CF801280DD1CC
:1009F000002007490870074908700120064908705F
:100A0000002006490870082000F026F810BD0000FC
:100A10000000002001000020020000200300002050
:100A200010B5102000F01EF801280CD10020064956
:100A300008700649087006490870012005490870C9
:100A4000102000F009F810BD000000200100002077
:100A500002000020030000200149086070470000E8
:100A6000143C014001460020034A12680A400AB1C2
:100A7000012000E000207047143C01400021234980
:100A80008279002A3AD00A46126803689A430B46D4
:100A90001A600A1D126803689A430B1D1A600279D6
:100AA00011440A6803681A430A60184A0832126837
:100AB00003689A43154B08331A601A1D12680368BD
:100AC0009A43124B0C331A604279102A0ED11A1F26
:100AD000126803681A430D4B08331A601A1D126816
:100AE00003681A43094B0C331A600DE00749427939
:100AF00011440A6803681A430A6005E00279114448
:100B00000A6803689A430A6070470000003C01408D
:100B100070B504460E468CB1206878B12568D5E9D9
:100B200000108847206880682060206808B900208D
:100B300030602846FFF7D0FB012070BD0020FCE7A5
:100B40002DE9F0410746884616461D460C20FFF762
:100B500094FB044624B910A001F012FCBDE8F0811A
:100B60002760C4F804800020A0602EB1306818B956
:100B700015B134602C600CE046B1306830B12DB155
:100B8000286818B1286884602C6002E009A001F090
:100B9000F7FB00BFE2E700004576656E745F5075B5
:100BA00073683A206D616C6C6F63206661696C6577
:100BB000640A00004576656E745F507573683A206C
:100BC0006576656E745F7175657565206F722065F9
:100BD00076656E745F71756575655F7461696C20AB
:100BE0006973204E554C4C0A00000000F0B50A46CF
:100BF00000210023002400BF3DE0012505FA01F398
:100C0000156805EA03049C4234D105684F000326A9
:100C1000BE40B543056015794E00B54006683543C2
:100C200005601579012D02D01579022D16D1856840
:100C30004F000326BE40B543856055794E00B54050
:100C4000866835438560456801268E40B54345601A
:100C5000456896798E40B6B235434560C5684F0009
:100C60000326BE40B543C560D5794E00B540C66881
:100C70003543C560491C1029BFD3F0BDF0B5002332
:100C800000244D07ED0E02FA05F3CE1000F1200509
:100C900055F826504E07F70E0F26BE40B543CF102D
:100CA00000F1200646F82750CE1000F1200555F837
:100CB000265045EA0304CE1000F1200545F82640F1
:100CC000F0BD0246002013690B400BB1012000E08B
:100CD00000207047418370470183704770B5044618
:100CE0000D460C2C5BD2DFE804F0060D141B222904
:100CF00030373E454C532B4B2B4A29462B48FFF7A8
:100D00001FFF4DE0274B284A29462948FFF718FFC7
:100D100046E0244B244A29462648FFF711FF3FE0CE
:100D2000204B214A29462448FFF70AFF38E01D4B93
:100D30001D4A29462148FFF703FF31E0194B1A4AA3
:100D400029461F48FFF7FCFE2AE0164B164A2946A3
:100D50001C48FFF7F5FE23E0124B134A29461A48B8
:100D6000FFF7EEFE1CE00F4B0F4A29461748FFF72E
:100D7000E7FE15E00B4B0C4A29461548FFF7E0FE4D
:100D80000EE0084B084A29461248FFF7D9FE07E053
:100D9000044B054A29461048FFF7D2FE00E000BF89
:100DA00000BF70BD2C00002028000020591B000847
:100DB000C91F0008751F0008391A00081D1A00080D
:100DC000011D0008E51C0008191D0008911A000803
:100DD000251B0008C51A0008D91C000870B50021A1
:100DE00000230F22C4781CB3174C246804F4E06479
:100DF000C4F5E064C4F30721C1F10404E3B20A417D
:100E000044789C40E1B28478144021430C07210EC1
:100E10000E4C05786155047804F01F050124AC40A0
:100E200005786D11AD0005F1E025C5F8004109E038
:100E3000047804F01F050124AC40054D06787611B6
:100E400045F8264070BD00000CED00E000E400E035
:100E500080E100E002490143024A1160704700004E
:100E60000000FA050CED00E029B1064A12680243C1
:100E7000044B1A6004E0034A12688243014B1A6073
:100E8000704700003038024029B1064A1268024318
:100E9000044B1A6004E0034A12688243014B1A6053
:100EA000704700004038024029B1064A12680243E8
:100EB000044B1A6004E0034A12688243014B1A6033
:100EC0007047000044380240F0B5002100220024A1
:100ED000022500260223324F3F6807F00C0121B1A2
:100EE000042905D0082937D105E02E4F076036E0E8
:100EF0002D4F076033E02A4F3F1F3F68C7F38056EE
:100F0000274F3F1F3F6807F03F036EB1264FB7FBE7
:100F1000F3F7DFF88CC0ACF1040CDCF800C0CCF3C4
:100F2000881C07FB0CF40CE01E4FB7FBF3F7DFF84F
:100F300070C0ACF1040CDCF800C0CCF3881C07FBDB
:100F40000CF4174F3F1F3F68C7F301477F1C7D001C
:100F5000B4FBF5F7076002E0124F076000BF00BF67
:100F60000F4F3F6807F0F0010909104F7A5C0768DE
:100F7000D74047600A4F3F6807F4E051890A0B4F9A
:100F80007A5C4768D7408760054F3F6807F4604147
:100F9000490B064F7A5C4768D740C760F0BD000038
:100FA000083802400024F40000127A009900002062
:100FB00030B500228B071C0F0F2303FA04F20B4BF2
:100FC0008C1053F824309343084C8D1044F825308E
:100FD00023468C1053F824308C07240F00FA04F4B5
:100FE0002343024C8D1044F8253030BD08380140B1
:100FF0000CB50020019000903448006840F4803027
:101000003249086000BF3148006800F400300090A9
:101010000198401C0190009818B90198B0F5A04FB4
:10102000F1D12A48006800F4003010B1012000908E
:1010300001E0002000900098012846D1234840306C
:10104000006840F080502149403108602048006825
:1010500040F440401E4908601C48083000681B49A5
:10106000083108600846006840F4004008600846FF
:10107000006840F4A05008601648091F0860081F67
:10108000006840F08070091F086000BF0F480068CA
:1010900000F000700028F9D040F205700E49086099
:1010A0000A480830006820F0030008490831086049
:1010B0000846006840F00200086000BF034808309E
:1010C000006800F00C000828F8D10CBD0038024080
:1010D0000070004008544007003C0240042808D13A
:1010E0004FF0E021096941F004014FF0E022116165
:1010F00007E04FF0E021096921F004014FF0E02200
:101100001161704710B51548006840F4700013492C
:1011100008601348006840F0010011490860002091
:101120000F49083108600E4800680E4908400C4914
:1011300008600D48091D0860081F006820F4802021
:10114000091F0860002006490C310860FFF750FFB6
:101150004FF0006001498039086010BD88ED00E063
:1011600000380240FFFFF6FE1030002410B50121C8
:101170000D4800F09EF888B10C480078C043C0B21A
:101180000A49087028B14FF400710948FFF7A4FD1F
:1011900004E04FF400710648FFF79CFD012102486E
:1011A00000F078F810BD00000000014004000020AD
:1011B0000014024010B50121880700F07AF888B1C8
:1011C0000B480078C043C0B20949087028B14FF4F9
:1011D00080610848FFF780FD04E04FF48061054816
:1011E000FFF778FD0121880700F054F810BD0000DA
:1011F000050000200014024010B501210D4800F048
:1012000058F888B10C480078C043C0B20A49087049
:1012100028B14FF400510948FFF75EFD04E04FF498
:1012200000510648FFF756FD0121024800F032F850
:1012300010BD000000040040060000200010024025
:1012400010B501210B4800F034F868B100F082FFBE
:1012500028B94FF480710848FFF73EFD04E04FF4D1
:1012600080710548FFF736FD0121024800F012F8B1
:1012700010BD0000000401400014024021B10288AA
:1012800042F08002028004E002884FF67F731A4029
:1012900002807047CA430282704721B1028842F03F
:1012A0000102028004E002884FF6FE731A400280B9
:1012B000704730B50246002000230024158A05EA55
:1012C0000103958905EA010413B10CB1012000E086
:1012D000002030BD70B5002400220023058C4FF69D
:1012E000FE7635400584028C8388048B4FF68F751B
:1012F0002C40B51E2C400D882C43751E2A408D892C
:101300002A434D882A43104DA84202D00F4DA842CF
:1013100013D14FF6F7752A40CD892A434FF6FB7556
:101320002A408D882A434FF6FF652B404FF6FF5524
:101330002B400D8A2B434D8A2B43838004838D6879
:101340004563028470BD00000000014000040140BC
:101350000A460021018B4FF6F773194011430183B0
:101360007047000070B5002400220023058C4FF662
:10137000EF7635400584028C8388048B48F6FF7530
:101380002C404FF6FF452C400D884FF6FF7606EABD
:1013900005252C434FF6DF752A408D8906EA051591
:1013A0002A434D8806EA05152A43154DA84202D066
:1013B000144DA8421DD14FF67F752A40CD894FF6B6
:1013C000FF7606EA05152A434FF6BF752A408D8839
:1013D00006EA05152A434FF6FF352B404FF2FF75FD
:1013E0002B400D8A06EA85052B434D8A06EA8505C2
:1013F0002B43838004838D688563028470BD000065
:1014000000000140000401400A460021018B4FF218
:10141000FF7319404FF6FF7303EA02231943018358
:101420007047000070B5002400220023058C4FF6A1
:10143000FF6635400584028C8388848B4FF68F7558
:101440002C404FF6FC752C400D882C434FF6FF5571
:101450002A408D894FF6FF7606EA05252A434D88F6
:1014600006EA05252A43154DA84202D0144DA8428C
:101470001DD14FF2FF752A40CD894FF6FF7606EA5F
:1014800005252A434FF6FF352A408D8806EA0525B3
:101490002A434EF6FF752B404DF6FF752B400D8A03
:1014A00006EA05152B434D8A06EA05152B43838072
:1014B00084838D68C563028470BD00000000014014
:1014C000000401400A460021818B4FF6F773194052
:1014D000114381837047000070B50022002300246F
:1014E000058C4EF6FF7635400584038C8488828B0C
:1014F00048F6FF752A404FF6FF452A400D884FF603
:10150000FF7606EA05252A434DF6FF752B408D89A7
:1015100006EA05352B434D8806EA05352B430A4D6F
:10152000A84202D0094DA84208D14BF6FF752C40C5
:101530000D8A4FF6FF7606EA85152C438480828358
:101540008D680564038470BD000001400004014003
:101550000A460021818B4FF2FF7319404FF6FF734B
:1015600003EA0223194381837047416370470000F7
:1015700000220288184B98420ED0184B98420BD08C
:10158000B0F1804F08D0164B984205D0154B9842C9
:1015900002D0154B984204D14FF68F731A404B88F6
:1015A0001A43124B984207D0114B984204D04FF681
:1015B000FF431A400B891A4302804B68C3620B88B1
:1015C0000385054B984202D0044B984201D18B7A97
:1015D000038601238382704700000140000401401C
:1015E0000004004000080040000C004000100040D3
:1015F0000014004070B504463748006818B93748F1
:101600000068354908600A2C09D13448006832491D
:1016100008600020324908603249087070BD3148C6
:10162000007818B3302C12DB392C10DCA4F1300018
:101630002B49096801EB810100EB41002849086052
:1016400008460068642801DD64200860E6E7244855
:10165000016824480078FFF741FB00202149087009
:101660001F4908601D4800681B490860204600F0BB
:10167000F1F90546002D28DB1748006850F82500D1
:1016800018B31548006850F825001349086008464B
:10169000006890F87E01E0B10846006890F87C018F
:1016A000104908700C48006890F87D0188B94FF027
:1016B000FF310C480078FFF711FB00200949087042
:1016C000064800680449086003E0044800680249CD
:1016D000086000BFA2E70000900000202400002066
:1016E000940000209800002010B540F225510B48CE
:1016F00000F0A4F801280FD1084800F059F9C4B24D
:101700002046FFF777FF204600F038FD40F22551D4
:10171000024800F06BF800BF10BD0000001001404F
:1017200010B540F22551214800F088F801283BD13E
:101730001E4800F03DF904461D4802680068401C40
:101740001B4B18601B48845418460068062825DB8C
:10175000002019460860174800781649497808445F
:101760001449897808441349C9780844114909790A
:101770000844C0B20F49497988420BD10D4881789D
:10178000407801EB00200C49086008460068FFF72C
:10179000C1F803E04FF0FF300749086040F22551DF
:1017A000024800F023F800BF10BD000000440040D4
:1017B00010000020080000201400002010B540F2A6
:1017C0002551094800F03AF801280CD1064800F0EC
:1017D000EFF80446E0B200F0C1FD40F225510248A6
:1017E00000F004F800BF10BD0048004010B5002212
:1017F000002340F66A14A14200D100BF0A1201245E
:101800009440A3B2DC43048010BD21B1828942F42C
:101810000052828104E082894DF6FF731A40828172
:10182000704702460020B1F5007F00D100BF138849
:101830000B400BB1012000E00020704770B502465C
:10184000002400230025002040F66A16B14200D192
:1018500000BFC1F3421501F01F03012606FA03F38E
:10186000012D02D19689334006E0022D02D1168A5D
:10187000334001E0968A33400C12012606FA04F444
:101880001688344013B10CB1012000E0002070BD77
:10189000F0B50346002400260025002040F66A1714
:1018A000B94200D100BF1846C1F3421401F01F062F
:1018B000012707FA06F5012C01D10C3004E0022CB7
:1018C00001D1103000E014301AB107682F430760CF
:1018D00002E00768AF430760F0BD00002DE9FF4755
:1018E00005460E460024A14600BFA046B08900B1BF
:1018F00000BF2C8A24F44054F08804432C82AC8925
:1019000041F20C608443B0883189084371890843EF
:101910000443AC81AC8A24F44074B0890443AC82A3
:101920006846FFF7D1FA2048854202D01F48854219
:1019300002D1DDF80C9001E0DDF80890A88900F4F0
:10194000004040B109EBC90000EB091031684900C3
:10195000B0FBF1F707E009EBC90000EB09103168B3
:101960008900B0FBF1F76420B7FBF0F00401200917
:10197000642101FB1078A88900F4004040B13220B6
:1019800000EBC800B0FBF1F000F00700044308E0F2
:10199000322000EB08106421B0FBF1F000F00F00E2
:1019A00004432C81BDE8FF87001001400014014072
:1019B00001468888C0F308007047C1F3080282809E
:1019C000704700BFFEE7000010B5044600BF80214D
:1019D0000448FFF726FF0128F9D1A1B20148FFF71B
:1019E000ECFF10BD001001401CB501212020FFF7C5
:1019F0003BFA01208DF8040000208DF8060002203B
:101A00008DF805008DF80700C00100906946024876
:101A1000FFF7ECF81CBD00000014024010B50446AE
:101A2000012C04D101020348FFF754F900E000BF84
:101A300000BF10BD0014024010B50446012C04D1B3
:101A400001020348FFF748F900E000BF00BF10BDE6
:101A5000001402400146202901DB7E2902DD4FF0FF
:101A6000FF307047A1F12000FBE70000002004498F
:101A700008700449087004490870044908707047E8
:101A800000000020010000200200002003000020D0
:101A900010B5044600200349087003A000F070FC54
:101AA00010BD000018000020434F322053656E73B4
:101AB0006F72204175746F20436F6E74726F6C0D7E
:101AC0000A00000010B504460A48007858B90AA078
:101AD00000F056FC0B4801680BA0FEF725FC0BA09C
:101AE00000F04EFC05E00AA000F04AFC07A000F060
:101AF00047FC10BD18000020434F322056616C7522
:101B0000653A200014000020256400000D0A000042
:101B1000434F322073656E736F72206973206F6656
:101B20006600000010B5044601200349087003A0B8
:101B300000F026FC10BD000018000020434F3220AA
:101B400053656E736F72204F666620436F6E7472BA
:101B50006F6C0D0A0000000010B5044601A000F0F3
:101B60000FFC10BD44656661756C742048616E643D
:101B70006C65720D0A000000002107E0002200E001
:101B8000521C44F25C439A42FADB491C8142F5D371
:101B90007047000010B588B0044601218804FFF7A3
:101BA00073F901210220FFF75FF902208DF81C0074
:101BB00000208DF81E004FF44060069000208DF844
:101BC0001F0002208DF81D0006A91C48FFF70EF823
:101BD00007220A211948FFF751F807220B2117485D
:101BE000FFF74CF802940020ADF80C00ADF810009F
:101BF000ADF80E000C20ADF812000020ADF8140076
:101C000002A90F48FFF76AFE27208DF80400002084
:101C10008DF805008DF8060001208DF8070001A859
:101C2000FFF7DCF8012240F225510548FFF730FEAE
:101C300001210348FFF7E9FD08B010BD0004024090
:101C40000048004010B54FF4FA60FFF795FF12A06E
:101C500000F0A6FA4FF4FA60FFF78EFF0FA000F035
:101C60009FFA40F6B830FFF787FF0FA000F098FA10
:101C700040F6B830FFF780FF0FA000F091FA40F671
:101C8000B830FFF779FF10A000F08AFA40F6B830BC
:101C9000FFF772FF10BD00002B2B2B0041542B527D
:101CA00053540D0A0000000041542B43574D4F443C
:101CB000453D330D0A00000041542B4349504D4F20
:101CC00044453D310D0A000041542B4349505345D2
:101CD0004E440D0A0000000010B50446FFF7B2FFA5
:101CE00010BD000010B50446012C04D19FED030A7D
:101CF00000F0FAF900E000BF00BF10BD00000000D6
:101D000010B50446012C04D1B7EE000A00F0ECF93E
:101D100000E000BF00BF10BD10B52DED068B0446DE
:101D2000204600F027FD41EC1A0B9FED090B53EC08
:101D3000102B00F0C7FB41EC190B00F091FB08EEF3
:101D4000100AB0EE480A00F0CFF9BDEC068B10BDCA
:101D5000000000000000594070B504460D4600BF69
:101D600080210548FFF75DFD0128F9D1A1B20248A5
:101D7000FFF723FE204670BD0010014010B54FF460
:101D8000A060FFF767F800F0B9F800F017F800F06E
:101D900037F800F011FAFFF727FE00F0BDF94FF415
:101DA000E13000F0F9FA4FF41650FEF75BFD4FF406
:101DB000E130FFF7EFFE00F01BFA10BD1CB501216A
:101DC0001120FFF751F800208DF804000120009049
:101DD00000208DF8070069460748FEF707FF00203E
:101DE0008DF804001C20009000208DF80700694643
:101DF0000248FEF7FBFE1CBD00000240001002403E
:101E000000B585B001211120FFF72EF801218803CC
:101E1000FFF74AF800208DF8100001200390002001
:101E20008DF8130003A93348FEF7E0FE00208DF87B
:101E300010001C20039000208DF8130003A92E48E9
:101E4000FEF7D4FE00210846FFF7B2F80221042075
:101E5000FFF7AEF803210420FFF7AAF80421084693
:101E6000FFF7A6F81D20019000208DF808000C2037
:101E70008DF8090001208DF80A0001A8FEF7FEFD8B
:101E800006208DF8000000208DF801008DF802007A
:101E900001208DF803006846FEF7A0FF08208DF8AA
:101EA000000001208DF801008DF802008DF803007C
:101EB0006846FEF793FF09208DF8000002208DF898
:101EC00001008DF8020001208DF803006846FEF73E
:101ED00085FF0A208DF8000002208DF801008DF8A2
:101EE000020001208DF803006846FEF777FF05B079
:101EF00000BD000000000240001002401CB501219E
:101F00001020FEF7B1FF01212020FEF7ADFF0120D8
:101F10008DF8040000208DF8060002208DF80500E1
:101F20008DF807004FF4C040009069460F48FEF757
:101F30005DFE4FF4C060009069460D48FEF756FE06
:101F40004FF400710A48FEF7C7FE4FF4806108485D
:101F5000FEF7C2FE4FF400510448FEF7BDFE4FF4F9
:101F600080410248FEF7B8FE1CBD00000010024090
:101F70000014024010B50446012C06D0022C0AD0F1
:101F8000032C0ED0042C18D111E04FF400710C4832
:101F9000FEF7A2FE12E04FF480610948FEF79CFEB6
:101FA0000CE04FF400510748FEF796FE06E04FF4B0
:101FB00080410448FEF790FE00E000BF00BF10BD66
:101FC000001402400010024010B50446012C06D057
:101FD000022C0AD0032C0ED0042C18D111E04FF49F
:101FE00000710C48FEF776FE12E04FF4806109485C
:101FF000FEF770FE0CE04FF400510748FEF76AFE52
:1020000006E04FF480410448FEF764FE00E000BFA4
:1020100000BF10BD00140240001002401FB5FFF7C2
:10202000ADFE21A30FCB8DE80F003CE022480078E5
:1020300001280ED100BF582000F090F90128FAD1F4
:1020400000BF684600F09CF90128FAD11BA0FEF7FA
:102050006BF91E480078012808D19FED1D0A00F099
:1020600043F841F288311B48FFF77FFA1A4800789D
:10207000012808D19FED190A00F036F840F2DC5132
:102080001448FFF772FA16480078012807D19FED2F
:10209000150A00F029F800210E48FFF766FA00F053
:1020A00063F8FFF7E3FCC1E748656C6C6F20576F7E
:1020B000726C64210A000000000000204B45593179
:1020C00020507265737365640A00000001000020EF
:1020D0000000FA43002000400200002000001643E8
:1020E000030000200000000010B52DED028BB0EEC3
:1020F000408A9FED070A28EE000ABCEEC00A10EEE7
:10210000101A0448FFF731FABDEC028B10BD000035
:1021100000007A44000400400EB50C4A402104201F
:10212000FEF719FB022206210848FEF7A7FD012051
:102130004FF47A714A100023CDE900210290602209
:1021400003490220FEF721FB0EBD000000080240FB
:102150000004004010B54FF400710248FEF7B1FDD5
:1021600010BD00000000024010B502490248FEF711
:10217000CFFC10BD2C0000202800002010B5044624
:1021800000BF80210548FFF74CFB0028F9D021460D
:102190000248FFF712FC012010BD0000004800407B
:1021A00010B5044603E014F8010BFFF7E7FF2078B1
:1021B0000028F8D1012010BD10B56FF00400FEF723
:1021C0008DFF10BD10B54FF4C070FEF756F80446F1
:1021D0005CB14FF4BE712046FEF722F9002084F86E
:1021E0007C0184F87D0184F87E01204610BD00004A
:1021F00010B51FA000F0C4F8FFF7E4FF1F49086006
:10220000012211461EA000F07FF8012202211EA02B
:1022100000F07AF8012203211EA000F075F80122D7
:1022200004211FA000F070F8012205211FA000F07A
:102230006BF8012206211FA000F066F80122072199
:102240001FA000F061F80122082120A000F05CF836
:102250000122092120A000F057F800220A2121A024
:1022600000F052F800220B2122A000F04DF810BD22
:10227000747269655F696E69740D0A00240000203C
:102280006C65642D6F6E2D006C65642D6F66662D18
:1022900000000000626565702D6F6E2D000000006B
:1022A000626565702D6F66662D00000066616E2D9B
:1022B0006F6E2D0066616E2D6F66662D000000004A
:1022C00066616E2D73706565642D0000636F322D3D
:1022D0006175746F2D000000636F322D6F66662D7F
:1022E00000000000636F322D6765742D76616C7598
:1022F00065000000657370383236362D6E65742DBA
:10230000696E6974000000002DE9F04105460F4632
:1023100090461148046812E02878FFF79BFB0646B8
:10232000002E01DA6D1C0AE054F8260018B9FFF7F8
:1023300049FF44F8260054F826406D1C00BF287859
:102340000028E9D184F87C7184F87D81012084F82B
:102350007E01BDE8F08100002400002010B5044695
:1023600000BF80210548FFF75CFA0028F9D021461C
:102370000248FFF722FB012010BD000000100140C1
:1023800010B5044603E014F8010BFFF7E7FF2078CF
:102390000028F8D1012010BD10B588B004460121F5
:1023A0001020FEF781FD01210846FEF75DFD0220A9
:1023B0008DF81C0000208DF81E004FF4C0600690C0
:1023C00000208DF81F0002208DF81D0006A91C4872
:1023D000FEF70CFC072209211948FEF74FFC0722E3
:1023E0000A211748FEF74AFC02940020ADF80C00C1
:1023F000ADF81000ADF80E000C20ADF81200002072
:10240000ADF8140002A90F48FFF768FA25208DF8EF
:10241000040000208DF805008DF8060001208DF8DD
:10242000070001A8FEF7DAFC012240F22551054819
:10243000FFF72EFA01210348FFF7E7F908B010BDB6
:10244000000002400010014010B52DED028BB0EEEF
:10245000408AB0EE480AFFF747FEBDEC028B10BD84
:1024600021F00042A2F16052B2F5801F01F000435A
:1024700028BFD2F17F6C0BD95FEA001C43EAC2028D
:1024800042EB507018BF704728BF20F00100704722
:10249000B2F5801FBCBF184670474FEA410C1CF5CF
:1024A000001F02D2084600F0D5B970B500F079F9E6
:1024B00000000089FFF7F6BF4FF00040A0F5800054
:1024C000704700002DE9C04130B4DFF8A0C23CEAFB
:1024D000111418BF3CEA131400F0EC8081EA0305E4
:1024E0001CEA111444EAD57418BF1CEA131500F055
:1024F000C780A4EB05044FF0004545EAC12145EA39
:10250000C32341EA505143EA525304F17F74994284
:1025100004F500344FEAC0204FEAC22208BF9042BF
:1025200000F09C804FEA13650FF24016765D4FEA8B
:10253000134506FB05F7C7F1807706FB07F74FEA5F
:10254000D737A7FB03687642C8F58038A7FB06CECD
:1025500038BFA8F1010807FB08E64FF0000EA6FB04
:10256000028CE6FB03CEDCF1000CCEF1004E38BF4E
:10257000AEF1010EA6FB0C584FF000074FF000051E
:10258000E6FB0E87A1FB08C6A0FB07CE16EB0E06E6
:1025900045F10005E1FB076515F1E04E7EBFA4F5AE
:1025A00080345FEA46066D4116F1800745F100056B
:1025B0004FEA17274FEA066647EA0567A6F1DE46A7
:1025C000B6F1805F4FEA15251FD9384624F0010C7B
:1025D00005EBC471BCF1FE6F01EB0C1102D8F0BC2D
:1025E000BDE8008124425CBF01F5801E9EEAC47FE5
:1025F00002D4F0BCBDE80081244238D4F0BCA1F183
:10260000C041BDE8004100F01AB94FEAD22242EAC7
:1026100043524FEAD323A7FB02864FEAD02040EA79
:10262000415007FB03661EEA0E0F4FEAD12105FB5E
:10263000026658BFA6EB0056B6EB00564FEA520EA4
:102640004EEAC37E18EB0E0E56EB530EBDD518EBBB
:1026500002085E417F1C55F10005B6E74FF4801576
:102660004FF000074FF000064FF00008ADE7F0BC58
:102670004FF0000001F1C04101F00041BDE80081D0
:1026800011EA0C1F0CEA131500D00CE013EA0C1F22
:1026900000F025804FF00000F0BC81EA030101F05A
:1026A0000041BDE80081F0BCBDE8004181EA0301C2
:1026B00000F0C5B8F0BCBDE8004170B500F071F89D
:1026C000097EFC3E00F007B881EA03014FF00000EC
:1026D00001F00041704781EA030100F0B0B8F0BC9E
:1026E000BDE800414FF0000021497047FFFDFBF9B4
:1026F000F7F5F4F2F0EEEDEBE9E8E6E4E3E1E0DE35
:10270000DDDBDAD8D7D5D4D3D1D0CFCDCCCBCAC8A6
:10271000C7C6C5C4C2C1C0BFBEBDBCBBBAB9B8B7CD
:10272000B6B5B4B3B2B1B0AFAEADACABAAA9A8A8C0
:10273000A7A6A5A4A3A3A2A1A09F9F9E9D9C9C9B8E
:102740009A99999897979695959493939291919039
:102750008F8F8E8E8D8C8C8B8B8A898988888787CA
:102760008685858484838382828181800000FF073F
:102770000000F87F10F0004248BF4042B0FA80F3FA
:1027800010FA03F10AD0C3F11D0303F580634FEA89
:10279000415002EB035202EBD12170474FF0000091
:1027A00070470EF1020E2EF0030E5EF8046B3642F7
:1027B00005D4012A43EB030515F5001F12D80128A3
:1027C00041EB010C1CF5001F0CD80ED14FEAD17C57
:1027D00015F5001F0CEB4C0C0CF1020C08BF4CEB78
:1027E000D37C04E04FF0080C01E04FEAD37C0CEB03
:1027F0004C0526FA05F606F00706B6F1040C06D2DB
:102800000EEB860CBDE870404CF0010C6047DFE831
:102810000CF0090B02024FF000414FF00000A1F54F
:10282000002170BD19461046012851EB010418BF64
:10283000D4F5001484BF002001F0004170BD0808E9
:10284000A0F500114FEA310170474FF04070E1EE02
:10285000100A7047FF2141EAD050C00570470000C0
:1028600066616E2D73706565642D0000636F322D97
:102870006F66662D000000006C65642D6F66662D26
:102880000000000066616E2D6F66662D000000007E
:10289000626565702D6F66662D0000006C65642DA5
:1028A0006F6E2D0066616E2D6F6E2D006265657016
:1028B0002D6F6E2D00000000636F322D6175746FF7
:1028C0002D000000636F322D6765742D76616C7585
:1028D0006500000064656661756C7400FC28000882
:1028E00000000020AC000000C4010008A829000876
:1028F000AC00002064040100E001000800000000BA
:1029000000000000000000000000000000000000C7
:1029100000000000000000000000000000000000B7
:10292000000000000000000000000000D4280008A3
:10293000000000009C280008010000007828000822
:1029400001000000AC2800080100000090280008E9
:1029500001000000A42800080100000084280008ED
:10296000010000006028000801000000B8280008ED
:10297000010000006C28000801000000C4280008C5
:102980000000000000FF0000000000000000000048
:102990000000000000000000000102030401020327
:0829A00004060708090000000D
:040000050800018965
:00000001FF
