:020000040800F2
:10000000D008012081020008890200088B02000844
:100010008D0200088F020008910200080000000015
:100020000000000000000000000000009302000833
:1000300095020008000000009702000899020008DD
:100040009B0200089B0200089B0200089B0200081C
:100050009B0200089B020008C91200089B020008CE
:100060000513000845130008851300089B020008CB
:100070009B0200089B0200089B0200089B020008EC
:100080009B0200089B0200089B0200089B020008DC
:100090004D0D00089B0200089B0200089B0200080F
:1000A0009B020008555600089B0200089B020008AE
:1000B0006D560008B15600089B0200089B0200081C
:1000C0009B0200089B0200089B0200089B0200089C
:1000D0009B0200083D690008F9690008296A0008C8
:1000E0009B020008ED5000089B0200089B020008DC
:1000F000D15600089B0200089B0200089B020008E2
:100100009B0200089B0200089B0200089B0200085B
:100110009B0200089B0200089B0200089B0200084B
:100120009B0200089B0200089B0200089B0200083B
:100130009B0200089B0200089B0200089B0200082B
:100140009B0200089B0200089B0200089B0200081B
:100150009B0200089B0200089B0200089B0200080B
:100160009B0200089B0200089B0200089B020008FB
:100170009B0200089B0200089B0200089B020008EB
:100180009B0200089B02000800F002F800F068F8EB
:100190000AA090E8000C82448344AAF10107DA45E2
:1001A00001D100F05DF8AFF2090EBAE80F0013F0CC
:1001B000010F18BFFB1A43F0010318474C770500E5
:1001C0006C7705000A444FF0000C10F8013B13F067
:1001D000070408BF10F8014B1D1108BF10F8015BA0
:1001E000641E05D010F8016B641E01F8016BF9D193
:1001F00013F0080F1EBF10F8014BAD1C0C1B09D1EA
:100200006D1E58BF01F801CBFAD505E014F8016B5B
:1002100001F8016B6D1EF9D59142D6D370470000ED
:100220000023002400250026103A28BF78C1FBD8FF
:10023000520728BF30C148BF0B607047642900F0E7
:100240005381782900F08C81002070471FB53CF065
:10025000D8FA9DE8030000F06FFB1FBD10B510BD7C
:1002600000F05BFC1146FFF7F1FF33F0A9F800F056
:1002700079FC03B4FFF7F2FF03BC08F033FC000085
:100280000948804709480047FEE7FEE7FEE7FEE72A
:10029000FEE7FEE7FEE7FEE7FEE7FEE70448054966
:1002A000054A064B70470000ED550008890100081B
:1002B000D0E60020D0080120D0E80020D0E80020BF
:1002C000704770B5064600F01BFB056806F10B0091
:1002D00020F00704B4429CBF002070BD2B466A6822
:1002E000BAB11068A04210D304F1080188423CBFA3
:1002F0005068586007D35168101941601168091B94
:10030000016058601460101D70BD13465268002AC9
:10031000E7D12146284600F0FBFA0028DED170BD67
:1003200070B50446051F00F0EBFA0068002C14BFFE
:10033000446870BD002C18BFAC423CBF20466468C6
:10034000F8D301680A18AA4218BF456003D12A6889
:1003500005461144016028684119A1421CBF6C6028
:1003600070BD6168696021680844286070BD53EA07
:10037000020C00F069802DE9F04B4FF00006002BD5
:100380001FBFB3FA83F503FA05F424FA05F65E40BD
:1003900012BF1643B2FA82F502FA05F4C5F1200540
:1003A0001EBF22FA05FC44EA0C04203556EA044C30
:1003B0004FEA144418BF641C4FF000084FF00009C6
:1003C000904271EB030C39D3002919BFB1FA81F7C0
:1003D00001FA07F6B0FA80F700FA07F6C7F120072E
:1003E0001EBF20FA07FC46EA0C062037B6FBF4FCD9
:1003F000A7EB0507103F07F01F0BCBF120060CFA07
:100400000BFB2CFA06F644BFB3460026202FA4BFF0
:100410005E464FF0000B5BEA060C08BF4FF0010B85
:1004200019EB0B09ABFB027C48EB0608C01B06FB73
:1004300002CC0BFB03CC71EB0C01C1E70B4602466F
:1004400041464846BDE8F08B13B54FF000004FF031
:100450000001AFF30080BDE81C4070470FB40449B1
:1004600010B503AA029800F019FB10BC5DF814FB4C
:100470003000002070B5044685690068C10601D5CA
:10048000302600E02026C00707D070BDD4E9012146
:1004900030469047206A401C20626D1EF6D570BD24
:1004A00070B5044685690078C00707D170BDD4E9EE
:1004B000012120209047206A401C20626D1EF6D545
:1004C00070BD09684A0501D540B27047C905FCD521
:1004D00000B2704709684A0501D5C0B27047C90526
:1004E000FCD580B2704700002DE9F041064600249B
:1004F00010687529314616A510D0FFF7E2FF0028D5
:1005000002DA404213A507E031688A0701D512A537
:1005100002E0490704D511A5012401E0FFF7DAFF45
:1005200000210A2206F1240709E0B0FBF2FCB0FB2F
:10053000F2F302FB1C00303078541846491C0028A6
:10054000F3D123462A463046BDE8F04100F035BAE3
:10055000000000002D0000002B0000002000000023
:1005600070B504460D4621461068FFF7B3FF218899
:10057000090502D50F4A7A4402E00E4A7A440E3247
:10058000002104F1240305E000F00F060009965D48
:100590005E54491C0028F7D120780023000704D5B9
:1005A000702D02D009B1022311322046BDE87040FF
:1005B00000F003BA3E6D05002DE9F05F8946044660
:1005C0004FF0000ADFF874B1FB44C0F820A02046C9
:1005D000E1688847002874D0252806D0D4E9012195
:1005E0009047206A401C2062F1E700265F462046C3
:1005F000E16888472028054607DB312D05D27819A8
:1006000010F8200C08B10643F1E7B00701D526F039
:100610000406C4F81CA00027C4F818A02A2D09D08D
:10062000284606F07BFB38B304EB8708303DC8F85A
:10063000185019E059F8041B204604EB8702916119
:10064000E1688847012F054618D1E069002820DAC3
:1006500026F020061DE0D8F8180000EB800005EB1E
:1006600040003038C8F818002046E1688847054641
:1006700006F054FB0028EED1012F0AD02E2D08D110
:100680002046E16888477F1C0546022F46F0200679
:10069000C4DBA069002803DA404246F00106A061ED
:1006A000F00701D026F010066C2D0BD0682D09D074
:1006B0004C2D39D06A2D35D0742D35D07A2D33D0CC
:1006C00016E038E0E1682F4620468847B8420546E4
:1006D00009D16C2F26D04FF48060E1680643204694
:1006E0008847054604E06C2F1AD04FF4807006430B
:1006F0000DB3A5F14100192802D8203546F4006653
:100700004A462946204626604E46FFF797FD80B1AF
:1007100001280BD0F61D26F0070000F1080956E766
:100720004020E4E78020D8E70020D6E706F104095E
:100730004DE7284652E7206ABDE8F09F146D05009A
:1007400040EA0103024630B59B0710D14FF0013457
:1007500000E008C208C91D1B9D4315EAC41FF8D05C
:1007600013F0FF0102F8011B0DD01B0AF8E711F886
:10077000013B002B02F8013B05D011F8013B002B97
:1007800002F8013BF3D130BD10B5431C02E010F874
:10079000011B71B18107FAD14FF0013202C88C1AE6
:1007A0008C4314EAC211F9D0C01A0A0603D0C01E45
:1007B00010BDC01A10BD0A0401D0801E10BD090270
:1007C000FCD0401E10BD10B5203AC0F00B80B1E83F
:1007D0001850203AA0E81850B1E81850A0E8185076
:1007E000BFF4F5AF5FEA027C24BFB1E81850A0E87F
:1007F000185044BF18C918C0BDE810405FEA827C99
:1008000024BF51F8043B40F8043B08BF7047D207AF
:1008100028BF31F8023B48BF11F8012B28BF20F850
:10082000023B48BF00F8012B70474FF0000200B5B3
:10083000134694469646203922BFA0E80C50A0E803
:100840000C50B1F12001BFF4F7AF090728BFA0E8B1
:100850000C5048BF0CC05DF804EB890028BF40F87D
:10086000042B08BF704748BF20F8022B11F0804FBF
:1008700018BF00F8012B70474FF0013C50F8042BD3
:1008800051F8043B9A4221D1A2EB0C03934313EAA3
:10089000CC1317D150F8042B51F8043B9A4215D1D0
:1008A000A2EB0C03934313EACC130BD150F8042BA7
:1008B00051F8043B9A4209D1A2EB0C03934313EA8B
:1008C000CC13DBD04FF00000704700BFD01A01BA44
:1008D000B1FA81F101F0180122FA01F0CB40C1F127
:1008E0002001DBB2C0B2C01A2CFA01F3D11A914335
:1008F00011EAC311E6D17047704770477047000096
:100900000048704778E6002070477047704770478E
:1009100038B504460A4600206946AFF30080002837
:1009200008BF38BD02460099204600F0D1F80120EA
:1009300038BD012000F0EAB8F8B5AFF300800546F5
:1009400000200C46102000BF0646A819A0420DD971
:10095000324669460020AFF30080070008BF00F070
:10096000D5F80098A04218BF0546C419FFF7C8FF84
:1009700005600746F01D20F007004619284600F0E4
:100980000AF8B44208BFF8BDA21B31463868BDE87A
:10099000F84000F09DB800210160C0E901107047E7
:1009A0001020704710B500F08FF8006810BD10B52A
:1009B000044600F089F8046010BD2DE9F0470D46AB
:1009C00099469246044600F124080168880604D539
:1009D000E06921F01001216000E00120A84201DD62
:1009E000471B00E00027A1697A1902EB0900081AE9
:1009F000A0612078C00602D42046FFF73BFD002608
:100A000008E0D4E901211AF806009047206A401C4A
:100A1000761C20624E45F4DB2078C0060AD52046BD
:100A2000FFF728FD06E0D4E9012130209047206A35
:100A3000401C2062381EA7F10107F4DC07E0D4E96E
:100A4000012118F805009047206A401C2062281EEA
:100A5000A5F10105F3DC2046FFF722FD2078000612
:100A600002D50220BDE8F0870120FBE701694A1C9E
:100A700002610878704700B58FB0CDE901310021DF
:100A8000059105497944CDE9031011466846FFF701
:100A900093FD0FB000BD0000E5FFFFFF074B70B5F1
:100AA0000D467B44FFF7E7FF0446284600F02AF88E
:100AB00010B14FF0FF3070BD204670BD07700100CF
:100AC0000048704770E600200048704770E600203C
:100AD000034640688C46002818BF88423CBF034646
:100AE0004068F8D318681844884207D00CF1030016
:100AF00020F00700001D411A521A0146081D0A6025
:100B0000FFF70EBC007B00F08000704710B500F0CE
:100B100035F8BDE8104000F02BB87546FFF7D0FF60
:100B2000AE4605006946534620F00700854618B0DA
:100B300020B5FFF7B3FBBDE820404FF000064FF0B3
:100B400000074FF000084FF0000B21F00701AC4602
:100B5000ACE8C009ACE8C009ACE8C009ACE8C00921
:100B60008D4670470446AFF300802046FFF781FBB7
:100B7000002801D007F0B6BF7047000010B501286B
:100B800005D0002103A000F021F8012010BD09A12B
:100B9000F8E7000053494752544D454D3A204F75F0
:100BA00074206F662068656170206D656D6F727965
:100BB000000000003A2048656170206D656D6F721D
:100BC0007920636F727275707465640070B5054644
:100BD0000C460A2000E06D1C07F086FF35B128782E
:100BE0000028F8D102E0641C07F07EFF14B12078E1
:100BF0000028F8D1BDE870400A2007F075BF10B595
:100C000000F07EFD10BD2DE9F04107460C460026A0
:100C1000002509E036023919491B491E88B200F047
:100C200008F80644681CC5B2A542F3DB3046BDE8AF
:100C3000F08170B50446002600F024FE2546E11739
:100C400004EB11610912A02202EB4101C8B200F0CD
:100C5000E1FD00F06DFEE11704EB11610912A4EB58
:100C60000121C8B200F0D6FD00F062FE00F00AFEDD
:100C7000A12000F0CFFD00F05BFE002000F092FD0F
:100C8000064600F02BFE304670BD2DE9F0410546CA
:100C90000E461746002409E0E20026FA02F2D1B21D
:100CA0002A1990B200F006F8601CC4B2BC42F3DB13
:100CB000BDE8F08170B504460E4600F0E3FDE11793
:100CC00004EB11610912A02202EB4101C8B200F04D
:100CD000A1FD00F02DFEE11704EB11610912A4EB58
:100CE0000121C8B200F096FD00F022FE304600F06F
:100CF00091FD00F01DFE00F0F1FD0A204FF0E02113
:100D0000096921F001014FF0E022116145F208214B
:100D100010FB01F1491E51610021916111460969E1
:100D200041F00101116100BF00BF4FF0E0210969EE
:100D300001F480310029F8D04FF0E021096921F059
:100D400001014FF0E022116100BF70BD10B502211A
:100D50001F4800F0C3F8012838D11E4A00211C4862
:100D600000F04CF91B48007AB0B91A48827A016841
:100D700019A0FFF773FB002406E016480B30015D55
:100D80001FA0FFF76BFB641C1248807AA042F4DCC2
:100D90001DA0FFF763FB15E00E48827A41681BA097
:100DA000FFF75CFB002406E00A480B30015D14A04D
:100DB000FFF754FB641C0748807AA042F4DC12A0C1
:100DC000FFF74CFB0221024800F034F810BD000090
:100DD000006400406C0900205374616E64617264A9
:100DE000204672616D653A204944203D20307825C7
:100DF0003033582C20444C43203D2025640A000009
:100E000030782530325820000D0A0000457874658E
:100E10006E646564204672616D653A204944203DE8
:100E2000203078253038582C20444C43203D202554
:100E3000640A0000B1F5007F3AD00FDC202928D0E9
:100E400006DC01291CD004291DD0082940D11DE051
:100E5000402921D0B1F5807F3AD126E0B1F5004F8D
:100E600031D006DCB1F5806F25D0B1F5006F2FD100
:100E700024E0B1F5803F12D0B1F5003F28D111E058
:100E8000154A826025E00822C26022E01022C2607A
:100E90001FE0082202611CE01022026119E0082212
:100EA000426016E01022426013E00422426010E02B
:100EB000042242600DE0042242600AE000228261C6
:100EC0000422426005E0002282610422426000E0C8
:100ED00000BF00BF704700000101010070B504466B
:100EE0000D46002660692840002871D0B5F5807F46
:100EF0005CD010DC082D35D006DC012D20D0022D71
:100F000024D0042D72D127E0102D31D0202D35D0E2
:100F1000402D6BD138E0B5F5004F60D009DCB5F558
:100F2000007F49D0B5F5806F4CD0B5F5006F5DD12D
:100F30004FE0B5F5803F2DD0B5F5003F56D12FE0FD
:100F4000A0682D4900F0B6F9064651E0E06803219B
:100F500000F0B0F906464BE0E068082100F0AAF97D
:100F6000064645E0E068102100F0A4F906463FE09F
:100F70002069032100F09EF9064639E02069082126
:100F800000F098F9064633E02069102100F092F94C
:100F900006462DE06068082100F08CF9064627E03F
:100FA0006068102100F086F9064621E0A069012161
:100FB00000F080F906461BE0A069022100F07AF9F2
:100FC000064615E0A069042100F074F906460FE01A
:100FD0000FE0A069702100F06DF9064608E0606836
:100FE000042100F067F9064602E0FFE7002600BF93
:100FF00000E00026304670BD0101010010B500F58B
:10100000D87303EB01131B6803F004031372137A04
:1010100053B900F5D87303EB01131B6840F2FF745A
:1010200004EA5353136009E000F5D87303EB01138E
:101030001B686FF0604404EAD303536000F5D87373
:1010400003EB01131B6803F00203537200F5D8731E
:1010500003EB01135B6803F00F03937200F5D87381
:1010600003EB01135B681B0AD37400F5D87303EB21
:1010700001139B68D37200F5D87303EB01139B68CF
:101080001C0A147300F5D87303EB01139B681C0C46
:10109000547300F5D87303EB01139B681B0E937315
:1010A00000F5D87303EB0113DB68D37300F5D87335
:1010B00003EB0113DB681C0A147400F5D87303EB0F
:1010C0000113DB681C0C547400F5D87303EB011397
:1010D000DB681B0E937421B9C36843F02003C3601F
:1010E00003E0036943F02003036110BD10B502461D
:1010F0000020936803F08063B3F1806F00D110E0AB
:10110000936803F00063B3F1006F01D1012008E0A0
:10111000936803F08053B3F1805F01D1022000E0B7
:101120000420042874D002F5C07303EB00131B687D
:1011300003F0010402F5C07303EB00131C600B7A8B
:101140007BB94B7A0C8843EA445302F5C07404EB34
:1011500000142468234302F5C07404EB00142360D8
:1011600010E00B7A4C6843EAC4034C7A234302F53F
:10117000C07404EB00142468234302F5C07404EB2C
:10118000001423608B7A03F00F038B7202F5C07397
:1011900003EB00135B6823F00F0402F5C07303EB4D
:1011A00000135C6002F5C07303EB00135B688C7A7C
:1011B000234302F5C07404EB001463608B7B1C06B0
:1011C0004B7B44EA03440B7B44EA0323CC7A23435E
:1011D00002F5C07404EB0014A3608B7C1C064B7CEE
:1011E00044EA03440B7C44EA0323CC7B234302F50B
:1011F000C07404EB0014E36002F5C07303EB00134A
:101200001B6843F0010402F5C07303EB00131C607C
:1012100010BD000010B50246002321B1012907D0FE
:1012200002290FD109E090681D4C00EA04030BE08D
:1012300090681C4C00EA040306E090681A4C00EA2F
:10124000040301E0002300BF00BF184C181BA34299
:1012500016D007DC83B16FF08060184470B10228AB
:1012600018D111E0B0F5007F10D0114C204448B1E6
:10127000B0F5003F0ED10BE002230DE000230BE0A0
:10128000002309E0002307E0012305E0012303E038
:10129000012301E0002300BF00BFD8B210BD000051
:1012A0000300000400030008000003100001000810
:1012B0000001FFF70246002002EA01030BB1012002
:1012C00000E000207047000010B5012000F080F819
:1012D00001280ED107490870002007490870074906
:1012E00008700749087096200CF052FE012000F0AB
:1012F00069F810BD0000002001000020020000205D
:101300000300002010B5042000F062F8012810D17D
:10131000002008490870012007490870002007498B
:1013200008700749087096200CF032FE042000F087
:1013300049F810BD0000002001000020020000203C
:101340000300002010B5082000F042F8012810D159
:1013500000200849087008490870012007490870F2
:1013600000200749087096200CF012FE082000F0BB
:1013700029F810BD0000002001000020020000201C
:101380000300002010B5102000F022F801280FD132
:1013900000200849087008490870084908700120B1
:1013A0000749087096200CF0F3FD102000F00AF8B1
:1013B00010BD0000000000200100002002000020FD
:1013C000030000200149086070470000143C014000
:1013D00001460020034A12680A400AB1012000E0D9
:1013E00000207047143C01402DE9F0410746884633
:1013F00016461D460C20FEF764FF044624B910A0D3
:101400003AF026FCBDE8F0812760C4F80480002093
:10141000A0602EB1306818B915B134602C600CE0B2
:1014200046B1306830B12DB1286818B128688460A1
:101430002C6002E009A03AF00BFC00BFE2E70000DC
:101440004576656E745F507573683A206D616C6C9B
:101450006F63206661696C65640A00004576656E9D
:10146000745F507573683A206576656E745F717548
:10147000657565206F72206576656E745F71756540
:1014800075655F7461696C206973204E554C4C0A18
:101490000000000051B18200A2F1C042126842F087
:1014A00001038200A2F1C042136009E08200A2F1B0
:1014B000C0421268034B1A408300A3F1C0431A6074
:1014C00070470000FEFF0F00D0E901121143C2680F
:1014D0001143026911434269114382691143C26990
:1014E0001143026A1143426A1143826A1143C26A7C
:1014F0001143026B114302689200A2F1C0421160D5
:10150000816808290BD101688900A1F1C0410968EF
:1015100041F0400201688900A1F1C0410A60416BBD
:101520000968426B526841EA0211426B926841EAD3
:101530000221426B928941EA0241426B128A41EADE
:101540000251426B127D41EA0261426B9269114382
:101550000268521C9200A2F1C0421160C16AB1F54A
:10156000804F1BD1816B0968826B526841EA02117E
:10157000826B926841EA0221826B128A41EA02512F
:10158000826B127D41EA0261826B926911430268AB
:101590009200A2F1C042C2F8041107E06FF070425D
:1015A00001688900A1F1C041C1F804217047F0B57C
:1015B0000A4600210023002400BF3DE0012505FA72
:1015C00001F3156805EA03049C4234D105684F0015
:1015D0000326BE40B543056015794E00B540066848
:1015E000354305601579012D02D01579022D16D1EC
:1015F00085684F000326BE40B543856055794E008F
:10160000B540866835438560456801268E40B54300
:101610004560456896798E40B6B235434560C568E9
:101620004F000326BE40B543C560D5794E00B54096
:10163000C6683543C560491C1029BFD3F0BDF0B55D
:10164000002300244D07ED0E02FA05F3CE1000F141
:10165000200555F826504E07F70E0F26BE40B5431D
:10166000CF1000F1200646F82750CE1000F12005DB
:1016700055F8265045EA0304CE1000F1200545F840
:101680002640F0BD0246002013690B400BB101203B
:1016900000E00020704741837047018370470AB122
:1016A000018300E04183704710B500224FF4807140
:1016B0001248FFF7F4FF1148006820F440200F495A
:1016C00008600846006840F4802008600022491540
:1016D0000A48FFF7E4FF02200CF014FD012211027A
:1016E0000648FFF7DCFF02200CF00CFD00224FF44F
:1016F00080710248FFF7D3FF10BD000000040240D4
:101700001CB50121022003F0FDFB4FF44070009056
:1017100001208DF8040000208DF8060003208DF8CC
:10172000050001208DF8070069460748FFF73FFFD5
:10173000012211020448FFF7B2FF012251020248C0
:10174000FFF7ADFF1CBD00000004024010B50022F1
:101750004FF480711248FFF7A2FF1148006820F48F
:1017600040200F4908600846006840F48020086067
:10177000012249150A48FFF792FF02200CF0C2FC33
:10178000012211020648FFF78AFF02200CF0BAFC82
:1017900000224FF480710248FFF781FF10BD000066
:1017A0000004024070B5054600241948006820F482
:1017B00040201749086008460068086000261CE0C1
:1017C00000224FF480711248FFF769FF02200CF0ED
:1017D00099FC012211020E48FFF761FF6006040E1A
:1017E0004FF400710A48FFF74DFF08B1601CC4B206
:1017F00001200CF087FC701CC6B2082EE0DB15B986
:10180000FFF7A4FF01E0FFF74FFF204670BD000087
:101810000004024070B504461948006820F44020D6
:10182000174908600846006840F4802008600022DC
:1018300089151348FFF733FF00251DE0E2094FF437
:1018400000710F48FFF72BFF6006040E02200CF01A
:1018500059FC012211020A48FFF721FF02200CF077
:1018600051FC00224FF480710548FFF718FF022059
:101870000CF048FC681CC5B2082DDFDB70BD000011
:101880000004024010B51448006820F440201249BA
:1018900008600846006840F480200860012249156D
:1018A0000D48FFF7FCFE012211020B48FFF7F7FE7F
:1018B00004200CF027FC00224FF400710648FFF7CB
:1018C000EEFE04200CF01EFC00224FF48071024852
:1018D000FFF7E5FE10BD00000004024010B51348FC
:1018E000006820F44020114908600846006840F470
:1018F00080200860002289150C48FFF7D0FE0022E6
:101900004FF400710948FFF7CAFE04200CF0FAFBFF
:10191000012211020548FFF7C2FE012251020348CD
:10192000FFF7BDFE04200CF0EDFB10BD00040240EB
:1019300010B500241848006820F4402016490860BB
:10194000084600680860012249151348FFF7A7FE02
:1019500001200CF0D7FB012211020F48FFF79FFE78
:1019600001200CF0CFFB07E0601CC4B2FA2C03DDB1
:10197000FFF7B4FF012010BD4FF400710648FFF7D8
:1019800081FE0028F0D100224FF480710248FFF759
:1019900086FE0020EFE700000004024070B5044618
:1019A000002609480588408845430021084602F082
:1019B00091FF03F049F900BF02E004480480761C5F
:1019C000AE42FAD370BD000060E600208000006CDB
:1019D0002DE9F84F07460D4690469946DDF828B0A8
:1019E000A8EB0700401C1FFA80FAA9EB0500401C79
:1019F00080B20090002414E0281981B2384602F029
:101A000069FF03F021F9002607E004FB0A603BF8B8
:101A1000100006490880701C86B25645F5DB601C34
:101A200084B200988442E7DBBDE8F88F8000006C48
:101A300047498871002845D1F021454A11804FF46B
:101A4000A07151801146898845F21052914210D1FF
:101A50004FF430513E4A11814FF4285151814FF4D7
:101A60002C5191814FF4F07111804FF448715180E5
:101A70001AE03749898841F6631291420DD12C2131
:101A8000334A11812B2151812A2191814FF4F07128
:101A900011804FF44871518006E02C212C4A1181AD
:101AA0002A2151812B2191812949898845F21032BF
:101AB00091424CD14FF4A071254A11804FF4F0713E
:101AC000518044E04FF4A071214A1180F0215180EF
:101AD0001146898845F21052914210D14FF430518D
:101AE0001B4A11814FF4285151814FF42C5191819F
:101AF0004FF4487111804FF4F07151801AE014498D
:101B0000898841F6631291420DD12C21104A11812E
:101B10002A2151812B2191814FF4487111804FF47A
:101B2000F071518006E02C21094A11812A2151814E
:101B30002B2191810649898845F21032914206D1C4
:101B40004FF4F071024A11804FF4A0715180704738
:101B500060E600202DE9FF4F84B081468A460020D0
:101B6000039002900698A0EB09050798A0EB0A06DF
:101B7000CDF80490CDF800A0002D01DD012705E08F
:101B80000DB9002702E04FF0FF376D42002E02DD55
:101B90004FF0010806E016B94FF0000802E04FF0E0
:101BA000FF387642B54201DD2C4600E034464FF066
:101BB000000B21E0009A91B2019A90B200F022F855
:101BC0000398284403900298304402900398A0425E
:101BD00005DD0398001B039001983844019002989A
:101BE000A04205DD0298001B02900098404400903E
:101BF0000BF101001FFA80FB601C8345DADD08B0A1
:101C0000BDE8F08F30B504460D462946204602F067
:101C100061FE03F019F8024800880249088030BDCF
:101C2000A80400208000006C2DE9F04306460F4612
:101C30009046002445460320A0EB48093CE07A1B6F
:101C400091B2321990B2FFF7DDFF3A1B91B27219CF
:101C500090B2FFF7D7FF3A1991B2721990B2FFF71D
:101C6000D1FF7A1991B2321990B2FFF7CBFF7A19EE
:101C700091B2321B90B2FFF7C5FF3A1991B2721BB5
:101C800090B2FFF7BFFF7A1B91B2321B90B2FFF701
:101C9000B9FF3A1B91B2721B90B2FFF7B3FF641CFD
:101CA000B9F1000F03DAA000801D814404E0601B3D
:101CB00080000A3081446D1EAC42C0DDBDE8F08377
:101CC00030B504460D463948808845F210518842A7
:101CD00020D13649488902F0ABFF201202F09CFF68
:101CE00032494989491C88B202F0A2FFE0B202F0F1
:101CF00093FF2E49888902F09BFF281202F08CFF87
:101D00002A498989491C88B202F092FFE8B202F0A0
:101D100083FF42E02548808841F66311884228D13C
:101D20002248807920B921480088401E001B84B2D7
:101D30001E49488902F07CFF201202F06DFFE0B2DC
:101D400002F06AFF201202F067FFE0B202F064FFC7
:101D50001649888902F06CFF281202F05DFFE8B294
:101D600002F05AFF281202F057FFE8B202F054FFC7
:101D700013E00E49488902F05BFF201202F04CFF8D
:101D8000E0B202F049FF0949888902F051FF2812A8
:101D900002F042FFE8B202F03FFF04480089044924
:101DA00008804FF0D840A0F8802030BD60E60020C9
:101DB0007E00006C00B5A1B00020209001217A20A7
:101DC00003F0A0F80121084603F0ACF84FF40040FE
:101DD0001E9001208DF87C0000208DF87E000220EE
:101DE0008DF87D0001208DF87F001EA9FE48FFF7C9
:101DF000DEFB4CF233701E9002208DF87C00002038
:101E00008DF87E0003208DF87D0001208DF87F0085
:101E10001EA9F648FFF7CBFB4FF680701E900220FC
:101E20008DF87C0000208DF87E0003208DF87D0069
:101E300001208DF87F001EA9ED48FFF7B8FB4FF495
:101E400080501E9002208DF87C0000208DF87E00CE
:101E500003208DF87D0001208DF87F001EA9E54844
:101E6000FFF7A5FB4FF480501E9002208DF87C00F8
:101E700000208DF87E0003208DF87D0001208DF874
:101E80007F001EA9DC48FFF792FB0C220021D748F7
:101E9000FFF7D5FB0C220121D448FFF7D0FB0C2221
:101EA0000421D248FFF7CBFB0C220521CF48FFF7D6
:101EB000C6FB0C220821CD48FFF7C1FB0C220921EB
:101EC000CA48FFF7BCFB0C220A21C848FFF7B7FB42
:101ED0000C220E21C548FFF7B2FB0C220F21C3488C
:101EE000FFF7ADFB0C220721C148FFF7A8FB0C222E
:101EF0000821BF48FFF7A3FB0C220921BC48FFF7CC
:101F00009EFB0C220A21BA48FFF799FB0C220B21F9
:101F1000B748FFF794FB0C221146B548FFF78FFB3B
:101F20000C220D21B248FFF78AFB0C220E21B0488B
:101F3000FFF785FB0C220F21AD48FFF780FB0C2239
:101F40001146AC48FFF77BFB0C221146AA48FFF76D
:101F500076FB0F200890002009903C200A9000207A
:101F60000B900C900D900E90092001900020029093
:101F7000082003900020049005900690079006200A
:101F80000F900020109011901020129000201390BC
:101F900015901490169017904FF4805018900020D0
:101FA00019904FF480401A9000201B9008A81C90B4
:101FB00001A81D900FA8FFF787FA01210620FFF75F
:101FC00069FA32200CF02EF8D32002F031FE02F034
:101FD0002DFB8A49888002F029FB8849888002F01D
:101FE00025FB86498880084680884FF6FF7101EA04
:101FF00000208249888002F019FB804989880843C3
:102000007E4988800846808849F2413188427DD0E7
:10201000042002F00DFE02F009FB7849888002F0EE
:1020200005FB7649888002F001FB744988800846E8
:1020300080884FF6FF7101EA00207049888002F025
:10204000F5FA6E49898808436C498880084680887B
:1020500048F25251884203D147F28970674988801B
:102060006648808847F289718842D0D0D42002F037
:10207000DFFD02F0DBFA6149888002F0D7FA5F49A0
:10208000888002F0D3FA5D498880084680884FF640
:10209000FF7101EA00205949888002F0C7FA5749C8
:1020A00089880843554988800846808845F2103160
:1020B00088426BD055214FF4704002F0CFFDAA2129
:1020C0004FF2010002F0CAFD52214FF2020002F06D
:1020D000C5FD08214FF2030002F0C0FD01214FF2BF
:1020E000040002F0BBFD4FF4454002F0A1FD02F0F8
:1020F0009DFA42498880084680884FF6FF7101EAC0
:1021000000203E4988804CF2015000E03EE002F0A1
:102110008FFD02F08BFA3949898808433749888056
:1021200005200BF07FFF35488088B0F5004F03D1C4
:1021300045F21050314988803048808845F210516E
:10214000884223D0A12002F073FD02F06FFA2B49E0
:10215000888002F06BFA29498880084680884FF60B
:10216000FF7101EA00202549888002F05FFA2349C7
:1021700089880843214988800846808845F2617132
:10218000884203D141F663101C4988801B4880882F
:1021900049F24131884217D01848808847F2897146
:1021A000884211D01548808845F2103188420BD002
:1021B0001248808845F21051884205D00F48808827
:1021C00041F6631188423BD10D48006820F00F00B2
:1021D0004FF02041C1F81C010846D0F81C0120F442
:1021E0007060C1F81C010DE000040240000C0240C8
:1021F00000100240001402400018024060E6002077
:102200001C0100A00846D0F81C0140F00300C1F8F2
:102210001C01FE48808847F28971884208D1FC4839
:10222000006840F440704FF02041C1F81C0107E005
:10223000F748006840F400704FF02041C1F81C01DD
:10224000F2488188F3A0FEF709F9F048808849F246
:10225000413188427ED1CF2002F0EAFC002002F01A
:10226000DBFCC12002F0D8FC302002F0D5FCED20D0
:1022700002F0DEFC642002F0CFFC032002F0CCFC74
:10228000122002F0C9FC812002F0C6FCE82002F016
:10229000CFFC852002F0C0FC102002F0BDFC7A20AB
:1022A00002F0BAFCCB2002F0C3FC392002F0B4FCEF
:1022B0002C2002F0B1FC002002F0AEFC342002F031
:1022C000ABFC022002F0A8FCF72002F0B1FC2020B9
:1022D00002F0A2FCEA2002F0ABFC002002F09CFC21
:1022E000002002F099FCC02002F0A2FC1B2002F0AA
:1022F00093FCC12002F09CFC012002F08DFCC52063
:1023000002F096FC302002F087FC302002F084FCC2
:10231000C72002F08DFCB72002F07EFC362002F0D0
:1023200087FC482002F078FC3A2002F081FC55201E
:1023300002F072FCB12002F07BFC002002F06CFC89
:102340001A2002F069FCB62002F072FC0A2002F0AA
:1023500063FC00E097E0A22002F05EFCF22002F0B5
:1023600067FC002002F058FC262002F061FC0120EE
:1023700002F052FCE02002F05BFC0F2002F04CFC6B
:102380002A2002F049FC282002F046FC082002F036
:1023900043FC0E2002F040FC082002F03DFC5420DB
:1023A00002F03AFCA92002F037FC432002F034FC92
:1023B0000A2002F031FC0F2002F02EFC002002F077
:1023C0002BFC002002F028FC002002F025FC00205D
:1023D00002F022FCE12002F02BFC002002F01CFCA9
:1023E000152002F019FC172002F016FC072002F05D
:1023F00013FC112002F010FC062002F00DFC2B2033
:1024000002F00AFC562002F007FC3C2002F004FC1B
:10241000052002F001FC102002F0FEFB0F2002F06C
:10242000FBFB3F2002F0F8FB3F2002F0F5FB0F2002
:1024300002F0F2FB2B2002F0FBFB002002F0ECFB91
:10244000002002F0E9FB012002F0E6FB3F2002F051
:10245000E3FB2A2002F0ECFB002002F0DDFB002071
:1024600002F0DAFB002002F0D7FBEF2002F0D4FBF1
:10247000112002F0DDFB78200BF0D4FD292002F0C2
:10248000D7FB02F0B3B86148808847F2897188426F
:102490007ED1112002F0CCFB78200BF0C3FD36205A
:1024A00002F0C6FB002002F0B7FB3A2002F0C0FBAE
:1024B000052002F0B1FBB22002F0BAFB0C2002F0C2
:1024C000ABFB0C2002F0A8FB002002F0A5FB3320A0
:1024D00002F0A2FB332002F09FFBB72002F0A8FB22
:1024E000352002F099FBBB2002F0A2FB322002F063
:1024F00093FBC02002F09CFB0C2002F08DFBC2205D
:1025000002F096FB012002F087FBC32002F090FB53
:10251000102002F081FBC42002F08AFB202002F090
:102520007BFBC62002F084FB0F2002F075FBD0205D
:1025300002F07EFBA42002F06FFBA12002F06CFBF6
:10254000E02002F075FBD02002F066FB002002F0D4
:1025500063FB022002F060FB072002F05DFB0A2013
:1025600002F05AFB282002F057FB322002F054FB05
:10257000442002F051FB422002F04EFB062002F004
:102580004BFB0E2002F048FB122002F045FB00E05E
:1025900061E0142002F040FB172002F03DFBE12037
:1025A00002F046FBD02002F037FB002002F034FBA3
:1025B000022002F031FB072002F02EFB0A2002F07D
:1025C0002BFB282002F028FB312002F025FB5420B1
:1025D00002F022FB472002F01FFB0E2002F01CFB42
:1025E0001C2002F019FB172002F016FB1B2002F042
:1025F00013FB1E2002F010FB2A2002F019FB002022
:1026000002F00AFB002002F007FB0BE060E600206E
:102610001C0100A0204C43442049443A25780D0A6F
:1026200000000000002002F0F7FAEF2002F0F4FAB8
:102630002B2002F0FDFA002002F0EEFA002002F05A
:10264000EBFA012002F0E8FA3F2002F0E5FA292037
:1026500002F0EEFA15E7FE48808845F21031884214
:1026600040F07C87ED2002F0E3FA012002F0D4FA7A
:10267000FE2002F0D1FAEE2002F0DAFADE2002F0BB
:10268000CBFA212002F0C8FAF12002F0D1FA0120A1
:1026900002F0C2FADF2002F0CBFA102002F0BCFAFE
:1026A000C42002F0C5FA8F2002F0B6FAC62002F06C
:1026B000BFFA002002F0B0FAE22002F0ADFAE22008
:1026C00002F0AAFAE22002F0A7FABF2002F0B0FA64
:1026D000AA2002F0A1FAB02002F0AAFA0D2002F01E
:1026E0009BFA002002F098FA0D2002F095FA0020E3
:1026F00002F092FA112002F08FFA002002F08CFA18
:10270000192002F089FA002002F086FA212002F056
:1027100083FA002002F080FA2D2002F07DFA0020DA
:1027200002F07AFA3D2002F077FA002002F074FA03
:102730005D2002F071FA002002F06EFA5D2002F0D6
:102740006BFA002002F068FAB12002F071FA8020E2
:1027500002F062FA002002F05FFA8B2002F05CFACD
:10276000002002F059FA962002F056FA002002F0FA
:1027700053FAB22002F05CFA002002F04DFA002079
:1027800002F04AFA022002F047FA002002F044FA6E
:10279000032002F041FA002002F03EFAB32002F0DA
:1027A00047FA002002F038FA002002F035FA002043
:1027B00002F032FA002002F02FFA002002F02CFA88
:1027C000002002F029FA002002F026FA002002F090
:1027D00023FA002002F020FA002002F01DFA002067
:1027E00002F01AFA002002F017FA002002F014FAA0
:1027F000002002F011FA002002F00EFA002002F090
:102800000BFA002002F008FA002002F005FA00207E
:1028100002F002FA002002F0FFF9002002F0FCF9B9
:10282000002002F0F9F9002002F0F6F9002002F091
:10283000F3F9B42002F0FCF98B2002F0EDF900204E
:1028400002F0EAF9962002F0E7F9002002F0E4F93C
:10285000A12002F0E1F9002002F0DEF9B52002F03B
:10286000E7F9022002F0D8F9002002F0D5F90320A0
:1028700002F0D2F9002002F0CFF9042002F0CCF9E6
:10288000002002F0C9F9B62002F0D2F9002002F0CF
:10289000C3F9002002F0C0F9B72002F0C9F9002006
:1028A00002F0BAF9002002F0B7F93F2002F0B4F9C3
:1028B000002002F0B1F95E2002F0AEF9002002F033
:1028C000ABF9642002F0A8F9002002F0A5F98C20F1
:1028D00002F0A2F9002002F09FF9AC2002F09CF96E
:1028E000002002F099F9DC2002F096F9002002F0B5
:1028F00093F9702002F090F9002002F08DF99020F9
:1029000002F08AF9002002F087F9EB2002F084F946
:10291000002002F081F9DC2002F07EF9002002F0B4
:102920007BF9B82002F084F9002002F075F900204C
:1029300002F072F9002002F06FF9002002F06CF949
:10294000002002F069F9002002F066F9002002F090
:1029500063F9002002F060F9BA2002F069F924203E
:1029600002F05AF9002002F057F9002002F054F961
:10297000002002F051F9C12002F05AF9202002F0A3
:102980004BF9002002F048F9542002F045F90020EC
:1029900002F042F9FF2002F03FF9002002F03CF97A
:1029A000C22002F045F90A2002F036F9002002F0B8
:1029B00033F9042002F030F9002002F02DF9C32091
:1029C00002F036F93C2002F027F9002002F024F949
:1029D0003A2002F021F9002002F01EF9392002F01D
:1029E0001BF9002002F018F9372002F015F9002039
:1029F00002F012F93C2002F00FF9002002F00CF96D
:102A0000362002F009F9002002F006F9322002F027
:102A100003F9002002F000F92F2002F0FDF8002059
:102A200002F0FAF82C2002F0F7F8002002F0F4F897
:102A3000292002F0F1F8002002F0EEF8262002F042
:102A4000EBF8002002F0E8F8242002F0E5F801E0BD
:102A500060E60020002002F0DFF8242002F0DCF81D
:102A6000002002F0D9F8232002F0D6F8002002F06E
:102A7000D3F83C2002F0D0F8002002F0CDF8362048
:102A800002F0CAF8002002F0C7F8322002F0C4F8C1
:102A9000002002F0C1F82F2002F0BEF8002002F062
:102AA000BBF82C2002F0B8F8002002F0B5F829207D
:102AB00002F0B2F8002002F0AFF8262002F0ACF8E5
:102AC000002002F0A9F8242002F0A6F8002002F06D
:102AD000A3F8242002F0A0F8002002F09DF82320A3
:102AE00002F09AF8002002F097F8C42002F0A0F853
:102AF000622002F091F8002002F08EF8052002F02A
:102B00008BF8002002F088F8842002F085F800207D
:102B100002F082F8F02002F07FF8002002F07CF84A
:102B2000182002F079F8002002F076F8A42002F0D4
:102B300073F8002002F070F8182002F06DF8002001
:102B400002F06AF8502002F067F8002002F064F802
:102B50000C2002F061F8002002F05EF8172002F06D
:102B60005BF8002002F058F8952002F055F800209C
:102B700002F052F8F32002F04FF8002002F04CF877
:102B8000E62002F049F8002002F046F8C52002F0E5
:102B90004FF8322002F040F8002002F03DF84420C7
:102BA00002F03AF8002002F037F8652002F034F81D
:102BB000002002F031F8762002F02EF8002002F01A
:102BC0002BF8882002F028F8002002F025F8C62013
:102BD00002F02EF8202002F01FF8002002F01CF86E
:102BE000172002F019F8002002F016F8012002F078
:102BF00013F8002002F010F8C72002F019F80020A6
:102C000002F00AF8002002F007F8002002F004F8B1
:102C1000002002F001F8C82002F00AF8002001F0BC
:102C2000FBFF002001F0F8FF002001F0F5FF00207D
:102C300001F0F2FFC92001F0FBFF002001F0ECFFE2
:102C4000002001F0E9FF002001F0E6FF002001F084
:102C5000E3FF002001F0E0FF002001F0DDFF002095
:102C600001F0DAFF002001F0D7FF002001F0D4FFCF
:102C7000002001F0D1FF002001F0CEFF002001F084
:102C8000CBFF002001F0C8FF002001F0C5FF0020AD
:102C900001F0C2FF002001F0BFFFE02001F0C8FFFB
:102CA000162001F0B9FF002001F0B6FF1C2001F052
:102CB000B3FF002001F0B0FF212001F0ADFF0020A4
:102CC00001F0AAFF362001F0A7FF002001F0A4FFC9
:102CD000462001F0A1FF002001F09EFF522001F0EC
:102CE0009BFF002001F098FF642001F095FF002079
:102CF00001F092FF7A2001F08FFF002001F08CFF9D
:102D00008B2001F089FF002001F086FF992001F05F
:102D100083FF002001F080FFA82001F07DFF00204C
:102D200001F07AFFB92001F077FF002001F074FF75
:102D3000C42001F071FF002001F06EFFCA2001F0F5
:102D40006BFF002001F068FFD22001F065FF00203A
:102D500001F062FFD92001F05FFF002001F05CFF6D
:102D6000E02001F059FF002001F056FFF32001F0B0
:102D700053FF002001F050FFE12001F059FF162021
:102D800001F04AFF002001F047FF1C2001F044FF42
:102D9000002001F041FF222001F03EFF002001F061
:102DA0003BFF362001F038FF002001F035FF4520C1
:102DB00001F032FF002001F02FFF522001F02CFF24
:102DC000002001F029FF642001F026FF002001F01F
:102DD00023FF7A2001F020FF002001F01DFF8B204F
:102DE00001F01AFF002001F017FF992001F014FFF5
:102DF000002001F011FFA82001F00EFF002001F0DB
:102E00000BFFB92001F008FF002001F005FFC420EE
:102E100001F002FF002001F0FFFECA2001F0FCFEDD
:102E2000002001F0F9FED22001F0F6FE002001F0B2
:102E3000F3FED82001F0F0FE002001F0EDFEE020CE
:102E400001F0EAFE002001F0E7FEF32001F0E4FECD
:102E5000002001F0E1FEE22001F0EAFE052001F091
:102E6000DBFE002001F0D8FE0B2001F0D5FE002093
:102E700001F0D2FE1B2001F0CFFE002001F0CCFEBD
:102E8000342001F0C9FE002001F0C6FE442001F00C
:102E9000C3FE002001F0C0FE4F2001F0BDFE002067
:102EA00001F0BAFE612001F0B7FE002001F0B4FE8F
:102EB000792001F0B1FE002001F0AEFE882001F083
:102EC000ABFE002001F0A8FE972001F0A5FE002037
:102ED00001F0A2FEA62001F09FFE002001F09CFE62
:102EE000B72001F099FE002001F096FEC22001F00B
:102EF00093FE002001F090FEC72001F08DFE00201F
:102F000001F08AFED12001F087FE002001F084FE4E
:102F1000D62001F081FE002001F07EFEDD2001F0D0
:102F20007BFE002001F078FEF32001F075FE00200A
:102F300001F072FEE32001F07BFE052001F06CFE43
:102F4000002001F069FE0A2001F066FE002001F079
:102F500063FE1C2001F060FE002001F05DFE3320C6
:102F600001F05AFE002001F057FE442001F054FE0B
:102F7000002001F051FE502001F04EFE002001F033
:102F80004BFE622001F048FE002001F045FE782053
:102F900001F042FE002001F03FFE882001F03CFEDF
:102FA000002001F039FE972001F036FE002001F0EC
:102FB00033FEA62001F030FE002001F02DFEB720E8
:102FC00001F02AFE002001F027FEC22001F024FEBD
:102FD000002001F021FEC72001F01EFE002001F0BC
:102FE0001BFED12001F018FE002001F015FED520B7
:102FF00001F012FE002001F00FFEDD2001F00CFEBA
:10300000002001F009FEF32001F006FE002001F08F
:1030100003FEE42001F00CFE012001F0FDFD002084
:1030200001F0FAFD012001F0F7FD002001F0F4FDB0
:10303000022001F0F1FD002001F0EEFD2A2001F058
:10304000EBFD002001F0E8FD3C2001F0E5FD002053
:1030500001F0E2FD4B2001F0DFFD002001F0DCFD7E
:103060005D2001F0D9FD002001F0D6FD742001F0B3
:10307000D3FD002001F0D0FD842001F0CDFD002023
:1030800001F0CAFD932001F0C7FD002001F0C4FD4E
:10309000A22001F0C1FD002001F0BEFDB32001F02F
:1030A000BBFD002001F0B8FDBE2001F0B5FD002001
:1030B00001F0B2FDC42001F0AFFD002001F0ACFD35
:1030C000CD2001F0A9FD002001F0A6FDD32001F0E4
:1030D000A3FD002001F0A0FDDD2001F09DFD0020FA
:1030E00001F09AFDF32001F097FD002001F094FD1E
:1030F000E52001F09DFD002001F08EFD002001F093
:103100008BFD002001F088FD002001F085FD0220EC
:1031100001F082FD002001F07FFD292001F07CFDFF
:10312000002001F079FD3C2001F076FD002001F047
:1031300073FD4B2001F070FD002001F06DFD5D205E
:1031400001F06AFD002001F067FD742001F064FDCC
:10315000002001F061FD842001F05EFD002001F0FF
:103160005BFD932001F058FD002001F055FDA220E9
:1031700001F052FD002001F04FFDB32001F04CFDA5
:10318000002001F049FDBE2001F046FD002001F0C5
:1031900043FDC42001F040FD002001F03DFDCD20A5
:1031A00001F03AFD002001F037FDD32001F034FD9D
:1031B000002001F031FDDC2001F02EFD002001F0A7
:1031C0002BFDF32001F028FD002001F025FDE62075
:1031D00001F02EFD112001F01FFD002001F01CFD6B
:1031E000342001F019FD002001F016FD562001F0F9
:1031F00013FD002001F010FD762001F00DFD0020F0
:1032000001F00AFD772001F007FD002001F004FD28
:10321000662001F001FD002001F0FEFC882001F095
:10322000FBFC002001F0F8FC992001F0F5FC0020E7
:1032300001F0F2FCBB2001F0EFFC002001F0ECFCFF
:10324000992001F0E9FC002001F0E6FC662001F085
:10325000E3FC002001F0E0FC552001F0DDFC002043
:1032600001F0DAFC552001F0D7FC002001F0D4FC7D
:10327000452001F0D1FC002001F0CEFC432001F0FC
:10328000CBFC002001F0C8FC442001F0C5FC00206C
:1032900001F0C2FCE72001F0CBFC322001F0BCFCC5
:1032A000002001F0B9FC552001F0B6FC002001F02F
:1032B000B3FC762001F0B0FC002001F0ADFC6620EC
:1032C00001F0AAFC002001F0A7FC672001F0A4FC9B
:1032D000002001F0A1FC672001F09EFC002001F01D
:1032E0009BFC872001F098FC002001F095FC9920C0
:1032F00001F092FC002001F08FFCBB2001F08CFC5F
:10330000002001F089FC992001F086FC002001F0EA
:1033100083FC772001F080FC002001F07DFC44203C
:1033200001F07AFC002001F077FC562001F074FCDB
:10333000002001F071FC232001F06EFC002001F060
:103340006BFC332001F068FC002001F065FC452097
:1033500001F062FC002001F05FFCE82001F068FC55
:10336000002001F059FC002001F056FC992001F0EA
:1033700053FC002001F050FC872001F04DFC0020A0
:1033800001F04AFC882001F047FC002001F044FCD9
:10339000772001F041FC002001F03EFC662001F0A6
:1033A0003BFC002001F038FC882001F035FC0020B7
:1033B00001F032FCAA2001F02FFC002001F02CFCCF
:1033C000BB2001F029FC002001F026FC992001F02F
:1033D00023FC002001F020FC662001F01DFC0020F1
:1033E00001F01AFC552001F017FC002001F014FC3C
:1033F000552001F011FC002001F00EFC442001F0EA
:103400000BFC002001F008FC442001F005FC00202A
:1034100001F002FC552001F0FFFB002001F0FCFB55
:10342000E92001F005FCAA2001F0F6FB002001F0E4
:10343000F3FB002001F0F0FB002001F0EDFB002089
:1034400001F0F6FBAA2001F0E7FBCF2001F0F0FB32
:10345000002001F0E1FB002001F0DEFB002001F084
:10346000DBFB002001F0D8FB002001F0D5FB0020A1
:1034700001F0D2FB002001F0CFFB002001F0CCFBDB
:10348000002001F0C9FB002001F0C6FB002001F084
:10349000C3FB002001F0C0FB002001F0BDFB0020B9
:1034A00001F0BAFB002001F0B7FB002001F0B4FBF3
:1034B000002001F0B1FBF02001F0BAFB002001F088
:1034C000ABFB502001F0A8FB002001F0A5FB002081
:1034D00001F0A2FB002001F09FFBF32001F0A8FB0C
:1034E000002001F099FBF92001F0A2FB062001F079
:1034F00093FB102001F090FB292001F08DFB0020B0
:1035000001F08AFB3A2001F093FB552001F084FB87
:10351000112001F08DFB64200AF084FD292001F0C8
:1035200087FB352001F084FB002001F075FB512062
:1035300001F07EFBFF2001F06FFB532001F078FBD0
:103540002C2001F069FB552001F072FB822001F074
:1035500063FB2C2001F06CFB01F048B8FE4880882A
:1035600045F2105188427DD155214FF4704001F051
:1035700075FBAA214FF2010001F070FB52214FF2BE
:10358000020001F06BFB08214FF2030001F066FB23
:1035900001214FF2040001F061FB0D214FF4304096
:1035A00001F05CFB0D214BF2010001F057FB0D21F6
:1035B0004BF2020001F052FB34214FF4364001F08F
:1035C0004DFB34214BF2016001F048FB34214BF2FA
:1035D000026001F043FB0D214FF4314001F03EFB4E
:1035E0000D214BF2011001F039FB0D214BF20210BD
:1035F00001F034FB34214FF4374001F02FFB34212C
:103600004BF2017001F02AFB34214BF2027001F001
:1036100025FB00214FF4324001F020FB00214BF24A
:10362000012001F01BFB00214BF2022001F016FBF0
:1036300024214FF4384001F011FB24214BF6010006
:1036400001F00CFB24214BF6020001F007FB0121E5
:103650004FF43F4001F002FB0F214FF4334001F0E3
:10366000FDFA00E0FDE30F214BF2013001F0F6FA24
:103670000F214BF2023001F0F1FA34214FF43940BE
:1036800001F0ECFA34214BF6011001F0E7FA342195
:103690004BF6021001F0E2FA08214FF4354001F038
:1036A000DDFA08214BF2015001F0D8FA08214BF263
:1036B000025001F0D3FA03214FF4424001F0CEFA58
:1036C00024214FF43A4001F0C9FA24214BF601209D
:1036D00001F0C4FA24214BF6022001F0BFFA0021C8
:1036E0004FF43C4001F0BAFA78214BF6014001F06A
:1036F000B5FA00214BF6024001F0B0FA00214FF478
:103700003D4001F0ABFA78214BF6015001F0A6FAEA
:1037100000214BF6025001F0A1FA00214FF43E4087
:1037200001F09CFA64214BF6016001F097FA002148
:103730004FF4514001F092FA33214DF2011001F0A3
:103740008DFA00214DF2021001F088FA34214DF279
:10375000031001F083FA00214DF2041001F07EFA0B
:103760003A214DF2051001F079FA00214DF20610D0
:1037700001F074FA4A214DF2071001F06FFA0021AE
:103780004DF2081001F06AFA5C214DF2091001F0C7
:1037900065FA00214DF20A1001F060FA81214DF224
:1037A0000B1001F05BFA00214DF20C1001F056FAFB
:1037B000A6214DF20D1001F051FA00214DF20E102C
:1037C00001F04CFAE5214DF20F1001F047FA01210A
:1037D0004DF2101001F042FA13214DF2111001F0D8
:1037E0003DFA01214DF2121001F038FA54214DF248
:1037F000131001F033FA01214DF2141001F02EFAEA
:1038000082214DF2151001F029FA01214DF2161016
:1038100001F024FACA214DF2171001F01FFA02211B
:103820004DF2181001F01AFA00214DF2191001F0B2
:1038300015FA02214DF21A1001F010FA01214DF291
:103840001B1001F00BFA02214DF21C1001F006FAD8
:1038500034214DF21D1001F001FA02214DF21E102B
:1038600001F0FCF967214DF21F1001F0F7F9022178
:103870004DF2201001F0F2F984214DF2211001F0F7
:10388000EDF902214DF2221001F0E8F9A4214DF2E8
:10389000231001F0E3F902214DF2241001F0DEF9CA
:1038A000B7214DF2251001F0D9F902214DF2261071
:1038B00001F0D4F9CF214DF2271001F0CFF9022108
:1038C0004DF2281001F0CAF9DE214DF2291001F065
:1038D000C5F902214DF22A1001F0C0F9F2214DF292
:1038E0002B1001F0BBF902214DF22C1001F0B6F9BA
:1038F000FE214DF22D1001F0B1F903214DF22E10F1
:1039000001F0ACF910214DF22F1001F0A7F90321BD
:103910004DF2301001F0A2F933214DF2311001F0D7
:103920009DF903214DF2321001F098F96D214DF20D
:10393000331001F093F900214FF4524001F08EF959
:1039400033214DF2012001F089F900214DF20220CE
:1039500001F084F9342101E060E600204DF20320FB
:1039600001F07CF900214DF2042001F077F93A21B1
:103970004DF2052001F072F900214DF2062001F010
:103980006DF94A214DF2072001F068F900214DF24E
:10399000082001F063F95C214DF2092001F05EF985
:1039A00000214DF20A2001F059F981214DF20B203E
:1039B00001F054F900214DF20C2001F04FF9A6213D
:1039C0004DF20D2001F04AF900214DF20E2001F0D8
:1039D00045F9E5214DF20F2001F040F901214DF2AA
:1039E000102001F03BF913214DF2112001F036F9BE
:1039F00001214DF2122001F031F954214DF2132032
:103A000001F02CF901214DF2142001F027F9822157
:103A10004DF2152001F022F901214DF2162001F09E
:103A20001DF9CA214DF2172001F018F902214DF2BB
:103A3000182001F013F900214DF2192001F00EF9C0
:103A400002214DF21A2001F009F901214DF21B204B
:103A500001F004F902214DF21C2001F0FFF834219D
:103A60004DF21D2001F0FAF802214DF21E2001F066
:103A7000F5F867214DF21F2001F0F0F802214DF218
:103A8000202001F0EBF884214DF2212001F0E6F82E
:103A900002214DF2222001F0E1F8A4214DF2232071
:103AA00001F0DCF802214DF2242001F0D7F8B72113
:103AB0004DF2252001F0D2F802214DF2262001F02E
:103AC000CDF8CF214DF2272001F0C8F802214DF2A8
:103AD000282001F0C3F8DE214DF2292001F0BEF8C4
:103AE00002214DF22A2001F0B9F8F2214DF22B20EB
:103AF00001F0B4F802214DF22C2001F0AFF8FE21C4
:103B00004DF22D2001F0AAF803214DF22E2001F0F4
:103B1000A5F810214DF22F2001F0A0F803214DF25D
:103B2000302001F09BF833214DF2312001F096F85E
:103B300003214DF2322001F091F86D214DF2332036
:103B400001F08CF800214FF4534001F087F8332145
:103B50004DF2013001F082F800214DF2023001F007
:103B60007DF834214DF2033001F078F800214DF258
:103B7000043001F073F83A214DF2053001F06EF88F
:103B800000214DF2063001F069F84A214DF207306C
:103B900001F064F800214DF2083001F05FF85C217B
:103BA0004DF2093001F05AF800214DF20A3001F0CF
:103BB00055F881214DF20B3001F050F800214DF203
:103BC0000C3001F04BF8A6214DF20D3001F046F813
:103BD00000214DF20E3001F041F8E5214DF20F3099
:103BE00001F03CF801214DF2103001F037F81321BB
:103BF0004DF2113001F032F801214DF2123001F096
:103C00002DF854214DF2133001F028F801214DF226
:103C1000143001F023F882214DF2153001F01EF826
:103C200001214DF2163001F019F8CA214DF217307A
:103C300001F014F802214DF2183001F00FF80021C4
:103C40004DF2193001F00AF802214DF21A3001F05C
:103C500005F801214DF21B3001F000F802214DF270
:103C60001C3000F0FBFF34214DF21D3000F0F6FF58
:103C700002214DF21E3000F0F1FF67214DF21F309E
:103C800000F0ECFF02214DF2203000F0E7FF84212C
:103C90004DF2213000F0E2FF02214DF2223000F01F
:103CA000DDFFA4214DF2233000F0D8FF02214DF2B8
:103CB000243000F0D3FFB7214DF2253000F0CEFFC5
:103CC00002214DF2263000F0C9FFCF214DF22730FE
:103CD00000F0C4FF02214DF2283000F0BFFFDE21CA
:103CE0004DF2293000F0BAFF02214DF22A3000F0E7
:103CF000B5FFF2214DF22B3000F0B0FF02214DF262
:103D00002C3000F0ABFFFE214DF22D3000F0A6FF6D
:103D100003214DF22E3000F0A1FF10214DF22F3083
:103D200000F09CFF03214DF2303000F097FF33216B
:103D30004DF2313000F092FF03214DF2323000F0AD
:103D40008DFF6D214DF2333000F088FF00214FF4DC
:103D5000544000F083FF33214DF2014000F07EFF1C
:103D600000214DF2024000F079FF34214DF2034072
:103D700000F074FF00214DF2044000F06FFF3A2183
:103D80004DF2054000F06AFF00214DF2064000F0C0
:103D900065FF4A214DF2074000F060FF00214DF21F
:103DA000084000F05BFF5C214DF2094000F056FF37
:103DB00000214DF20A4000F051FF81214DF20B40ED
:103DC00000F04CFF00214DF20C4000F047FFA6210F
:103DD0004DF20D4000F042FF00214DF20E4000F088
:103DE0003DFFE5214DF20F4000F038FF01214DF27B
:103DF000104000F033FF13214DF2114000F02EFF70
:103E000001214DF2124000F029FF54214DF21340E0
:103E100000F024FF01214DF2144000F01FFF822129
:103E20004DF2154000F01AFF01214DF2164000F04E
:103E300015FFCA214DF2174000F010FF02214DF28C
:103E4000184000F00BFF00214DF2194000F006FF72
:103E500002214DF21A4000F001FF01214DF21B40FA
:103E600000E005E300F0FAFE02214DF21C4000F0F4
:103E7000F5FE34214DF21D4000F0F0FE02214DF21E
:103E80001E4000F0EBFE67214DF21F4000F0E6FE01
:103E900002214DF2204000F0E1FE84214DF221404C
:103EA00000F0DCFE02214DF2224000F0D7FEA421FA
:103EB0004DF2234000F0D2FE02214DF2244000F0EA
:103EC000CDFEB7214DF2254000F0C8FE02214DF293
:103ED000264000F0C3FECF214DF2274000F0BEFE89
:103EE00002214DF2284000F0B9FEDE214DF22940BA
:103EF00000F0B4FE02214DF22A4000F0AFFEF221A4
:103F00004DF22B4000F0AAFE02214DF22C4000F0B1
:103F1000A5FEFE214DF22D4000F0A0FE03214DF242
:103F20002E4000F09BFE10214DF22F4000F096FE37
:103F300003214DF2304000F091FE33214DF231402B
:103F400000F08CFE03214DF2324000F087FE6D211F
:103F50004DF2334000F082FE00214FF4554000F056
:103F60007DFE33214DF2015000F078FE00214DF22C
:103F7000025000F073FE34214DF2035000F06EFE4B
:103F800000214DF2045000F069FE3A214DF2055037
:103F900000F064FE00214DF2065000F05FFE4A2161
:103FA0004DF2075000F05AFE00214DF2085000F08B
:103FB00055FE5C214DF2095000F050FE00214DF2FB
:103FC0000A5000F04BFE81214DF20B5000F046FEEE
:103FD00000214DF20C5000F041FEA6214DF20D5093
:103FE00000F03CFE00214DF20E5000F037FEE521BE
:103FF0004DF20F5000F032FE01214DF2105000F052
:104000002DFE13214DF2115000F028FE01214DF23A
:10401000125000F023FE54214DF2135000F01EFE0A
:1040200001214DF2145000F019FE82214DF215507D
:1040300000F014FE01214DF2165000F00FFECA21CF
:104040004DF2175000F00AFE02214DF2185000F018
:1040500005FE00214DF2195000F000FE02214DF244
:104060001A5000F0FBFD01214DF21B5000F0F6FD4F
:1040700002214DF21C5000F0F1FD34214DF21D5093
:1040800000F0ECFD02214DF21E5000F0E7FD67212B
:104090004DF21F5000F0E2FD02214DF2205000F0E1
:1040A000DDFD84214DF2215000F0D8FD02214DF2BA
:1040B000225000F0D3FDA4214DF2235000F0CEFD9C
:1040C00002214DF2245000F0C9FDB7214DF22550D8
:1040D00000F0C4FD02214DF2265000F0BFFDCF21BB
:1040E0004DF2275000F0BAFD02214DF2285000F0A9
:1040F000B5FDDE214DF2295000F0B0FD02214DF258
:104100002A5000F0ABFDF2214DF22B5000F0A6FD3D
:1041100002214DF22C5000F0A1FDFE214DF22D5058
:1041200000F09CFD03214DF22E5000F097FD102170
:104130004DF22F5000F092FD03214DF2305000F06F
:104140008DFD33214DF2315000F088FD03214DF2F9
:10415000325000F083FD6D214DF2335000F07EFDB2
:1041600000214FF4564000F079FD33214DF20160FB
:1041700000F074FD00214DF2026000F06FFD34216B
:104180004DF2036000F06AFD00214DF2046000F082
:1041900065FD3A214DF2056000F060FD00214DF211
:1041A000066000F05BFD4A214DF2076000F056FD0D
:1041B00000214DF2086000F051FD5C214DF20960D4
:1041C00000F04CFD00214DF20A6000F047FD812116
:1041D0004DF20B6000F042FD00214DF20C6000F04A
:1041E0003DFDA6214DF20D6000F038FD00214DF29D
:1041F0000E6000F033FDE5214DF20F6000F02EFD62
:1042000001214DF2106000F029FD13214DF21160E3
:1042100000F024FD01214DF2126000F01FFD542139
:104220004DF2136000F01AFD01214DF2146000F010
:1042300015FD82214DF2156000F010FD01214DF2B7
:10424000166000F00BFDCA214DF2176000F006FD6C
:1042500002214DF2186000F001FD00214DF21960BD
:1042600000F0FCFC02214DF21A6000F0F7FC012185
:104270004DF21B6000F0F2FC02214DF21C6000F0D8
:10428000EDFC34214DF21D6000F0E8FC02214DF2FE
:104290001E6000F0E3FC67214DF21F6000F0DEFCC1
:1042A00002214DF2206000F0D9FC84214DF2216002
:1042B00000F0D4FC02214DF2226000F0CFFCA421DA
:1042C0004DF2236000F0CAFC02214DF2246000F0A0
:1042D000C5FCB7214DF2256000F0C0FC02214DF273
:1042E000266000F0BBFCCF214DF2276000F0B6FC49
:1042F00002214DF2286000F0B1FCDE214DF2296070
:1043000000F0ACFC02214DF22A6000F0A7FCF22183
:104310004DF22B6000F0A2FC02214DF22C6000F067
:104320009DFCFE214DF22D6000F098FC03214DF222
:104330002E6000F093FC10214DF22F6000F08EFCF7
:1043400003214DF2306000F089FC33214DF23160E1
:1043500000F084FC03214DF2326000F07FFC6D21FF
:104360004DF2336000F07AFC55214FF4704000F0BC
:1043700075FCAA214FF2010000F070FC52214FF2AF
:10438000020000F06BFC08214FF2030000F066FC15
:1043900000214FF2040000F061FCCC214FF43140C9
:1043A00000F05CFC00214BF2011000F057FC0521ED
:1043B0004FF4364000F052FC70214FF4374000F0CB
:1043C0004DFC70214BF2017000F048FC01214FF4CC
:1043D000384000F043FC03214BF6010000F03EFCA6
:1043E00003214BF6020000F039FC03214BF60300D9
:1043F00000F034FC02214FF43C4000F02FFC00217F
:104400004BF6014000F02AFC00214BF6024000F080
:1044100025FCD0214FF4494000F020FC02214CF64D
:10442000011000F01BFC50214CF6021000F016FCAD
:1044300050214CF6031000F011FC50214CF60410F2
:1044400000F00CFC00214FF4545000F007FC552103
:104450004FF4685000F002FC4FF4885000F0E8FB85
:10446000782009F029FE4FF4245000F0E1FBBDE074
:104470006648808841F663118842F8D1E22000F056
:10448000D7FB1D2000F0C8FB022000F0C5FB042074
:1044900000F0C2FB642009F00FFEE02000F0C8FB32
:1044A000012000F0B9FB0A2009F0BCFDE02000F07B
:1044B000BFFB032000F0B0FB0C2009F0B3FD01208E
:1044C00000F0B6FB0A2009F0ADFDE62000F0B0FBDD
:1044D0002F2000F0A1FBFF2000F09EFBFF2000F04A
:1044E0009BFBB02000F0A4FB202000F095FB0020F7
:1044F00000F092FB032000F08FFB40F21F3000F031
:104500008BFB012000F088FB40F2DF1000F084FB01
:10451000002000F081FBB42000F08AFB042000F0B2
:104520007BFB40F21F4000F077FB002000F074FBA3
:104530002E2000F071FB002000F06EFB002000F048
:104540006BFB002000F068FB002000F065FBB6204C
:1045500000F06EFB022000F05FFB4FF4037000F0F0
:104560005BFB002000F058FB172000F055FB1520E6
:1045700000F052FB002000F04FFB002000F04CFB4D
:10458000F02000F055FB032000F046FB292000F04E
:104590004FFBD02000F04CFB002000F03DFBBE2084
:1045A00000F046FB052000F037FBFE2000F034FB56
:1045B000012000F031FB002000F02EFB002000F075
:1045C0002BFB002000F028FBB82000F031FB03207B
:1045D00000F022FB012000F01FFBBA2000F028FBB6
:1045E000012000F019FB642000F02AF80020FDF7FC
:1045F0001FFA0748006840F40040054908604FF67C
:10460000FF70FDF7CBF921B000BD000060E600208F
:104610001404024010B50246012000E050430B0094
:10462000A1F10104E1B2F9D110BD000008B50348C1
:1046300000880090BDF8000008BD00008000006CFC
:1046400070B52DED048B0446BE2000F0F1FA052074
:1046500000F0E2FA204637F013FE41EC190B9FED13
:104660000E0B53EC102B37F05BFE41EC180B37F0C0
:10467000C3FD85B2284600F0CFFA012000F0CCFA45
:10468000FF2000F0C9FA002000F0C6FA002000F078
:10469000C3FABDEC048B70BD666666666666044050
:1046A000F0B505460024002789488079012805D106
:1046B0008748808841F66311884208D18448807910
:1046C000F0B98348808841F66311884218D1082DDB
:1046D00015D2DFE805F00406080A0C0E10120625B4
:1046E0000DE007250BE0042509E0052507E001257D
:1046F00005E0002503E0032501E0022500BF00BF1F
:10470000082D1CD2DFE805F00406090C0F1215185D
:1047100000BF14E044F0800411E044F040040EE0D7
:1047200044F0C0040BE044F0200408E044F06004CE
:1047300005E044F0A00402E044F0E00400BF00BF44
:104740006348808845F21051884202D14FF458578F
:1047500000E036275E48808849F24131884205D022
:104760005B48808847F28971884201D144F008048F
:104770002146384600F072FA5548808841F66311A8
:1047800088421DD004F0200068B15148008850498B
:104790004988884214DA4E48068840884C49088087
:1047A000084646800CE04A480088494949888842C2
:1047B00006DD474806884088454908800846468007
:1047C0004348808845F21051884252D14049488977
:1047D00000F02EFA002000F01FFA3D494989491CDB
:1047E00088B200F025FA002000F016FA384949890D
:1047F000891C88B200F01CFA35490988491EC1F3AA
:104800000F2000F009FA32494989C91C88B200F02A
:104810000FFA2F490978491EC8B200F0FDF92C495A
:10482000888900F005FA002000F0F6F92849898906
:10483000491C88B200F0FCF9002000F0EDF9244991
:104840008989891C88B200F0F3F921494988491EF9
:10485000C1F30F2000F0E0F91D498989C91C88B215
:1048600000F0E6F91A498978491EC8B200F0D4F977
:104870002DE01749488900F0DBF9002000F0CCF961
:10488000002000F0C9F912490988491EC1F30F2020
:1048900000F0C2F90E490978491EC8B200F0BCF90F
:1048A0000B49888900F0C4F9002000F0B5F9002018
:1048B00000F0B2F906494988491EC1F30F2000F003
:1048C000ABF903498978491EC8B200F0A5F9F0BDDB
:1048D00060E6002010B502460C464548808841F647
:1048E0006311884247D142488079A8B9404800887E
:1048F000401E801A82B23E49488900F099F9002092
:1049000000F08AF9002000F087F9101200F084F915
:10491000D0B200F081F916E03549488900F088F9F5
:10492000101200F079F9D0B200F076F93049098818
:10493000491EC1F30F2000F06FF92D490978491E77
:10494000C8B200F069F92A49888900F071F920128B
:1049500000F062F9E0B200F05FF925494988491E8C
:10496000C1F30F2000F058F921498978491EC8B2D7
:1049700000F052F93AE01E48808845F21051884212
:1049800020D11B49488900F053F9101200F044F976
:1049900017494989491C88B200F04AF9D0B200F0A1
:1049A0003BF91349888900F043F9201200F034F9EB
:1049B0000F498989491C88B200F03AF9E0B200F049
:1049C0002BF913E00A49488900F032F9101200F07F
:1049D00023F9D0B200F020F90549888900F028F9C0
:1049E000201200F019F9E0B200F016F910BD000035
:1049F00060E600202DE9F84F80460E4617461C461B
:104A0000B3462046E31704EB5373DB1021464FEA0D
:104A1000E47C04EB5C7C4FEAEC0CA4EBCC0CBCF12A
:104A2000000F02D04FF0010C01E04FF0000C634486
:104A3000224604EBD27C4FEA6C0C03FB0CF3DBB296
:104A40000093A7F12000C7B2002556E00C2C07D137
:104A500007EB47002B4901EB800010F8059013E0AD
:104A6000102C05D1284800EB071010F805900BE03A
:104A7000182C07D107EBC700244901EB800010F880
:104A8000059001E0BDE8F88F4FF0000A2FE009F033
:104A9000800030B11E48028831464046FDF710F9CB
:104AA00007E00A9828B91B48028831464046FDF7BE
:104AB00007F94FEA49604FEA1069701C86B2164840
:104AC0004088B04200DCDDE7A6EB0B00A0420AD133
:104AD0005E4608F101001FFA80F80F480088404543
:104AE00000DCCFE706E00AF1010000F0FF0ABAF1AE
:104AF000080FCCDB00BF681CC5B200988542A5DB5F
:104B000000BFBFE7F45A0508685F05085865050847
:104B1000A8040020AA04002060E600202DE9FF4F31
:104B200081B0074691461E460E9D4FF0000A0024B4
:104B300039E0301B401EC1B20A20FFF76BFDB9FB04
:104B4000F0F00A21B0FBF1F201FB1208BAF1000FFC
:104B500016D1701EA04213DDB8F1000F0ED1002057
:104B6000AB4605EBDB71491001FB0471009088B284
:104B70002B4620220299FFF73DFF12E04FF0010A79
:104B80000020AB4605EBDB71491001FB047100907E
:104B900088B208F13001CAB22B460299FFF72AFF0A
:104BA00000BF601CC4B2B442C3DB05B0BDE8F08FE7
:104BB0002DE9F84704460D4690469946DDE9096718
:104BC00004F0FF0A08EB04001FFA80F809EB050067
:104BD0001FFA80F916E0444502DB5446A81985B255
:104BE0004D4500DB14E0002000903A78334629461A
:104BF0002046FFF7FFFE304606EBD07104EB610163
:104C00008CB27F1C38787E2802DC38782028E2DAE3
:104C100000BFBDE8F887000001B5BDF800000090B6
:104C2000BDF800000149088008BD00008000006C4C
:104C300001B5BDF800000090BDF8000001490880F2
:104C400008BD00007E00006C02480089024908800F
:104C50007047000060E600207E00006C034A108070
:104C60004FF0D842A2F88010704700007E00006C20
:104C700070B504460D46192C70D2DFE804F00D140F
:104C80001B222930373E454C535A616870777E8528
:104C90008C939AA1A8AFB600594B5A4A29465A4854
:104CA000FCF7A2FBA9E0564B564A29465748FCF7A9
:104CB0009BFBA2E0524B534A29465548FCF794FB14
:104CC0009BE04F4B4F4A29465248FCF78DFB94E03E
:104CD0004B4B4C4A29465048FCF786FB8DE0484B2D
:104CE000484A29464D48FCF77FFB86E0444B454A3D
:104CF00029464B48FCF778FB7FE0414B414A294667
:104D00004848FCF771FB78E03D4B3E4A294646484F
:104D1000FCF76AFB71E03A4B3A4A29464348FCF7F4
:104D200063FB6AE0364B374A29464148FCF75CFB97
:104D300063E0334B334A29463E48FCF755FB5CE0C1
:104D40002F4B304A29463C48FCF74EFB55E02C4B94
:104D50002C4A29463948FCF747FB4EE04CE0284BEB
:104D6000284A29463648FCF73FFB46E0244B254AB3
:104D700029463448FCF738FB3FE0214B214A2946BD
:104D80003148FCF731FB38E01D4B1E4A29462F48BD
:104D9000FCF72AFB31E01A4B1A4A29462C48FCF74B
:104DA00023FB2AE0164B174A29462A48FCF71CFB2E
:104DB00023E0134B134A29462748FCF715FB1CE058
:104DC0000F4B104A29462548FCF70EFB15E00C4B0B
:104DD0000C4A29462248FCF707FB0EE0084B094A1B
:104DE00029462048FCF700FB07E0054B054A294609
:104DF0001D48FCF7F9FA00E000BF00BF70BD0000DD
:104E0000400000203C00002071DF00081DB50108B3
:104E1000C9B401085DAB000841AB00083567010863
:104E2000196701084D67010851C90008E5C9000864
:104E300085C9000839650108619E0308B19E030811
:104E4000F19E0308219E0308A19D0308619D0308AC
:104E5000E19D0308896E0308ED6D0308619C03085A
:104E6000C19C0308119D0308696D030870B50021FA
:104E700000230F22C4781CB3174C246804F4E064A8
:104E8000C4F5E064C4F30721C1F10404E3B20A41AC
:104E900044789C40E1B28478144021430C07210EF1
:104EA0000E4C05786155047804F01F050124AC40D0
:104EB00005786D11AD0005F1E025C5F8004109E068
:104EC000047804F01F050124AC40054D06787611E6
:104ED00045F8264070BD00000CED00E000E400E065
:104EE00080E100E002490143024A1160704700007E
:104EF0000000FA050CED00E001490862704700006F
:104F000000000E4229B1064A12680243044B1A609F
:104F100004E0034A12688243014B1A6070470000A4
:104F20003038024029B1064A12680243044B1A6025
:104F300004E0034A12688243014B1A607047000084
:104F40003838024029B1064A12680243044B1A60FD
:104F500004E0034A12688243014B1A607047000064
:104F60004038024029B1064A12680243044B1A60D5
:104F700004E0034A12688243014B1A607047000044
:104F800044380240F0B5002100220024022500260A
:104F90000223324F3F6807F00C0121B1042905D0EC
:104FA000082937D105E02E4F076036E02D4F076006
:104FB00033E02A4F3F1F3F68C7F38056274F3F1FFC
:104FC0003F6807F03F036EB1264FB7FBF3F7DFF8FA
:104FD0008CC0ACF1040CDCF800C0CCF3881C07FBDF
:104FE0000CF40CE01E4FB7FBF3F7DFF870C0ACF128
:104FF000040CDCF800C0CCF3881C07FB0CF4174F42
:105000003F1F3F68C7F301477F1C7D00B4FBF5F7E6
:10501000076002E0124F076000BF00BF0F4F3F68FC
:1050200007F0F0010909104F7A5C0768D740476024
:105030000A4F3F6807F4E051890A0B4F7A5C4768D2
:10504000D7408760054F3F6807F46041490B064F22
:105050007A5C4768D740C760F0BD0000083802405E
:105060000024F40000127A00E204002001490860E4
:10507000704700003C0E474238B5024600240094B9
:1050800000230020CA24184D2C6053242C6041B109
:10509000154C1C3C24681443134D1C3D2C6001200E
:1050A0001EE0114C1C3C246894430F4D1C3D2C60A9
:1050B00000BF0D4C183C246804EA1223009C641CB9
:1050C0000094009CB4F5803F01D0002BF1D0064C39
:1050D000183C246804EA12240CB9002000E00120E6
:1050E000FF24014D2C6038BD2428004010B54FF43A
:1050F000807000F06BF801280BD10521054811F0F4
:1051000061FA4FF4807000F021F84FF40030FCF7A2
:1051100059F910BD4D910008014600BF080900EB88
:105120008000420001F00F001044C0B270470146F9
:10513000002204E0501CC2B2A1F10A00C1B20A2947
:10514000F8DA100741EA10607047000081B241F0C0
:105150008001044A126802F0800262EA0101014AF9
:10516000116070470C28004008B500220092002012
:105170000021104A126802F04002CAB9421E0D4BCB
:105180001A6000BF0B4A126802F04001009A521CDC
:105190000092009AB2F5803F01D00029F2D0054A72
:1051A000126802F040020AB1012002E0002000E093
:1051B000012008BD0C2800400348006820F0800052
:1051C00001490860704700000C28004010B50146F6
:1051D00000200022054B1B68054C03EA040202EA8A
:1051E00001030BB1012000E0002010BD0C2800409D
:1051F0007F3F01002DE9F04105460E461446002789
:1052000065B93648006800F0400000B102E00020B7
:10521000E07000BFA06800B919E018E02F480068EE
:1052200000F0400020B12078FFF776FF074602E04B
:105230000020E07000BFA06820B9207BFFF76CFF62
:10524000074604E0207BFFF767FF074600BF95B1E4
:1052500020780004617840EA0120A1780843E178D1
:1052600040EA0140217B40EA0160A168084361688F
:1052700040EA01071BE02078FFF759FF4FEA00489A
:105280006078FFF754FF48EA0028A078FFF74FFF47
:1052900048EA0008E07848EA0048207BFFF747FF2B
:1052A00048EA0060A1680843616840EA0107CA2033
:1052B0000A491C31086053200860B6F5807F03D18D
:1052C00006481430076002E0044818300760FF20E9
:1052D00002491C310860BDE8F08100000828004048
:1052E0002DE9F04105460C46002600274DB96078AF
:1052F00000F01000102804D1607820F010000A306F
:10530000607005B908E06078FFF706FF0646A078F0
:10531000FFF702FF064600BF55B1E0780004617850
:1053200040EA0120A1780843217840EA413611E0A3
:10533000E078FFF7FCFE4FEA00486078FFF7F7FEE1
:1053400048EA0028A078FFF7F2FE48EA0008207833
:1053500048EA4036CA201249086053200860FFF727
:1053600003FF08B9002714E00E4830400C492039EB
:105370000860FFF721FF0A481C38006800F0200091
:1053800030B900F079F808B9002702E0012700E001
:105390000127FF20024908603846BDE8F08100007F
:1053A000242800403FFFFF002DE9F04105460C4650
:1053B000002600274DB92E48006800F0400000B1DB
:1053C00002E00020E07000BF0DE02948006800F016
:1053D000400020B12078FFF79FFE064602E0002043
:1053E000E07000BF00BF55B120780004617840EA4A
:1053F0000120A1780843E17840EA014611E02078D5
:10540000FFF795FE4FEA00486078FFF790FE48EA04
:105410000028A078FFF78BFE48EA0008E07848EA09
:105420000046CA2012491C31086053200860FFF76B
:105430009BFE08B9002713E00E4830400C4908399C
:105440000860FFF7B9FE0A48006800F0200030B994
:1054500000F012F808B9002702E0012700E0012758
:10546000FF2003491C3108603846BDE8F081000088
:10547000082800407F7F7F0008B5002200920020AE
:105480000021CA22134B1A6053221A60114A183A9B
:10549000126822F0A0020F4B183B1A6000BF0D4AA1
:1054A000183A126802F02001009A521C0092009AE9
:1054B000B2F5003F01D00029F1D0064A183A12682F
:1054C00002F020020AB1012000E00020FF22014B7F
:1054D0001A6008BD242800400CB5002001900090FF
:1054E0003448006840F480303249086000BF3148D9
:1054F000006800F4003000900198401C0190009872
:1055000018B90198B0F5A04FF1D12A48006800F40D
:10551000003010B10120009001E0002000900098C0
:10552000012846D123484030006840F0805021498E
:10553000403108602048006840F440401E4908603F
:105540001C48083000681B4908310860084600689C
:1055500040F4004008600846006840F4A05008602D
:105560001648091F0860081F006840F08070091F76
:10557000086000BF0F48006800F000700028F9D0F4
:1055800040F205700E4908600A480830006820F0B3
:1055900003000849083108600846006840F002002E
:1055A000086000BF03480830006800F00C000828BD
:1055B000F8D10CBD0038024000700040085440078C
:1055C000003C0240042808D14FF0E021096941F075
:1055D00004014FF0E022116107E04FF0E02109697A
:1055E00021F004014FF0E0221161704710B5154819
:1055F000006840F47000134908601348006840F0E8
:1056000001001149086000200F49083108600E4868
:1056100000680E4908400C4908600D48091D0860E3
:10562000081F006820F48020091F08600020064938
:105630000C310860FFF750FF4FF0006001498039DE
:10564000086010BD88ED00E000380240FFFFF6FE64
:105650001030002410B50121034800F066F8012144
:10566000014800F053F810BD0000014010B50121C1
:10567000880700F05AF888B10B480078C043C0B2E0
:105680000949087028B14FF480610848FCF705F813
:1056900004E04FF480610548FBF7FDFF0121880716
:1056A00000F034F810BD0000060000200014024095
:1056B00010B50121054800F038F810B101202CF098
:1056C000D1FF0121014800F021F810BD0004004085
:1056D00010B501210B4800F028F868B12FF0AAFDA1
:1056E00028B94FF480710848FBF7D7FF04E04FF466
:1056F00080710548FBF7CFFF0121024800F006F852
:1057000010BD00000004014000140240CA430282A0
:10571000704721B1028842F00102028004E0028851
:105720004FF6FE731A400280704730B502460020E3
:1057300000230024158A05EA0103958905EA01047E
:1057400013B10CB1012000E0002030BD1AB18389F3
:105750000B43838102E083898B43838170474163DC
:105760007047000000220288184B98420ED0184B58
:1057700098420BD0B0F1804F08D0164B984205D01C
:10578000154B984202D0154B984204D14FF68F73B7
:105790001A404B881A43124B984207D0114B98423B
:1057A00004D04FF6FF431A400B891A4302804B681E
:1057B000C3620B880385054B984202D0044B984284
:1057C00001D18B7A03860123838270470000014058
:1057D000000401400004004000080040000C0040AC
:1057E00000100040001400402DE9FC5F04460D4607
:1057F00017461E46DDE90EABDDE90C894FF4784013
:105800005749088057A01021CDE900105648438819
:105810000288A0212820FFF7CBF954A01021CDE960
:105820000010514843880288A0217820FFF7C0F972
:105830004FA01021CDE900104B4843880288B421C5
:105840002820FFF7B5F94BA01021CDE900104648FC
:1058500043880288B4217820FFF7AAF946A01021D6
:10586000CDE90010404843880288C8212820FFF76E
:105870009FF942A01021CDE900103B4843880288DF
:10588000C8217820FFF794F93DA01021CDE9001040
:10589000354843880288DC212820FFF789F939A0A0
:1058A0001021CDE90010304843880288DC2178209F
:1058B000FFF77EF934A01021CDE900102A48438873
:1058C0000288F0212820FFF773F9102004232246D4
:1058D000A02100904020FFF721F9102004232A4640
:1058E000A02100909020FFF719F9102004233A46D8
:1058F000B42100904020FFF711F910200423324614
:10590000B42100909020FFF709F9102004234246AB
:10591000C82100904020FFF701F9102004234A46D7
:10592000C82100909020FFF7F9F810200423524678
:10593000DC2100904020FFF7F1F8102004235A46A4
:10594000DC2100909020FFF7E9F81020032300905D
:10595000F0216020109AFFF7E1F8BDE8FC9F0000FD
:10596000A804002078313A0060E6002079313A003E
:1059700078323A0079323A0078333A0079333A0093
:1059800078343A0079343A006661632069733A00EA
:1059900000B597B0002012900B9012901F21FE4886
:1059A00001804FF6FF71FD4801800846FBF7F6FFC6
:1059B0004FF47841F84801804FF6FF70FBF7EEFF97
:1059C0000020F5490880F648006810216423A022D1
:1059D000CDE9001028210846FFF7EAF84FF4784295
:1059E0001421084600F054FC0020EE4981F8200004
:1059F0009FEDED0A084680ED090A47E2E948406854
:105A00000A9001200A998847E64890F8200000F0A3
:105A1000C00040286FD100200B90E24890F8200091
:105A200020F04000DF4981F820000846818913AA50
:105A3000129822F82010DB48C18A129802EB8000ED
:105A400041801298401CC0B212901298012806D0D2
:105A5000022815D0032829D0042810D141E04FF6A0
:105A6000FF721421084600F013FCD0480088143857
:105A700080B24FF4784214210A9000F009FCF2E35E
:105A8000CA480088143880B24FF6FF7214210A9079
:105A900000F0FEFBC5484088143880B24FF47842CD
:105AA00001460A90142000F0F3FBDCE3BF48408875
:105AB000143880B24FF6FF7201460A90142000F0AD
:105AC000E7FBBA484088143880B20A90B74800888B
:105AD000143880B24FF4784209900A9900F0D8FB4C
