:020000040800F2
:10000000A009012041020008490200084B02000833
:100010004D0200084F0200085102000800000000D5
:100020000000000000000000000000005302000873
:10003000550200080000000057020008590200089D
:100040005B0200085B0200085B0200085B0200081C
:100050005B0200085B020008D50800085B0200088C
:100060000D09000849090008850900085B0200081D
:100070005B0200085B0200085B0200085B020008EC
:100080005B0200085B0200085B0200085B020008DC
:100090005B0200085B0200085B0200085B020008CC
:1000A0005B020008291800085B0200085B020008D8
:1000B00041180008851800085B0200085B02000870
:1000C0005B0200085B0200085B0200085B0200089C
:1000D0005B020008291A0008591A0008891A00084A
:1000E0005B020008451100085B0200085B02000883
:1000F000CD1800085B0200085B0200085B020008E4
:100100005B0200085B0200085B0200085B0200085B
:100110005B0200085B0200085B0200085B0200084B
:100120005B0200085B0200085B0200085B0200083B
:100130005B0200085B0200085B0200085B0200082B
:100140005B0200085B0200085B0200085B0200081B
:100150005B0200085B0200085B0200085B0200080B
:100160005B0200085B0200085B0200085B020008FB
:100170005B0200085B0200085B0200085B020008EB
:100180005B0200085B02000800F002F800F048F88B
:100190000AA090E8000C82448344AAF10107DA45E2
:1001A00001D100F03DF8AFF2090EBAE80F0013F0EC
:1001B000010F18BFFB1A43F0010318475439000020
:1001C00074390000103A24BF78C878C1FAD85207B1
:1001D00024BF30C830C144BF04680C6070470000C1
:1001E0000023002400250026103A28BF78C1FBD840
:1001F000520728BF30C148BF0B607047642900F028
:10020000B580782900F0EE80002070471FB503F01C
:10021000F6FB9DE8030000F007FA1FBD10B510BD06
:1002200000F0E5FA1146FFF7F1FF02F0AFF900F038
:1002300003FB03B4FFF7F2FF03BC01F04BFD00002A
:100240000948804709480047FEE7FEE7FEE7FEE76A
:10025000FEE7FEE7FEE7FEE7FEE7FEE704480549A6
:10026000054A064B70470000C117000889010008C5
:10027000A0050020A0090120A0050120A005012063
:10028000704770B5064600F0B3F9056806F10B003B
:1002900020F00704B4429CBF002070BD2B466A6862
:1002A000BAB11068A04210D304F1080188423CBFE3
:1002B0005068586007D35168101941601168091BD4
:1002C000016058601460101D70BD13465268002A0A
:1002D000E7D12146284600F093F90028DED170BD11
:1002E00070B50446051F00F083F90068002C14BFA8
:1002F000446870BD002C18BFAC423CBF2046646807
:10030000F8D301680A18AA4218BF456003D12A68C9
:1003100005461144016028684119A1421CBF6C6068
:1003200070BD6168696021680844286070BD000084
:100330000FB4044910B503AA029800F01DFA10BCCE
:100340005DF814FB3400002009684A0501D540B26D
:100350007047C905FCD500B2704709684A0501D548
:10036000C0B27047C905FCD580B270472DE9F04195
:100370000646002410687529314616A510D0FFF7EF
:10038000E3FF002802DA404213A507E031688A073C
:1003900001D512A502E0490704D511A5012401E009
:1003A000FFF7DBFF00210A2206F1240709E0B0FB7A
:1003B000F2FCB0FBF2F302FB1C003030785418461C
:1003C000491C0028F3D123462A463046BDE8F041B7
:1003D00000F060B9000000002D0000002B000000BC
:1003E0002000000070B504460D4621461068FFF756
:1003F000B4FF2188090502D50F4A7A4402E00E4A6B
:100400007A440E32002104F1240305E000F00F06C7
:100410000009965D5E54491C0028F7D1207800231E
:10042000000704D5702D02D009B1022311322046F5
:10043000BDE8704000F02EB9143600002DE9F047F9
:100440004FF0000A89460446C0F820A02046E16823
:100450008847002876D0252806D0D4E90121904786
:10046000206A401C2062F1E7E168204600268847A8
:10047000C4F81CA005460027C4F818A02A2D09D0EE
:10048000284601F020FC38B304EB8708303DC8F85B
:10049000185019E059F8041B204604EB87029161BB
:1004A000E1688847012F054618D1E069002820DA65
:1004B00026F020061DE0D8F8180000EB800005EBC0
:1004C00040003038C8F818002046E16888470546E3
:1004D00001F0F9FB0028EED1012F0AD02E2D08D112
:1004E0002046E16888477F1C0546022F46F020061B
:1004F000C4DBA069002803DA404246F00106A0618F
:10050000F00701D026F010066C2D0AD0682D08D017
:100510004C2D39D06A2D35D0742D35D07A2D33D06D
:1005200016E0E1682F4620468847B84205460AD1C2
:100530006C2F27D04FF48060E1680643204688473F
:10054000054605E027E06C2F1AD04FF48070064373
:100550000DB3A5F14100192802D8203546F40066F4
:100560004A462946204626604E46FFF747FE80B1A0
:1005700001280BD0F61D26F0070000F1080965E7F9
:100580004020E4E78020D7E70020D5E706F1040902
:100590005CE7284661E7206ABDE8F0874FF000027B
:1005A00000B5134694469646203922BFA0E80C5069
:1005B000A0E80C50B1F12001BFF4F7AF090728BF44
:1005C000A0E80C5048BF0CC05DF804EB890028BFC0
:1005D00040F8042B08BF704748BF20F8022B11F0E9
:1005E000804F18BF00F8012B704770477047704765
:1005F00000487047480500207047704770477047B3
:1006000038B504460A4600206946AFF3008000284A
:1006100008BF38BD02460099204600F0C3F801200B
:1006200038BD012000F0DCB8F8B5AFF30080054616
:1006300000200C46102000BF0646A819A0420DD984
:10064000324669460020AFF30080070008BF00F083
:10065000C7F80098A04218BF0546C419FFF7C8FFA5
:1006600005600746F01D20F007004619284600F0F7
:100670000AF8B44208BFF8BDA21B31463868BDE88D
:10068000F84000F08FB800210160C0E90110704708
:10069000102070472DE9F0470D46994692460446D2
:1006A00000F124080168880604D5E06921F01001F2
:1006B000216000E00120A84201DD471B00E0002787
:1006C000A1697A1902EB0900081AA0612078C00616
:1006D00002D42046AFF30080002608E0D4E90121CF
:1006E0001AF806009047206A401C761C20624E458E
:1006F000F4DB2078C0060AD52046AFF3008006E080
:10070000D4E9012130209047206A401C2062381E25
:10071000A7F10107F4DC07E0D4E9012118F805008E
:100720009047206A401C2062281EA5F10105F3DCD9
:100730002046AFF300802078000602D50220BDE8F5
:10074000F0870120FBE7000001694A1C026108787C
:10075000704700B58FB0CDE9013100210591054901
:100760007944CDE9031011466846FFF767FE0FB0E4
:1007700000BD0000E5FFFFFF074B70B50D467B4451
:10078000FFF7E7FF0446284600F026F810B14FF0C7
:10079000FF3070BD204670BD4F1B00000048704701
:1007A00040050020034640688C46002818BF884258
:1007B0003CBF03464068F8D318681844884207D005
:1007C0000CF1030020F00700001D411A521A0146E7
:1007D000081D0A60FFF784BD007B00F080007047B1
:1007E00010B500F035F8BDE8104000F02BB87546A4
:1007F000FFF7D4FFAE4605006946534620F00700D8
:10080000854618B020B5FFF729FDBDE820404FF020
:1008100000064FF000074FF000084FF0000B21F0EA
:100820000701AC46ACE8C009ACE8C009ACE8C009B7
:10083000ACE8C0098D4670470446AFF300802046FF
:10084000FFF7F7FC002801D001F044BA7047000020
:1008500010B5012805D0002103A000F021F80120E7
:1008600010BD09A1F8E7000053494752544D454DCA
:100870003A204F7574206F662068656170206D6541
:100880006D6F7279000000003A2048656170206D3C
:10089000656D6F727920636F727275707465640034
:1008A00070B505460C460A2000E06D1C01F014FAF4
:1008B00035B128780028F8D102E0641C01F00CFA68
:1008C00014B120780028F8D1BDE870400A2001F06A
:1008D00003BA000010B5012000F076F801280BD112
:1008E0000649087000200649087006490870064944
:1008F0000870012000F062F810BD00000000002028
:1009000001000020020000200300002010B5042098
:1009100000F05AF801280DD1002007490870012085
:10092000064908700020064908700649087004202E
:1009300000F044F810BD000000000020010000207D
:10094000020000200300002010B5082000F03CF851
:1009500001280DD1002007490870074908700120BF
:1009600006490870002006490870082000F026F8A3
:1009700010BD000000000020010000200200002047
:100980000300002010B5102000F01EF801280CD143
:1009900000200649087006490870064908700120C1
:1009A00005490870102000F009F810BD0000002073
:1009B000010000200200002003000020014908601F
:1009C00070470000143C014001460020034A1268B1
:1009D0000A400AB1012000E000207047143C0140A9
:1009E000002123498279002A3AD00A461268036816
:1009F0009A430B461A600A1D126803689A430B1D3E
:100A00001A60027911440A6803681A430A60184A96
:100A10000832126803689A43154B08331A601A1D8E
:100A2000126803689A43124B0C331A604279102AF9
:100A30000ED11A1F126803681A430D4B08331A604F
:100A40001A1D126803681A43094B0C331A600DE033
:100A50000749427911440A6803681A430A6005E0AD
:100A6000027911440A6803689A430A6070470000DB
:100A7000003C014070B504460E468CB1206878B148
:100A80002568D5E9001088472068806820602068C4
:100A900008B9002030602846FFF722FC012070BD15
:100AA0000020FCE72DE9F0410746884616461D4622
:100AB0000C20FFF7E6FB044624B910A002F09EFDCF
:100AC000BDE8F0812760C4F804800020A0602EB14A
:100AD000306818B915B134602C600CE046B130684C
:100AE00030B12DB1286818B1286884602C6002E00C
:100AF00009A002F083FD00BFE2E700004576656EC5
:100B0000745F507573683A206D616C6C6F6320661A
:100B100061696C65640A00004576656E745F5075A6
:100B200073683A206576656E745F717565756520CA
:100B30006F72206576656E745F71756575655F743B
:100B400061696C206973204E554C4C0A000000000E
:100B5000F0B50A4600210023002400BF3DE0012536
:100B600005FA01F3156805EA03049C4234D10568CF
:100B70004F000326BE40B543056015794E00B540D1
:100B80000668354305601579012D02D01579022DCF
:100B900016D185684F000326BE40B5438560557960
:100BA0004E00B540866835438560456801268E4015
:100BB000B5434560456896798E40B6B23543456089
:100BC000C5684F000326BE40B543C560D5794E00C9
:100BD000B540C6683543C560491C1029BFD3F0BD78
:100BE000F0B5002300244D07ED0E02FA05F3CE10F8
:100BF00000F1200555F826504E07F70E0F26BE408F
:100C0000B543CF1000F1200646F82750CE1000F172
:100C1000200555F8265045EA0304CE1000F12005C2
:100C200045F82640F0BD0246002013690B400BB189
:100C3000012000E000207047418370470183704726
:100C400070B504460D46192C70D2DFE804F00D147F
:100C50001B222930373E454C535A616870777E8598
:100C60008C939AA1A8AFB600594B5A4A29465A48C4
:100C7000FFF718FFA9E0564B564A29465748FFF799
:100C800011FFA2E0524B534A29465548FFF70AFF8D
:100C90009BE04F4B4F4A29465248FFF703FF94E031
:100CA0004B4B4C4A29465048FFF7FCFE8DE0484B21
:100CB000484A29464D48FFF7F5FE86E0444B454A31
:100CC00029464B48FFF7EEFE7FE0414B414A29465B
:100CD0004848FFF7E7FE78E03D4B3E4A2946464844
:100CE000FFF7E0FE71E03A4B3A4A29464348FFF7E6
:100CF000D9FE6AE0364B374A29464148FFF7D2FE13
:100D000063E0334B334A29463E48FFF7CBFE5CE0B5
:100D10002F4B304A29463C48FFF7C4FE55E02C4B88
:100D20002C4A29463948FFF7BDFE4EE04CE0284BDF
:100D3000284A29463648FFF7B5FE46E0244B254AA7
:100D400029463448FFF7AEFE3FE0214B214A2946B1
:100D50003148FFF7A7FE38E01D4B1E4A29462F48B1
:100D6000FFF7A0FE31E01A4B1A4A29462C48FFF73C
:100D700099FE2AE0164B174A29462A48FFF792FEA9
:100D800023E0134B134A29462748FFF78BFE1CE04C
:100D90000F4B104A29462548FFF784FE15E00C4BFF
:100DA0000C4A29462248FFF77DFE0EE0084B094A0F
:100DB00029462048FFF776FE07E0054B054A2946FD
:100DC0001D48FFF76FFE00E000BF00BF70BD0000D0
:100DD0004400002040000020111F000839250008B1
:100DE000E5240008D51D0008B91D00087922000877
:100DF0005D220008912200082D1E0008C11E000877
:100E0000611E00083D220008612F0008B12F000874
:100E1000F12F0008212F0008A12E0008612E0008E4
:100E2000E12E0008E929000879290008612D000851
:100E3000C12D0008112E0008F528000870B500210A
:100E400000230F22C4781CB3174C246804F4E06418
:100E5000C4F5E064C4F30721C1F10404E3B20A411C
:100E600044789C40E1B28478144021430C07210E61
:100E70000E4C05786155047804F01F050124AC4040
:100E800005786D11AD0005F1E025C5F8004109E0D8
:100E9000047804F01F050124AC40054D0678761156
:100EA00045F8264070BD00000CED00E000E400E0D5
:100EB00080E100E002490143024A116070470000EE
:100EC0000000FA050CED00E00149086270470000DF
:100ED00000000E4229B1064A12680243044B1A6010
:100EE00004E0034A12688243014B1A607047000015
:100EF0003038024029B1064A12680243044B1A6096
:100F000004E0034A12688243014B1A6070470000F4
:100F10004038024029B1064A12680243044B1A6065
:100F200004E0034A12688243014B1A6070470000D4
:100F300044380240F0B5002100220024022500269A
:100F40000223324F3F6807F00C0121B1042905D07C
:100F5000082937D105E02E4F076036E02D4F076096
:100F600033E02A4F3F1F3F68C7F38056274F3F1F8C
:100F70003F6807F03F036EB1264FB7FBF3F7DFF88A
:100F80008CC0ACF1040CDCF800C0CCF3881C07FB6F
:100F90000CF40CE01E4FB7FBF3F7DFF870C0ACF1B8
:100FA000040CDCF800C0CCF3881C07FB0CF4174FD2
:100FB0003F1F3F68C7F301477F1C7D00B4FBF5F777
:100FC000076002E0124F076000BF00BF0F4F3F688D
:100FD00007F0F0010909104F7A5C0768D7404760B5
:100FE0000A4F3F6807F4E051890A0B4F7A5C476863
:100FF000D7408760054F3F6807F46041490B064FB3
:101000007A5C4768D740C760F0BD000008380240EE
:101010000024F40000127A00CC00002010B5014634
:101020000022002300204A11012A02D10A4C236821
:1010300008E0022A03D1084C7034236802E0064C11
:101040007434236801F01F02012494401C400CB149
:10105000012000E0002010BD003802400021094AB4
:1010600011701170012802D0042808D103E0012179
:10107000044A117004E00521024A117000E000BF2B
:1010800000BF704770380240014908607047000097
:101090003C0E4742002100F44072B2F5407F08D177
:1010A000094A116821F4F811084A02401143064A1E
:1010B0001160054A68321268C0F30B031A43024BF1
:1010C00068331A607047000008380240FFFCFF0FC9
:1010D00038B502460024009400230020CA24184D8D
:1010E0002C6053242C6041B1154C1C3C24681443E3
:1010F000134D1C3D2C6001201EE0114C1C3C24684B
:1011000094430F4D1C3D2C6000BF0D4C183C2468CF
:1011100004EA1223009C641C0094009CB4F5803FF8
:1011200001D0002BF1D0064C183C246804EA1224AC
:101130000CB9002000E00120FF24014D2C6038BDD7
:101140002428004010B54FF4807000F091F8012879
:101150000BD10521054801F073F84FF4807000F0C1
:1011600021F84FF40030FFF729FC10BDF91C0008EE
:10117000014600BF080900EB8000420001F00F00AB
:101180001044C0B270470146002204E0501CC2B2B5
:10119000A1F10A00C1B20A29F8DA100741EA106089
:1011A0007047000081B241F08001044A126802F0E9
:1011B000800262EA0101014A116070470C28004078
:1011C00008B50022009200200021104A126802F0A7
:1011D0004002CAB9421E0D4B1A6000BF0B4A12688A
:1011E00002F04001009A521C0092009AB2F5803F32
:1011F00001D00029F2D0054A126802F040020AB17B
:10120000012002E0002000E0012008BD0C28004081
:101210000348006820F08000014908607047000022
:101220000C28004070B506460C4600250E480068A4
:101230000E4900EA0105280CE070C5F30420607037
:1012400005F03F00A070C5F3423020705EB9E07831
:10125000FFF78EFFE0706078FFF78AFF6070A0787C
:10126000FFF786FFA07070BD042800403FFFFF001D
:1012700010B5014600200022054B1B68054C03EA0F
:10128000040202EA01030BB1012000E0002010BDBE
:101290000C2800407F3F010070B506460C46002533
:1012A0000F4800680F4900EA0105C5F305402070AA
:1012B000C5F30620607005F07F00A07005F4800083
:1012C000000CE0705EB92078FFF752FF2070607864
:1012D000FFF74EFF6070A078FFF74AFFA07070BD67
:1012E000002800407F7F7F0030B504460025CA20DB
:1012F0001549086053200860FFF762FF00B91DE040
:1013000011481C38006820F040000F491C39086063
:1013100008460068216808430B491C3908600A49DF
:101320001439A068086008460068A18840EA0140B6
:10133000054914390860FFF76BFF0125FF200249BA
:101340000860284630BD00002428004008B501464A
:101350000020009004480090009800EB810000906D
:101360000098006808BD0000502800402DE9F041B9
:1013700005460E461446002765B93648006800F059
:10138000400000B102E00020E07000BFA06800B99A
:1013900019E018E02F48006800F0400020B12078E4
:1013A000FFF7E6FE074602E00020E07000BFA068FD
:1013B00020B9207BFFF7DCFE074604E0207BFFF727
:1013C000D7FE074600BF95B120780004617840EA57
:1013D0000120A1780843E17840EA0140217B40EAFE
:1013E0000160A1680843616840EA01071BE02078BA
:1013F000FFF7C9FE4FEA00486078FFF7C4FE48EAED
:101400000028A078FFF7BFFE48EA0008E07848EA25
:101410000048207BFFF7B7FE48EA0060A168084358
:10142000616840EA0107CA200A491C31086053205C
:101430000860B6F5807F03D106481430076002E0EB
:10144000044818300760FF2002491C310860BDE8DD
:10145000F0810000082800402DE9F04105460C46C7
:10146000002600274DB9607800F01000102804D144
:10147000607820F010000A30607005B908E06078EC
:10148000FFF776FE0646A078FFF772FE064600BF1D
:1014900055B1E0780004617840EA0120A178084362
:1014A000217840EA413611E0E078FFF76CFE4FEA20
:1014B00000486078FFF767FE48EA0028A078FFF749
:1014C00062FE48EA0008207848EA4036CA201249FD
:1014D000086053200860FFF773FE08B9002714E086
:1014E0000E4830400C4920390860FFF791FE0A4849
:1014F0001C38006800F0200030B900F079F808B915
:10150000002702E0012700E00127FF2002490860D0
:101510003846BDE8F0810000242800403FFFFF006E
:101520002DE9F04105460C46002600274DB92E480E
:10153000006800F0400000B102E00020E07000BF51
:101540000DE02948006800F0400020B12078FFF746
:101550000FFE064602E00020E07000BF00BF55B15C
:1015600020780004617840EA0120A1780843E178FE
:1015700040EA014611E02078FFF705FE4FEA0048F7
:101580006078FFF700FE48EA0028A078FFF7FBFD2F
:1015900048EA0008E07848EA0046CA2012491C31AF
:1015A000086053200860FFF70BFE08B9002713E01E
:1015B0000E4830400C4908390860FFF729FE0A48F8
:1015C000006800F0200030B900F012F808B90027D8
:1015D00002E0012700E00127FF2003491C310860D9
:1015E0003846BDE8F0810000082800407F7F7F007A
:1015F00008B50022009200200021CA22134B1A6075
:1016000053221A60114A183A126822F0A0020F4BB6
:10161000183B1A6000BF0D4A183A126802F0200108
:10162000009A521C0092009AB2F5003F01D00029A6
:10163000F1D0064A183A126802F020020AB10120DD
:1016400000E00020FF22014B1A6008BD2428004062
:1016500008B500220092044A0092009A02EB800230
:101660000092009A116008BD5028004030B5002259
:101670008B071C0F0F2303FA04F20B4B8C1053F84B
:1016800024309343084C8D1044F8253023468C10A9
:1016900053F824308C07240F00FA04F42343024C3F
:1016A0008D1044F8253030BD083801400CB50020BD
:1016B000019000903448006840F48030324908605E
:1016C00000BF3148006800F4003000900198401CD1
:1016D0000190009818B90198B0F5A04FF1D12A48AF
:1016E000006800F4003010B10120009001E00020FB
:1016F00000900098012846D123484030006840F00F
:1017000080502149403108602048006840F4404042
:101710001E4908601C48083000681B4908310860F1
:101720000846006840F4004008600846006840F43D
:10173000A05008601648091F0860081F006840F0A4
:101740008070091F086000BF0F48006800F000703B
:101750000028F9D040F205700E4908600A480830A8
:10176000006820F003000849083108600846006856
:1017700040F00200086000BF03480830006800F035
:101780000C000828F8D10CBD003802400070004061
:1017900008544007003C0240042808D14FF0E021E3
:1017A000096941F004014FF0E022116107E04FF0B8
:1017B000E021096921F004014FF0E0221161704736
:1017C00010B51548006840F47000134908601348CC
:1017D000006840F001001149086000200F490831FD
:1017E00008600E4800680E4908400C4908600D4822
:1017F000091D0860081F006820F48020091F086088
:10180000002006490C310860FFF750FF4FF00060E0
:1018100001498039086010BD88ED00E000380240C1
:10182000FFFFF6FE1030002410B50121034800F040
:101830006EF80121014800F067F810BD000001407A
:1018400010B50121880700F062F888B10B480078D4
:10185000C043C0B20949087028B14FF480610848FC
:10186000FFF7ECF904E04FF480610548FFF7E4F975
:101870000121880700F048F810BD00000500002095
:101880000014024010B501210D4800F040F888B165
:101890000C480078C043C0B20A49087028B14FF420
:1018A00000510948FFF7CAF904E04FF40051064817
:1018B000FFF7C2F90121024800F026F810BD000030
:1018C00000040040060000200010024010B5012175
:1018D0000B4800F01CF868B100F03CFF28B94FF449
:1018E00080710848FFF7AAF904E04FF480710548B9
:1018F000FFF7A2F90121024800F006F810BD000030
:101900000004014000140240CA430282704730B50F
:101910000246002000230024158A05EA0103958968
:1019200005EA010413B10CB1012000E0002030BD34
:101930004163704770B504463748006818B93748A6
:101940000068354908600A2C09D1344800683249DA
:1019500008600020324908603249087070BD314883
:10196000007818B3302C12DB392C10DCA4F13000D5
:101970002B49096801EB810100EB4100284908600F
:1019800008460068642801DD64200860E6E7244812
:10199000016824480078FFF753F9002021490870B6
:1019A0001F4908601D4800681B490860204600F078
:1019B0001FFA0546002D28DB1748006850F825005F
:1019C00018B31548006850F8250013490860084608
:1019D000006890F87E01E0B10846006890F87C014C
:1019E000104908700C48006890F87D0188B94FF0E4
:1019F000FF310C480078FFF723F9002009490870EF
:101A0000064800680449086003E004480068024989
:101A1000086000BFA2E70000A80000203C000020F2
:101A2000AC000020B000002010B540F2255109485C
:101A300000F086F801280CD1064800F03BF9C4B24A
:101A40002046FFF777FF40F22551024800F050F89A
:101A500000BF10BD0010014010B540F225510948EB
:101A600000F06EF801280CD1064800F023F9044676
:101A7000E0B201F0B1FD40F22551024800F038F823
:101A800000BF10BD0044004010B5002440F22551B5
:101A9000124800F055F801281FD1104800F00AF94B
:101AA000C4B20F490868411C0D4A11600D490C541D
:101AB0000D48006820B17D2C02D101200B4908603F
:101AC00007480068B0F5007F02D30120074908608D
:101AD00040F22551014800F00BF810BD00480040CD
:101AE0001C000020DC020020240000202000002038
:101AF00010B50022002340F66A14A14200D100BFB5
:101B00000A1201249440A3B2DC43048010BD21B129
:101B1000828942F40052828104E082894DF6FF738B
:101B20001A408281704702460020B1F5007F00D143
:101B300000BF13880B400BB1012000E0002070476C
:101B400070B50246002400230025002040F66A16E6
:101B5000B14200D100BFC1F3421501F01F030126BD
:101B600006FA03F3012D02D19689334006E0022DD7
:101B700002D1168A334001E0968A33400C120126C6
:101B800006FA04F41688344013B10CB1012000E0C9
:101B9000002070BDF0B5034600240026002500207B
:101BA00040F66A17B94200D100BF1846C1F342148B
:101BB00001F01F06012707FA06F5012C01D10C30B0
:101BC00004E0022C01D1103000E014301AB1076893
:101BD0002F43076002E00768AF430760F0BD0000D5
:101BE0002DE9FF4705460E460024A14600BFA0464A
:101BF000B08900B100BF2C8A24F44054F08804431B
:101C00002C82AC8941F20C608443B088318908434E
:101C1000718908430443AC81AC8A24F44074B089D0
:101C20000443AC826846FFF785F92048854202D01C
:101C30001F48854202D1DDF80C9001E0DDF80890E4
:101C4000A88900F4004040B109EBC90000EB09107D
:101C500031684900B0FBF1F707E009EBC90000EB80
:101C6000091031688900B0FBF1F76420B7FBF0F090
:101C700004012009642101FB1078A88900F40040C8
:101C800040B1322000EBC800B0FBF1F000F00700DB
:101C9000044308E0322000EB08106421B0FBF1F0AF
:101CA00000F00F0004432C81BDE8FF8700100140C5
:101CB0000014014001468888C0F308007047C1F352
:101CC00008028280704730380A2801D2012070470C
:101CD0000020704700BFFEE710B5044600BF80211A
:101CE0000448FFF720FF0128F9D1A1B20148FFF70E
:101CF000E6FF10BD0010014010B50446002C00DACC
:101D0000012438E04FF400711D48FEF795FF4FF4B1
:101D100080711B48FEF792FF642000F059F94FF4E0
:101D200000711748FEF78AFF4FF480711448FEF7E0
:101D300083FF642000F04CF94FF400711048FEF767
:101D40007BFF4FF480710E48FEF778FF642000F0AF
:101D50003FF94FF400710A48FEF770FF4FF48071AD
:101D60000748FEF769FF4FF4FA6000F031F94FF4CD
:101D7000FA6000F02DF92000A4F10104C2D110BDD9
:101D8000001402401CB501212020FFF7A3F8012018
:101D90008DF8040000208DF8060002208DF8050063
:101DA0008DF80700C001009069460248FEF7D0FE9A
:101DB0001CBD00000014024010B50446012C04D1E3
:101DC00001020348FEF738FF00E000BF00BF10BD6E
:101DD0000014024010B50446012C04D1010203484E
:101DE000FEF72CFF00E000BF00BF10BD0014024052
:101DF0000146202901DB7E2902DD4FF0FF307047CC
:101E0000A1F12000FBE7000000200449087004490C
:101E100008700449087004490870704700000020E9
:101E200001000020020000200300002010B504463D
:101E300000200349087003A001F0E0FB10BD000082
:101E400018000020434F322053656E736F7220419B
:101E500075746F20436F6E74726F6C0D0A00000012
:101E600010B504460A48007858B90AA001F0C6FB2C
:101E70000B4801680BA0FEF75BFA0BA001F0BEFB5C
:101E800005E00AA001F0BAFB07A001F0B7FB10BD06
:101E900018000020434F322056616C75653A2000CF
:101EA00014000020256400000D0A0000434F32207A
:101EB00073656E736F7220776173206F66660000C2
:101EC00010B5044601200349087003A001F096FBF9
:101ED00010BD000018000020434F322053656E7380
:101EE0006F72204F666620436F6E74726F6C0D0ABE
:101EF0000000000001460A2091FBF0F200FB1210E6
:101F00000A2291FBF2F240EA0210C0B270470000D0
:101F100010B5044601A001F071FB10BD4465666177
:101F2000756C742048616E646C65720D0A00000067
:101F30004FF0E021096921F001014FF0E022116129
:101F4000C0EBC00101EB41010A22B1FBF2F1491ED5
:101F50004FF0E0225161002191611146096941F081
:101F60000101116100BF4FF0E021096901F48031E6
:101F70000029F8D04FF0E021096921F001014FF06C
:101F8000E022116170474FF0E021096921F0010161
:101F90004FF0E022116145F208214143491E516191
:101FA000002191611146096941F00101116100BFF1
:101FB0004FF0E021096901F480310029F8D04FF099
:101FC000E021096921F001014FF0E0221161704721
:101FD0004FF0E021096921F001014FF0E022116189
:101FE00045F208214143491E51610021916111468A
:101FF000096941F00101116100BF4FF0E021096959
:1020000001F480310029F8D04FF0E021096921F076
:1020100001014FF0E022116170474FF0E0210969A2
:1020200021F001014FF0E0221161C0EBC00101EB92
:102030004101491E5161002191611146096941F038
:102040000101116100BF4FF0E021096901F4803105
:102050000029F8D04FF0E021096921F001014FF08B
:10206000E0221161704710B500F00CFD10BD0000BA
:102070002DE9F04105460E460324271F00F01EFE01
:102080002946002000F0A6FD00F04AFD044614B1E8
:102090002046BDE8F081304600F0D8FD00F040FD5C
:1020A00004460CB12046F4E700F008FE2946012062
:1020B00000F090FD00F034FD04460CB12046E8E746
:1020C00000F056FD074600BF012000F0C5FC00BF30
:1020D00000BF4FF480701449088000BF0320FFF751
:1020E00027FF00BF4FF400700F49891E088000BF12
:1020F0000120FFF71DFF00BF4FF480700A49891EC1
:10210000088000BF0620FFF713FF00BF4FF4807068
:102110000549088000BF0D20FFF70AFF00BF00F04F
:10212000F3FD3846B5E700001A04024070B5FFF72A
:102130009AFF0F220021502000F054F805461DB1EF
:1021400029460BA0FEF7F4F80A20FFF71CFF002138
:102150005020FFF78DFF04460F2C04D021460CA021
:10216000FEF7E6F803E0214616A0FEF7E1F870BDA1
:10217000656570726F6D5F77726974655F6279749F
:1021800065206661696C65643A25640A0000000098
:10219000656570726F6D5F726561645F62797465A9
:1021A000206661696C65642C20726561643A202543
:1021B000642C2065787065637465643A2031350A53
:1021C00000000000656570726F6D20746573742087
:1021D0007061737365642C20726561643A202564B4
:1021E0000A0000002DE9F04105460E46174603247B
:1021F00000F064FD2946002000F0ECFC00F090FCAB
:10220000044614B10420BDE8F081304600F01EFD04
:1022100000F086FC04460CB10520F4E7384600F0D7
:1022200015FD00F07DFC04460CB10620EBE700F044
:102230006BFD0A20FFF7A7FE2046E4E77047000089
:1022400070B504460D46034B034A29462046FEF767
:1022500029FC70BD440000204000002010B5044659
:10226000012C04D19FED030A00F05CFA00E000BFEE
:1022700000BF10BD0000000010B50446012C04D1C1
:10228000B7EE000A00F04EFA00E000BF00BF10BD3C
:1022900010B52DED068B0446204601F045FB41ECC0
:1022A0001A0B9FED090B53EC102B01F0E5F941ECF3
:1022B000190B01F0AFF908EE100AB0EE480A00F071
:1022C00031FABDEC068B10BD000000000000594043
:1022D00070B504460D4600BF80210548FFF723FC7A
:1022E0000128F9D1A1B20248FFF7E9FC204670BDF0
:1022F0000010014010B54FF4A060FEF7DBFD00F0C8
:10230000B5F800F013F800F033F800F091FEFFF795
:1023100039FD4FF4E13001F007F900F015FF00F04E
:1023200043FAFFF7A0FE00F0A5FF10BD1CB5012188
:102330001120FEF7CFFD00208DF804000120009051
:1023400000208DF8070069460748FEF701FC0020D1
:102350008DF804001C20009000208DF807006946CD
:102360000248FEF7F5FB1CBD0000024000100240D1
:1023700000B585B001211120FEF7ACFD01218803D5
:10238000FEF7C8FD00208DF810000120039000200A
:102390008DF8130003A93348FEF7DAFB00208DF80F
:1023A00010001C20039000208DF8130003A92E4874
:1023B000FEF7CEFB00210846FFF758F90221042062
:1023C000FFF754F903210420FFF750F904210846D0
:1023D000FFF74CF91D20019000208DF808000C201B
:1023E0008DF8090001208DF80A0001A8FEF7F8FA1F
:1023F00006208DF8000000208DF801008DF8020005
:1024000001208DF803006846FEF718FD08208DF8BE
:10241000000001208DF801008DF802008DF8030006
:102420006846FEF70BFD09208DF8000002208DF8AC
:1024300001008DF8020001208DF803006846FEF7C8
:10244000FDFC0A208DF8000002208DF801008DF8B7
:10245000020001208DF803006846FEF7EFFC05B08E
:1024600000BD000000000240001002401CB5012128
:102470001020FEF72FFD01212020FEF72BFD01206B
:102480008DF8040000208DF8060002208DF805006C
:102490008DF807004FF4C040009069460F48FEF7E2
:1024A00057FB4FF4C060009069460D48FEF750FBA3
:1024B0004FF400710A48FEF7C1FB4FF480610848F1
:1024C000FEF7BCFB4FF400510448FEF7B7FB4FF496
:1024D00080410248FEF7B2FB1CBD00000010024024
:1024E0000014024010B50446012C06D0022C0AD07C
:1024F000032C0ED0042C18D111E04FF400710C48BD
:10250000FEF79CFB12E04FF480610948FEF796FB52
:102510000CE04FF400510748FEF790FB06E04FF443
:1025200080410448FEF78AFB00E000BF00BF10BDF9
:10253000001402400010024010B50446012C06D0E1
:10254000022C0AD0032C0ED0042C18D111E04FF429
:1025500000710C48FEF770FB12E04FF480610948EF
:10256000FEF76AFB0CE04FF400510748FEF764FBEE
:1025700006E04FF480410448FEF75EFB00E000BF38
:1025800000BF10BD00140240001002401FB5FFF74D
:10259000B1FE31A30FCB8DE80F005BE0324800782D
:1025A000012812D100BF582001F016F80128FAD1F5
:1025B00000BF684601F022F80128FAD12BA0FDF7F0
:1025C000B7FEFFF7B3FDFFF71FFC2C48007801288A
:1025D00015D12B480078C043C0B22949087028B1F2
:1025E0004FF480612748FEF729FB04E04FF4806137
:1025F0002448FEF721FB00F017F9FFF705FC2248FD
:102600000078012812D100F0A5FD04463CB91F480E
:102610008378427801781E48FDF78AFE03E0214660
:102620001CA0FDF785FEFFF7EFFB00BF26480078F2
:1026300001280DD100F002FD04461CB923A0FDF7CE
:1026400077FE02E02CA0FDF773FEFFF7DDFB00BF75
:1026500000F046F9A2E7000048656C6C6F20576FE8
:10266000726C64210A000000000000204B455931C3
:1026700020507265737365640D0A0000010000202C
:102680000500002000140240020000202900002064
:102690003C3A000874656D70657261747572655FAF
:1026A00068756D69646974795F73656E736F725F65
:1026B0006D656173757265206661696C65642C2057
:1026C0007265743A25640A000300002074656D7019
:1026D000657261747572655F68756D696469747936
:1026E0005F73656E736F725F636865636B2073758C
:1026F00063636573730A000074656D70657261745D
:102700007572655F68756D69646974795F73656E0C
:10271000736F725F636865636B206661696C656483
:102720000A00000010B52DED028BB0EE408A9FED3F
:10273000070A28EE000ABCEEC00A10EE101A044880
:10274000FFF7F6F8BDEC028B10BD000000007A44E4
:102750000004004010B54FF400710248FEF763FA20
:1027600010BD0000000002401FB500214FF4807032
:10277000FEF7AEFC0446012C03D04FF0FF3004B04E
:1027800010BD6A464FF480710120FEF7EFFD012174
:102790000802FEF79DFC0446012C02D06FF00100F8
:1027A000EDE70120EBE700000EB501210807FEF779
:1027B000A1FB0120FEF788FB0020FEF7C7FD1949A9
:1027C000884200D10EBDFEF713FF16490020FEF728
:1027D0003FFF0120FEF742FC00BF4120FEF71EFC38
:1027E0000128FAD10002FEF755FC0120FEF74CFC4F
:1027F000FEF7FEFE002000907F200190FF20029057
:102800006846FEF771FD002308221621402000F0E3
:1028100054F8062308221146104600F03BF800BF8A
:10282000D0E700001152110000B585B004A90120C5
:10283000FEF7F8FC03A90120FEF72EFD9DF80E001F
:102840009DF80D109DF80C20CDE9002102909DF817
:1028500012309DF811209DF8131002A0FDF768FDBD
:1028600005B000BD52544320646174655F74696DA6
:10287000653A20256868782D256868782D25686870
:102880007820256868783A256868783A25686878F5
:102890000D0A0000F8B504460D4616461F468DF891
:1028A00003408DF801508DF802608DF80070694684
:1028B0000120FEF7D1FD40B2F8BDF8B504460D4643
:1028C00016461F468DF803408DF800508DF80160C4
:1028D0008DF8027069460120FEF722FE40B2F8BD75
:1028E00010B502490248FEF7C5F810BD44000020AB
:1028F0004000002070B505460120FEF7E5FA0120F2
:10290000FEF7C2FBFEF774FE09480FC8FFF72CFF65
:102910000446012C07D1064883784278017805A047
:10292000FDF706FD03E021460CA0FDF701FD70BD9B
:10293000BC0000207365745F616C61726D207375FB
:1029400063636573733A2020256868783A25686860
:10295000783A256868780D0A000000007365745F96
:10296000616C61726D206661696C65642C207265B2
:10297000743A25640D0A000070B505460120FEF783
:10298000A3FA0120FEF780FBFEF732FE094E3378F2
:10299000B2787178F078FFF77DFF0446012C03D1FF
:1029A00005A0FDF7C5FC03E0214608A0FDF7C0FC2B
:1029B00070BD0000B40000207365745F64617465CD
:1029C00020737563636573730D0A00007365745F2C
:1029D00064617465206661696C65642C207265743D
:1029E0003A25640D0A00000070B505460120FEF787
:1029F0006BFA0120FEF748FBFEF7FAFD094EB378AB
:102A000072783178F078FFF758FF0446012C03D133
:102A100005A0FDF78DFC03E0214608A0FDF788FC2A
:102A200070BD0000B80000207365745F74696D6547
:102A300020737563636573730D0A00007365745FBB
:102A400074696D65206661696C65642C20726574BB
:102A50003A25640D0A00000010B5044607480471C9
:102A60000020064988714FF4007008600020C8718A
:102A700048710348FEF76CF810BD00002C000020E0
:102A8000000402401CB501210220FEF723FA4FF496
:102A90004070009001208DF8040000208DF80600A1
:102AA0008DF805008DF8070069461C48FEF750F8C0
:102AB00000BF4FF480711948FEF7C0F84FF4007161
:102AC0001648FEF7BBF802204FF0E021096921F01B
:102AD00001014FF0E0221161C0EBC00101EB4101A7
:102AE000491E5161002191611146096941F00101BE
:102AF000116100BF00BF00BF4FF0E021096901F480
:102B000080310029F8D04FF0E021096921F001015E
:102B10004FF0E022116100BF00BF1CBD0004024065
:102B200010B501240020FFF797FF00BF60020F4996
:102B3000088000BF0320FFF7FBF900BF20020B490C
:102B4000088000BF0620FFF7F3F90848083800683E
:102B5000C0F3402400BF4FF480700449891C0880F2
:102B600000BF0D20FFF7E4F9204610BD1804024015
:102B700070B500250020FFF76FFF00BF4FF4007015
:102B80001349088000BF07241BE00D20FFF7D0F990
:102B900000BF4FF480700E49088000BF0620FFF789
:102BA000C7F90B4808380068C0F34020A04028430C
:102BB000C5B200BF4FF480700549891C088000BF72
:102BC000641E002CE1DA0320FFF7B2F9284670BD3D
:102BD0001804024070B506460C460120FFF73CFF82
:102BE00046EA4400C4B20320FFF7A2F9072527E014
:102BF00000BF44FA05F000F0010020B14FF400706E
:102C00001149088004E04FF400700F49891C0880C6
:102C100000BF0120FFF78CF900BF4FF480700A4914
:102C2000088000BF0620FFF783F900BF4FF48070D3
:102C30000549891C088000BF0D20FFF779F96D1E3A
:102C4000002DD5DA70BD00001804024070B50546AD
:102C50000120FFF701FF0320FFF76AF9072427E0AF
:102C600000BF45FA04F000F0010020B14FF40070FD
:102C70001149088004E04FF400700F49891C088056
:102C800000BF0120FFF754F900BF4FF480700A49DC
:102C9000088000BF0620FFF74BF900BF4FF480709B
:102CA0000549891C088000BF0D20FFF741F9641E0B
:102CB000002CD5DA70BD00001804024010B50120C8
:102CC000FFF7CAFE00BF4FF480700E49088000BFB6
:102CD00000BF4000088000BF0D20FFF729F900BFAA
:102CE0004FF400700749891C088000BF0620FFF7D9
:102CF0001FF900BF4FF480700249891C088000BF93
:102D000010BD00001804024010B50120FFF7A4FE1A
:102D100000BF4FF480701149088000BF00BF400021
:102D2000088000BF0320FFF703F900BF4FF4807055
:102D30000A49891E088000BF0620FFF7F9F800BF86
:102D40004FF400700549891E088000BF0620FFF778
:102D5000EFF80D20FFF7ECF810BD00001A04024058
:102D600010B504460C2C03DD40200849C87002E071
:102D700000200649C870E0B2FFF7BCF803490870AC
:102D80000846017802A0FDF7D3FA10BDBC00002070
:102D90007375626D69745F616C61726D2E5254431C
:102DA0005F416C61726D54696D652E5254435F488A
:102DB0006F7572733A20256868780D0A000000006C
:102DC00010B50446E0B2FFF795F80449487008468C
:102DD000417803A0FDF7ACFA10BD0000BC00002054
:102DE0007375626D69745F616C61726D2E525443CC
:102DF0005F416C61726D54696D652E5254435F4D35
:102E0000696E757465733A20256868780D0A00004C
:102E100010B50446E0B2FFF76DF804498870084623
:102E2000817803A0FDF784FA10BD0000BC000020EB
:102E30007375626D69745F616C61726D2E5254437B
:102E40005F416C61726D54696D652E5254435F53DE
:102E500065636F6E64733A20256868780D0A000018
:102E600010B50446E0B2FFF745F8044988700846FB
:102E7000817803A0FDF75CFA10BD0000B4000020CB
:102E80007375626D69745F646174652E5254435F3B
:102E9000446174653A20256868780D0A00000000D6
:102EA00010B50446E0B2FFF725F80449487008461B
:102EB000417803A0FDF73CFA10BD0000B4000020EB
:102EC0007375626D69745F646174652E5254435FFB
:102ED0004D6F6E74683A20256868780D0A0000000E
:102EE00010B50446E0B2FFF705F80449087008463B
:102EF000017803A0FDF71CFA10BD0000B40000200B
:102F00007375626D69745F646174652E5254435FBA
:102F10005765656B4461793A20256868780D0A0029
:102F200010B50446E0B2FEF7E5FF0449C870084654
:102F3000C17803A0FDF7FCF910BD0000B40000202B
:102F40007375626D69745F646174652E5254435F7A
:102F5000596561723A20256868780D0A0000000002
:102F600010B50446E0B2FEF7C5FF084908700C2C06
:102F700002DD4020C87002E000200449C870034808
:102F8000017803A0FDF7D4F910BD0000B8000020BF
:102F90007375626D69745F74696D652E5254435F19
:102FA000486F7572733A20256868780D0A00000032
:102FB00010B50446E0B2FEF79DFF0449487008468C
:102FC000417803A0FDF7B4F910BD0000B80000205F
:102FD0007375626D69745F74696D652E5254435FD9
:102FE0004D696E757465733A20256868780D0A001E
:102FF00010B50446E0B2FEF77DFF0449887008462C
:10300000817803A0FDF794F910BD0000B8000020FE
:103010007375626D69745F74696D652E5254435F98
:103020005365636F6E64733A20256868780D0A00F3
:1030300010B56FF00400FEF7AFFB10BD70B50024B3
:103040000025012000F0EAF84FF400713B48FDF73D
:10305000F3FD14204FF0E021096921F001014FF048
:10306000E022116145F2082110FB01F1491E516176
:10307000002191611146096941F00101116100BF10
:1030800000BF4FF0E021096901F480310029F8D038
:103090004FF0E021096921F001014FF0E0221161B8
:1030A00000BF4FF400712548FDF7C8FD1E20FEF754
:1030B000B4FF002000F0B2F802E00120FEF7ADFFFF
:1030C0001E481030006800F40070012804D120462A
:1030D000641C1B498842F0D31A48844202D94FF03D
:1030E000FF3070BD002403E0641C0120FEF795FF53
:1030F00012481030006800F4007010B91148844282
:10310000F2D31048844202D96FF00100E9E703E0EE
:103110006D1C0120FEF781FF08481030006800F4A4
:10312000007010B107488542F2D30648854202D9A3
:103130006FF00200D5E70020D3E70000001802403E
:1031400040420F00A086010010B501214020FDF78C
:10315000C1FE10BD2DE9FC41002500260020009095
:103160000190FFF76BFF074617B13846BDE8FC81B9
:1031700000243FE003E06D1C0120FEF74EFF2448D1
:10318000006800F4007010B922488542F3D321484A
:10319000854202D96FF00100E8E703E0761C0120C8
:1031A000FEF73BFF1A48006800F4007010B11948A0
:1031B0008642F3D31E2E1AD9E21704EB5272D210B4
:1031C0001DF802202146E31704EB5373DB10A4EB38
:1031D000C303C3F1070C012303FA0CF31A43D2B261
:1031E0002046E31704EB5373DB100DF80320641C37
:1031F00000250026282CBDDB9DF80200064908703A
:103200009DF8000048709DF8040088700020ADE72C
:1032100010180240A0860100290000201CB50446B9
:103220004FF40070009000208DF805008DF80440E8
:103230008DF807008DF8060069460248FDF788FC06
:103240001CBD00000018024010B54FF4C070FDF71F
:1032500018F804465CB14FF4BE712046FDF79EF9A4
:10326000002084F87C0184F87D0184F87E012046EA
:1032700010BD000010B540A000F0C0F9FFF7E4FF5A
:1032800040490860012211463FA000F023F90122C5
:1032900002213FA000F01EF9012203213FA000F00F
:1032A00019F90122042140A000F014F9012205219E
:1032B00040A000F00FF90122062140A000F00AF919
:1032C0000122072140A000F005F90122082141A0B8
:1032D00000F000F90122092141A000F0FBF80022D2
:1032E0000A2142A000F0F6F800220B2143A000F0D2
:1032F000F1F801220C2146A000F0ECF801220D218A
:1033000047A000F0E7F801220E2149A000F0E2F802
:1033100001220F214AA000F0DDF8012210214CA06B
:1033200000F0D8F8012211214DA000F0D3F80122BD
:1033300012214FA000F0CEF80022132150A000F07F
:10334000C9F80022142151A000F0C4F8012215216F
:1033500051A000F0BFF80122162153A000F0BAF8E6
:103360000122172154A000F0B5F80022182156A020
:1033700000F0B0F810BD0000747269655F696E6995
:10338000740D0A003C0000206C65642D6F6E2D00EA
:103390006C65642D6F66662D0000000062656570C7
:1033A0002D6F6E2D00000000626565702D6F6666E2
:1033B0002D00000066616E2D6F6E2D0066616E2D12
:1033C0006F66662D0000000066616E2D7370656586
:1033D000642D0000636F322D6175746F2D00000045
:1033E000636F322D6F66662D00000000636F322D13
:1033F0006765742D76616C756500000065737038C3
:103400003236362D6E65742D696E697400000000C9
:103410007375626D69742D74696D652D682D00007A
:103420007375626D69742D74696D652D6D2D000065
:103430007375626D69742D74696D652D732D00004F
:103440007375626D69742D646174652D792D00004A
:103450007375626D69742D646174652D6D2D000046
:103460007375626D69742D646174652D642D00003F
:103470007375626D69742D646174652D772D00001C
:103480007365742D74696D65000000007365742D9B
:1034900064617465000000007375626D69742D616C
:1034A0006C61726D2D682D007375626D69742D618C
:1034B0006C61726D2D6D2D007375626D69742D6177
:1034C0006C61726D2D732D007365742D616C61726A
:1034D0006D0000002DE9F04105460F469046114869
:1034E000046812E02878FEF783FC0646002E01DA15
:1034F0006D1C0AE054F8260018B9FFF7A5FE44F841
:10350000260054F826406D1C00BF28780028E9D119
:1035100084F87C7184F87D81012084F87E01BDE807
:10352000F08100003C00002010B588B00446012165
:103530001020FDF7EFFC01210846FDF7CBFC02202F
:103540008DF81C0000208DF81E004FF4C06006901E
:1035500000208DF81F0002208DF81D0006A91C48D0
:10356000FDF7F6FA072209211948FDF739FB072272
:103570000A211748FDF734FB02940020ADF80C0037
:10358000ADF81000ADF80E000C20ADF812000020D0
:10359000ADF8140002A90F48FEF722FB25208DF894
:1035A000040000208DF805008DF8060001208DF83C
:1035B000070001A8FDF742FC012240F22551054811
:1035C000FEF7E8FA01210348FEF7A1FA08B010BDA2
:1035D000000002400010014010B5044600BF8021E9
:1035E0000548FEF7A0FA0028F9D021460248FEF768
:1035F00066FB012010BD00000010014010B504461C
:1036000003E014F8010BFFF7E7FF20780028F8D15A
:10361000012010BD21F00042A2F16052B2F5801FDE
:1036200001F0004328BFD2F17F6C0BD95FEA001C88
:1036300043EAC20242EB507018BF704728BF20F027
:1036400001007047B2F5801FBCBF184670474FEAB3
:10365000410C1CF5001F02D2084600F0D5B970B528
:1036600000F079F900000089FFF7F6BF4FF0004045
:10367000A0F58000704700002DE9C04130B4DFF8AC
:10368000A0C23CEA111418BF3CEA131400F0EC800D
:1036900081EA03051CEA111444EAD57418BF1CEA38
:1036A000131500F0C780A4EB05044FF0004545EA70
:1036B000C12145EAC32341EA505143EA525304F180
:1036C0007F74994204F500344FEAC0204FEAC222C9
:1036D00008BF904200F09C804FEA13650FF240163D
:1036E000765D4FEA134506FB05F7C7F1807706FBC9
:1036F00007F74FEAD737A7FB03687642C8F580384B
:10370000A7FB06CE38BFA8F1010807FB08E64FF07B
:10371000000EA6FB028CE6FB03CEDCF1000CCEF122
:10372000004E38BFAEF1010EA6FB0C584FF000075B
:103730004FF00005E6FB0E87A1FB08C6A0FB07CEF5
:1037400016EB0E0645F10005E1FB076515F1E04EAD
:103750007EBFA4F580345FEA46066D4116F180070E
:1037600045F100054FEA17274FEA066647EA056765
:10377000A6F1DE46B6F1805F4FEA15251FD938461F
:1037800024F0010C05EBC471BCF1FE6F01EB0C11D0
:1037900002D8F0BCBDE8008124425CBF01F5801E68
:1037A0009EEAC47F02D4F0BCBDE80081244238D434
:1037B000F0BCA1F1C041BDE8004100F01AB94FEAE8
:1037C000D22242EA43524FEAD323A7FB02864FEAB2
:1037D000D02040EA415007FB03661EEA0E0F4FEA75
:1037E000D12105FB026658BFA6EB0056B6EB00568A
:1037F0004FEA520E4EEAC37E18EB0E0E56EB530EF6
:10380000BDD518EB02085E417F1C55F10005B6E7F7
:103810004FF480154FF000074FF000064FF00008FE
:10382000ADE7F0BC4FF0000001F1C04101F00041F4
:10383000BDE8008111EA0C1F0CEA131500D00CE062
:1038400013EA0C1F00F025804FF00000F0BC81EA65
:10385000030101F00041BDE80081F0BCBDE800417A
:1038600081EA030100F0C5B8F0BCBDE8004170B5C5
:1038700000F071F8097EFC3E00F007B881EA030110
:103880004FF0000001F00041704781EA030100F0B1
:10389000B0B8F0BCBDE800414FF0000021497047CE
:1038A000FFFDFBF9F7F5F4F2F0EEEDEBE9E8E6E405
:1038B000E3E1E0DEDDDBDAD8D7D5D4D3D1D0CFCD8C
:1038C000CCCBCAC8C7C6C5C4C2C1C0BFBEBDBCBBC5
:1038D000BAB9B8B7B6B5B4B3B2B1B0AFAEADACABC0
:1038E000AAA9A8A8A7A6A5A4A3A3A2A1A09F9F9E9A
:1038F0009D9C9C9B9A99999897979695959493934C
:10390000929191908F8F8E8E8D8C8C8B8B8A8989E2
:103910008888878786858584848383828281818065
:103920000000FF070000F87F10F0004248BF40424F
:10393000B0FA80F310FA03F10AD0C3F11D0303F5C6
:1039400080634FEA415002EB035202EBD1217047F2
:103950004FF0000070470EF1020E2EF0030E5EF8DD
:10396000046B364205D4012A43EB030515F5001F0D
:1039700012D8012841EB010C1CF5001F0CD80ED108
:103980004FEAD17C15F5001F0CEB4C0C0CF1020C2E
:1039900008BF4CEBD37C04E04FF0080C01E04FEA89
:1039A000D37C0CEB4C0526FA05F606F00706B6F1BB
:1039B000040C06D20EEB860CBDE870404CF0010CF6
:1039C0006047DFE80CF0090B02024FF000414FF0B6
:1039D0000000A1F5002170BD19461046012851EBE9
:1039E000010418BFD4F5001484BF002001F0004189
:1039F00070BD0808A0F500114FEA310170474FF083
:103A00004070E1EE100A7047FF2141EAD050C00536
:103A100070473031323334353637383941424344D8
:103A20004546403058003031323334353637383936
:103A300061626364656640307800000074656D7093
:103A4000657261747572655F68756D6964697479B2
:103A50005F73656E736F725F6D65617375726520FC
:103A6000737563636573732C2074656D7065726123
:103A7000747572653A25642C2068756D6964697483
:103A8000793A25642C20636865636B73756D3A25FC
:103A9000640A000066616E2D73706565642D000018
:103AA000636F322D6F66662D000000006C65642D1B
:103AB0006F66662D0000000066616E2D6F66662DD4
:103AC00000000000626565702D6F66662D000000C5
:103AD0006C65642D6F6E2D0066616E2D6F6E2D000E
:103AE000626565702D6F6E2D00000000636F322DD2
:103AF0006175746F2D000000636F322D6765742D42
:103B000076616C756500000064656661756C7400B3
:103B1000303B000800000020DC000000C401000869
:103B20000C3C0008DC000020C4080100E001000893
:103B30000000000000000000000000000000000085
:103B40000000000000000000000000000000000075
:103B50000000000000000000000000000000000065
:103B60000000000000000000000000000000000055
:103B70000000000000000000083B000800000000FA
:103B8000D03A000801000000AC3A00080100000033
:103B9000E03A000801000000C43A000801000000FB
:103BA000D83A000801000000B83A000801000000FF
:103BB000943A000801000000EC3A000801000000FF
:103BC000A03A000801000000F83A000800000000D8
:103BD00000FF0000000000000000000000000000E6
:103BE0000000000005050826160800001609004020
:103BF0000000008000000000000000000000000045
:0C3C000001020304010203040607080986
:0400000508000241AC
:00000001FF
